:100000000C94C0130C94E8130C94E8130C94E813AC
:100010000C94E8130C94E8130C94E8130C94E81374
:100020000C94E8130C94E8130C946B170C94DD17E4
:100030000C94E8130C94E8130C94E8130C94E81354
:100040000C94E8130C94E8130C94E8130C94E81344
:100050000C94E8130C94E8130C94E8130C94211BF3
:100060000C94E8130C94E8130C94E8130C94E81324
:100070000C94E8130C94E8130C94E8130C94E81314
:100080000C94E8130C94E8130C94E8130C94E81304
:100090000C94E8130C94E8130C94E8130C94E813F4
:1000A0000C94E8130C94E8130C94E813000000007F
:1000B000003E5B4F5B3E3E6B4F6B3E1C3E7C3E1CEE
:1000C000183C7E3C181C577D571C1C5E7F5E1C0034
:1000D000183C1800FFE7C3E7FF0018241800FFE7EB
:1000E000DBE7FF30483A060E2629792926407F05AE
:1000F0000507407F05253F5A3CE73C5A7F3E1C1CC4
:1001000008081C1C3E7F14227F22145F5F005F5F83
:1001100006097F017F006689956A6060606060946F
:10012000A2FFA29408047E040810207E2010080874
:100130002A1C08081C2A08081E101010100C1E0C7F
:100140001E0C30383E3830060E3E0E060000000011
:100150000000005F00000007000700147F147F14F8
:10016000242A7F2A1223130864623649562050003D
:1001700008070300001C2241000041221C002A1C29
:100180007F1C2A08083E0808008070300008080814
:100190000808000060600020100804023E51494534
:1001A0003E00427F400072494949462141494D3352
:1001B0001814127F1027454545393C4A49493141B9
:1001C000211109073649494936464949291E000087
:1001D00014000000403400000008142241141414DC
:1001E0001414004122140802015909063E415D59C8
:1001F0004E7C1211127C7F494949363E41414122D1
:100200007F4141413E7F494949417F090909013EFA
:10021000414151737F0808087F00417F4100204021
:10022000413F017F081422417F404040407F021C33
:10023000027F7F0408107F3E4141413E7F0909094A
:10024000063E4151215E7F09192946264949493216
:1002500003017F01033F4040403F1F2040201F3FDC
:100260004038403F63140814630304780403615961
:10027000494D43007F4141410204081020004141A3
:10028000417F04020102044040404040000307084F
:100290000020545478407F2844443838444444284B
:1002A000384444287F385454541800087E090218F2
:1002B000A4A49C787F0804047800447D400020407A
:1002C000403D007F1028440000417F40007C0478BE
:1002D00004787C080404783844444438FC18242406
:1002E0001818242418FC7C08040408485454542486
:1002F00004043F44243C4040207C1C2040201C3C03
:100300004030403C44281028444C9090907C4464F9
:10031000544C44000836410000007700000041368C
:10032000080002010204023C2623263C1EA1A16112
:10033000123A4040207A3854545559215555794144
:100340002154547841215554784020545579400C1B
:100350001E527212395555555939545454593955FC
:100360005454580000457C410002457D420001453F
:100370007C40F0292429F0F0282528F07C545545AC
:10038000002054547C547C0A097F4932494949323F
:100390003248484832324A4848303A4141217A3A54
:1003A00042402078009DA0A07D39444444393D401E
:1003B00040403D3C24FF2424487E4943662B2FFCCB
:1003C0002F2BFF0929F620C0887E09032054547979
:1003D000410000447D413048484A32384040227A4A
:1003E000007A0A0A727D0D19317D2629292F2826C7
:1003F0002929292630484D402038080808080808CF
:100400000808382F10C8ACBA2F102834FA00007B27
:10041000000008142A142222142A1408950022002D
:1004200095AA005500AAAA55AA55AA000000FF00E7
:10043000101010FF00141414FF001010FF00FF1024
:1004400010F010F0141414FC001414F700FF000056
:10045000FF00FF1414F404FC141417101F10101FD5
:10046000101F1414141F00101010F0000000001FC3
:10047000101010101F10101010F010000000FF10CE
:100480001010101010101010FF10000000FF1400CA
:1004900000FF00FF00001F10170000FC04F41414FC
:1004A0001710171414F404F40000FF00F7141414C8
:1004B00014141414F700F7141414171410101F1048
:1004C0001F141414F4141010F010F000001F101F6B
:1004D0000000001F14000000FC140000F010F010D9
:1004E00010FF10FF141414FF141010101F00000050
:1004F00000F010FFFFFFFFFFF0F0F0F0F0FFFFFF54
:100500000000000000FFFF0F0F0F0F0F38444438AA
:10051000447C2A2A3E147E02020606027E027E02E5
:1005200063554941633844443C04407E201E200604
:10053000027E020299A5E7A5991C2A492A1C4C7241
:1005400001724C304A4D4D303048784830BC625AC8
:10055000463D3E494949007E0101017E2A2A2A2A58
:100560002A44445F444440514A444040444A514034
:100570000000FF0103E080FF000008086B6B0836F5
:1005800012362436060F090F060000181800000066
:100590001010003040FF0101001F01011E00191D55
:1005A0001712003C3C3C3C00000000000102040823
:1005B0001020408000B00000A170E150964F2690BE
:1005C0000F1D070C009669004AE44A0048444000A9
:1005D000806810000F99FB8F99BDBBF977D4D4DFE9
:1005E0001F1A1AFE7F5D5DFF805A0000A0A4AA00BA
:1005F00010BA3400FF5953F3FF9B9B9EFFB9B99685
:10060000FF9595D19FF4940FFC295F91FF1838F85E
:10061000FF9294FFFF95D5F77FD5DDD7F18F81F15C
:10062000F788C8F779C6467909FD9B090196F80055
:10063000828182805071620077565600767637004C
:10064000A2B7730107720600782750007334740054
:10065000775176007F55F7004771100032477200DE
:100660007364730015A2750061679400009F606059
:10067000F4F2F6F2080B0002020201000904000085
:1006800001020200000524001001052401010104FB
:100690002402060524060001070581031000400915
:1006A000040100020A0000000705020240000007E2
:1006B0000583024000000403090412010002EF0256
:1006C000014041233680000101020301417264753B
:1006D000696E6F204C4C430041726475696E6F20E7
:1006E0004C656F6E6172646F00506F776572206F3A
:1006F000666620646F636B005265696E7374616C2B
:100700006C20646F636B20617070004F6E6C696E5B
:100710006520757064617465207265706F00436C4C
:100720006F636B0042726F77736520436F6C6C650B
:100730006374696F6E00D5F08D14A1C881CFD9F1B3
:10074000AF20003C53485554444F574E3E003C5553
:1007500050444154453E003C5245504F5550444151
:1007600054453E002020002D3E0024071E070B07A5
:10077000F806E90620003E0080400000000000006E
:100780000000000000000000000000000000000069
:100790000000000000000000000000000000000059
:1007A0000000000000000000000000000000000049
:1007B0000000000000000000000000000000000039
:1007C0000000000000000000000000000000000029
:1007D0000000000000FC020202E226262626222259
:1007E00022222222222222222222222222222222E9
:1007F000E2020202FC000000000000000000000015
:1008000000000000000000000000000000000000E8
:1008100000000000000000000000000000000000D8
:1008200000000000000000000000000000000000C8
:1008300000000000000000000000000000000000B8
:1008400000000000000000000000000000000000A8
:100850000000000000FF000000FF0000000000009A
:100860000000000000000000000000000000000088
:10087000FF002000FF00000000000000000000005A
:100880008040201008040201010101010101010161
:1008900001010101010101010101018141A151A9F0
:1008A00055ABFF0000000000000000000000000049
:1008B00000000000000000000000000000F8F8F058
:1008C000E0C0800000000000000000000000000008
:1008D0000000000000FF0000001F1010101010109A
:1008E0001010101010101010101010101010101008
:1008F0001F000700FF000000000000000000FEFFD6
:10090000FEFE1E1E1E1E1E1E1E1E1E1E1E1E1E5E07
:100910005E1EFEFEFEFEFEFEFEFE55AA55AA55AA6E
:1009200055AAFF0000000000000000FEFE5606AEC3
:100930000656AE56AE56AE56AEFEFEFEFEFFFFFFAC
:10094000FFFFFFFFFEFC7830000000000000000009
:100950000000000000FF000000C04040FC24FC40FC
:1009600040C00000000000000000000080C0C0C0C7
:1009700080000000FF000000000000000000FFFFFA
:10098000FFFF007F7F7F7F01F1F1F1F1F1F1F1F1E4
:10099000F1F0F1F1F5F501FFFFFF55AA55AA55AAAF
:1009A00055AA7F00000000000000000303030303BA
:1009B000030303030303030303030303037F7F3FD3
:1009C0001F0F0703010000000000000000000000EE
:1009D0000000000000FF0000000101011F121F01C4
:1009E000010100000000387C7C7C38000307070709
:1009F00003000000FF000000000000000000FFFFF7
:100A0000FFFFFFFFFFFFFFF0F7F7F7F7F7F7F7F745
:100A1000F7F7F7F7F7F7F0FFFFFF552A150A05027A
:100A200001000000000000000000000000000000C5
:100A300000000000000000000000000000000000B6
:100A400000000000000000000000000000000000A6
:100A50000000000000FF0000000000000000000097
:100A60000000000000000000000040E0F0E0400056
:100A700000000000FF000000000000000000000077
:100A80000000000000000000000000000000000066
:100A90000000000000000000000000000000000056
:100AA0000000000000000000000000000000000046
:100AB0000000000000000000000000000000000036
:100AC0000000000000000000000000000000000026
:100AD0000000000080DFE020202020203838B8A06F
:100AE000202020BC3C3C3CBC20A020A02120202079
:100AF000202020E0DF800000000000000000000057
:100B000000000000000000000000000000000000E5
:100B100000000000000000000000000000000000D5
:100B200000000000000000000000000000000000C5
:100B300000000000000000000000000000000000B5
:100B400000000000000000000000000000000000A5
:100B50000000003F51685068506850685068536A00
:100B60005168516A5168516A506B516A50685068B7
:100B70005068506850693F0000000000000000000D
:100B80000000000000000000000000000000000065
:100B90000000000000000000000000000000000055
:100BA0000000000000000000000000000000000045
:100BB0000000000000000000000000000000000035
:100BC0000000000000000000000000000000000025
:100BD00000000000FC020202E22626262622222233
:100BE000222222222222222222222222222222E225
:100BF000020202FC000000000000000000000000F3
:100C000000000000000000000000000000000000E4
:100C100000000000000000000000000000000000D4
:100C200000000000000000000000000000000000C4
:100C300000000000000000000000000000000000B4
:100C400000000000000000000000000000000000A4
:100C500000000000FF000000FF0000000000000096
:100C6000000000000000000000000000000000FF85
:100C7000002000FF00000000000000000000000055
:100C8000008040201008040201010101010101015E
:100C90000101010101010101010101018141A15194
:100CA000A955ABFF0000000000000000000000009C
:100CB0000000000000000000000000000000000034
:100CC000F8F8F0E0C0800000000000000000000024
:100CD00000000000FF0000001F1010101010101086
:100CE0001010101010101010101010101010101FF5
:100CF000000700FF0000000000000000000000FEF0
:100D0000FFFEFE1E1E1E1E1E1E1E1E1E1E1E1E1E62
:100D10005E5E1EFEFEFEFEFEFEFEFE55AA55AA55B6
:100D2000AA55AAFF00000000000000000000FEFE1F
:100D30005606AE0656AE56AE56AE56AEFEFEFEFE9B
:100D4000FFFFFFFFFFFFFFFEFC7830000000000008
:100D500000000000FF000000C04040FC24FC4040B8
:100D6000C00000000000000000000080C0C0C08083
:100D7000000000FF0000000000000000000000FF75
:100D8000FFFFFF007F7F7F7F01F1F1F1F1F1F1F1D2
:100D9000F1F1F0F1F1F5F501FFFFFF55AA55AA5564
:100DA000AA55AA7F00000000000000000000030315
:100DB0000303030303030303030303030303030303
:100DC0007F7F3F1F0F0703010000000000000000AD
:100DD00000000000FF0000000101011F121F0101BF
:100DE0000100000000387C7C7C3800030707070303
:100DF000000000FF0000000000000000000000FFF5
:100E0000FFFFFFFFFFFFFFFFF0F7F7F7F7F7F7F739
:100E1000F7F7F7F7F7F7F7F0FFFFFF552A150A0581
:100E200002010000000000000000000000000000BF
:100E300000000000000000000000000000000000B2
:100E400000000000000000000000000000000000A2
:100E500000000000FF000000000000000000000093
:100E600000000000000000000040E0F0E040000052
:100E7000000000FF00000000000000000000000073
:100E80000000000000000000000000000000000062
:100E90000000000000000000000000000000000052
:100EA0000000000000000000000000000000000042
:100EB0000000000000000000000000000000000032
:100EC0000000000000000000000000000000000022
:100ED00000000080DFE020202020203838B8A0204B
:100EE0002020BC3C3C3CBC20A020A0212020202075
:100EF0002020E0DF80000000000000000000000073
:100F000000000000000000000000000000000000E1
:100F100000000000000000000000000000000000D1
:100F200000000000000000000000000000000000C1
:100F300000000000000000000000000000000000B1
:100F400000000000000000000000000000000000A1
:100F500000003F51685068506850685068536A51AB
:100F600068516A5168516A506B516A5068506850B4
:100F700068506850693F0000000000000000000059
:100F80000000000000000000000000000000000061
:100F90000000000000000000000000000000000051
:100FA0000000000000000000000000000000000041
:100FB0000000000000000000000000000000000031
:100FC0000000000000000000000000000000000021
:100FD0000000000000F8040404C44C4C4C4C444491
:100FE00044444444444444444444444444444444C1
:100FF000C4040404F8000000000000000000000029
:1010000000000000000000000000000000000000E0
:1010100000000000000000000000000000000000D0
:1010200000000000000000000000000000000000C0
:1010300000000000000000000000000000000000B0
:1010400000000000000000000000000000000000A0
:101050000000000000FF000000FF00000000000092
:101060000000000000000000000000000000000080
:10107000FF004000FF000000000000000000000032
:10108000008040201008040201010101010101015A
:101090000101010101010101010101018141A15190
:1010A000A955ABFF00000000000000000000000098
:1010B0000000000000000000000000000000000030
:1010C00000F8F8F0E0C08000000000000000000020
:1010D0000000000000FF0000003F20202020202012
:1010E0002020202020202020202020202020202000
:1010F0003F000E00FF00000000000000000000FEA6
:10110000FFFEFE1E1E1E1E1E1E1E1E1E1E1E1E1E5E
:101110005E5E1EFEFEFEFEFEFEFEFE55AA55AA55B2
:10112000AA55AAFF0000000000000000000000FE19
:10113000FE5606AE0656AE56AE56AE56AEFEFEFE97
:10114000FEFFFFFFFFFFFFFFFEFC78300000000006
:101150000000000000FF000000808080F848F88058
:1011600080800000000000000000000000808080FF
:1011700000000000FF00000000000000000000FF71
:10118000FFFFFF007F7F7F7F01F1F1F1F1F1F1F1CE
:10119000F1F1F0F1F1F5F501FFFFFF55AA55AA5560
:1011A000AA55AA7F00000000000000000000000314
:1011B00003030303030303030303030303030303FF
:1011C000037F7F3F1F0F07030100000000000000A6
:1011D0000000000000FF0000000302023F243F0265
:1011E00002030000000070F8F8F87000070F0F0FFE
:1011F00007000000FF00000000000000000000FFEA
:10120000FFFFFFFFFFFFFFFFF0F7F7F7F7F7F7F735
:10121000F7F7F7F7F7F7F7F0FFFFFF552A150A057D
:1012200002010000000000000000000000000000BB
:1012300000000000000000000000000000000000AE
:10124000000000000000000000000000000000009E
:101250000000000000FF000000000000000000008F
:101260000000000000000000000080C0E0C080001E
:1012700000000000FF00000000000000000000006F
:10128000000000000000000000000000000000005E
:10129000000000000000000000000000000000004E
:1012A000000000000000000000000000000000003E
:1012B000000000000000000000000000000000002E
:1012C000000000000000000000000000000000001E
:1012D0000000000000BFC0404040404070707040BF
:1012E00040404078787878784040404143414040E1
:1012F000404040C0BF0000000000000000000000AF
:1013000000000000000000000000000000000000DD
:1013100000000000000000000000000000000000CD
:1013200000000000000000000000000000000000BD
:1013300000000000000000000000000000000000AD
:10134000000000000000000000000000000000009D
:101350000000007EA3D1A1D0A0D0A0D0A0D0A7D55E
:10136000A2D0A2D5A2D0A2D5A0D7A2D5A0D0A0D0DD
:10137000A0D0A0D1A1D37E0000000000000000009A
:10138000000000000000000000000000000000005D
:10139000000000000000000000000000000000004D
:1013A000000000000000000000000000000000003D
:1013B000000000000000000000000000000000002D
:1013C000000000000000000000000000000000001D
:1013D0000000000000FC020202E22626262622224D
:1013E00022222222222222222222222222222222DD
:1013F000E2020202FC000000000000000000000009
:1014000000000000000000000000000000000000DC
:1014100000000000000000000000000000000000CC
:1014200000000000000000000000000000000000BC
:1014300000000000000000000000000000000000AC
:10144000000000000000000000000000000000009C
:101450000000000000FF000000FF0000000000008E
:10146000000000000000000000000000000000007C
:10147000FF002000FF00000000000000000000004E
:101480000080402010080402010101010101010156
:101490000101010101010101010101018141A1518C
:1014A000A955ABFF00000000000000000000000094
:1014B000000000000000000000000000000000002C
:1014C0000000F8F8F0E0C08000000000000000001C
:1014D0000000000000FF0000001F1010101010108E
:1014E00010101010101010101010101010101010FC
:1014F0001F000700FF00000000000000000000FEC9
:10150000FFFEFE1E1E1E1E1E1E1E1E1E1E1E1E1E5A
:101510005E5E1EFEFEFEFEFEFEFEFE55AA55AA55AE
:10152000AA55AAFF00000000000000000000000013
:10153000FEFE5606AE0656AE56AE56AE56AEFEFE93
:10154000FEFEFFFFFFFFFFFFFFFEFC783000000004
:101550000000000000FF000000C04040FC24FC40F0
:1015600040C00000000000000000000080C0C0C0BB
:1015700080000000FF00000000000000000000FFED
:10158000FFFFFF007F7F7F7F01F1F1F1F1F1F1F1CA
:10159000F1F1F0F1F1F5F501FFFFFF55AA55AA555C
:1015A000AA55AA7F00000000000000000000000013
:1015B00003030303030303030303030303030303FB
:1015C00003037F7F3F1F0F0703010000000000009F
:1015D0000000000000FF0000000101011F121F01B8
:1015E000010100000000387C7C7C380003070707FD
:1015F00003000000FF00000000000000000000FFEA
:10160000FFFFFFFFFFFFFFFFF0F7F7F7F7F7F7F731
:10161000F7F7F7F7F7F7F7F0FFFFFF552A150A0579
:1016200002010000000000000000000000000000B7
:1016300000000000000000000000000000000000AA
:10164000000000000000000000000000000000009A
:101650000000000000FF000000000000000000008B
:101660000000000000000000000040E0F0E040004A
:1016700000000000FF00000000000000000000006B
:10168000000000000000000000000000000000005A
:10169000000000000000000000000000000000004A
:1016A000000000000000000000000000000000003A
:1016B000000000000000000000000000000000002A
:1016C000000000000000000000000000000000001A
:1016D0000000000080DFE020202020203838B8A063
:1016E000202020BC3C3C3CBC20A020A0212020206D
:1016F000202020E0DF80000000000000000000004B
:1017000000000000000000000000000000000000D9
:1017100000000000000000000000000000000000C9
:1017200000000000000000000000000000000000B9
:1017300000000000000000000000000000000000A9
:101740000000000000000000000000000000000099
:101750000000003F51685068506850685068536AF4
:101760005168516A5168516A506B516A50685068AB
:101770005068506850693F00000000000000000001
:101780000000000000000000000000000000000059
:101790000000000000000000000000000000000049
:1017A0000000000000000000000000000000000039
:1017B0000000000000000000000000000000000029
:1017C0000000000000000000000000000000000019
:1017D0000000000000FE010101F1131313131111A9
:1017E00011111111111111111111111111111111E9
:1017F000F1010101FE0000000000000000000000F7
:1018000000000000000000000000000000000000D8
:1018100000000000000000000000000000000000C8
:1018200000000000000000000000000000000000B8
:1018300000000000000000000000000000000000A8
:101840000000000000000000000000000000000098
:101850000000000000FF000000FF0000000000008A
:101860000000000000000000000000000000000078
:10187000FF009000FF0000000000000000000000DA
:101880000080402010080402010101010101010152
:101890000101010101010101010101018141A15188
:1018A000A955ABFF00000000000000000000000090
:1018B0000000000000000000000000000000000028
:1018C0000000000000F8F8F0E0C080000000000018
:1018D0000000000000FF0000000F080808080808CA
:1018E0000808080808080808080808080808080878
:1018F0000F000300FF00000000000000000000FED9
:10190000FFFEFE1E1E1E1E1E1E1E1E1E1E1E1E1E56
:101910005E5E1EFEFEFEFEFEFEFEFE55AA55AA55AA
:10192000AA55AAFF0000000000000000000000000F
:10193000000000FEFE5606AE0656AE56AE56AE5639
:10194000AEFEFEFEFEFFFFFFFFFFFFFFFEFC783056
:101950000000000000FF000000E0A0A0FE12FEA0BA
:10196000A0E000000000000000000000C0E0E0E097
:10197000C0000000FF00000000000000000000FFA9
:10198000FFFFFF007F7F7F7F01F1F1F1F1F1F1F1C6
:10199000F1F1F0F1F1F5F501FFFFFF55AA55AA5558
:1019A000AA55AA7F0000000000000000000000000F
:1019B0000000000303030303030303030303030300
:1019C00003030303037F7F3F1F0F07030100000092
:1019D0000000000000FF0000000000000F090F00E1
:1019E0000000000000001C3E3E3E1C0001030303FB
:1019F00001000000FF00000000000000000000FFE8
:101A0000FFFFFFFFFFFFFFFFF0F7F7F7F7F7F7F72D
:101A1000F7F7F7F7F7F7F7F0FFFFFF552A150A0575
:101A200002010000000000000000000000000000B3
:101A300000000000000000000000000000000000A6
:101A40000000000000000000000000000000000096
:101A50000000000000FF0000000000000000000087
:101A6000000000000000000000002070F87020005E
:101A700000000000FF000000000000000000000067
:101A80000000000000000000000000000000000056
:101A90000000000000000000000000000000000046
:101AA0000000000000000000000000000000000036
:101AB0000000000000000000000000000000000026
:101AC0000000000000000000000000000000000016
:101AD00000000080C06F7010101010101C1CDC5033
:101AE0009010905E9E1E9E5E10D0905010101010B0
:101AF000101010706FC08000000000000000000097
:101B000000000000000000000000000000000000D5
:101B100000000000000000000000000000000000C5
:101B200000000000000000000000000000000000B5
:101B300000000000000000000000000000000000A5
:101B40000000000000000000000000000000000095
:101B50000000001F2834283428342834283429353C
:101B60002834283528342835283528352834283491
:101B70002834283428341F00000080400000000072
:101B80000000000000000000000000000000000055
:101B90000000000000000000000000000000000045
:101BA0000000000000000000000000000000000035
:101BB0000000000000000000000000000000000025
:101BC0000000000000000000000000000000000015
:101BD00000000000000000C0202020206060606045
:101BE00020202020202020202020202020202020F5
:101BF000202020202020C000000000000000000065
:101C000000000000000000000000000000000000D4
:101C100000000000000000000000000000000000C4
:101C200000000000000000000000000000000000B4
:101C300000000000000000000000000000000000A4
:101C40000000000000000000000000000000000094
:101C500000000000000000FF000000FE020202027F
:101C60000202020202020202020202020202020254
:101C70000202FE000000FF00000000000000000063
:101C80000000000000000000000000000000000054
:101C90000000000000000000000000000000000044
:101CA0000000000000000000000000000000000034
:101CB000000000C0E0F0F8F8FCFCFE1E0E0E0E1E48
:101CC000FEFCFCF8F8F0E0C000000000000000009E
:101CD00000000000000000FF000000FF0000000006
:101CE00000000000000000000000000000000000F4
:101CF0000000FF007200FF00000000000000000074
:101D0000000000C060203F09090909090909E9A983
:101D1000490949A94D0D4DA909E949A90909090927
:101D20000909093F2060C000000000000000000019
:101D300000FCFFFFFFFFFFFFFFFFFF0000000000B0
:101D4000FFFFFFFFFFFFFFFFFFFC000000000000A0
:101D500000000000000000FF000000010101C1417F
:101D6000C1010101010101010101010101010101A3
:101D7000010101000000FF00000000000000000061
:101D80000000000F141A141A141A141A141A141A30
:101D9000141A141A141A141A141A141A141A141AD3
:101DA000141A141A141A0F0000000000000000009A
:101DB00000030F3F7FFFFFFFFFFFFF1F0808081F03
:101DC000FFFFFFFFFFFF7F3F0F0300000000000049
:101DD00000000000000000FF0000001C1414FF229F
:101DE000FF14141C0000000080C0C0C08000387CBC
:101DF0007C7C38000000FF000000000000000000B4
:101E000000000000000000000000000000000000D2
:101E100000000000000000000000000000000000C2
:101E200000000000000000000000000000000000B2
:101E30000000000000000101030307070606060773
:101E40000703030101000000000000000000000083
:101E500000000000000000FF000000000000010181
:101E60000100000000000000030707070300000056
:101E7000000000000000FF00000000000000000063
:101E80000000000000000000000000000000000052
:101E90000000000000000000000000000000000042
:101EA0000000000000000000000000000000000032
:101EB0000000000000000000000000000000000022
:101EC0000000000000000000000000000000000012
:101ED00000000000000000FF000000000000808003
:101EE0008000000000C0C0C0C0C00000040E1F0E73
:101EF000040000000000FF000000000000000000DF
:101F000000000000000000000000000000000000D1
:101F100000000000000000000000000000000000C1
:101F200000000000000000000000000000000000B1
:101F300000000000000000000000000000000000A1
:101F40000000000000000000000000000000000091
:101F5000000000000000000102020202020203036E
:101F6000030202020203030303030202020202024B
:101F70000202020202020100000000000000000054
:101F80000000000000000000000000000000000051
:101F90000000000000000000000000000000000041
:101FA0000000000000000000000000000000000031
:101FB0000000000000000000000000000000000021
:101FC0000000000000000000000000000000000011
:101FD000000000000000C020202020606060602021
:101FE00020202020202020202020202020202020F1
:101FF0002020202020C00000000000000000000081
:1020000000000000000000000000000000000000D0
:1020100000000000000000000000000000000000C0
:1020200000000000000000000000000000000000B0
:1020300000000000000000000000000000000000A0
:102040000000000000000000000000000000000090
:10205000000000000000FF000000FE020202020279
:102060000202020202020202020202020202020250
:1020700002FE000000FF0000000000000000000061
:102080000000000000008080808080808080808050
:102090008080808080808080808080808080808040
:1020A0008080808000000000000000000000000030
:1020B000000000C0E0F0F8F8FCFCFE1E0E0E0E1E44
:1020C000FEFCFCF8F8F0E0C000000000000000009A
:1020D000000000000000FF000000FF000000000002
:1020E00000000000000000000000000000000000F0
:1020F00000FF007200FF0000000000000000000070
:10210000000000E030101F040404040404047454AC
:102110002404245426062654047424540404040479
:102120000404041F1030E000000000000000000064
:1021300000FCFFFFFFFFFFFFFFFFFF0000000000AC
:10214000FFFFFFFFFFFFFFFFFFFC0000000000009C
:10215000000000000000FF000000010101C141C1BA
:10216000010101010101010101010101010101015F
:102170000101000000FF000000000000000000005E
:10218000000000070A0D0A0D0A0D0A0D0A0D0A0DBE
:102190000A0D0A0D0A0D0A0D0A0D0A0D0A0D0A0D87
:1021A0000A0D0A0D0A0D07000000000000000000E3
:1021B00000030F3F7FFFFFFFFFFFFF1F0808081FFF
:1021C000FFFFFFFFFFFF7F3F0F0300000000000045
:1021D000000000000000FF0000001C1414FF22FF9C
:1021E00014141C0000000080C0C0C08000387C7C3B
:1021F0007C38000000FF000000000000000000002C
:1022000000000000000000000000000000000000CE
:1022100000000000000000000000000000000000BE
:1022200000000000000000000000000000000000AE
:10223000000000000000010103030707060606076F
:10224000070303010100000000000000000000007F
:10225000000000000000FF0000000000000101017C
:102260000000000000000003070707030000000053
:102270000000000000FF000000000000000000005F
:10228000000000000000000000000000000000004E
:10229000000000000000000000000000000000003E
:1022A000000000000000000000000000000000002E
:1022B000000000000000000000000000000000001E
:1022C000000000000000000000000000000000000E
:1022D000000000000000FF0000000000008080807F
:1022E00000000000C0C0C0C0C00000040E1F0E04EB
:1022F0000000000000FF00000000000000000000DF
:1023000000000000000000000000000000000000CD
:1023100000000000000000000000000000000000BD
:1023200000000000000000000000000000000000AD
:10233000000000000000000000000000000000009D
:10234000000000000000000000000000000000008D
:102350000000000000000102020202020203030367
:102360000202020203030303030202020202020248
:102370000202020202010000000000000000000052
:10238000000000000000000000000000000000004D
:10239000000000000000000000000000000000003D
:1023A000000000000000000000000000000000002D
:1023B000000000000000000000000000000000001D
:1023C000000000000000000000000000000000000D
:1023D00000000000000000C020202020606060603D
:1023E00020202020202020202020202020202020ED
:1023F000202020202020C00000000000000000005D
:1024000000000000000000000000000000000000CC
:1024100000000000000000000000000000000000BC
:1024200000000000000000000000000000000000AC
:10243000000000000000000000000000000000009C
:10244000000000000000000000000000000000008C
:1024500000000000000000FF000000FE0202020277
:10246000020202020202020202020202020202024C
:102470000202FE000000FF0000000000000000005B
:10248000000000000000000000000000000000004C
:10249000000000000000000000000000000000003C
:1024A000000000000000000000000000000000002C
:1024B000000000C0E0F0F8F8FCFCFE1E0E0E0E1E40
:1024C000FEFCFCF8F8F0E0C0000000000000000096
:1024D00000000000000000FF000000FF00000000FE
:1024E00000000000000000000000000000000000EC
:1024F0000000FF007200FF0000000000000000006C
:102500000000C060203F09090909090909E9A94932
:102510000949A94D0D4DA909E949A909090909095F
:1025200009093F2060C0000000000000000000001A
:1025300000FCFFFFFFFFFFFFFFFFFF0000000000A8
:10254000FFFFFFFFFFFFFFFFFFFC00000000000098
:1025500000000000000000FF000000010101C14177
:10256000C10101010101010101010101010101019B
:10257000010101000000FF00000000000000000059
:1025800000000F141A141A141A141A141A141A1414
:102590001A141A141A141A141A141A141A141A14CB
:1025A0001A141A141A0F00000000000000000000A6
:1025B00000030F3F7FFFFFFFFFFFFF1F0808081FFB
:1025C000FFFFFFFFFFFF7F3F0F0300000000000041
:1025D00000000000000000FF0000001C1414FF2297
:1025E000FF14141C0000000080C0C0C08000387CB4
:1025F0007C7C38000000FF000000000000000000AC
:1026000000000000000000000000000000000000CA
:1026100000000000000000000000000000000000BA
:1026200000000000000000000000000000000000AA
:10263000000000000000010103030707060606076B
:10264000070303010100000000000000000000007B
:1026500000000000000000FF000000000000010179
:10266000010000000000000003070707030000004E
:10267000000000000000FF0000000000000000005B
:10268000000000000000000000000000000000004A
:10269000000000000000000000000000000000003A
:1026A000000000000000000000000000000000002A
:1026B000000000000000000000000000000000001A
:1026C000000000000000000000000000000000000A
:1026D00000000000000000FF0000000000008080FB
:1026E0008000000000C0C0C0C0C00000040E1F0E6B
:1026F000040000000000FF000000000000000000D7
:1027000000000000000000000000000000000000C9
:1027100000000000000000000000000000000000B9
:1027200000000000000000000000000000000000A9
:102730000000000000000000000000000000000099
:102740000000000000000000000000000000000089
:102750000000000000000001020202020202030366
:102760000302020202030303030302020202020243
:10277000020202020202010000000000AC28A020B8
:1027800011241FBECFEFDAE0DEBFCDBF12E0A0E024
:10279000B1E0ECEEFCE502C005900D92AA31B10764
:1027A000D9F727E0AAE1B2E001C01D92AF36B20727
:1027B000E1F713E1CFEBD3E104C02197FE010E94C2
:1027C0004E2CCE3BD107C9F70E94BA200C94692E3B
:1027D0000C94000040913502509136022091330252
:1027E0003091340242175307B4F49091E800957089
:1027F000E1F39091E80092FD19C08093F10080917F
:1028000035029091360201968F739927892B19F41E
:102810008EEF8093E8008091350290913602019608
:10282000909336028093350281E0089580E0089508
:10283000CF92DF92EF92FF920F931F93CF93DF938C
:102840001F92CDB7DEB7182F062FE42E862F880FE4
:102850008E5F99830E94EA1383E00E94EA13F12EAF
:10286000C12E9981D92E8C2D8F19801798F4F601DD
:10287000E7FE02C0849101C080810E94EA13182FF4
:1028800080E00E94EA138123FFEFCF1ADF0A811153
:10289000EACF01C081E00F90DF91CF911F910F919E
:1028A000FF90EF90DF90CF900895DF92EF92FF922C
:1028B0000F931F93CF93DF93D82E8A017B01E40EF1
:1028C000F51EEB01CE15DF0571F0D7FE03C0FE014A
:1028D000849101C088810E94EA1321968111F2CF70
:1028E0008FEF9FEF01C0C801DF91CF911F910F9132
:1028F000FF90EF90DF900895615030F02091F1004B
:10290000FC0120830196F8CF289884E680937B020F
:102910000895CF92DF92EF92FF920F931F93CF9380
:10292000DF936C017A018B01C0E0D0E0CE15DF05AA
:1029300089F0D8016D918D01D601ED91FC91019046
:10294000F081E02DC6010995892B11F47E0102C0AA
:102950002196ECCFC701DF91CF911F910F91FF908E
:10296000EF90DF90CF900895CF93DF931F92CDB774
:10297000DEB76983DC01ED91FC910280F381E02DEB
:1029800041E050E0BE016F5F7F4F09950F90DF91EE
:10299000CF91089583E08093E9008091F20088232D
:1029A00019F08AE38093E8000895FC0184859585F9
:1029B00097FD0BC09FB7F89482E08093E900809167
:1029C000F2009FBF90E0019608959FB7F89482E0CF
:1029D0008093E9008091F2009FBF90E008953FB797
:1029E000F89480912F0290913002A0913102B09121
:1029F000320226B5A89B05C02F3F19F00196A11DF4
:102A0000B11D3FBFBA2FA92F982F8827820F911D84
:102A1000A11DB11DBC01CD0142E0660F771F881FCB
:102A2000991F4A95D1F708958F929F92AF92BF92C6
:102A3000CF92DF92EF92FF920F931F93CF93DF938A
:102A40008C016B0198E0E92EF12CE42FE695E695D8
:102A5000E695F0E0CA0187709927892BC1F5D80166
:102A60001696CD91DC911797C6019927BE010E9459
:102A70003A2CD80150964D915C9151979927149614
:102A80006D917C911597452B91F4EC9FA001ED9FE2
:102A9000500DFC9F500D1124840F951FFB01E80F72
:102AA000F91FC22FC09520812C23208332C0EC9FB8
:102AB000A001ED9F500DFC9F500D1124840F951F18
:102AC000FB01E80FF91FC081C22BC08322C0C22FB7
:102AD000D0E04770A42EB12C4F0183E0880C991CE4
:102AE0008A95E1F79E0101C0220F4A95EAF7A401F9
:102AF000B601C8010E941415C7018A199B0902C0BA
:102B0000D595C7958A95E2F72C2FA401485F5F4FB2
:102B10009CCFDF91CF911F910F91FF90EF90DF90AD
:102B2000CF90BF90AF909F908F9008958F929F927B
:102B3000AF92BF92CF92DF92EF92FF921F93CF930B
:102B4000DF93EC016A3061F48C859D859B878A87D1
:102B50002B898E859F85820F911D9F878E875EC0F2
:102B6000AA84BB84693031F489E0A80EB11CBB860D
:102B7000AA8654C0EE84FF849DEFA9169FEFB90684
:102B800054F48A8990E004962A853B85820F931F2E
:102B90009B878A8743C08E819F81A816B9068CF7D0
:102BA0008DEFE8168FEFF80664F388859985E816AF
:102BB000F9063CF7603208F46FE780EE860F9FE974
:102BC000960F9A3118F49FEFE91AF90A8C3011F038
:102BD0008B3119F49FEFE91AF90A869594E0899FE1
:102BE00060011124812C912C162F1170F401EC0D31
:102BF000FD1DEC54FA4F2491111122952F70B40150
:102C00006A0D7B1DA701CE010E9414158FEF881A53
:102C1000980A94E08916910449F7B3CF81E090E0D7
:102C2000DF91CF911F91FF90EF90DF90CF90BF90F9
:102C3000AF909F908F9008950895089580E090E060
:102C400008950E944B2ECF93DF93EC0188819981E8
:102C5000009711F00E94E92C198218821D821C82B3
:102C60001B821A82DF91CF9108950F931F93CF9308
:102C7000DF931F92CDB7DEB782E0898342E450E054
:102C800064E776E080E80E9455140E944820DC0149
:102C900012960D911C9113970115110569F0D80139
:102CA000ED91FC910280F381E02DBE016F5F7F4FBB
:102CB000C801099597FF07C089810F90DF91CF91D7
:102CC0001F910F910895F80100851185E5CF0E94AD
:102CD000372090E00895CF93DF931F92CDB7DEB7F2
:102CE000FC018485958597FD05C02FEF3FEF358763
:102CF00024870BC0CE0101960E949C1D019719F4F8
:102D0000898190E002C08FEF9FEF0F90DF91CF910C
:102D100008950F931F93CF93DF931F92CDB7DEB724
:102D20008C01FC018485958597FF0EC0CE0101962C
:102D30000E949C1D019719F4298130E002C02FEFF9
:102D40003FEFF80135872487F801848595850F903A
:102D5000DF91CF911F910F9108950F931F93CF9300
:102D6000DF93EC0188819981009729F02A813B81CA
:102D70002617370788F48B016F5F7F4F0E94812DE4
:102D8000009761F0998388831B830A832C813D819E
:102D9000232B11F4FC01108281E001C080E0DF915F
:102DA000CF911F910F910895EF92FF920F931F9370
:102DB000CF93DF93FC01248135816115710511F4F6
:102DC00080E019C041155105A9F07B01EC018A0191
:102DD000020F131FB8010E94AD16882389F32881C2
:102DE00039818C819D81B701820F931F0E94622ED1
:102DF0001D830C8381E0DF91CF911F910F91FF9094
:102E0000EF900895EF92FF920F931F93CF93DF936C
:102E1000EC017B018A01BA010E94AD16811104C048
:102E2000CE010E94231607C01D830C83B701888141
:102E300099810E94622ECE01DF91CF911F910F9157
:102E4000FF90EF900895CF93DF93EC01611571052A
:102E500059F0FB0101900020E9F73197AF01461BC3
:102E6000570B0E94021702C00E942316CE01DF9169
:102E7000CF910895CF93DF93EC01FB01861797075D
:102E800061F0608171816115710529F0448155817E
:102E90000E94021702C00E942316CE01DF91CF913B
:102EA0000895FC01808191810C94E92CFC01118230
:102EB000108213821282158214826115710551F0FD
:102EC000FB0101900020E9F73197AF01461B570B3A
:102ED0000C94021708951F920F920FB60F921124AF
:102EE0008F939F938091E1009091E100937F909365
:102EF000E10083FF0FC01092E90091E09093EB0096
:102F00001092EC0092E39093ED0010927C0298E016
:102F10009093F00082FF20C093E09093E90090919D
:102F2000F200992319F09AE39093E8009091370208
:102F3000992339F090913702915090933702992359
:102F400089F190917B02992339F090917B02915005
:102F500090937B02992341F184FF10C08091E2009D
:102F60008E7E81608093E2008091E1008F7E80936D
:102F7000E100809139028E7E806111C080FF16C011
:102F80008091E2008E7E80618093E2008091E1007A
:102F90008E7E8093E100809139028E7E81608093E5
:102FA000390204C05D9ACDCF289AD6CF9F918F91D8
:102FB0000F900FBE0F901F9018951F920F920FB693
:102FC0000F921124CF92DF92EF92FF920F931F93F3
:102FD0002F933F934F935F936F937F938F939F9321
:102FE000AF93BF93EF93FF93CF93DF93CDB7DEB74C
:102FF0006C97DEBFCDBF1092E9008091E80083FF9F
:10300000EDC168E0CE0145960E947C1482EF80936A
:10301000E8008D8987FF05C09091E80090FFFCCF04
:1030200003C09EEF9093E800982F907609F0C6C0F9
:103030009E892F89188D91110CC0803829F48091B8
:103040003A028093F10002C01092F1001092F10058
:1030500048C1422F50E0512B913051F4811141C1B0
:103060004130510509F03DC180913A028D7F0BC07E
:10307000933061F4811135C14130510509F031C1FE
:1030800080913A02826080933A022BC1953041F4DC
:103090008091E80080FFFCCF20682093E30021C1ED
:1030A000963009F05FC0EB8CFC8C1092E900109216
:1030B000360210923502123091F5109234021092BD
:1030C00033020E94351699E0BE016F5F7F4FDB012E
:1030D000E92F1D92EA95E9F799831A8391E09E837F
:1030E00090EA98879AEF99872091350230913602BD
:1030F000275F3F4F3C832B838D831092E900109212
:10310000360210923502F0923402E092330249E026
:1031100050E080E00E9455140E943516E2C0F09203
:103120003402E09233020E944820DC011296ED90B6
:10313000FC901397E114F10409F4C0C0D701ED919C
:10314000FC910480F581E02DBE016B5E7F4FC701CD
:103150000995009719F00CF0C4C0C7C0F701E084CE
:10316000F184E8CF973009F4C0C0983021F481E0B1
:103170008093F100B6C0993009F0B3C0837009F0B4
:10318000B4C0E8E2F1E081E021E036E390819923E8
:1031900061F08093E9002093EB0091919093EC0013
:1031A0003093ED008F5F873089F78EE78093EA00D8
:1031B0001092EA008F8980937C0293C08B8D9C8D46
:1031C0001092E90010923602109235029093340268
:1031D00080933302898D811156C08E899D89913AE1
:1031E00059F4813209F081C047E050E064E071E0B9
:1031F00080E00E94551475C0913209F076C0833288
:1032000089F4888D90E0982F88272F89822BA0E061
:10321000B0E08093000190930101A0930201B0936C
:1032200003015FC0803269F48091E80082FFFCCF27
:1032300067E084E091E00E947C148BEF8093E800CB
:1032400006C0823209F04DC08F8980930B018091B6
:103250003802882319F0EEEFFAE002C0E0E0F8E06F
:103260008091040190910501A0910601B0910701A0
:10327000803B9440A105B10509F07BC080910B0112
:1032800080FF93C076C00E944820DC0112960D9109
:103290001C9113970115110541F1D801ED91FC9195
:1032A0000190F081E02DBE016B5E7F4FC801099552
:1032B000811117C0F80100851185ECCF113009F498
:1032C0004EC0133091F48F89882309F445C08230B1
:1032D00081F440E860E188ED96E00E9418148823AC
:1032E00021F08EEF8093E80079C081E28093EB00BB
:1032F00075C0813029F440E86BE08CEC96E0EDCFAE
:10330000833099F70E944820DC011296ED90FC90E2
:1033100013978E010F5F1F4F6801E114F10479F0DC
:10332000D701ED91FC910680F781E02DB801C7012E
:103330000995080F111DF701E084F184EECFD80143
:103340001C92F60101900020E9F73197BF016C193A
:103350007D0940E0C601C1CF66EB76E002C06AEBB2
:1033600076E06115710509F2FB01449150E080E8B7
:1033700040CF0FB6F894A895809160008861809343
:103380006000109260000FBEA895EE3F2AE0F207A1
:1033900039F08091FE0A9091FF0A91838083A1CF3A
:1033A0001092FF0A1092FE0A9CCFEE3F8AE0F807C7
:1033B00031F0808191819093FF0A8093FE0A87E724
:1033C00097E7918380839BE088E10FB6F894A895F6
:1033D000809360000FBE9093600083CF6C960FB611
:1033E000F894DEBF0FBECDBFDF91CF91FF91EF917B
:1033F000BF91AF919F918F917F916F915F914F910D
:103400003F912F911F910F91FF90EF90DF90CF9000
:103410000F900FBE0F901F901895DC01ED91FC915D
:10342000DB0114964D915C9115976D917C91028012
:10343000F381E02D0994EF92FF920F931F93CF93A6
:10344000DF938C017B01C0E0D0E0F701EC0FFD1FA2
:103450006491662361F0D801ED91FC910190F081B7
:10346000E02DC8010995892B11F02196EECFCE01F0
:10347000DF91CF911F910F91FF90EF90089561150B
:10348000710579F0FB0101900020E9F73197AF0158
:10349000461B570BDC01ED91FC910280F381E02D7E
:1034A000099480E090E008950C943F1A8F929F92C7
:1034B000AF92BF92CF92DF92EF92FF926B017C01AD
:1034C0000E94EF144B015C01C114D104E104F1042A
:1034D000F1F00E94EF14DC01CB0188199909AA09C7
:1034E000BB09883E9340A105B10570F321E0C21AE3
:1034F000D108E108F10888EE880E83E0981EA11C2F
:10350000B11CC114D104E104F10419F7DDCFFF901F
:10351000EF90DF90CF90BF90AF909F908F900895E5
:103520008F929F92AF92BF92CF92DF92EF92FF92D3
:103530000F931F93CF93DF935C016B017A0180910E
:103540000B01882309F45BC080917C02882309F475
:1035500056C08091390280FF05C08091E0008260F2
:103560008093E000E70110E00AEF83E0882E9AE301
:10357000992E2097D9F10E94372081110AC001505D
:1035800009F43DC061E070E080E090E00E94561ACE
:10359000F0CF282F30E0C217D3070CF48C2F4FB791
:1035A000F8948092E9009091E80095FF1DC0282FC3
:1035B00030E0C21BD30BF601982F915020F081917F
:1035C0008093F100FACFC20ED31E112319F090920E
:1035D000E80009C08091E80085FD06C09092E800EF
:1035E00011E0209709F010E04FBFC3CF1111C3CFF6
:1035F0005D9884E6809337021E141F0444F081E036
:1036000090E0F5019383828380E090E001C0C701E0
:10361000DF91CF911F910F91FF90EF90DF90CF90AE
:10362000BF90AF909F908F9008952FB7F8946091BE
:103630002B0270912C0280912D0290912E022FBFAF
:1036400008951F920F920FB60F9211242F933F935C
:103650008F939F93AF93BF9380912B0290912C02F5
:10366000A0912D02B0912E0230912A0223E0230F67
:103670002D3720F40196A11DB11D05C026E8230FAA
:103680000296A11DB11D20932A0280932B029093D4
:103690002C02A0932D02B0932E0280912F029091C4
:1036A0003002A0913102B09132020196A11DB11DEC
:1036B00080932F0290933002A0933102B093320294
:1036C000BF91AF919F918F913F912F910F900FBE1E
:1036D0000F901F9018956093260270932702809395
:1036E000280290932902DC01CB01845D9E4FAF4FED
:1036F000BF4F8093220290932302A0932402B093A1
:10370000250282E090E090932102809320020E94A3
:10371000151B60931C0270931D0280931E029093F0
:103720001F020895CF92DF92EF92FF920F931F93A3
:103730000E94151BC0901C02D0901D02E0901E023A
:10374000F0901F028B019C010C191D092E093F09E5
:103750008091260290912702A0912802B09129021F
:10376000083E134021053105D0F00196A11DB11D81
:103770008093260290932702A0932802B0932902F7
:10378000B701A60148515C4F6F4F7F4F40931C0219
:1037900050931D0260931E0270931F02C9CF409187
:1037A0002202509123026091240270912502841715
:1037B0009507A607B70788F1E0911A02F0911B025E
:1037C000309759F10995611571058105910519F039
:1037D0000E946B1B22C08091260290912702A0912B
:1037E0002802B0912902845D9E4FAF4FBF4F809356
:1037F000220290932302A0932402B093250281E039
:1038000090E02091200230912102232B11F480E0DE
:1038100090E09093210280932002609126027091A3
:10382000270280912802909129021F910F91FF9009
:10383000EF90DF90CF900895CF92DF92EF92FF92BA
:103840000E94921B6B017C0180913B0290913C0293
:10385000A0913D02B0913E02C816D906EA06FB06C9
:1038600061F0C701B6010E946A1EC0923B02D0926D
:103870003C02E0923D02F0923E028091750290E09F
:10388000FF90EF90DF90CF900895BC0180E090E032
:103890000C94561AECEAF5E090E1969FD001A078DE
:1038A0001124A80F6770E60FF11D9491A35DBC4F22
:1038B000442319F08C91982B03C090958C919823F8
:1038C0009C9308952F923F924F925F926F927F92B6
:1038D0008F929F92AF92BF92CF92DF92EF92FF9220
:1038E0000F931F93CF93DF93CDB7DEB727970FB614
:1038F000F894DEBF0FBECDBFFC016A3069F4248DA1
:10390000808D918D38E0239F800D911D1124918F22
:10391000808F178A168AA6C06D3009F4A3C09F83D2
:103920008E83348C238D2983328D3A83608C718C05
:10393000E688F78880E8E816F104C4F0AE81BF811C
:103940005C962C915C97422F50E056968D919C91FD
:103950005797B6E02B9F800D911D1124EE81FF81BA
:10396000978B868B258D211167C07CC0F0E46F1684
:10397000710424F7C70125E0329E800D911D1124AA
:1039800018161906DCF6432C512CC30138E0339E7F
:10399000800D911D11241816190684F685E0689F84
:1039A0008001112404551F4F20E0F8012490253098
:1039B00009F4212C430158E020FC02C0398101C0E8
:1039C0003A8131110BC0F9818A81F81307C026941E
:1039D0005150840C951C5111EFCF25C067018C2DDF
:1039E0008E198315A0F754018A2D88198315B8F410
:1039F00090E8C916D10478F4A0E4AA16B10458F4EA
:103A0000432FB501C6012C833B835D830E944A1C72
:103A10005D813B812C81BFEFAB1ABB0AE5CFEFEF95
:103A2000CE1ADE0ADCCF2F5FE40CF51C0F5F1F4FB0
:103A3000263009F0BACF82CF6AEF64039001659F08
:103A4000300D112420583F4F281739075CF4AE8100
:103A5000BF81ED91FC9111970190F081E02D6AE01A
:103A6000CD01099581E090E027960FB6F894DEBF6E
:103A70000FBECDBFDF91CF911F910F91FF90EF90BF
:103A8000DF90CF90BF90AF909F908F907F906F907E
:103A90005F904F903F902F9008950F931F93CF9377
:103AA0008B01C0913F02C11109C0BC018DE792E0BA
:103AB0000E940D1A81E080933F0221C080912B0368
:103AC00090912C03892BD1F010923F028091270313
:103AD00090912803009719F00E94532903C060E0D9
:103AE00070E0CB01F801608371838283938362EA83
:103AF00071E087E293E00E94231701C0C0E08C2FA1
:103B0000CF911F910F91089510924102109240029F
:103B10008AE0809346020E94151BDC01CB01805F86
:103B2000984DAF4FBF4F8093420290934302A093B2
:103B30004402B09345020895FC0180917C028111FA
:103B400003C08FEF9FEF08959FB7F89482E08093B2
:103B5000E9002091F20030E01216130614F421E07F
:103B600030E02115310559F0289884E680937B02D6
:103B70008091F10080838091F200882319F09FBF2B
:103B8000C90108958BE68093E800F9CF262F26958A
:103B900026952695677090E8299F90011124235D52
:103BA0003C4FF901E80FF11D8081282F30E081E0C2
:103BB00090E0062E02C0880F991F0A94E2F7822334
:103BC000932302C0959587956A95E2F708954F92E1
:103BD0005F926F927F928F929F92AF92BF92CF929D
:103BE000DF92EF92FF920F931F93CF93DF93CDB7A6
:103BF000DEB7A1970FB6F894DEBF0FBECDBF8C0124
:103C00006B01770FEE08FF08F7FE2FC0DC01ED9186
:103C1000FC910190F081E02D6DE209955C01222775
:103C20003327A9012C193D094E095F0919A2FE018C
:103C3000B1967F019AE0492E512C612C712CCA015A
:103C4000B901A30192010E94EA2A605DD7016E9337
:103C50007D01211531054105510589F7BD01C801D7
:103C60000E943F1A8A0D9B1D1EC0A701960119A232
:103C7000FE01B1967F018AE0882E912CA12CB12CF7
:103C8000CA01B901A50194010E94EA2A605DD70129
:103C90006E937D01211531054105510589F7BD015F
:103CA000C8010E943F1AA1960FB6F894DEBF0FBE5E
:103CB000CDBFDF91CF911F910F91FF90EF90DF90DB
:103CC000CF90BF90AF909F908F907F906F905F90BC
:103CD0004F9008954F925F926F927F928F929F9232
:103CE000CF92DF92EF92FF920F931F93CF93DF93C8
:103CF0002CE3C22ED12CE12CF12CA70196010E94BD
:103D0000EA2A60937402CA01B901A70196010E94D0
:103D1000EA2A60937502CA01B90128E130E040E067
:103D200050E00E94EA2A29013A0160937602CA0112
:103D3000B9016C5F7F4F8F4F9F4F27E030E040E02D
:103D400050E00E94EA2A6F5F60937702C12CD12C69
:103D5000760120E004E610E030E9832E9924939464
:103D6000E22FF0E0EE54F84FEF01C370DD2720970B
:103D700089F4CF01B8010E943A2C892B31F4CF018C
:103D8000B4010E943A2C892B29F48EE691E0A0E040
:103D9000B0E004C08DE691E0A0E0B0E0C80ED91E0E
:103DA000EA1EFB1ED701C601AA27BB2748165906E3
:103DB0006A067B0610F02F5FD3CF20937A022097FC
:103DC00099F4CF0164E670E00E943A2C892B39F413
:103DD000CF0160E971E00E943A2C892B29F48EE62C
:103DE00091E0A0E0B0E004C08DE691E0A0E0B0E09A
:103DF000C81AD90AEA0AFB0A930182010C191D09A3
:103E00002E093F09CF0164E670E00E943A2C7C0144
:103E1000CF0160E971E00E943A2CEEE2F1E0A0E00F
:103E2000A13041F4209751F4E114F10429F40097F2
:103E300029F402C0408103C04DE101C04CE150E0D3
:103E400060E070E0041715072607370740F0041BF1
:103E5000150B260B370BAF5F3196AC3009F7AF5F10
:103E6000A09379020F5F00937802DF91CF911F91A9
:103E70000F91FF90EF90DF90CF909F908F907F9069
:103E80006F905F904F90089520914B07282329F061
:103E900090914A07982381E009F080E00895CF933C
:103EA000DF93BC0181E497E00E943F1AEC0160EAD5
:103EB00071E081E497E00E943F1A8C0F9D1FDF9113
:103EC000CF910895CF92DF92EF92FF920E94151B3F
:103ED000C0905107D0905207E0905307F0905407DC
:103EE00020915507222349F020914D07621B6093D2
:103EF00056071092550720E039C06C157D058E05D8
:103F00009F0578F48C2D861B823080F183B7817FEA
:103F100083BF83B7816083BF889583B78E7F83BF5C
:103F200025C021E02093550760934D0770934E07FD
:103F300080934F079093500720914C07DC01CB01F1
:103F4000820F911DA11DB11D8093510790935207BF
:103F5000A0935307B0935407809148079091490765
:103F60000196909349078093480721E0822FFF90A4
:103F7000EF90DF90CF9008950F931F93CF93DF932F
:103F8000009709F45DC0FC0144913196249102969A
:103F9000C42FD0E06623E9F0E22FE695E695E6959A
:103FA000AE2FB0E0E1E0F0E0322F377011F4E0E046
:103FB000F0E0EA0FFB1FCE9FD001CF9FB00DDE9F38
:103FC000B00D11246A9FF0016B9FF00D11248E0F2C
:103FD0009F1F2097A9F1222399F1009789F1C038FA
:103FE000D10514F4342F01C030E8E1E0422F4770CE
:103FF00009F4E0E02695269526952E0F293008F045
:1040000028E060E000E010E06217D1F0D801A35D85
:10401000BC4F40E050E0431768F4FC01E40FF51F8B
:10402000E49167FD03C07C91E72BEC934F5F5F4FFA
:104030001196F1CF6F5F8C0F9D1F00581F4FE4CF7B
:10404000DF91CF911F910F91089580912D038EBD27
:10405000EEE2F3E081910DB407FEFDCF8EBD87E067
:10406000ED32F807B9F70DB407FEFDCF08952FB76D
:10407000F89483E08093E9009091E800892F8072A2
:1040800095FF04C09091F20080E4891B2FBF089532
:104090008091630781110DC082E080935F0784E007
:1040A00080936007109262071092610781E080930D
:1040B00063078FE597E008950F931F93CF93DF93E6
:1040C0008C0181E090E00E94AB2A80FF31C08AE041
:1040D00090E00E94AB2A9FEF980F9E3F48F522E3A5
:1040E00030E0D80157963C932E93569728E330E062
:1040F00059963C932E935897CBE0D0E0D801ED91A0
:10410000FC910190F081E02D682FC8010995CE0146
:104110000E94AB2A2196C131D10581F70E9425204A
:1041200088EE93E0DF91CF911F910F910C94451C85
:10413000DF91CF911F910F91089504970C945C200B
:10414000CF93DF938DEC92E00E945117C1E2D3E050
:104150002697CE010E94511782E0C33DD807C1F7D0
:1041600081E293E00E94511787E293E0DF91CF91C3
:104170000C945117CF93DF93CDB7DEB762970FB68C
:10418000F894DEBF0FBECDBF789484B5826084BD45
:1041900084B5816084BD85B5826085BD85B581604B
:1041A00085BD80916E00816080936E0010928100C9
:1041B0008091810082608093810080918100816084
:1041C0008093810080918000816080938000809145
:1041D0009100826080939100809191008160809332
:1041E0009100809190008160809390008091C10047
:1041F00084608093C1008091C10082608093C1007F
:104200008091C10081608093C1008091C300816072
:104210008093C3008091C00082608093C000809131
:10422000C20081608093C20080917A008460809394
:104230007A0080917A00826080937A0080917A007F
:10424000816080937A0080917A00806880937A0000
:1042500010927C0210923A02109239028091D7009B
:1042600081608093D70080EA8093D80089B580610F
:1042700089BD89B5826089BD09B400FEFDCF61E0CA
:1042800070E080E090E00E94561A8091D8008F7C08
:1042900080618093D8008091E000807F8093E0006F
:1042A0008091E1008E7E8093E1008DE08093E200BA
:1042B000559A209AEEEFFFE7859194918B3F9C4DA4
:1042C00019F481E08093380281EC80937C0085B101
:1042D000806F85B9249884B1866E84B95E9A5F98A0
:1042E0008AB1806D8AB9769A6E9881B3806F81BBEE
:1042F000899880B38D7080BB80E58CBD81E08DBDD9
:1043000085E090E00E94451C5F9A85E090E00E9465
:10431000451C5E985C98E6E3F7E08DE08E0F949183
:104320009EBD00000DB407FEFDCF31968E13F7CF72
:104330005C9A81E88093640081E08093650080E16D
:1043400080934C0768E270E087E293E00E94AD162C
:1043500064E670E081E293E00E94AD168FEF9FEF7C
:1043600090938A0280938902559820988E010F5F5E
:104370001F4F8DE792E00E94D514892B09F457C096
:104380008DE792E00E94D514813491054CF48DE7BD
:1043900092E00E94D5147C01892B09F448C013C017
:1043A00070E4E72EF12C0FC08DE792E00E946B16AF
:1043B0008C3369F462EA71E081E293E00E94231792
:1043C00031E0E31AF1081E141F0474F330C08E3379
:1043D00021F58091250390912603892BB9F06EE693
:1043E00071E080912103909122030E94592E892B24
:1043F00069F4109220010E94151B60937002709363
:104400007102809372029093730211C061E273E0B3
:1044100087E293E00E943A170AC089831A8241E03A
:1044200050E0B80181E293E00E94D416C9CF0E9407
:10443000621F882309F447C680914A0780934B077F
:104440004FB12CB193B130E02095309520743327D3
:1044500053E0359527955A95E1F7892F90E080959F
:104460009095807199279595879595958795822B3D
:10447000942F9095907F892B80934A0780E0EDE2FE
:10448000F3E081118FEF00248193819381938193D5
:104490000394D1F710925A071092590710925807B7
:1044A0001092570781E080935D070E94151BC09012
:1044B0007002D0907102E0907202F0907302DC0101
:1044C000CB018C199D09AE09BF0920912001211152
:1044D00007C038EEC32E33E0D32EE12CF12C06C0FA
:1044E00020EDC22E27E0D22EE12CF12CC816D906E1
:1044F000EA06FB0630F5E0906E02F0906F026E2D3A
:104500008AE79BE10E94BC1F809148079091490770
:104510006CE370E00E94262C892B39F44FEFE41AEB
:10452000F40AF0926F02E0926E0280916E02909116
:104530006F0203970CF4C5C510926F0210926E02C1
:10454000C0C50E94151BC0906A02D0906B02E0901B
:104550006C02F0906D02C616D706E806F906B0F4B4
:1045600063E771E08DE792E00E94541A0E94151BE8
:10457000DC01CB0186509F4FAF4FBF4F80936A0243
:1045800090936B02A0936C02B0936D0280914602EF
:104590008E3109F4EFC020F58A3009F49FC4C8F4C5
:1045A000882309F4E3C4813009F08BC560EA71E027
:1045B00081E497E00E943F1A60EA71E081E497E0AD
:1045C0000E943F1A83EA91E00E944F1F69EB71E05D
:1045D0005CC0843109F46FC2853109F4B1C071C582
:1045E000813209F44CC0A8F48F3109F489C08032BB
:1045F00009F067C56EE070E08DEC92E00E94AD16A8
:10460000E0E5CE2EE2E0DE2EF3EDEF2EF2E0FF2E1F
:104610005DC0823609F45DC4833609F052C58AE76D
:1046200091E00E944F1F6FE871E081E497E00E94E3
:10463000541A0E94151B609370027093710280934C
:10464000720290937302C0904202D0904302E090B5
:104650004402F09045020E94151BC616D706E806D4
:10466000F90608F02EC581E0809346020E94151BD2
:10467000DC01CB01805F984DAF4FBF4F6EC48AE71E
:1046800091E00E944F1F68EC71E081E497E00E9486
:10469000541A0E94151B60937002709371028093EC
:1046A000720290937302C0904202D0904302E09055
:1046B0004402F09045020E94151BC616D706E80674
:1046C000F90608F0FEC410924602FBC4F6012FEF73
:1046D0003FEF219331936F0164E170E0C7010E94C5
:1046E000AD166CE971E0C7010E94231736E0E30EB6
:1046F000F11C41E2E41643E0F40641F78EE1DFC429
:1047000080911E0190911F010196C1F76DED71E03E
:10471000C8010E945617BE01675F7F4FC8010E9403
:104720004D1DF82EC8010E945117FF2009F4C9C47D
:1047300089859A8590931F0180931E0180E2BFC4F2
:1047400068EE71E0C8010E945617BE01675F7F4F97
:10475000C8010E944D1DF82EC8010E945117FF206C
:1047600009F4AFC469857A858B859C850E946B1B93
:1047700084E1A5C4D0904B07D2FC04C080914A07C5
:1047800082FDA9C480E10E94441F882349F08091E2
:104790004E0290914F02019690934F0280934E02E9
:1047A00080E80E94441F882349F080914E02909136
:1047B0004F02019790934F0280934E0280E20E9435
:1047C000441F882349F080914E0290914F020C972C
:1047D00090934F0280934E0280E40E94441F8823EE
:1047E00049F080914E0290914F020C9690934F02A7
:1047F00080934E0280914E0290914F02E0901E01F4
:10480000F0901F0197FF04C097012150310907C0A4
:104810008E159F0514F49C0102C020E030E0309317
:104820004F0220934E0240914C0250914D02445F42
:104830005F4F421753073CF4A9014C505109509364
:104840004D0240934C0240914C0250914D0224176E
:10485000350724F430934D0220934C0282179307BE
:1048600051F48EE0E816F1041CF07DE0E72EF12C07
:10487000D3FE15C018C0821B930B97FF03C0919500
:104880008195910902976CF3E0E5F2E02FEF3FEF9D
:104890002193319332E0EA36F307C1F7E2CF8091FA
:1048A0004A0783FD1BC4570141E0A41AB10825E063
:1048B0002E9DC0012F9D900D112446E04E9D90012C
:1048C0004F9D300D1124A701440F551F5E874D8762
:1048D000412C512C812C912C612C712CC12CD12C70
:1048E000AC0145505109C9010697988B8F87B7FCD9
:1048F0004CC020904C0230904D022A0C3B1C109270
:104900003A07109239071092380710923707CA01F8
:10491000840D951D90933C0780933B0780914E0238
:1049200090914F028215930519F064E777E002C079
:1049300066E777E08DE297E0498B5A8B0E941B1A5D
:104940006F857889660D771D6D527D4F8DE297E0FA
:104950000E940D1AED85FE85E80DF91DE25BFD4F05
:104960008081918149895A898215930509F06501F1
:1049700091E0A91AB108E6E06E1A7108F2E08F1A08
:10498000910825E0421A5108B2CF36E0932E8824D0
:104990008394A0904C02B0904D02AC0CBD1C809151
:1049A0001C0190911D010196C1F5F601EE0FFF1F4C
:1049B000E05BFD4F808191818A159B0551F14FEF9E
:1049C000A416B40609F46DC06FEE71E08DEC92E0B0
:1049D0000E9423174AE0B801C5010E947A29F80114
:1049E00001900020E9F73197AF01401B510BB8014E
:1049F0008DEC92E00E94D41641E050E06DEE71E043
:104A00008DEC92E00E94D416B0921D01A0921C0180
:104A100048C05FEFC51AD50A44C01A8219821C82A9
:104A20001B821E821D826DEC72E0C8010E943A1743
:104A300070903F02711008C0B8018DE792E00E94AB
:104A40000D1A80923F021BC080912B0390912C0382
:104A5000892BA1F010923F029C9CC0019D9C900D5F
:104A6000112467E273E08D529D4F0E943A1762EA6B
:104A700071E087E293E00E94231701C0712CC80106
:104A80000E945117772069F0F601EE0FFF1FE05BDF
:104A9000FD4FB182A0828FEF9FEF90931D01809315
:104AA0001C01CE14DF040CF00CC30E94621F88238B
:104AB00009F46FCF06C380914B0782FD04C080913B
:104AC0004A0782FD22C30E94151B609370027093F7
:104AD00071028093720290937302809018019090FB
:104AE0001901A0901A01B0901B01C501B4010E94E8
:104AF000EB2B7B016B01E4E1CE0ED11CEC14FD0429
:104B0000D9F020E8E216F10420F0FFEFEF1AFF0AD7
:104B1000F5CF41E06DE370E0C7010E944A1C41E01F
:104B20006EE370E0C7010E944A1C41E06FE370E051
:104B3000C7010E944A1CE9CF20E030E040E251E486
:104B4000C501B4010E940D2B209148023091490209
:104B500040914A0250914B020E940C2B6B017C0148
:104B600020911401309115014091160150911701C7
:104B700060E070E082E892E40E940C2B20E030E0DC
:104B800040E05FE30E94ED299B01AC01C701B60143
:104B90000E94792B9B01AC01C501B4010E940C2B32
:104BA000609318017093190180931A0190931B016F
:104BB00083E080935D070E94921B6B017C018091D2
:104BC0003B0290913C02A0913D02B0913E02C8167A
:104BD000D906EA06FB0661F0C701B6010E946A1E0B
:104BE000C0923B02D0923C02E0923D02F0923E0223
:104BF0008091760290E00A971CF083E190E002C079
:104C00008CE190E090935807809357078AE090E0FA
:104C100090935A07809359070E94921B6B017C0165
:104C200080913B0290913C02A0913D02B0913E02E6
:104C3000C816D906EA06FB0661F0C701B6010E9454
:104C40006A1EC0923B02D0923C02E0923D02F0927A
:104C50003E026091760270E081E497E00E94E71DD9
:104C600068E172E081E497E00E94541A0E941C1CE3
:104C70000A971CF062EA71E002C06CE671E081E420
:104C800097E00E94541A0E941C1CBC0181E497E02A
:104C90000E94E71DC0904802D0904902E0904A026D
:104CA000F0904B0220E030E0A901C701B6010E945C
:104CB000C42987FD2DC220E030E040E053E4C70165
:104CC000B6010E94212C18160CF422C220E030E01C
:104CD00040E050E4C701B6010E94212C1816ACF543
:104CE00020E030E04CEF52E4C701B6010E94C42935
:104CF00087FF2BC020E030E040E85FE360911401C3
:104D00007091150180911601909117010E940D2B51
:104D10000E94F22BB62EC701B6010E94F22B862FFD
:104D20006B2D0E94C61D8111F3C120E030E040E4EC
:104D300050E4C701B6010E940D2B0E94F22B862F72
:104D40006B2D0E94C61D8111E3C14090140150904B
:104D50001501609016017090170120E030E0A90164
:104D6000C301B2010E94C42987FDE4C120E030E004
:104D700040E852E4C301B2010E94212C18160CF441
:104D8000D9C120E030E040E050E4C301B2010E940C
:104D9000212C1816D4F520E030E040E752E4C3019E
:104DA000B2010E94C42987FF30C0C301B2010E9432
:104DB000F22BB62E20E030E040E050E4C701B6010F
:104DC0000E940D2B0E94F22B862F6B2D0E94C61D78
:104DD0008111B0C120E030E040E450E4C301B201F1
:104DE0000E940D2B0E94F22BB62E20E030E040E80E
:104DF0005FE3C701B6010E940D2B0E94F22B862FA4
:104E00006B2D0E94C61D811195C1C301B2010E9484
:104E1000EB2B1B01C701B6010E94EB2B5B019B0131
:104E20002D5F3F4F3E872D8791012D5F3F4FED85D1
:104E3000FE85AE16BF0621F1410137FE16C0812C5A
:104E4000912C13C088169906BCF440E8A416B1044E
:104E500048F441E0B401C501298B3A8B0E944A1CF9
:104E60003A8929895FEF851A950AC90121343105EC
:104E70004CF380E490E0E6CF8FEFA81AB80AD7CFC2
:104E800020911001309111014091120150911301B4
:104E9000C701B6010E940D2B60934802709349022E
:104EA00080934A0290934B0220910C0130910D01A6
:104EB00040910E0150910F01C301B2010E940D2BD0
:104EC000609314017093150180931601909317015C
:104ED000F8C08AEF91E00E944F1FE5CBE0904002BE
:104EE000F09041026E2D88E797E00E94BC1F8091F0
:104EF00048079091490766E070E00E94262C892BB4
:104F000039F4FFEFEF1AFF0AF0924102E0924002FB
:104F10008091400290914102059724F01092410245
:104F200010924002C0904202D0904302E0904402AE
:104F3000F09045020E94151BC616D706E806F90632
:104F400008F0BFC082E6809346020E94151BDC0178
:104F5000CB018053984FAF4FBF4F80934202909345
:104F60004302A0934402B0934502ABC081E092E0BB
:104F70000E944F1F80E10E94441F882329F08091E6
:104F800047028F5F8093470280E80E94441F882376
:104F900029F0809147028150809347028091470217
:104FA00087FD04C085301CF080E001C084E0809360
:104FB00047028AE6C82E87E0D82EE12CF12C80919A
:104FC0004702082E000C990B8E159F0519F467E611
:104FD00077E002C064E677E081E497E00E941B1A64
:104FE000F6016591749181E497E00E941B1A60EAD2
:104FF00071E081E497E00E943F1A2FEFE21AF20A73
:1050000032E0C30ED11C45E0E416F104C1F688E09D
:105010000E94441F882309F454C0809147028230C3
:1050200039F13CF4882311F1813009F04AC085E15F
:1050300046C08330D9F1843009F043C063E477E09F
:105040008DE792E00E941B1A0E94151BDC01CB0128
:1050500088579C4EAF4FBF4F8093420290934302BC
:10506000A0934402B093450283E629C08FE127C094
:1050700067E577E08DE792E00E941B1A8FEF9FEFC4
:1050800090931F0180931E010E94151BDC01CB0130
:10509000805F984DAF4FBF4F809342029093430281
:1050A000A0934402B093450281E209C06EE477E028
:1050B0008DE792E00E941B1A0E94841D02C080931B
:1050C00046020E94252080E090E0892B09F451C916
:1050D0000E9400004EC91092460254CB6FE072E06D
:1050E0008DE792E00E94541A60914E0270914F0237
:1050F0008DE792E00E94E71D6DEE71E08DE792E092
:105100000E94541A0E94841DCECB10924602DBCC22
:105110008091100190911101A0911201B0911301A1
:10512000B0588093100190931101A0931201B09395
:1051300013010BCE80910C0190910D01A0910E01F5
:10514000B0910F01B05880930C0190930D01A09382
:105150000E01B0930F0159CECF93DF9310928002CE
:1051600010927F0288EE93E0A0E0B0E0809381028D
:1051700090938202A0938302B09384028EE391E025
:1051800090937E0280937D028FEF9FEF90938A022F
:1051900080938902109244071092430710924A07A5
:1051A00010924B0720E120934C079093490780937E
:1051B000480710925107109252071092530710920D
:1051C0005407109255078CE591E090934207809325
:1051D00041078AE691E09093460780934507109235
:1051E00058071092570710925A071092590781E0FA
:1051F00080935B0710925C0780935D0710925E07B7
:105200001092300710922F0720E531E030932E07DF
:1052100020932D072DE233E030933207209331079E
:1052200020E830E0309334072093330720E430E067
:10523000309336072093350795E09093400780938D
:105240003F0710923A071092390710923C071092CC
:105250003B07109238071092370781E090E0909357
:105260003E0780933D0762EA71E087E293E00E9487
:10527000561762EA71E081E293E00E945617C3ED8F
:10528000D2E062EA71E0CE010E945617269683E0D2
:10529000C132D807B1F762EA71E08DEC92E0DF919C
:1052A000CF910C9456171F93FC0199278827BC01B6
:1052B000E89411911032E9F3193010F01E30C8F360
:1052C0001B3251F01D3249F4689406C00E948529B2
:1052D000610F711D811D911D119110531A30B0F392
:1052E0003EF490958095709561957F4F8F4F9F4FBD
:1052F0001F910895BB274A3031F4992322F4BDE26F
:10530000909581959F4F0C949B29592F482F372FAB
:10531000262F660F771F881F991F660F771F881F1C
:10532000991F620F731F841F951F660F771F881FB9
:10533000991F0895BB27FB015527AA27880F991F9E
:10534000AA1FA41710F0A41B83955051B9F7A05DB4
:10535000AA3308F0A95DA193009779F7B111B19331
:105360001192CB010C94B429DC01FC01672F7191DF
:105370007723E1F7329704C07C916D93708362913B
:10538000AE17BF07C8F308950E94C92908F481E049
:105390000895990F0008550FAA0BE0E8FEEF1616C6
:1053A0001706E807F907C0F012161306E407F50719
:1053B00098F0621B730B840B950B39F40A2661F08D
:1053C000232B242B252B21F408950A2609F4A14030
:1053D000A6958FEF811D811D08950E94002A0C94CF
:1053E000712A0E94632A38F00E946A2A20F09523CD
:1053F00011F00C945A2A0C94602A11240C94A52ABA
:105400000E94822A70F3959FC1F3950F50E0551FBB
:10541000629FF001729FBB27F00DB11D639FAA2709
:10542000F00DB11DAA1F649F6627B00DA11D661F58
:10543000829F2227B00DA11D621F739FB00DA11D79
:10544000621F839FA00D611D221F749F3327A00D33
:10545000611D231F849F600D211D822F762F6A2FCF
:1054600011249F5750409AF0F1F088234AF0EE0F34
:10547000FF1FBB1F661F771F881F91505040A9F761
:105480009E3F510580F00C945A2A0C94A52A5F3F48
:10549000E4F3983ED4F3869577956795B795F7959D
:1054A000E7959F5FC1F7FE2B880F911D9695879515
:1054B00097F9089597F99F6780E870E060E0089594
:1054C0009FEF80EC089500240A941616170618061C
:1054D0000906089500240A941216130614060506F8
:1054E0000895092E0394000C11F4882352F0BB0F89
:1054F00040F4BF2B11F460FF04C06F5F7F4F8F4FEC
:105500009F4F089557FD9058440F551F59F05F3F26
:1055100071F04795880F97FB991F61F09F3F79F0D5
:1055200087950895121613061406551FF2CF469557
:10553000F1DF08C0161617061806991FF1CF8695D9
:105540007105610508940895E894BB2766277727BD
:10555000CB0197F90895F999FECF92BD81BDF89AD4
:10556000992780B508952F923F924F925F926F9244
:105570007F928F929F92AF92BF92CF92DF92EF92E3
:10558000FF920F931F93CF93DF93CDB7DEB7CA1B64
:10559000DB0B0FB6F894DEBF0FBECDBF09942A888F
:1055A000398848885F846E847D848C849B84AA8437
:1055B000B984C884DF80EE80FD800C811B81AA81C4
:1055C000B981CE0FD11D0FB6F894DEBF0FBECDBF8F
:1055D000ED010895A1E21A2EAA1BBB1BFD010DC00F
:1055E000AA1FBB1FEE1FFF1FA217B307E407F50793
:1055F00020F0A21BB30BE40BF50B661F771F881F6F
:10560000991F1A9469F760957095809590959B0104
:10561000AC01BD01CF0108955058BB27AA270E94B5
:10562000242B0C94712A0E94632A38F00E946A2A63
:1056300020F039F49F3F19F426F40C94602A0EF4FC
:10564000E095E7FB0C945A2AE92F0E94822A58F32E
:10565000BA17620773078407950720F079F4A6F557
:105660000C94A42A0EF4E0950B2EBA2FA02D0B015A
:10567000B90190010C01CA01A0011124FF27591B97
:1056800099F0593F50F4503E68F11A16F040A22F9D
:10569000232F342F4427585FF3CF4695379527950E
:1056A000A795F0405395C9F77EF41F16BA0B620B0D
:1056B000730B840BBAF09150A1F0FF0FBB1F661F54
:1056C000771F881FC2F70EC0BA0F621F731F841F97
:1056D00048F4879577956795B795F7959E3F08F0BD
:1056E000B0CF9395880F08F09927EE0F979587957F
:1056F00008950E948D2B0C94712A0E946A2A58F0FA
:105700000E94632A40F029F45F3F29F00C945A2A42
:1057100051110C94A52A0C94602A0E94822A68F3E5
:105720009923B1F3552391F3951B550BBB27AA275A
:1057300062177307840738F09F5F5F4F220F331F94
:10574000441FAA1FA9F335D00E2E3AF0E0E832D05C
:1057500091505040E695001CCAF72BD0FE2F29D05F
:10576000660F771F881FBB1F261737074807AB0731
:10577000B0E809F0BB0B802DBF01FF2793585F4FA6
:105780003AF09E3F510578F00C945A2A0C94A52AC1
:105790005F3FE4F3983ED4F3869577956795B79588
:1057A000F7959F5FC9F7880F911D9695879597F993
:1057B0000895E1E0660F771F881FBB1F621773070C
:1057C0008407BA0720F0621B730B840BBA0BEE1F21
:1057D00088F7E09508950E94F22B6894B1110C941B
:1057E000A52A08950E948A2A88F09F5798F0B92F19
:1057F0009927B751B0F0E1F0660F771F881F991F06
:105800001AF0BA95C9F714C0B13091F00E94A42AD9
:10581000B1E008950C94A42A672F782F8827B85FE9
:1058200039F0B93FCCF3869577956795B395D9F75D
:105830003EF490958095709561957F4F8F4F9F4F67
:1058400008950E94C92908F48FEF0895AA1BBB1B75
:1058500051E107C0AA1FBB1FA617B70710F0A61B70
:10586000B70B881F991F5A95A9F780959095BC0191
:10587000CD01089597FB072E16F4009407D077FD0D
:1058800009D00E94262C07FC05D03EF49095819506
:105890009F4F0895709561957F4F0895EE0FFF1FFC
:1058A0000590F491E02D0994CF93DF938230910518
:1058B00010F482E090E0E0916D07F0916E0720E037
:1058C00030E0C0E0D0E0309711F1408151814817BD
:1058D0005907C0F04817590761F4828193812097D6
:1058E00019F09B838A832BC090936E0780936D077A
:1058F00026C02115310519F04217530718F49A01F3
:10590000BE01DF01EF010280F381E02DDCCF211524
:10591000310509F1281B390B2430310590F412961A
:105920008D919C9113976115710521F0FB01938373
:10593000828304C090936E0780936D07FD013296B9
:1059400044C0FD01E20FF31F81939193225031096E
:105950002D933C933AC020916B0730916C07232B19
:1059600041F4209123013091240130936C0720935E
:105970006B0720912101309122012115310541F45D
:105980002DB73EB74091250150912601241B350BC0
:10599000E0916B07F0916C07E217F307A0F42E1B60
:1059A0003F0B2817390778F0AC014E5F5F4F241783
:1059B000350748F04E0F5F1F50936C0740936B07FD
:1059C0008193919302C0E0E0F0E0CF01DF91CF91AD
:1059D00008950F931F93CF93DF93009709F48CC022
:1059E000FC0132971382128200916D0710916E07AD
:1059F0000115110581F420813181820F931F2091BF
:105A00006B0730916C072817390779F5F0936C070D
:105A1000E0936B0771C0D80140E050E0AE17BF07BC
:105A200050F412962D913C911397AD01211531053B
:105A300009F1D901F3CF9D01DA013383228360811B
:105A40007181860F971F8217930769F4EC012881F3
:105A50003981260F371F2E5F3F4F318320838A8184
:105A60009B8193838283452B29F4F0936E07E09307
:105A70006D0742C01396FC93EE931297ED01499186
:105A800059919E01240F351FE217F30771F48081AD
:105A90009181840F951F029611969C938E9382811B
:105AA000938113969C938E931297E0E0F0E0D801D7
:105AB00012968D919C911397009719F0F8018C0123
:105AC000F6CF8D919C9198012E5F3F4F820F931FCF
:105AD00020916B0730916C072817390769F43097CC
