:100000000C941F130C9447130C9447130C94471330
:100010000C9447130C9447130C9447130C944713F8
:100020000C9447130C9447130C9459150C94CB154E
:100030000C9447130C9447130C9447130C944713D8
:100040000C9447130C9447130C9447130C944713C8
:100050000C9447130C9447130C9447130C94DB181F
:100060000C9447130C9447130C9447130C944713A8
:100070000C9447130C9447130C9447130C94471398
:100080000C9447130C9447130C9447130C94471388
:100090000C9447130C9447130C9447130C94471378
:1000A0000C9447130C9447130C9447130000000062
:1000B000003E5B4F5B3E3E6B4F6B3E1C3E7C3E1CEE
:1000C000183C7E3C181C577D571C1C5E7F5E1C0034
:1000D000183C1800FFE7C3E7FF0018241800FFE7EB
:1000E000DBE7FF30483A060E2629792926407F05AE
:1000F0000507407F05253F5A3CE73C5A7F3E1C1CC4
:1001000008081C1C3E7F14227F22145F5F005F5F83
:1001100006097F017F006689956A6060606060946F
:10012000A2FFA29408047E040810207E2010080874
:100130002A1C08081C2A08081E101010100C1E0C7F
:100140001E0C30383E3830060E3E0E060000000011
:100150000000005F00000007000700147F147F14F8
:10016000242A7F2A1223130864623649562050003D
:1001700008070300001C2241000041221C002A1C29
:100180007F1C2A08083E0808008070300008080814
:100190000808000060600020100804023E51494534
:1001A0003E00427F400072494949462141494D3352
:1001B0001814127F1027454545393C4A49493141B9
:1001C000211109073649494936464949291E000087
:1001D00014000000403400000008142241141414DC
:1001E0001414004122140802015909063E415D59C8
:1001F0004E7C1211127C7F494949363E41414122D1
:100200007F4141413E7F494949417F090909013EFA
:10021000414151737F0808087F00417F4100204021
:10022000413F017F081422417F404040407F021C33
:10023000027F7F0408107F3E4141413E7F0909094A
:10024000063E4151215E7F09192946264949493216
:1002500003017F01033F4040403F1F2040201F3FDC
:100260004038403F63140814630304780403615961
:10027000494D43007F4141410204081020004141A3
:10028000417F04020102044040404040000307084F
:100290000020545478407F2844443838444444284B
:1002A000384444287F385454541800087E090218F2
:1002B000A4A49C787F0804047800447D400020407A
:1002C000403D007F1028440000417F40007C0478BE
:1002D00004787C080404783844444438FC18242406
:1002E0001818242418FC7C08040408485454542486
:1002F00004043F44243C4040207C1C2040201C3C03
:100300004030403C44281028444C9090907C4464F9
:10031000544C44000836410000007700000041368C
:10032000080002010204023C2623263C1EA1A16112
:10033000123A4040207A3854545559215555794144
:100340002154547841215554784020545579400C1B
:100350001E527212395555555939545454593955FC
:100360005454580000457C410002457D420001453F
:100370007C40F0292429F0F0282528F07C545545AC
:10038000002054547C547C0A097F4932494949323F
:100390003248484832324A4848303A4141217A3A54
:1003A00042402078009DA0A07D39444444393D401E
:1003B00040403D3C24FF2424487E4943662B2FFCCB
:1003C0002F2BFF0929F620C0887E09032054547979
:1003D000410000447D413048484A32384040227A4A
:1003E000007A0A0A727D0D19317D2629292F2826C7
:1003F0002929292630484D402038080808080808CF
:100400000808382F10C8ACBA2F102834FA00007B27
:10041000000008142A142222142A1408950022002D
:1004200095AA005500AAAA55AA55AA000000FF00E7
:10043000101010FF00141414FF001010FF00FF1024
:1004400010F010F0141414FC001414F700FF000056
:10045000FF00FF1414F404FC141417101F10101FD5
:10046000101F1414141F00101010F0000000001FC3
:10047000101010101F10101010F010000000FF10CE
:100480001010101010101010FF10000000FF1400CA
:1004900000FF00FF00001F10170000FC04F41414FC
:1004A0001710171414F404F40000FF00F7141414C8
:1004B00014141414F700F7141414171410101F1048
:1004C0001F141414F4141010F010F000001F101F6B
:1004D0000000001F14000000FC140000F010F010D9
:1004E00010FF10FF141414FF141010101F00000050
:1004F00000F010FFFFFFFFFFF0F0F0F0F0FFFFFF54
:100500000000000000FFFF0F0F0F0F0F38444438AA
:10051000447C2A2A3E147E02020606027E027E02E5
:1005200063554941633844443C04407E201E200604
:10053000027E020299A5E7A5991C2A492A1C4C7241
:1005400001724C304A4D4D303048784830BC625AC8
:10055000463D3E494949007E0101017E2A2A2A2A58
:100560002A44445F444440514A444040444A514034
:100570000000FF0103E080FF000008086B6B0836F5
:1005800012362436060F090F060000181800000066
:100590001010003040FF0101001F01011E00191D55
:1005A0001712003C3C3C3C00000000000102040823
:1005B00010204080080B0002020201000904000024
:1005C00001020200000524001001052401010104BC
:1005D00024020605240600010705810310004009D6
:1005E000040100020A0000000705020240000007A3
:1005F0000583024000000403090412010002EF0217
:1006000001404123368000010102030141726475FB
:10061000696E6F204C4C430041726475696E6F20A7
:100620004C656F6E6172646F00D5F08D14A1C88146
:10063000CFD9F1AF20008040000000000000000092
:1006400000000000000000000000000000000000AA
:10065000000000000000000000000000000000009A
:10066000000000000000000000000000000000008A
:10067000000000000000000000000000000000007A
:10068000000000000000000000000000000000006A
:10069000000000FC020202E2262626262222222256
:1006A0002222222222222222222222222222E2028A
:1006B0000202FC000000000000000000000000003A
:1006C000000000000000000000000000000000002A
:1006D000000000000000000000000000000000001A
:1006E000000000000000000000000000000000000A
:1006F00000000000000000000000000000000000FA
:1007000000000000000000000000000000000000E9
:10071000000000FF000000FF0000000000000000DB
:100720000000000000000000000000000000FF00CA
:100730002000FF00000000000000000000008040DA
:100740002010080402010101010101010101010160
:100750000101010101010101018141A151A955AB33
:10076000FF0000000000000000000000000000008A
:100770000000000000000000000000F8F8F0E0C0F9
:1007800080000000000000000000000000000000E9
:10079000000000FF0000001F1010101010101010BB
:1007A00010101010101010101010101010101F004A
:1007B0000700FF000000000000000000FEFFFEFE3A
:1007C0001E1E1E1E1E1E1E1E1E1E1E1E1E5E5E1EC9
:1007D000FEFEFEFEFEFEFEFE55AA55AA55AA55AA2D
:1007E000FF0000000000000000FEFE5606AE0656A8
:1007F000AE56AE56AE56AEFEFEFEFEFFFFFFFFFF4C
:10080000FFFFFEFC78300000000000000000000048
:10081000000000FF000000C04040FC24FC4040C03D
:100820000000000000000000000080C0C0C0800088
:100830000000FF000000000000000000FFFFFFFFBD
:10084000007F7F7F7F01F1F1F1F1F1F1F1F1F1F042
:10085000F1F1F5F501FFFFFF55AA55AA55AA55AAD2
:100860007F000000000000000003030303030303F4
:1008700003030303030303030303037F7F3F1F0FEC
:10088000070301000000000000000000000000005D
:10089000000000FF0000000101011F121F01010103
:1008A00000000000387C7C7C380003070707030049
:1008B0000000FF000000000000000000FFFFFFFF3D
:1008C000FFFFFFFFFFF0F7F7F7F7F7F7F7F7F7F797
:1008D000F7F7F7F7F0FFFFFF552A150A05020100A9
:1008E0000000000000000000000000000000000008
:1008F00000000000000000000000000000000000F8
:1009000000000000000000000000000000000000E7
:10091000000000FF000000000000000000000000D8
:10092000000000000000000040E0F0E04000000097
:100930000000FF00000000000000000000000000B8
:1009400000000000000000000000000000000000A7
:100950000000000000000000000000000000000097
:100960000000000000000000000000000000000087
:100970000000000000000000000000000000000077
:100980000000000000000000000000000000000067
:10099000000080DFE020202020203838B8A0202070
:1009A00020BC3C3C3CBC20A020A0212020202020BA
:1009B00020E0DF80000000000000000000000000D8
:1009C0000000000000000000000000000000000027
:1009D0000000000000000000000000000000000017
:1009E0000000000000000000000000000000000007
:1009F00000000000000000000000000000000000F7
:100A000000000000000000000000000000000000E6
:100A1000003F51685068506850685068536A516888
:100A2000516A5168516A506B516A506850685068F9
:100A3000506850693F000000000000000000000006
:100A400000000000000000000000000000000000A6
:100A50000000000000000000000000000000000096
:100A60000000000000000000000000000000000086
:100A70000000000000000000000000000000000076
:100A80000000000000000000000000000000000066
:100A90000000FC020202E226262626222222222230
:100AA00022222222222222222222222222E20202A6
:100AB00002FC000000000000000000000000000038
:100AC0000000000000000000000000000000000026
:100AD0000000000000000000000000000000000016
:100AE0000000000000000000000000000000000006
:100AF00000000000000000000000000000000000F6
:100B000000000000000000000000000000000000E5
:100B10000000FF000000FF000000000000000000D7
:100B200000000000000000000000000000FF0020A6
:100B300000FF000000000000000000000000008036
:100B4000402010080402010101010101010101011D
:100B5000010101010101010101018141A151A955D9
:100B6000ABFF0000000000000000000000000000DB
:100B70000000000000000000000000000000F8F885
:100B8000F0E0C08000000000000000000000000055
:100B90000000FF0000001F101010101010101010A7
:100BA000101010101010101010101010101F00074F
:100BB00000FF0000000000000000000000FEFFFE3B
:100BC000FE1E1E1E1E1E1E1E1E1E1E1E1E1E5E5EE5
:100BD0001EFEFEFEFEFEFEFEFE55AA55AA55AA55B5
:100BE000AAFF00000000000000000000FEFE560604
:100BF000AE0656AE56AE56AE56AEFEFEFEFEFFFF3B
:100C0000FFFFFFFFFFFEFC78300000000000000047
:100C10000000FF000000C04040FC24FC4040C00039
:100C200000000000000000000080C0C0C080000084
:100C300000FF0000000000000000000000FFFFFFB8
:100C4000FF007F7F7F7F01F1F1F1F1F1F1F1F1F12F
:100C5000F0F1F1F5F501FFFFFF55AA55AA55AA5588
:100C6000AA7F00000000000000000000030303034F
:100C700003030303030303030303030303037F7F4C
:100C80003F1F0F07030100000000000000000000EC
:100C90000000FF0000000101011F121F01010100FF
:100CA000000000387C7C7C38000307070703000045
:100CB00000FF0000000000000000000000FFFFFF38
:100CC000FFFFFFFFFFFFF0F7F7F7F7F7F7F7F7F78B
:100CD000F7F7F7F7F7F0FFFFFF552A150A050201AE
:100CE0000000000000000000000000000000000004
:100CF00000000000000000000000000000000000F4
:100D000000000000000000000000000000000000E3
:100D10000000FF00000000000000000000000000D4
:100D20000000000000000040E0F0E0400000000093
:100D300000FF0000000000000000000000000000B4
:100D400000000000000000000000000000000000A3
:100D50000000000000000000000000000000000093
:100D60000000000000000000000000000000000083
:100D70000000000000000000000000000000000073
:100D80000000000000000000000000000000000063
:100D90000080DFE020202020203838B8A02020204C
:100DA000BC3C3C3CBC20A020A021202020202020B6
:100DB000E0DF8000000000000000000000000000F4
:100DC0000000000000000000000000000000000023
:100DD0000000000000000000000000000000000013
:100DE0000000000000000000000000000000000003
:100DF00000000000000000000000000000000000F3
:100E000000000000000000000000000000000000E2
:100E10003F51685068506850685068536A51685133
:100E20006A5168516A506B516A50685068506850F6
:100E30006850693F00000000000000000000000052
:100E400000000000000000000000000000000000A2
:100E50000000000000000000000000000000000092
:100E60000000000000000000000000000000000082
:100E70000000000000000000000000000000000072
:100E80000000000000000000000000000000000062
:100E9000000000F8040404C44C4C4C4C444444444A
:100EA0004444444444444444444444444444C404C2
:100EB0000404F80000000000000000000000000032
:100EC0000000000000000000000000000000000022
:100ED0000000000000000000000000000000000012
:100EE0000000000000000000000000000000000002
:100EF00000000000000000000000000000000000F2
:100F000000000000000000000000000000000000E1
:100F1000000000FF000000FF0000000000000000D3
:100F20000000000000000000000000000000FF00C2
:100F30004000FF00000000000000000000000080F2
:100F40004020100804020101010101010101010119
:100F5000010101010101010101018141A151A955D5
:100F6000ABFF0000000000000000000000000000D7
:100F7000000000000000000000000000000000F879
:100F8000F8F0E0C080000000000000000000000059
:100F9000000000FF0000003F202020202020202013
:100FA00020202020202020202020202020203F0042
:100FB0000E00FF00000000000000000000FEFFFE29
:100FC000FE1E1E1E1E1E1E1E1E1E1E1E1E1E5E5EE1
:100FD0001EFEFEFEFEFEFEFEFE55AA55AA55AA55B1
:100FE000AAFF0000000000000000000000FEFE5606
:100FF00006AE0656AE56AE56AE56AEFEFEFEFEFF30
:10100000FFFFFFFFFFFFFEFC783000000000000044
:10101000000000FF000000808080F848F880808099
:101020000000000000000000000000808080000040
:101030000000FF00000000000000000000FFFFFFB4
:10104000FF007F7F7F7F01F1F1F1F1F1F1F1F1F12B
:10105000F0F1F1F5F501FFFFFF55AA55AA55AA5584
:10106000AA7F00000000000000000000000303034E
:101070000303030303030303030303030303037FC4
:101080007F3F1F0F07030100000000000000000069
:10109000000000FF0000000302023F243F020203A1
:1010A0000000000070F8F8F87000070F0F0F07003D
:1010B0000000FF00000000000000000000FFFFFF34
:1010C000FFFFFFFFFFFFF0F7F7F7F7F7F7F7F7F787
:1010D000F7F7F7F7F7F0FFFFFF552A150A050201AA
:1010E0000000000000000000000000000000000000
:1010F00000000000000000000000000000000000F0
:1011000000000000000000000000000000000000DF
:10111000000000FF000000000000000000000000D0
:10112000000000000000000080C0E0C0800000005F
:101130000000FF00000000000000000000000000B0
:10114000000000000000000000000000000000009F
:10115000000000000000000000000000000000008F
:10116000000000000000000000000000000000007F
:10117000000000000000000000000000000000006F
:10118000000000000000000000000000000000005F
:10119000000000BFC0404040404070707040404080
:1011A0004078787878784040404143414040404022
:1011B00040C0BF0000000000000000000000000070
:1011C000000000000000000000000000000000001F
:1011D000000000000000000000000000000000000F
:1011E00000000000000000000000000000000000FF
:1011F00000000000000000000000000000000000EF
:1012000000000000000000000000000000000000DE
:10121000007EA3D1A1D0A0D0A0D0A0D0A7D5A2D02D
:10122000A2D5A2D0A2D5A0D7A2D5A0D0A0D0A0D020
:10123000A0D1A1D37E00000000000000000000004B
:10124000000000000000000000000000000000009E
:10125000000000000000000000000000000000008E
:10126000000000000000000000000000000000007E
:10127000000000000000000000000000000000006E
:10128000000000000000000000000000000000005E
:10129000000000FC020202E226262626222222224A
:1012A0002222222222222222222222222222E2027E
:1012B0000202FC000000000000000000000000002E
:1012C000000000000000000000000000000000001E
:1012D000000000000000000000000000000000000E
:1012E00000000000000000000000000000000000FE
:1012F00000000000000000000000000000000000EE
:1013000000000000000000000000000000000000DD
:10131000000000FF000000FF0000000000000000CF
:101320000000000000000000000000000000FF00BE
:101330002000FF000000000000000000000000800E
:101340004020100804020101010101010101010115
:10135000010101010101010101018141A151A955D1
:10136000ABFF0000000000000000000000000000D3
:10137000000000000000000000000000000000006D
:10138000F8F8F0E0C080000000000000000000005D
:10139000000000FF0000001F1010101010101010AF
:1013A00010101010101010101010101010101F003E
:1013B0000700FF00000000000000000000FEFFFE2C
:1013C000FE1E1E1E1E1E1E1E1E1E1E1E1E1E5E5EDD
:1013D0001EFEFEFEFEFEFEFEFE55AA55AA55AA55AD
:1013E000AAFF000000000000000000000000FEFE58
:1013F0005606AE0656AE56AE56AE56AEFEFEFEFED5
:10140000FFFFFFFFFFFFFFFEFC7830000000000041
:10141000000000FF000000C04040FC24FC4040C031
:101420000000000000000000000080C0C0C080007C
:101430000000FF00000000000000000000FFFFFFB0
:10144000FF007F7F7F7F01F1F1F1F1F1F1F1F1F127
:10145000F0F1F1F5F501FFFFFF55AA55AA55AA5580
:10146000AA7F00000000000000000000000003034D
:10147000030303030303030303030303030303033C
:101480007F7F3F1F0F0703010000000000000000E6
:10149000000000FF0000000101011F121F010101F7
:1014A00000000000387C7C7C38000307070703003D
:1014B0000000FF00000000000000000000FFFFFF30
:1014C000FFFFFFFFFFFFF0F7F7F7F7F7F7F7F7F783
:1014D000F7F7F7F7F7F0FFFFFF552A150A050201A6
:1014E00000000000000000000000000000000000FC
:1014F00000000000000000000000000000000000EC
:1015000000000000000000000000000000000000DB
:10151000000000FF000000000000000000000000CC
:10152000000000000000000040E0F0E0400000008B
:101530000000FF00000000000000000000000000AC
:10154000000000000000000000000000000000009B
:10155000000000000000000000000000000000008B
:10156000000000000000000000000000000000007B
:10157000000000000000000000000000000000006B
:10158000000000000000000000000000000000005B
:10159000000080DFE020202020203838B8A0202064
:1015A00020BC3C3C3CBC20A020A0212020202020AE
:1015B00020E0DF80000000000000000000000000CC
:1015C000000000000000000000000000000000001B
:1015D000000000000000000000000000000000000B
:1015E00000000000000000000000000000000000FB
:1015F00000000000000000000000000000000000EB
:1016000000000000000000000000000000000000DA
:10161000003F51685068506850685068536A51687C
:10162000516A5168516A506B516A506850685068ED
:10163000506850693F0000000000000000000000FA
:10164000000000000000000000000000000000009A
:10165000000000000000000000000000000000008A
:10166000000000000000000000000000000000007A
:10167000000000000000000000000000000000006A
:10168000000000000000000000000000000000005A
:10169000000000FE010101F11313131311111111C8
:1016A0001111111111111111111111111111F1015A
:1016B0000101FE000000000000000000000000002A
:1016C000000000000000000000000000000000001A
:1016D000000000000000000000000000000000000A
:1016E00000000000000000000000000000000000FA
:1016F00000000000000000000000000000000000EA
:1017000000000000000000000000000000000000D9
:10171000000000FF000000FF0000000000000000CB
:101720000000000000000000000000000000FF00BA
:101730009000FF000000000000000000000000809A
:101740004020100804020101010101010101010111
:10175000010101010101010101018141A151A955CD
:10176000ABFF0000000000000000000000000000CF
:101770000000000000000000000000000000000069
:10178000000000F8F8F0E0C0800000000000000059
:10179000000000FF0000000F0808080808080808FB
:1017A00008080808080808080808080808080F00BA
:1017B0000300FF00000000000000000000FEFFFE2C
:1017C000FE1E1E1E1E1E1E1E1E1E1E1E1E1E5E5ED9
:1017D0001EFEFEFEFEFEFEFEFE55AA55AA55AA55A9
:1017E000AAFF000000000000000000000000000050
:1017F00000FEFE5606AE0656AE56AE56AE56AEFECF
:10180000FEFEFEFFFFFFFFFFFFFFFEFC7830000043
:10181000000000FF000000E0A0A0FE12FEA0A0E07B
:1018200000000000000000000000C0E0E0E0C00098
:101830000000FF00000000000000000000FFFFFFAC
:10184000FF007F7F7F7F01F1F1F1F1F1F1F1F1F123
:10185000F0F1F1F5F501FFFFFF55AA55AA55AA557C
:10186000AA7F00000000000000000000000000004F
:10187000000303030303030303030303030303033B
:101880000303037F7F3F1F0F0703010000000000D9
:10189000000000FF0000000000000F090F00000022
:1018A000000000001C3E3E3E1C000103030301003B
:1018B0000000FF00000000000000000000FFFFFF2C
:1018C000FFFFFFFFFFFFF0F7F7F7F7F7F7F7F7F77F
:1018D000F7F7F7F7F7F0FFFFFF552A150A050201A2
:1018E00000000000000000000000000000000000F8
:1018F00000000000000000000000000000000000E8
:1019000000000000000000000000000000000000D7
:10191000000000FF000000000000000000000000C8
:1019200000000000000000002070F870200000009F
:101930000000FF00000000000000000000000000A8
:101940000000000000000000000000000000000097
:101950000000000000000000000000000000000087
:101960000000000000000000000000000000000077
:101970000000000000000000000000000000000067
:101980000000000000000000000000000000000057
:101990000080C06F7010101010101C1CDC509010D4
:1019A000905E9E1E9E5E10D0905010101010101071
:1019B00010706FC0800000000000000000000000F8
:1019C0000000000000000000000000000000000017
:1019D0000000000000000000000000000000000007
:1019E00000000000000000000000000000000000F7
:1019F00000000000000000000000000000000000E7
:101A000000000000000000000000000000000000D6
:101A1000001F283428342834283428342935283421
:101A200028352834283528352835283428342834D2
:101A3000283428341F00000080400000000000000F
:101A40000000000000000000000000000000000096
:101A50000000000000000000000000000000000086
:101A60000000000000000000000000000000000076
:101A70000000000000000000000000000000000066
:101A80000000000000000000000000000000000056
:101A90000000000000C02020202060606060202046
:101AA0002020202020202020202020202020202036
:101AB00020202020C00000000000000000000000E6
:101AC0000000000000000000000000000000000016
:101AD0000000000000000000000000000000000006
:101AE00000000000000000000000000000000000F6
:101AF00000000000000000000000000000000000E6
:101B000000000000000000000000000000000000D5
:101B10000000000000FF000000FE020202020202BC
:101B20000202020202020202020202020202020295
:101B3000FE000000FF0000000000000000000000A8
:101B40000000000000000000000000000000000095
:101B50000000000000000000000000000000000085
:101B60000000000000000000000000000000000075
:101B700000C0E0F0F8F8FCFCFE1E0E0E0E1EFEFC8F
:101B8000FCF8F8F0E0C000000000000000000000D9
:101B90000000000000FF000000FF00000000000047
:101BA0000000000000000000000000000000000035
:101BB000FF007200FF0000000000000000000000B5
:101BC00000C060203F09090909090909E9A9490973
:101BD00049A94D0D4DA909E949A9090909090909A9
:101BE000093F2060C000000000000000000000FC71
:101BF000FFFFFFFFFFFFFFFFFF0000000000FFFFF0
:101C0000FFFFFFFFFFFFFFFC0000000000000000DF
:101C10000000000000FF000000010101C141C101FE
:101C200001010101010101010101010101010101A4
:101C300001000000FF0000000000000000000000A4
:101C4000000F141A141A141A141A141A141A141A43
:101C5000141A141A141A141A141A141A141A141A14
:101C6000141A141A0F000000000000000000000306
:101C70000F3F7FFFFFFFFFFFFF1F0808081FFFFF49
:101C8000FFFFFFFF7F3F0F03000000000000000088
:101C90000000000000FF0000001C1414FF22FF14CD
:101CA000141C0000000080C0C0C08000387C7C7C18
:101CB00038000000FF0000000000000000000000ED
:101CC0000000000000000000000000000000000014
:101CD0000000000000000000000000000000000004
:101CE00000000000000000000000000000000000F4
:101CF00000000000010103030707060606070703AB
:101D000003010100000000000000000000000000CE
:101D10000000000000FF00000000000001010100C1
:101D20000000000000000307070703000000000098
:101D300000000000FF0000000000000000000000A4
:101D40000000000000000000000000000000000093
:101D50000000000000000000000000000000000083
:101D60000000000000000000000000000000000073
:101D70000000000000000000000000000000000063
:101D80000000000000000000000000000000000053
:101D90000000000000FF00000000000080808000C4
:101DA000000000C0C0C0C0C00000040E1F0E040030
:101DB00000000000FF000000000000000000000024
:101DC0000000000000000000000000000000000013
:101DD0000000000000000000000000000000000003
:101DE00000000000000000000000000000000000F3
:101DF00000000000000000000000000000000000E3
:101E000000000000000000000000000000000000D2
:101E100000000000000102020202020203030302AA
:101E2000020202030303030302020202020202028D
:101E30000202020201000000000000000000000099
:101E40000000000000000000000000000000000092
:101E50000000000000000000000000000000000082
:101E60000000000000000000000000000000000072
:101E70000000000000000000000000000000000062
:101E80000000000000000000000000000000000052
:101E900000000000C0202020206060606020202022
:101EA0002020202020202020202020202020202032
:101EB000202020C000000000000000000000000002
:101EC0000000000000000000000000000000000012
:101ED0000000000000000000000000000000000002
:101EE00000000000000000000000000000000000F2
:101EF00000000000000000000000000000000000E2
:101F000000000000000000000000000000000000D1
:101F100000000000FF000000FE02020202020202B6
:101F2000020202020202020202020202020202FE95
:101F3000000000FF000000000000000000000000A2
:101F40000000000080808080808080808080808091
:101F50008080808080808080808080808080808081
:101F60008080000000000000000000000000000071
:101F700000C0E0F0F8F8FCFCFE1E0E0E0E1EFEFC8B
:101F8000FCF8F8F0E0C000000000000000000000D5
:101F900000000000FF000000FF0000000000000043
:101FA000000000000000000000000000000000FF32
:101FB000007200FF000000000000000000000000B0
:101FC00000E030101F0404040404040474542404C6
:101FD00024542606265404742454040404040404DB
:101FE000041F1030E000000000000000000000FCB2
:101FF000FFFFFFFFFFFFFFFFFF0000000000FFFFEC
:10200000FFFFFFFFFFFFFFFC0000000000000000DB
:1020100000000000FF000000010101C141C10101F9
:1020200001010101010101010101010101010101A0
:10203000000000FF000000000000000000000000A1
:1020400000070A0D0A0D0A0D0A0D0A0D0A0D0A0DE8
:102050000A0D0A0D0A0D0A0D0A0D0A0D0A0D0A0DC8
:102060000A0D0A0D07000000000000000000000338
:102070000F3F7FFFFFFFFFFFFF1F0808081FFFFF45
:10208000FFFFFFFF7F3F0F03000000000000000084
:1020900000000000FF0000001C1414FF22FF1414B5
:1020A0001C0000000080C0C0C08000387C7C7C38F0
:1020B000000000FF00000000000000000000000021
:1020C0000000000000000000000000000000000010
:1020D0000000000000000000000000000000000000
:1020E00000000000000000000000000000000000F0
:1020F00000000000010103030707060606070703A7
:1021000003010100000000000000000000000000CA
:1021100000000000FF0000000000000101010000BD
:102120000000000000030707070300000000000094
:10213000000000FF000000000000000000000000A0
:10214000000000000000000000000000000000008F
:10215000000000000000000000000000000000007F
:10216000000000000000000000000000000000006F
:10217000000000000000000000000000000000005F
:10218000000000000000000000000000000000004F
:1021900000000000FF0000000000008080800000C0
:1021A0000000C0C0C0C0C00000040E1F0E0400002C
:1021B000000000FF00000000000000000000000020
:1021C000000000000000000000000000000000000F
:1021D00000000000000000000000000000000000FF
:1021E00000000000000000000000000000000000EF
:1021F00000000000000000000000000000000000DF
:1022000000000000000000000000000000000000CE
:1022100000000000010202020202020303030202A4
:102220000202030303030302020202020202020289
:102230000202020100000000000000000000000097
:10224000000000000000000000000000000000008E
:10225000000000000000000000000000000000007E
:10226000000000000000000000000000000000006E
:10227000000000000000000000000000000000005E
:10228000000000000000000000000000000000004E
:102290000000000000C0202020206060606020203E
:1022A000202020202020202020202020202020202E
:1022B00020202020C00000000000000000000000DE
:1022C000000000000000000000000000000000000E
:1022D00000000000000000000000000000000000FE
:1022E00000000000000000000000000000000000EE
:1022F00000000000000000000000000000000000DE
:1023000000000000000000000000000000000000CD
:102310000000000000FF000000FE020202020202B4
:10232000020202020202020202020202020202028D
:10233000FE000000FF0000000000000000000000A0
:10234000000000000000000000000000000000008D
:10235000000000000000000000000000000000007D
:10236000000000000000000000000000000000006D
:1023700000C0E0F0F8F8FCFCFE1E0E0E0E1EFEFC87
:10238000FCF8F8F0E0C000000000000000000000D1
:102390000000000000FF000000FF0000000000003F
:1023A000000000000000000000000000000000002D
:1023B000FF007200FF0000000000000000000000AD
:1023C000C060203F09090909090909E9A949094922
:1023D000A94D0D4DA909E949A909090909090909E1
:1023E0003F2060C00000000000000000000000FC72
:1023F000FFFFFFFFFFFFFFFFFF0000000000FFFFE8
:10240000FFFFFFFFFFFFFFFC0000000000000000D7
:102410000000000000FF000000010101C141C101F6
:10242000010101010101010101010101010101019C
:1024300001000000FF00000000000000000000009C
:102440000F141A141A141A141A141A141A141A1427
:102450001A141A141A141A141A141A141A141A140C
:102460001A141A0F00000000000000000000000312
:102470000F3F7FFFFFFFFFFFFF1F0808081FFFFF41
:10248000FFFFFFFF7F3F0F03000000000000000080
:102490000000000000FF0000001C1414FF22FF14C5
:1024A000141C0000000080C0C0C08000387C7C7C10
:1024B00038000000FF0000000000000000000000E5
:1024C000000000000000000000000000000000000C
:1024D00000000000000000000000000000000000FC
:1024E00000000000000000000000000000000000EC
:1024F00000000000010103030707060606070703A3
:1025000003010100000000000000000000000000C6
:102510000000000000FF00000000000001010100B9
:102520000000000000000307070703000000000090
:1025300000000000FF00000000000000000000009C
:10254000000000000000000000000000000000008B
:10255000000000000000000000000000000000007B
:10256000000000000000000000000000000000006B
:10257000000000000000000000000000000000005B
:10258000000000000000000000000000000000004B
:102590000000000000FF00000000000080808000BC
:1025A000000000C0C0C0C0C00000040E1F0E040028
:1025B00000000000FF00000000000000000000001C
:1025C000000000000000000000000000000000000B
:1025D00000000000000000000000000000000000FB
:1025E00000000000000000000000000000000000EB
:1025F00000000000000000000000000000000000DB
:1026000000000000000000000000000000000000CA
:1026100000000000000102020202020203030302A2
:102620000202020303030303020202020202020285
:10263000020202020100000000003924D41D11240E
:102640001FBECFEFDAE0DEBFCDBF12E0A0E0B1E009
:10265000EAE0F3E502C005900D92A032B107D9F788
:1026600027E0A0E2B2E001C01D92AD30B207E1F771
:1026700013E1CEE1D3E104C02197FE010E945D2762
:10268000CD31D107C9F70E94EF1D0C9478290C9425
:10269000000040913C0250913D0220913A0230915D
:1026A0003B0242175307B4F49091E8009570E1F3B0
:1026B0009091E80092FD19C08093F10080913C0256
:1026C00090913D0201968F739927892B19F48EEF13
:1026D0008093E80080913C0290913D020196909396
:1026E0003D0280933C0281E0089580E00895CF92FE
:1026F000DF92EF92FF920F931F93CF93DF931F927E
:10270000CDB7DEB7182F062FE42E862F880F8E5FE9
:1027100099830E94491383E00E944913F12EC12E30
:102720009981D92E8C2D8F19801798F4F601E7FE28
:1027300002C0849101C080810E944913182F80E05B
:102740000E9449138123FFEFCF1ADF0A8111EACFDC
:1027500001C081E00F90DF91CF911F910F91FF9009
:10276000EF90DF90CF900895DF92EF92FF920F935A
:102770001F93CF93DF93D82E8A017B01E40EF51EC1
:10278000EB01CE15DF0571F0D7FE03C0FE01849189
:1027900001C088810E94491321968111F2CF8FEFE9
:1027A0009FEF01C0C801DF91CF911F910F91FF9062
:1027B000EF90DF900895615030F02091F100FC011E
:1027C00020830196F8CF289884E6809363020895C9
:1027D000CF92DF92EF92FF920F931F93CF93DF93ED
:1027E0006C017A018B01C0E0D0E0CE15DF0589F0E5
:1027F000D8016D918D01D601ED91FC910190F08190
:10280000E02DC6010995892B11F47E0102C02196A5
:10281000ECCFC701DF91CF911F910F91FF90EF9007
:10282000DF90CF900895CF93DF931F92CDB7DEB79F
:102830006983DC01ED91FC910280F381E02D41E0A0
:1028400050E0BE016F5F7F4F09950F90DF91CF91F0
:10285000089583E08093E9008091F200882319F0C5
:102860008AE38093E8000895FC018485958597FDAF
:102870000BC09FB7F89482E08093E9008091F2004A
:102880009FBF90E0019608959FB7F89482E08093EF
:10289000E9008091F2009FBF90E008953FB7F8945F
:1028A0008091360290913702A0913802B09139029E
:1028B00026B5A89B05C02F3F19F00196A11DB11D9B
:1028C0003FBFBA2FA92F982F8827820F911DA11DD6
:1028D000B11DBC01CD0142E0660F771F881F991F13
:1028E0004A95D1F708950895089580E090E00895FD
:1028F0000E945A290F931F93CF93DF931F92CDB756
:10290000DEB782E0898342E450E064EB75E080E862
:102910000E94B4130E947C1DDC0112960D911C9143
:1029200013970115110569F0D801ED91FC91028012
:10293000F381E02DBE016F5F7F4FC801099597FFBE
:1029400007C089810F90DF91CF911F910F9108955A
:10295000F80100851185E5CF0E946B1D90E0089578
:102960000F931F93CF93DF931F92CDB7DEB78C01E8
:10297000FC018485958597FF0EC0CE0101960E94CB
:10298000601B019719F4298130E002C02FEF3FEF5F
:10299000F80135872487F801848595850F90DF91AC
:1029A000CF911F910F910895CF93DF931F92CDB7D1
:1029B000DEB7FC018485958597FD05C02FEF3FEFBD
:1029C000358724870BC0CE0101960E94601B0197BA
:1029D00019F4898190E002C08FEF9FEF0F90DF9193
:1029E000CF9108950F931F93CF93DF93EC018881CC
:1029F0009981009729F02A813B812617370788F4AF
:102A00008B016F5F7F4F0E949028009761F0998340
:102A100088831B830A832C813D81232B11F4FC01C5
:102A2000108281E001C080E0DF91CF911F910F9172
:102A30000895EF92FF920F931F93CF93DF93EC01D2
:102A40007B018A01BA010E94F21428813981811127
:102A50000DC02115310519F0C9010E94F82719820E
:102A600018821D821C821B821A8206C01D830C8361
:102A7000B701C9010E947129CE01DF91CF911F9149
:102A80000F91FF90EF900895FC0111821082138244
:102A90001282158214826115710551F0FB010190BB
:102AA0000020E9F73197AF01461B570B0C9419151D
:102AB00008951F920F920FB60F9211248F939F9338
:102AC0008091E1009091E100937F9093E10083FF7A
:102AD0000FC01092E90091E09093EB001092EC008F
:102AE00092E39093ED001092640298E09093F000CE
:102AF00082FF20C093E09093E9009091F200992327
:102B000019F09AE39093E80090913E02992339F0EE
:102B100090913E02915090933E02992389F19091B9
:102B20006302992339F0909163029150909363026C
:102B3000992341F184FF10C08091E2008E7E816074
:102B40008093E2008091E1008F7E8093E10080918C
:102B500040028E7E806111C080FF16C08091E2002D
:102B60008E7E80618093E2008091E1008E7E809372
:102B7000E100809140028E7E81608093400204C01B
:102B80005D9ACDCF289AD6CF9F918F910F900FBE8F
:102B90000F901F9018951F920F920FB60F9211244D
:102BA000CF92DF92EF92FF920F931F932F933F9359
:102BB0004F935F936F937F938F939F93AF93BF9345
:102BC000EF93FF93CF93DF93CDB7DEB76C97DEBF64
:102BD000CDBF1092E9008091E80083FFEDC168E06D
:102BE000CE0145960E94DB1382EF8093E8008D8929
:102BF00087FF05C09091E80090FFFCCF03C09EEFD7
:102C00009093E800982F907609F0C6C09E892F898E
:102C1000188D91110CC0803829F480914102809365
:102C2000F10002C01092F1001092F10048C1422F51
:102C300050E0512B913051F4811141C14130510587
:102C400009F03DC1809141028D7F0BC0933061F44A
:102C5000811135C14130510509F031C180914102E6
:102C60008260809341022BC1953041F48091E8004D
:102C700080FFFCCF20682093E30021C1963009F04B
:102C80005FC0EB8CFC8C1092E90010923D02109218
:102C90003C02123091F510923B0210923A020E94CF
:102CA0007A1499E0BE016F5F7F4FDB01E92F1D921F
:102CB000EA95E9F799831A8391E09E8390EA9887D1
:102CC0009AEF998720913C0230913D02275F3F4F58
:102CD0003C832B838D831092E90010923D02109269
:102CE0003C02F0923B02E0923A0249E050E080E080
:102CF0000E94B4130E947A14E2C0F0923B02E09268
:102D00003A020E947C1DDC011296ED90FC90139714
:102D1000E114F10409F4C0C0D701ED91FC910480E5
:102D2000F581E02DBE016B5E7F4FC70109950097CD
:102D300019F00CF0C4C0C7C0F701E084F184E8CFFB
:102D4000973009F4C0C0983021F481E08093F100FD
:102D5000B6C0993009F0B3C0837009F0B4C0E4E2A2
:102D6000F1E081E021E036E39081992361F08093E6
:102D7000E9002093EB0091919093EC003093ED00EB
:102D80008F5F873089F78EE78093EA001092EA0020
:102D90008F898093640293C08B8D9C8D1092E90083
:102DA00010923D0210923C0290933B0280933A02B3
:102DB000898D811156C08E899D89913A59F481324D
:102DC00009F081C047E050E064E071E080E00E94DB
:102DD000B41375C0913209F076C0833289F4888DBE
:102DE00090E0982F88272F89822BA0E0B0E0809375
:102DF000000190930101A0930201B09303015FC011
:102E0000803269F48091E80082FFFCCF67E084E0C3
:102E100091E00E94DB138BEF8093E80006C08232C2
:102E200009F04DC08F8980930B0180913F02882368
:102E300019F0EEEFFAE002C0E0E0F8E08091040162
:102E400090910501A0910601B0910701803B94404B
:102E5000A105B10509F07BC080910B0180FF93C0F3
:102E600076C00E947C1DDC0112960D911C91139777
:102E70000115110541F1D801ED91FC910190F0810E
:102E8000E02DBE016B5E7F4FC8010995811117C00F
:102E9000F80100851185ECCF113009F44EC01330D4
:102EA00091F48F89882309F445C0823081F440E889
:102EB00060E188E196E00E947713882321F08EEF8D
:102EC0008093E80079C081E28093EB0075C0813087
:102ED00029F440E86BE08CE096E0EDCF833099F781
:102EE0000E947C1DDC011296ED90FC9013978E01E0
:102EF0000F5F1F4F6801E114F10479F0D701ED91E4
:102F0000FC910680F781E02DB801C7010995080FF3
:102F1000111DF701E084F184EECFD8011C92F60177
:102F200001900020E9F73197BF016C197D0940E05D
:102F3000C601C1CF66EF75E002C06AEF75E06115AA
:102F4000710509F2FB01449150E080E840CF0FB6D3
:102F5000F894A89580916000886180936000109239
:102F600060000FBEA895EE3F2AE0F20739F080918D
:102F7000FE0A9091FF0A91838083A1CF1092FF0AED
:102F80001092FE0A9CCFEE3F8AE0F80731F0808174
:102F900091819093FF0A8093FE0A87E797E79183D8
:102FA00080839BE088E10FB6F894A8958093600039
:102FB0000FBE9093600083CF6C960FB6F894DEBF7F
:102FC0000FBECDBFDF91CF91FF91EF91BF91AF9138
:102FD0009F918F917F916F915F914F913F912F9131
:102FE0001F910F91FF90EF90DF90CF900F900FBE49
:102FF0000F901F9018956115710579F0FB010190F4
:103000000020E9F73197AF01461B570BDC01ED912A
:10301000FC910280F381E02D099480E090E0089516
:103020008F929F92AF92BF92CF92DF92EF92FF92D8
:103030006B017C010E944E144B015C01C114D10450
:10304000E104F104F1F00E944E14DC01CB01881977
:103050009909AA09BB09883E9340A105B10570F3FF
:1030600021E0C21AD108E108F10888EE880E83E059
:10307000981EA11CB11CC114D104E104F10419F77C
:10308000DDCFFF90EF90DF90CF90BF90AF909F90FB
:103090008F9008958F929F92AF92BF92CF92DF92BE
:1030A000EF92FF920F931F93CF93DF935C016B011D
:1030B0007A0180910B01882309F45BC0809164023E
:1030C000882309F456C08091400280FF05C080919A
:1030D000E00082608093E000E70110E00AEF83E007
:1030E000882E9AE3992E2097D9F10E946B1D8111A9
:1030F0000AC0015009F43DC061E070E080E090E05A
:103100000E941018F0CF282F30E0C217D3070CF41C
:103110008C2F4FB7F8948092E9009091E80095FFCA
:103120001DC0282F30E0C21BD30BF601982F915001
:1031300020F081918093F100FACFC20ED31E1123AB
:1031400019F09092E80009C08091E80085FD06C062
:103150009092E80011E0209709F010E04FBFC3CF34
:103160001111C3CF5D9884E680933E021E141F04A4
:1031700044F081E090E0F5019383828380E090E069
:1031800001C0C701DF91CF911F910F91FF90EF9088
:10319000DF90CF90BF90AF909F908F9008952FB702
:1031A000F8946091320270913302809134029091D0
:1031B00035022FBF08951F920F920FB60F92112460
:1031C0002F933F938F939F93AF93BF93809132023E
:1031D00090913302A0913402B091350230913102C6
:1031E00023E0230F2D3720F40196A11DB11D05C04A
:1031F00026E8230F0296A11DB11D20933102809372
:10320000320290933302A0933402B093350280913E
:10321000360290913702A0913802B091390201969E
:10322000A11DB11D8093360290933702A0933802FE
:10323000B0933902BF91AF919F918F913F912F91A0
:103240000F900FBE0F901F90189560932D027093F2
:103250002E0280932F0290933002DC01CB01845D1B
:103260009E4FAF4FBF4F8093290290932A02A093A5
:103270002B02B0932C0282E090E09093280280937E
:1032800027020E94CF186093230270932402809338
:103290002502909326020895CF92DF92EF92FF923B
:1032A0000F931F930E94CF18C0902302D090240246
:1032B000E0902502F09026028B019C010C191D095B
:1032C0002E093F0980912D0290912E02A0912F028C
:1032D000B0913002083E134021053105D0F001962F
:1032E000A11DB11D80932D0290932E02A0932F0259
:1032F000B0933002B701A60148515C4F6F4F7F4F2A
:103300004093230250932402609325027093260277
:10331000C9CF4091290250912A0260912B027091ED
:103320002C0284179507A607B70788F1E0912102C0
:10333000F0912202309759F10995611571058105C7
:10334000910519F00E94251922C080912D029091BB
:103350002E02A0912F02B0913002845D9E4FAF4F9C
:10336000BF4F8093290290932A02A0932B02B0931F
:103370002C0281E090E02091270230912802232B3B
:1033800011F480E090E090932802809327026091EE
:103390002D0270912E0280912F02909130021F9188
:1033A0000F91FF90EF90DF90CF900895CF92DF9232
:1033B000EF92FF920E944C196B017C0180914202B6
:1033C00090914302A0914402B0914502C816D906DB
:1033D000EA06FB0661F0C701B6010E94151CC09207
:1033E0004202D0924302E0924402F0924502809160
:1033F0005D0290E0FF90EF90DF90CF900895BC01C8
:1034000080E090E00C941018ECEAF5E090E1969FD3
:10341000D001A0781124A80F6770E60FF11D8491E8
:10342000AB59BD4F442321F0EC91E82BEC93089568
:10343000E82FE0958C918E238C9308952F923F92E4
:103440004F925F926F927F928F929F92AF92BF92B4
:10345000CF92DF92EF92FF920F931F93CF93DF9360
:10346000CDB7DEB727970FB6F894DEBF0FBECDBF3E
:10347000FC016A3069F4248D808D918D38E0239FA2
:10348000800D911D1124918F808F178A168AA6C0F6
:103490006D3009F4A3C09F838E83348C238D2983E0
:1034A000328D3A83608C718CE688F78880E8E81664
:1034B000F104C4F0AE81BF815C962C915C97422FE1
:1034C00050E056968D919C915797B6E02B9F800DBA
:1034D000911D1124EE81FF81978B868B258D211103
:1034E00067C07CC0F0E46F16710424F7C70125E0C3
:1034F000329E800D911D112418161906DCF6432CFE
:10350000512CC30138E0339E800D911D11241816F3
:10351000190684F685E0689F8001112404551F4F29
:1035200020E0F8012490253009F4212C430158E0D3
:1035300020FC02C0398101C03A8131110BC0F981F0
:103540008A81F81307C026945150840C951C5111A0
:10355000EFCF25C067018C2D8E198315A0F754017C
:103560008A2D88198315B8F490E8C916D10478F427
:10357000A0E4AA16B10458F4432FB501C6012C8368
:103580003B835D830E94041A5D813B812C81BFEFE8
:10359000AB1ABB0AE5CFEFEFCE1ADE0ADCCF2F5F06
:1035A000E40CF51C0F5F1F4F263009F0BACF82CF15
:1035B0006AEF64039001659F300D112420583F4F3E
:1035C000281739075CF4AE81BF81ED91FC9111970A
:1035D0000190F081E02D6AE0CD01099581E090E055
:1035E00027960FB6F894DEBF0FBECDBFDF91CF9107
:1035F0001F910F91FF90EF90DF90CF90BF90AF9011
:103600009F908F907F906F905F904F903F902F9002
:1036100008950F931F93CF938B01C0912002C11186
:1036200015C0E0916506F0916606DC0114964D9197
:103630005C9115976D917C910280F381E02D85E678
:1036400096E0099581E08093200223C08091B9061D
:103650009091BA06892BE1F0109220028091B50674
:103660009091B606009719F00E94972403C060E07D
:1036700070E0CB01F801608371838283938340E023
:1036800050E062EA71E085EB96E00E94191501C0F6
:10369000C0E08C2FCF911F910F910895809165020A
:1036A0008EBDE6E6F2E081910DB407FEFDCF8EBD42
:1036B00086E0E536F807B9F70DB407FEFDCF0895AB
:1036C000FC0180916402811103C08FEF9FEF089588
:1036D0009FB7F89482E08093E9002091F20030E0F7
:1036E0001216130614F421E030E02115310559F0CB
:1036F000289884E6809363028091F1008083809112
:10370000F200882319F09FBFC90108958BE68093CA
:10371000E800F9CF262F269526952695677090E824
:10372000299F900111242B593D4FF901E80FF11DFC
:103730008081282F30E081E090E0062E02C0880FC3
:10374000991F0A94E2F78223932302C095958795E7
:103750006A95E2F708958F929F92AF92BF920F936E
:103760001F93CF93DF93CDB7DEB7A1970FB6F89431
:10377000DEBF0FBECDBF19A2423008F44AE08E0171
:103780000F5D1F4F842E912CA12CB12CA50194010B
:103790000E94F925E62FB901CA0101501109EA304A
:1037A00014F4E05D01C0E95CD801EC93232B242BD9
:1037B000252B61F7B8018FED96E00E94FB17A196CB
:1037C0000FB6F894DEBF0FBECDBFDF91CF911F9132
:1037D0000F91BF90AF909F908F900895CF92DF92FE
:1037E000EF92FF92CF93DF936B017C01E091DF06B4
:1037F000F091E0060190F081E02D6DE28FED96E012
:103800000995EC0166277727CB016C197D098E0994
:103810009F094AE00E94AB1B8C0F9D1FDF91CF9147
:10382000FF90EF90DF90CF9008954F925F926F924C
:103830007F928F929F92CF92DF92EF92FF920F939F
:103840001F93CF93DF932CE3C22ED12CE12CF12CCC
:10385000A70196010E94F92560935C02CA01B90193
:10386000A70196010E94F92560935D02CA01B90182
:1038700028E130E040E050E00E94F92529013A01BA
:1038800060935E02CA01B9016C5F7F4F8F4F9F4FFB
:1038900027E030E040E050E00E94F9256F5F609340
:1038A0005F02C12CD12C760120E004E610E030E963
:1038B000832E99249394E22FF0E0EE54F84FEF0119
:1038C000C370DD27209789F4CF01B8010E944927F2
:1038D000892B31F4CF01B4010E944927892B29F4A7
:1038E0008EE691E0A0E0B0E004C08DE691E0A0E0BB
:1038F000B0E0C80ED91EEA1EFB1ED701C601AA27DA
:10390000BB27481659066A067B0610F02F5FD3CFF7
:1039100020936202209799F4CF0164E670E00E9440
:103920004927892B39F4CF0160E971E00E944927CA
:10393000892B29F48EE691E0A0E0B0E004C08DE68A
:1039400091E0A0E0B0E0C81AD90AEA0AFB0A9301A4
:1039500082010C191D092E093F09CF0164E670E0B0
:103960000E9449277C01CF0160E971E00E9449274C
:10397000EAE2F1E0A0E0A13041F4209751F4E11433
:10398000F10429F4009729F402C0408103C04DE1FD
:1039900001C04CE150E060E070E004171507260715
:1039A000370740F0041B150B260B370BAF5F319622
:1039B000AC3009F7AF5FA09361020F5F0093600224
:1039C000DF91CF911F910F91FF90EF90DF90CF90FB
:1039D0009F908F907F906F905F904F900895CF93BE
:1039E000DF93BC018FED96E00E94FB17EC0160EACB
:1039F00071E08FED96E00E94FB178C0F9D1FDF9109
:103A0000CF9108950F931F93CF93DF93009709F4FD
:103A10005DC0FC014491319624910296C42FD0E000
:103A20006623E9F0E22FE695E695E695AE2FB0E045
:103A3000E1E0F0E0322F377011F4E0E0F0E0EA0F5F
:103A4000FB1FCE9FD001CF9FB00DDE9FB00D112484
:103A50006A9FF0016B9FF00D11248E0F9F1F20971E
:103A6000A9F1222399F1009789F1C038D10514F406
:103A7000342F01C030E8E1E0422F477009F4E0E064
:103A80002695269526952E0F293008F028E060E02F
:103A900000E010E06217D1F0D801AB59BD4F40E013
:103AA00050E0431768F4FC01E40FF51FE49167FD53
:103AB00003C07C91E72BEC934F5F5F4F1196F1CFE2
:103AC0006F5F8C0F9D1F00581F4FE4CFDF91CF9188
:103AD0001F910F9108952FB7F89483E08093E90028
:103AE0009091E800892F807295FF04C09091F200B8
:103AF00080E4891B2FBF08958091010781110DC0BB
:103B000082E08093FD0684E08093FE061092000719
:103B10001092FF0681E0809301078DEF96E00895F3
:103B20000F931F93CF93DF938C0181E090E00E946D
:103B3000BA2580FF31C08AE090E00E94BA259FEF4D
:103B4000980F9E3F48F522E330E0D80157963C930A
:103B50002E93569728E330E059963C932E9358972E
:103B6000CBE0D0E0D801ED91FC910190F081E02D07
:103B7000682FC8010995CE010E94BA252196C1314E
:103B8000D10581F70E944E1B88EE93E0DF91CF9123
:103B90001F910F910C94FF19DF91CF911F910F91FD
:103BA000089504970C94901DCF93DF938091B506F0
:103BB0009091B6060E94F827C9EDD6E02697888135
:103BC00099810E94F82786E0CB3BD807B9F780910E
:103BD000D9069091DA06DF91CF910C94F827CF9314
:103BE000DF93CDB7DEB72C970FB6F894DEBF0FBECC
:103BF000CDBF789484B5826084BD84B5816084BD76
:103C000085B5826085BD85B5816085BD80916E007A
:103C1000816080936E0010928100809181008260AB
:103C200080938100809181008160809381008091E8
:103C300080008160809380008091910082608093F9
:103C4000910080919100816080939100809190001B
:103C50008160809390008091C10084608093C10056
:103C60008091C10082608093C1008091C100816019
:103C70008093C1008091C30081608093C3008091D4
:103C8000C00082608093C0008091C20081608093F8
:103C9000C20080917A00846080937A0080917A00DB
:103CA000826080937A0080917A00816080937A00AC
:103CB00080917A00806880937A001092640210925A
:103CC0004102109240028091D70081608093D7001A
:103CD00080EA8093D80089B5806189BD89B582600A
:103CE00089BD09B400FEFDCF61E070E080E090E0A6
:103CF0000E9410188091D8008F7C80618093D8003A
:103D00008091E000807F8093E0008091E1008E7ED2
:103D10008093E1008DE08093E200559A209AEEEFC7
:103D2000FFE7859194918B3F9C4D19F481E080933E
:103D30003F0281EC80937C0085B1806F85B9249827
:103D400084B1866E84B95E9A5F988AB1806D8AB9B3
:103D5000769A6E9881B3806F81BB899880B38D709D
:103D600080BB80E58CBD81E08DBD85E090E00E9448
:103D7000FF195F9A85E090E00E94FF195E985C98B9
:103D8000E9E2F6E08DE08E0F94919EBD00000DB447
:103D900007FEFDCF31968E13F7CF5C9A81E88093B2
:103DA000640081E08093650090E19093EA0680933F
:103DB000FC068FEF9FEF90937206809371065598E3
:103DC000209885E696E00E943414892B09F4A1C05E
:103DD00085E696E00E943414813491054CF485E622
:103DE00096E00E9434148C01892B09F492C013C010
:103DF00000E410E010C085E696E00E94D4148C33F5
:103E000071F440E050E062EA71E089ED96E00E94D2
:103E1000191501501109101611066CF37AC0E090C3
:103E2000DD06F090DE068E3309F052C0EF28B9F0BF
:103E300064E671E08091D9069091DA060E946829C3
:103E4000892B69F410921C010E94CF1860935802CC
:103E50007093590280935A0290935B025AC040912A
:103E6000B9065091BA066091B5067091B6068FED0D
:103E700096E00E94E8130E944E1B68E572E080E025
:103E800090E00E9410186091D9067091DA066115D1
:103E9000710549F04091DD065091DE0685EB96E014
:103EA0000E94191536C08091B5069091B60600970C
:103EB00011F00E94F8271092B6061092B5061092E3
:103EC000BA061092B9061092B8061092B70621C031
:103ED00089831A823FEFE31AF30AB70189ED96E06E
:103EE0000E94F214882309F494CF2091D9063091CE
:103EF000DA068091DD069091DE06BE016F5F7F4F8E
:103F0000820F931F0E947129F092DE06E092DD0677
:103F100080CF0E94CF180091EF061091F0062091FB
:103F2000F1063091F2064091F306442341F02091CE
:103F3000EB06621B6093F4061092F30636C460171A
:103F400071078207930778F4061B023008F42DC42A
:103F500083B7817F83BF83B7816083BF889583B731
:103F60008E7F83BF22C421E02093F3066093EB068B
:103F70007093EC068093ED069093EE062091EA068E
:103F8000DC01CB01820F911DA11DB11D8093EF06B5
:103F90009093F006A093F106B093F2068091E606A6
:103FA0009091E70601969093E7068093E60680E0FD
:103FB00025E632E0B82FB111BFEFF9010024B1932B
:103FC000B193B193B1930394D1F71092F806109284
:103FD000F7061092F6061092F5060E94CF1800918F
:103FE00058021091590220915A0230915B02DC0173
:103FF000CB01801B910BA20BB30B20911C01211153
:1040000005C008EE13E020E030E004C000ED17E04A
:1040100020E030E0081719072A073B0728F5009130
:10402000560210915702602F88E39AE10E94021D08
:104030008091E6069091E7066EE170E00E943527D8
:10404000892B31F40F5F1F4F1093570200935602D4
:10405000809156029091570203970CF4A4C31092DA
:104060005702109256029FC30E94CF1800914B0234
:1040700010914C0220914D0230914E020617170705
:1040800028073907B0F469E671E085E696E00E94FA
:10409000FB170E94CF18DC01CB0186509F4FAF4F1A
:1040A000BF4F80934B0290934C02A0934D02B0936C
:1040B0004E0280915502843109F479C040F4813078
:1040C00049F108F4D2C28A3009F490C26CC38F312E
:1040D00031F120F4853109F44DC065C3823609F40D
:1040E0006EC2833609F05FC380E791E00E94EF1C47
:1040F000C0905102D0905202E0905302F0905402CE
:104100000E94CF18C616D706E806F90608F04BC37A
:1041100081E047C384E891E00E94EF1C44C365E955
:1041200071E0CE0101960E944415BE01695F7F4F88
:10413000CE0101960E94091B182F89819A810E9445
:10414000F827112309F42FC36F81788589859A8513
:1041500097FF03C00E94EE1B03C04AE00E94AB1B06
:1041600060EA71E08FED96E00E94FB170E944E1B03
:104170008EE117C363EA71E0CE0101960E944415F7
:10418000BE01695F7F4FCE0101960E94091B182F67
:1041900089819A810E94F827112309F404C36F8151
:1041A000788589859A850E94251984E1FAC20E9442
:1041B000CF18609358027093590280935A029093DB
:1041C0005B028090180190901901A0901A01B090A4
:1041D0001B01C501B4010E94FA268B017B0134E169
:1041E000E30EF11C0E151F05C9F00038110518F07B
:1041F0000F5F1F4FF7CF41E06DE370E0C8010E94F1
:10420000041A41E06EE370E0C8010E94041A41E024
:104210006FE370E0C8010E94041AEACF20E030E0AA
:1042200040E251E4C501B4010E941C2620914702DE
:10423000309148024091490250914A020E941B2647
:104240006B017C0120911401309115014091160100
:104250005091170160E070E082E892E40E941B2612
:1042600020E030E040E05FE30E94FC249B01AC01D1
:10427000C701B6010E9488269B01AC01C501B401AB
:104280000E941B26609318017093190180931A01F4
:1042900090931B0183E08093FB060E944C196B01F5
:1042A0007C018091420290914302A0914402B0911E
:1042B0004502C816D906EA06FB0661F0C701B60139
:1042C0000E94151CC0924202D0924302E092440226
:1042D000F092450280915E0290E00A971CF083E123
:1042E00090E002C08CE190E09093F6068093F50692
:1042F0008AE090E09093F8068093F7060E944C19AC
:104300006B017C018091420290914302A091440292
:10431000B0914502C816D906EA06FB0661F0C7014E
:10432000B6010E94151CC0924202D0924302E09254
:104330004402F092450260915E0270E080E090E0FD
:104340004AE00E94AB1B6AEA71E08FED96E00E94A2
:10435000FB170E94D6190A971CF062EA71E002C0AE
:104360006CE571E08FED96E00E94FB170E94D61974
:10437000BC01990F880B990B97FF03C00E94EE1B9D
:1043800003C04AE00E94AB1BC0904702D090480295
:10439000E0904902F0904A0220E030E0A901C70114
:1043A000B6010E94D32487FD08C220E030E040E03F
:1043B00053E4C701B6010E94302718160CF4FDC162
:1043C00020E030E040E050E4C701B6010E94302711
:1043D0001816ACF520E030E04CEF52E4C701B6010E
:1043E0000E94D32487FF2BC020E030E040E85FE349
:1043F000609114017091150180911601909117013F
:104400000E941C260E940127162FC701B6010E9498
:104410000127862F612F0E948A1B8111CEC120E0C7
:1044200030E040E450E4C701B6010E941C260E941F
:104430000127862F612F0E948A1B8111BEC14090E7
:10444000140150901501609016017090170120E042
:1044500030E0A901C301B2010E94D32487FDBFC18E
:1044600020E030E040E852E4C301B2010E9430276E
:1044700018160CF4B4C120E030E040E050E4C30171
:10448000B2010E9430271816D4F520E030E040E752
:1044900052E4C301B2010E94D32487FF30C0C3019C
:1044A000B2010E940127162F20E030E040E050E4E6
:1044B000C701B6010E941C260E940127862F612F8A
:1044C0000E948A1B81118BC120E030E040E450E45F
:1044D000C301B2010E941C260E940127162F20E072
:1044E00030E040E85FE3C701B6010E941C260E944D
:1044F0000127862F612F0E948A1B811170C1C30181
:10450000B2010E94FA265B01C701B6010E94FA2699
:104510008B019B012D5F3F4F150193E0290E311C4C
:104520000217130719F14501B7FE15C0812C912C14
:1045300012C088169906BCF40038110548F441E011
:10454000B401C8012B873C870E94041A3C852B8547
:10455000EFEF8E1A9E0AC101F1E42F1631044CF3DD
:1045600080E490E0E6CF0F5F1F4FDACF209110017B
:10457000309111014091120150911301C701B60110
:104580000E941C2660934702709348028093490260
:1045900090934A0220910C0130910D0140910E013F
:1045A00050910F01C301B2010E941C2660931401B7
:1045B000709315018093160190931701F4C08CEA53
:1045C00091E00E94EF1CC0905102D0905202E09006
:1045D0005302F09054020E94CF18C616D706E80680
:1045E000F90608F0E0C010925502DDC000914F02BC
:1045F00010915002602F86E396E00E94021D809188
:10460000E6069091E70663E070E00E943527892B6B
:1046100031F40F5F1F4F1093500200934F028091AF
:104620004F0290915002059724F010925002109280
:104630004F02C0905102D0905202E0905302F0908D
:1046400054020E94CF18C616D706E806F90608F0ED
:10465000AAC082E6809355020E94CF18DC01CB01EC
:104660008053984FAF4FBF4F90C08091E806809322
:10467000E9064FB12CB193B130E02095309520740C
:10468000332753E0359527955A95E1F7892F90E028
:1046900080959095807199279595879595958795A3
:1046A000822B942F9095907F892B8093E80683EB43
:1046B00091E00E94EF1C9091E90694FF04C0809164
:1046C000E80684FF9EC097FF04C08091E80687FF3C
:1046D0009EC08091460287FD04C085301CF080E0BA
:1046E00001C085E0809346028BEBE82E86E0F82E31
:1046F00000E010E080914602082E000C990B801714
:10470000910719F46EE571E002C061E671E08FED8A
:1047100096E00E94FB17F701448155816081718109
:104720008FED96E00E94E81360EA71E08FED96E06D
:104730000E94FB170F5F1F4FF6E0EF0EF11C0530D4
:104740001105C1F68091E90683FF2DC08091E8062E
:1047500083FD29C062C083300CF1833009F06EC044
:1047600069EC71E085E696E00E94FB17109250021A
:1047700010924F028AE0809355020E94CF18DC010C
:10478000CB01805F984DAF4FBF4F80935102909304
:104790005202A0935302B093540205C0811149C044
:1047A0008FE1809355020E944E1B80E090E0892BA0
:1047B00009F407CB0E94000004CB80911001909176
:1047C0001101A0911201B0911301B0588093100112
:1047D00090931101A0931201B093130130CE8091F8
:1047E0000C0190910D01A0910E01B0910F01B058F4
:1047F00080930C0190930D01A0930E01B0930F01D3
:104800007ECE809146028F5F809346025CCF80917E
:1048100046028150809346025CCF809146028230EE
:1048200009F099CF61EC71E085E696E00E94FB17F4
:10483000BACF813009F0B7CF85E1B3CF843009F02A
:10484000B2CF62ED71E085E696E00E94FB170E9410
:10485000CF18DC01CB018854944FAF4FBF4F8093EA
:10486000510290935202A0935302B093540283E6F4
:1048700098CFE5E6F6E01382128288EE93E0A0E09E
:10488000B0E084839583A683B7838AE391E0918324
:1048900080838FEF9FEF95878487EFEDF6E013829B
:1048A00012821186128620E1238790878783108ADF
:1048B000118A128A138A148A8CE491E0918380838E
:1048C0008AE591E095838483178A168A118E108E6B
:1048D00081E0828F138E848F158E62EA71E089EDFC
:1048E00096E00E9444156DED71E08BEB96E00E941E
:1048F00044156FEE71E081EC96E00E94441565EF7F
:1049000071E087EC96E00E94441563E072E08DEC64
:1049100096E00E94441563E172E083ED96E00E9408
:10492000441562EA71E085EB96E00C9444151F9300
:10493000FC0199278827BC01E89411911032E9F312
:10494000193010F01E30C8F31B3251F01D3249F4FB
:10495000689406C00E94BE24610F711D811D911DC7
:10496000119110531A30B0F33EF4909580957095E4
:1049700061957F4F8F4F9F4F1F910895592F482F5B
:10498000372F262F660F771F881F991F660F771FF7
:10499000881F991F620F731F841F951F660F771F53
:1049A000881F991F08950E94D82408F481E0089573
:1049B000990F0008550FAA0BE0E8FEEF1616170630
:1049C000E807F907C0F012161306E407F50798F098
:1049D000621B730B840B950B39F40A2661F0232BB1
:1049E000242B252B21F408950A2609F4A140A6952D
:1049F0008FEF811D811D08950E940F250C94802545
:104A00000E94722538F00E94792520F0952311F03C
:104A10000C9469250C946F2511240C94B4250E94E4
:104A2000912570F3959FC1F3950F50E0551F629F3C
:104A3000F001729FBB27F00DB11D639FAA27F00DF7
:104A4000B11DAA1F649F6627B00DA11D661F829F1E
:104A50002227B00DA11D621F739FB00DA11D621F03
:104A6000839FA00D611D221F749F3327A00D611D20
:104A7000231F849F600D211D822F762F6A2F112402
:104A80009F5750409AF0F1F088234AF0EE0FFF1F35
:104A9000BB1F661F771F881F91505040A9F79E3F8C
:104AA000510580F00C9469250C94B4255F3FE4F324
:104AB000983ED4F3869577956795B795F795E795E2
:104AC0009F5FC1F7FE2B880F911D9695879597F9EB
:104AD000089597F99F6780E870E060E008959FEF80
:104AE00080EC089500240A94161617061806090685
:104AF000089500240A941216130614060506089554
:104B0000092E0394000C11F4882352F0BB0F40F4DB
:104B1000BF2B11F460FF04C06F5F7F4F8F4F9F4F1B
:104B2000089557FD9058440F551F59F05F3F71F09D
:104B30004795880F97FB991F61F09F3F79F0879504
:104B40000895121613061406551FF2CF4695F1DF8D
:104B500008C0161617061806991FF1CF869571051D
:104B6000610508940895E894BB2766277727CB0151
:104B700097F90895F999FECF92BD81BDF89A9927CA
:104B800080B508952F923F924F925F926F927F92DD
:104B90008F929F92AF92BF92CF92DF92EF92FF924D
:104BA0000F931F93CF93DF93CDB7DEB7CA1BDB0BF9
:104BB0000FB6F894DEBF0FBECDBF09942A8839889E
:104BC00048885F846E847D848C849B84AA84B984A5
:104BD000C884DF80EE80FD800C811B81AA81B981B1
:104BE000CE0FD11D0FB6F894DEBF0FBECDBFED01C5
:104BF0000895A1E21A2EAA1BBB1BFD010DC0AA1F1E
:104C0000BB1FEE1FFF1FA217B307E407F50720F035
:104C1000A21BB30BE40BF50B661F771F881F991FB0
:104C20001A9469F760957095809590959B01AC01F9
:104C3000BD01CF0108955058BB27AA270E943326F3
:104C40000C9480250E94722538F00E94792520F06E
:104C500039F49F3F19F426F40C946F250EF4E09577
:104C6000E7FB0C946925E92F0E94912558F3BA17A8
:104C7000620773078407950720F079F4A6F50C9472
:104C8000B3250EF4E0950B2EBA2FA02D0B01B90120
:104C900090010C01CA01A0011124FF27591B99F0B2
:104CA000593F50F4503E68F11A16F040A22F232FBE
:104CB000342F4427585FF3CF469537952795A7950E
:104CC000F0405395C9F77EF41F16BA0B620B730BB5
:104CD000840BBAF09150A1F0FF0FBB1F661F771F26
:104CE000881FC2F70EC0BA0F621F731F841F48F4DB
:104CF000879577956795B795F7959E3F08F0B0CF64
:104D00009395880F08F09927EE0F9795879508954A
:104D10000E949C260C9480250E94792558F00E94C0
:104D2000722540F029F45F3F29F00C946925511158
:104D30000C94B4250C946F250E94912568F3992357
:104D4000B1F3552391F3951B550BBB27AA27621787
:104D50007307840738F09F5F5F4F220F331F441F94
:104D6000AA1FA9F335D00E2E3AF0E0E832D09150C8
:104D70005040E695001CCAF72BD0FE2F29D0660FB5
:104D8000771F881FBB1F261737074807AB07B0E8F8
:104D900009F0BB0B802DBF01FF2793585F4F3AF0FE
:104DA0009E3F510578F00C9469250C94B4255F3F23
:104DB000E4F3983ED4F3869577956795B795F79584
:104DC0009F5FC9F7880F911D9695879597F908956C
:104DD000E1E0660F771F881FBB1F62177307840708
:104DE000BA0720F0621B730B840BBA0BEE1F88F717
:104DF000E09508950E9401276894B1110C94B425A0
:104E000008950E94992588F09F5798F0B92F992707
:104E1000B751B0F0E1F0660F771F881F991F1AF0A5
:104E2000BA95C9F714C0B13091F00E94B325B1E032
:104E300008950C94B325672F782F8827B85F39F031
:104E4000B93FCCF3869577956795B395D9F73EF43E
:104E500090958095709561957F4F8F4F9F4F0895E6
:104E60000E94D82408F48FEF0895AA1BBB1B51E1C0
:104E700007C0AA1FBB1FA617B70710F0A61BB70BCA
:104E8000881F991F5A95A9F780959095BC01CD016F
:104E9000089597FB072E16F4009407D077FD09D0EC
:104EA0000E94352707FC05D03EF4909581959F4FD1
:104EB0000895709561957F4F0895EE0FFF1F05903F
:104EC000F491E02D0994CF93DF938230910510F493
:104ED00082E090E0E0910B07F0910C0720E030E0D9
:104EE000C0E0D0E0309711F1408151814817590757
:104EF000C0F04817590761F482819381209719F017
:104F00009B838A832BC090930C0780930B0726C04A
:104F10002115310519F04217530718F49A01BE0103
:104F2000DF01EF010280F381E02DDCCF2115310597
:104F300009F1281B390B2430310590F412968D911C
:104F40009C9113976115710521F0FB019383828376
:104F500004C090930C0780930B07FD01329644C068
:104F6000FD01E20FF31F81939193225031092D939C
:104F70003C933AC02091090730910A07232B41F452
:104F800020911F013091200130930A0720930907D7
:104F900020911D0130911E012115310541F42DB7DD
:104FA0003EB74091210150912201241B350BE09125
:104FB0000907F0910A07E217F307A0F42E1B3F0B35
:104FC0002817390778F0AC014E5F5F4F241735077B
:104FD00048F04E0F5F1F50930A07409309078193D3
:104FE000919302C0E0E0F0E0CF01DF91CF9108950E
:104FF0000F931F93CF93DF93009709F48CC0FC01AC
:1050000032971382128200910B0710910C07011541
:10501000110581F420813181820F931F20910907AE
:1050200030910A072817390779F5F0930A07E093BA
:10503000090771C0D80140E050E0AE17BF0750F437
:1050400012962D913C911397AD012115310509F16F
:10505000D901F3CF9D01DA0133832283608171810D
:10506000860F971F8217930769F4EC012881398115
:10507000260F371F2E5F3F4F318320838A819B810C
:1050800093838283452B29F4F0930C07E0930B075D
:1050900042C01396FC93EE931297ED0149915991FA
:1050A0009E01240F351FE217F30771F4808191816F
:1050B000840F951F029611969C938E938281938103
:1050C00013969C938E931297E0E0F0E0D80112962D
:1050D0008D919C911397009719F0F8018C01F6CFF0
:1050E0008D919C9198012E5F3F4F820F931F2091CD
:1050F000090730910A072817390769F4309729F40E
:1051000010920C0710920B0702C0138212821093A8
:105110000A0700930907DF91CF911F910F9108951E
:10512000A0E0B0E0E6E9F8E20C94C625EC010097B7
:1051300021F4CB010E946327B8C0FC01E60FF71FE2
:105140009C0122503109E217F30708F4ACC0D901E1
:105150000D911C91119706171707B0F00530110536
:1051600008F49FC0C80104978617970708F499C0F0
:1051700002501109061B170B019311936D937C9339
:10518000CF010E94F8278DC05B01A01AB10A4C0123
:10519000800E911EA0910B07B0910C0740E050E0EB
:1051A000E12CF12C109709F44AC0A815B905D1F5E6
:1051B0006D907C901197630182E0C80ED11CCA14D7
:1051C000DB0480F1A3014A195B096A0182E0C80E81
:1051D000D11C1296BC9012971396AC91B5E0CB16E9
:1051E000D10440F0B282A38351834083D9016D93EF
:1051F0007C930AC00E5F1F4FC301800F911FF901FE
:1052000091838083EB2DFA2FE114F10431F0D70163
:105210001396FC93EE93129744C0F0930C07E0931F
:105220000B073FC08D919C9111974817590708F4BF
:10523000AC017D0112960D90BC91A02DB3CF809151
:10524000090790910A0788159905E1F44617570751
:10525000C8F480911D0190911E01009741F48DB713
:105260009EB74091210150912201841B950BE817B4
:10527000F907C8F4F0930A07E0930907F90171836D
:1052800060830FC0CB010E9463277C01009759F017
:10529000A801BE010E945F29CE010E94F827C70124
:1052A00004C0CE0102C080E090E0CDB7DEB7EEE0F2
:1052B0000C94E22581E090E0F8940C947829FB01AD
:1052C000DC0102C001900D9241505040D8F7089582
:1052D000FB01DC018D91019080190110D9F3990B2C
:1052E0000895FB01DC0101900D920020E1F7089583
:1052F00013E1CEE1D3E104C0FE010E945D272196B7
:0A530000CF31D107C9F7F894FFCFB1
:10530A00FFFFFFFF00E1000000000000CDCC8CBFD2
:10531A00CDCCACBF00007041000058420100000D26
:10532A0007800000C180810000001F1C1F1E1F1E75
:10533A001F1F1E1F1E1F0000000013144A18AC1462
:10534A0029143414D414B014000000001E1AE813EF
:10535A0075147414901DFCFF0000D11D30002D3E01
:10536A000020200050494E47003C50494E473E001D
:10537A00446F636B206973207475726E696E67205F
:10538A006F66660057616974696E6720666F72207E
:10539A00646F636B003C5245504F53495A453E0077
:1053AA000D0A003C54494D453E003A004572726F61
:1053BA00722E00444F434B204D454E5520563037F0
:1053CA00003C41424F55543E003C555044415445DF
:1053DA003E003C53485554444F574E3E0042726F6C
:1053EA0077736520636F6C6C656374696F6E0043D5
:1053FA006C6F636B00446F636B2073657474696EC2
:10540A0067730055706461746520646F636B206113
:10541A00707000436861726765206D6F6465000093
:00000001FF
