:100000000C941F130C9447130C9447130C94471330
:100010000C9447130C9447130C9447130C944713F8
:100020000C9447130C9447130C94C8150C943A166F
:100030000C9447130C9447130C9447130C944713D8
:100040000C9447130C9447130C9447130C944713C8
:100050000C9447130C9447130C9447130C944A19AF
:100060000C9447130C9447130C9447130C944713A8
:100070000C9447130C9447130C9447130C94471398
:100080000C9447130C9447130C9447130C94471388
:100090000C9447130C9447130C9447130C94471378
:1000A0000C9447130C9447130C9447130102040853
:1000B0001020408000000000003E5B4F5B3E3E6B26
:1000C0004F6B3E1C3E7C3E1C183C7E3C181C577DF2
:1000D000571C1C5E7F5E1C00183C1800FFE7C3E73E
:1000E000FF0018241800FFE7DBE7FF30483A060E50
:1000F0002629792926407F050507407F05253F5A97
:100100003CE73C5A7F3E1C1C08081C1C3E7F142206
:100110007F22145F5F005F5F06097F017F006689B1
:10012000956A606060606094A2FFA29408047E04F7
:100130000810207E201008082A1C08081C2A08081D
:100140001E101010100C1E0C1E0C30383E383006DD
:100150000E3E0E06000000000000005F00000007D9
:10016000000700147F147F14242A7F2A1223130807
:10017000646236495620500008070300001C2241E3
:10018000000041221C002A1C7F1C2A08083E080887
:100190000080703000080808080800006060002037
:1001A000100804023E5149453E00427F400072491A
:1001B0004949462141494D331814127F10274545BE
:1001C00045393C4A494931412111090736494949D4
:1001D00036464949291E0000140000004034000042
:1001E00000081422411414141414004122140802AB
:1001F000015909063E415D594E7C1211127C7F491E
:100200004949363E414141227F4141413E7F494972
:1002100049417F090909013E414151737F0808089E
:100220007F00417F41002040413F017F081422416F
:100230007F404040407F021C027F7F0408107F3EC9
:100240004141413E7F090909063E4151215E7F0936
:10025000192946264949493203017F01033F40409D
:10026000403F1F2040201F3F4038403F6314081488
:100270006303047804036159494D43007F414141C0
:100280000204081020004141417F040201020440A1
:1002900040404040000307080020545478407F2825
:1002A0004444383844444428384444287F3854541B
:1002B000541800087E090218A4A49C787F0804043E
:1002C0007800447D40002040403D007F10284400DD
:1002D00000417F40007C047804787C08040478386E
:1002E00044444438FC1824241818242418FC7C089E
:1002F000040408485454542404043F44243C40401B
:10030000207C1C2040201C3C4030403C44281028CD
:10031000444C9090907C4464544C44000836410016
:100320000000770000004136080002010204023C90
:100330002623263C1EA1A161123A4040207A38545F
:1003400054555921555579412154547841215554DA
:10035000784020545579400C1E527212395555552B
:1003600059395454545939555454580000457C4116
:100370000002457D420001457C40F0292429F0F02F
:10038000282528F07C545545002054547C547C0A80
:10039000097F4932494949323248484832324A484D
:1003A00048303A4141217A3A42402078009DA0A04D
:1003B0007D39444444393D4040403D3C24FF2424A1
:1003C000487E4943662B2FFC2F2BFF0929F620C0BE
:1003D000887E090320545479410000447D4130480F
:1003E000484A32384040227A007A0A0A727D0D1952
:1003F000317D2629292F28262929292630484D40B4
:1004000020380808080808080808382F10C8ACBAAF
:100410002F102834FA00007B000008142A1422222E
:10042000142A14089500220095AA005500AAAA557E
:10043000AA55AA000000FF00101010FF00141414A9
:10044000FF001010FF00FF1010F010F0141414FC47
:10045000001414F700FF0000FF00FF1414F404FC64
:10046000141417101F10101F101F1414141F001045
:100470001010F0000000001F101010101F101010BE
:1004800010F010000000FF101010101010101010CD
:10049000FF10000000FF140000FF00FF00001F100D
:1004A000170000FC04F414141710171414F404F4C7
:1004B0000000FF00F714141414141414F700F714B8
:1004C0001414171410101F101F141414F414101007
:1004D000F010F000001F101F0000001F14000000AB
:1004E000FC140000F010F01010FF10FF141414FFA3
:1004F000141010101F00000000F010FFFFFFFFFF9E
:10050000F0F0F0F0F0FFFFFF0000000000FFFF0F31
:100510000F0F0F0F38444438447C2A2A3E147E02C1
:10052000020606027E027E02635549416338444456
:100530003C04407E201E2006027E020299A5E7A50B
:10054000991C2A492A1C4C7201724C304A4D4D307C
:100550003048784830BC625A463D3E494949007EA1
:100560000101017E2A2A2A2A2A44445F4444405138
:100570004A444040444A51400000FF0103E080FFEC
:10058000000008086B6B083612362436060F090F78
:1005900006000018180000001010003040FF010194
:1005A000001F01011E00191D1712003C3C3C3C00BD
:1005B00000000000080B0002020201000904000014
:1005C00001020200000524001001052401010104BC
:1005D00024020605240600010705810310004009D6
:1005E000040100020A0000000705020240000007A3
:1005F0000583024000000403090412010002EF0217
:1006000001404123368000010102030141726475FB
:10061000696E6F204C4C430041726475696E6F20A7
:100620004C656F6E6172646F00D5F08D14A1C88146
:10063000CFD9F1AF20008040000000000000000092
:1006400000000000000000000000000000000000AA
:10065000000000000000000000000000000000009A
:10066000000000000000000000000000000000008A
:10067000000000000000000000000000000000007A
:10068000000000000000000000000000000000006A
:10069000000000FC020202E2262626262222222256
:1006A0002222222222222222222222222222E2028A
:1006B0000202FC000000000000000000000000003A
:1006C000000000000000000000000000000000002A
:1006D000000000000000000000000000000000001A
:1006E000000000000000000000000000000000000A
:1006F00000000000000000000000000000000000FA
:1007000000000000000000000000000000000000E9
:10071000000000FF000000FF0000000000000000DB
:100720000000000000000000000000000000FF00CA
:100730002000FF00000000000000000000008040DA
:100740002010080402010101010101010101010160
:100750000101010101010101018141A151A955AB33
:10076000FF0000000000000000000000000000008A
:100770000000000000000000000000F8F8F0E0C0F9
:1007800080000000000000000000000000000000E9
:10079000000000FF0000001F1010101010101010BB
:1007A00010101010101010101010101010101F004A
:1007B0000700FF000000000000000000FEFFFEFE3A
:1007C0001E1E1E1E1E1E1E1E1E1E1E1E1E5E5E1EC9
:1007D000FEFEFEFEFEFEFEFE55AA55AA55AA55AA2D
:1007E000FF0000000000000000FEFE5606AE0656A8
:1007F000AE56AE56AE56AEFEFEFEFEFFFFFFFFFF4C
:10080000FFFFFEFC78300000000000000000000048
:10081000000000FF000000C04040FC24FC4040C03D
:100820000000000000000000000080C0C0C0800088
:100830000000FF000000000000000000FFFFFFFFBD
:10084000007F7F7F7F01F1F1F1F1F1F1F1F1F1F042
:10085000F1F1F5F501FFFFFF55AA55AA55AA55AAD2
:100860007F000000000000000003030303030303F4
:1008700003030303030303030303037F7F3F1F0FEC
:10088000070301000000000000000000000000005D
:10089000000000FF0000000101011F121F01010103
:1008A00000000000387C7C7C380003070707030049
:1008B0000000FF000000000000000000FFFFFFFF3D
:1008C000FFFFFFFFFFF0F7F7F7F7F7F7F7F7F7F797
:1008D000F7F7F7F7F0FFFFFF552A150A05020100A9
:1008E0000000000000000000000000000000000008
:1008F00000000000000000000000000000000000F8
:1009000000000000000000000000000000000000E7
:10091000000000FF000000000000000000000000D8
:10092000000000000000000040E0F0E04000000097
:100930000000FF00000000000000000000000000B8
:1009400000000000000000000000000000000000A7
:100950000000000000000000000000000000000097
:100960000000000000000000000000000000000087
:100970000000000000000000000000000000000077
:100980000000000000000000000000000000000067
:10099000000080DFE020202020203838B8A0202070
:1009A00020BC3C3C3CBC20A020A0212020202020BA
:1009B00020E0DF80000000000000000000000000D8
:1009C0000000000000000000000000000000000027
:1009D0000000000000000000000000000000000017
:1009E0000000000000000000000000000000000007
:1009F00000000000000000000000000000000000F7
:100A000000000000000000000000000000000000E6
:100A1000003F51685068506850685068536A516888
:100A2000516A5168516A506B516A506850685068F9
:100A3000506850693F000000000000000000000006
:100A400000000000000000000000000000000000A6
:100A50000000000000000000000000000000000096
:100A60000000000000000000000000000000000086
:100A70000000000000000000000000000000000076
:100A80000000000000000000000000000000000066
:100A90000000FC020202E226262626222222222230
:100AA00022222222222222222222222222E20202A6
:100AB00002FC000000000000000000000000000038
:100AC0000000000000000000000000000000000026
:100AD0000000000000000000000000000000000016
:100AE0000000000000000000000000000000000006
:100AF00000000000000000000000000000000000F6
:100B000000000000000000000000000000000000E5
:100B10000000FF000000FF000000000000000000D7
:100B200000000000000000000000000000FF0020A6
:100B300000FF000000000000000000000000008036
:100B4000402010080402010101010101010101011D
:100B5000010101010101010101018141A151A955D9
:100B6000ABFF0000000000000000000000000000DB
:100B70000000000000000000000000000000F8F885
:100B8000F0E0C08000000000000000000000000055
:100B90000000FF0000001F101010101010101010A7
:100BA000101010101010101010101010101F00074F
:100BB00000FF0000000000000000000000FEFFFE3B
:100BC000FE1E1E1E1E1E1E1E1E1E1E1E1E1E5E5EE5
:100BD0001EFEFEFEFEFEFEFEFE55AA55AA55AA55B5
:100BE000AAFF00000000000000000000FEFE560604
:100BF000AE0656AE56AE56AE56AEFEFEFEFEFFFF3B
:100C0000FFFFFFFFFFFEFC78300000000000000047
:100C10000000FF000000C04040FC24FC4040C00039
:100C200000000000000000000080C0C0C080000084
:100C300000FF0000000000000000000000FFFFFFB8
:100C4000FF007F7F7F7F01F1F1F1F1F1F1F1F1F12F
:100C5000F0F1F1F5F501FFFFFF55AA55AA55AA5588
:100C6000AA7F00000000000000000000030303034F
:100C700003030303030303030303030303037F7F4C
:100C80003F1F0F07030100000000000000000000EC
:100C90000000FF0000000101011F121F01010100FF
:100CA000000000387C7C7C38000307070703000045
:100CB00000FF0000000000000000000000FFFFFF38
:100CC000FFFFFFFFFFFFF0F7F7F7F7F7F7F7F7F78B
:100CD000F7F7F7F7F7F0FFFFFF552A150A050201AE
:100CE0000000000000000000000000000000000004
:100CF00000000000000000000000000000000000F4
:100D000000000000000000000000000000000000E3
:100D10000000FF00000000000000000000000000D4
:100D20000000000000000040E0F0E0400000000093
:100D300000FF0000000000000000000000000000B4
:100D400000000000000000000000000000000000A3
:100D50000000000000000000000000000000000093
:100D60000000000000000000000000000000000083
:100D70000000000000000000000000000000000073
:100D80000000000000000000000000000000000063
:100D90000080DFE020202020203838B8A02020204C
:100DA000BC3C3C3CBC20A020A021202020202020B6
:100DB000E0DF8000000000000000000000000000F4
:100DC0000000000000000000000000000000000023
:100DD0000000000000000000000000000000000013
:100DE0000000000000000000000000000000000003
:100DF00000000000000000000000000000000000F3
:100E000000000000000000000000000000000000E2
:100E10003F51685068506850685068536A51685133
:100E20006A5168516A506B516A50685068506850F6
:100E30006850693F00000000000000000000000052
:100E400000000000000000000000000000000000A2
:100E50000000000000000000000000000000000092
:100E60000000000000000000000000000000000082
:100E70000000000000000000000000000000000072
:100E80000000000000000000000000000000000062
:100E9000000000F8040404C44C4C4C4C444444444A
:100EA0004444444444444444444444444444C404C2
:100EB0000404F80000000000000000000000000032
:100EC0000000000000000000000000000000000022
:100ED0000000000000000000000000000000000012
:100EE0000000000000000000000000000000000002
:100EF00000000000000000000000000000000000F2
:100F000000000000000000000000000000000000E1
:100F1000000000FF000000FF0000000000000000D3
:100F20000000000000000000000000000000FF00C2
:100F30004000FF00000000000000000000000080F2
:100F40004020100804020101010101010101010119
:100F5000010101010101010101018141A151A955D5
:100F6000ABFF0000000000000000000000000000D7
:100F7000000000000000000000000000000000F879
:100F8000F8F0E0C080000000000000000000000059
:100F9000000000FF0000003F202020202020202013
:100FA00020202020202020202020202020203F0042
:100FB0000E00FF00000000000000000000FEFFFE29
:100FC000FE1E1E1E1E1E1E1E1E1E1E1E1E1E5E5EE1
:100FD0001EFEFEFEFEFEFEFEFE55AA55AA55AA55B1
:100FE000AAFF0000000000000000000000FEFE5606
:100FF00006AE0656AE56AE56AE56AEFEFEFEFEFF30
:10100000FFFFFFFFFFFFFEFC783000000000000044
:10101000000000FF000000808080F848F880808099
:101020000000000000000000000000808080000040
:101030000000FF00000000000000000000FFFFFFB4
:10104000FF007F7F7F7F01F1F1F1F1F1F1F1F1F12B
:10105000F0F1F1F5F501FFFFFF55AA55AA55AA5584
:10106000AA7F00000000000000000000000303034E
:101070000303030303030303030303030303037FC4
:101080007F3F1F0F07030100000000000000000069
:10109000000000FF0000000302023F243F020203A1
:1010A0000000000070F8F8F87000070F0F0F07003D
:1010B0000000FF00000000000000000000FFFFFF34
:1010C000FFFFFFFFFFFFF0F7F7F7F7F7F7F7F7F787
:1010D000F7F7F7F7F7F0FFFFFF552A150A050201AA
:1010E0000000000000000000000000000000000000
:1010F00000000000000000000000000000000000F0
:1011000000000000000000000000000000000000DF
:10111000000000FF000000000000000000000000D0
:10112000000000000000000080C0E0C0800000005F
:101130000000FF00000000000000000000000000B0
:10114000000000000000000000000000000000009F
:10115000000000000000000000000000000000008F
:10116000000000000000000000000000000000007F
:10117000000000000000000000000000000000006F
:10118000000000000000000000000000000000005F
:10119000000000BFC0404040404070707040404080
:1011A0004078787878784040404143414040404022
:1011B00040C0BF0000000000000000000000000070
:1011C000000000000000000000000000000000001F
:1011D000000000000000000000000000000000000F
:1011E00000000000000000000000000000000000FF
:1011F00000000000000000000000000000000000EF
:1012000000000000000000000000000000000000DE
:10121000007EA3D1A1D0A0D0A0D0A0D0A7D5A2D02D
:10122000A2D5A2D0A2D5A0D7A2D5A0D0A0D0A0D020
:10123000A0D1A1D37E00000000000000000000004B
:10124000000000000000000000000000000000009E
:10125000000000000000000000000000000000008E
:10126000000000000000000000000000000000007E
:10127000000000000000000000000000000000006E
:10128000000000000000000000000000000000005E
:10129000000000FC020202E226262626222222224A
:1012A0002222222222222222222222222222E2027E
:1012B0000202FC000000000000000000000000002E
:1012C000000000000000000000000000000000001E
:1012D000000000000000000000000000000000000E
:1012E00000000000000000000000000000000000FE
:1012F00000000000000000000000000000000000EE
:1013000000000000000000000000000000000000DD
:10131000000000FF000000FF0000000000000000CF
:101320000000000000000000000000000000FF00BE
:101330002000FF000000000000000000000000800E
:101340004020100804020101010101010101010115
:10135000010101010101010101018141A151A955D1
:10136000ABFF0000000000000000000000000000D3
:10137000000000000000000000000000000000006D
:10138000F8F8F0E0C080000000000000000000005D
:10139000000000FF0000001F1010101010101010AF
:1013A00010101010101010101010101010101F003E
:1013B0000700FF00000000000000000000FEFFFE2C
:1013C000FE1E1E1E1E1E1E1E1E1E1E1E1E1E5E5EDD
:1013D0001EFEFEFEFEFEFEFEFE55AA55AA55AA55AD
:1013E000AAFF000000000000000000000000FEFE58
:1013F0005606AE0656AE56AE56AE56AEFEFEFEFED5
:10140000FFFFFFFFFFFFFFFEFC7830000000000041
:10141000000000FF000000C04040FC24FC4040C031
:101420000000000000000000000080C0C0C080007C
:101430000000FF00000000000000000000FFFFFFB0
:10144000FF007F7F7F7F01F1F1F1F1F1F1F1F1F127
:10145000F0F1F1F5F501FFFFFF55AA55AA55AA5580
:10146000AA7F00000000000000000000000003034D
:10147000030303030303030303030303030303033C
:101480007F7F3F1F0F0703010000000000000000E6
:10149000000000FF0000000101011F121F010101F7
:1014A00000000000387C7C7C38000307070703003D
:1014B0000000FF00000000000000000000FFFFFF30
:1014C000FFFFFFFFFFFFF0F7F7F7F7F7F7F7F7F783
:1014D000F7F7F7F7F7F0FFFFFF552A150A050201A6
:1014E00000000000000000000000000000000000FC
:1014F00000000000000000000000000000000000EC
:1015000000000000000000000000000000000000DB
:10151000000000FF000000000000000000000000CC
:10152000000000000000000040E0F0E0400000008B
:101530000000FF00000000000000000000000000AC
:10154000000000000000000000000000000000009B
:10155000000000000000000000000000000000008B
:10156000000000000000000000000000000000007B
:10157000000000000000000000000000000000006B
:10158000000000000000000000000000000000005B
:10159000000080DFE020202020203838B8A0202064
:1015A00020BC3C3C3CBC20A020A0212020202020AE
:1015B00020E0DF80000000000000000000000000CC
:1015C000000000000000000000000000000000001B
:1015D000000000000000000000000000000000000B
:1015E00000000000000000000000000000000000FB
:1015F00000000000000000000000000000000000EB
:1016000000000000000000000000000000000000DA
:10161000003F51685068506850685068536A51687C
:10162000516A5168516A506B516A506850685068ED
:10163000506850693F0000000000000000000000FA
:10164000000000000000000000000000000000009A
:10165000000000000000000000000000000000008A
:10166000000000000000000000000000000000007A
:10167000000000000000000000000000000000006A
:10168000000000000000000000000000000000005A
:10169000000000FE010101F11313131311111111C8
:1016A0001111111111111111111111111111F1015A
:1016B0000101FE000000000000000000000000002A
:1016C000000000000000000000000000000000001A
:1016D000000000000000000000000000000000000A
:1016E00000000000000000000000000000000000FA
:1016F00000000000000000000000000000000000EA
:1017000000000000000000000000000000000000D9
:10171000000000FF000000FF0000000000000000CB
:101720000000000000000000000000000000FF00BA
:101730009000FF000000000000000000000000809A
:101740004020100804020101010101010101010111
:10175000010101010101010101018141A151A955CD
:10176000ABFF0000000000000000000000000000CF
:101770000000000000000000000000000000000069
:10178000000000F8F8F0E0C0800000000000000059
:10179000000000FF0000000F0808080808080808FB
:1017A00008080808080808080808080808080F00BA
:1017B0000300FF00000000000000000000FEFFFE2C
:1017C000FE1E1E1E1E1E1E1E1E1E1E1E1E1E5E5ED9
:1017D0001EFEFEFEFEFEFEFEFE55AA55AA55AA55A9
:1017E000AAFF000000000000000000000000000050
:1017F00000FEFE5606AE0656AE56AE56AE56AEFECF
:10180000FEFEFEFFFFFFFFFFFFFFFEFC7830000043
:10181000000000FF000000E0A0A0FE12FEA0A0E07B
:1018200000000000000000000000C0E0E0E0C00098
:101830000000FF00000000000000000000FFFFFFAC
:10184000FF007F7F7F7F01F1F1F1F1F1F1F1F1F123
:10185000F0F1F1F5F501FFFFFF55AA55AA55AA557C
:10186000AA7F00000000000000000000000000004F
:10187000000303030303030303030303030303033B
:101880000303037F7F3F1F0F0703010000000000D9
:10189000000000FF0000000000000F090F00000022
:1018A000000000001C3E3E3E1C000103030301003B
:1018B0000000FF00000000000000000000FFFFFF2C
:1018C000FFFFFFFFFFFFF0F7F7F7F7F7F7F7F7F77F
:1018D000F7F7F7F7F7F0FFFFFF552A150A050201A2
:1018E00000000000000000000000000000000000F8
:1018F00000000000000000000000000000000000E8
:1019000000000000000000000000000000000000D7
:10191000000000FF000000000000000000000000C8
:1019200000000000000000002070F870200000009F
:101930000000FF00000000000000000000000000A8
:101940000000000000000000000000000000000097
:101950000000000000000000000000000000000087
:101960000000000000000000000000000000000077
:101970000000000000000000000000000000000067
:101980000000000000000000000000000000000057
:101990000080C06F7010101010101C1CDC509010D4
:1019A000905E9E1E9E5E10D0905010101010101071
:1019B00010706FC0800000000000000000000000F8
:1019C0000000000000000000000000000000000017
:1019D0000000000000000000000000000000000007
:1019E00000000000000000000000000000000000F7
:1019F00000000000000000000000000000000000E7
:101A000000000000000000000000000000000000D6
:101A1000001F283428342834283428342935283421
:101A200028352834283528352835283428342834D2
:101A3000283428341F00000080400000000000000F
:101A40000000000000000000000000000000000096
:101A50000000000000000000000000000000000086
:101A60000000000000000000000000000000000076
:101A70000000000000000000000000000000000066
:101A80000000000000000000000000000000000056
:101A90000000000000C02020202060606060202046
:101AA0002020202020202020202020202020202036
:101AB00020202020C00000000000000000000000E6
:101AC0000000000000000000000000000000000016
:101AD0000000000000000000000000000000000006
:101AE00000000000000000000000000000000000F6
:101AF00000000000000000000000000000000000E6
:101B000000000000000000000000000000000000D5
:101B10000000000000FF000000FE020202020202BC
:101B20000202020202020202020202020202020295
:101B3000FE000000FF0000000000000000000000A8
:101B40000000000000000000000000000000000095
:101B50000000000000000000000000000000000085
:101B60000000000000000000000000000000000075
:101B700000C0E0F0F8F8FCFCFE1E0E0E0E1EFEFC8F
:101B8000FCF8F8F0E0C000000000000000000000D9
:101B90000000000000FF000000FF00000000000047
:101BA0000000000000000000000000000000000035
:101BB000FF007200FF0000000000000000000000B5
:101BC00000C060203F09090909090909E9A9490973
:101BD00049A94D0D4DA909E949A9090909090909A9
:101BE000093F2060C000000000000000000000FC71
:101BF000FFFFFFFFFFFFFFFFFF0000000000FFFFF0
:101C0000FFFFFFFFFFFFFFFC0000000000000000DF
:101C10000000000000FF000000010101C141C101FE
:101C200001010101010101010101010101010101A4
:101C300001000000FF0000000000000000000000A4
:101C4000000F141A141A141A141A141A141A141A43
:101C5000141A141A141A141A141A141A141A141A14
:101C6000141A141A0F000000000000000000000306
:101C70000F3F7FFFFFFFFFFFFF1F0808081FFFFF49
:101C8000FFFFFFFF7F3F0F03000000000000000088
:101C90000000000000FF0000001C1414FF22FF14CD
:101CA000141C0000000080C0C0C08000387C7C7C18
:101CB00038000000FF0000000000000000000000ED
:101CC0000000000000000000000000000000000014
:101CD0000000000000000000000000000000000004
:101CE00000000000000000000000000000000000F4
:101CF00000000000010103030707060606070703AB
:101D000003010100000000000000000000000000CE
:101D10000000000000FF00000000000001010100C1
:101D20000000000000000307070703000000000098
:101D300000000000FF0000000000000000000000A4
:101D40000000000000000000000000000000000093
:101D50000000000000000000000000000000000083
:101D60000000000000000000000000000000000073
:101D70000000000000000000000000000000000063
:101D80000000000000000000000000000000000053
:101D90000000000000FF00000000000080808000C4
:101DA000000000C0C0C0C0C00000040E1F0E040030
:101DB00000000000FF000000000000000000000024
:101DC0000000000000000000000000000000000013
:101DD0000000000000000000000000000000000003
:101DE00000000000000000000000000000000000F3
:101DF00000000000000000000000000000000000E3
:101E000000000000000000000000000000000000D2
:101E100000000000000102020202020203030302AA
:101E2000020202030303030302020202020202028D
:101E30000202020201000000000000000000000099
:101E40000000000000000000000000000000000092
:101E50000000000000000000000000000000000082
:101E60000000000000000000000000000000000072
:101E70000000000000000000000000000000000062
:101E80000000000000000000000000000000000052
:101E900000000000C0202020206060606020202022
:101EA0002020202020202020202020202020202032
:101EB000202020C000000000000000000000000002
:101EC0000000000000000000000000000000000012
:101ED0000000000000000000000000000000000002
:101EE00000000000000000000000000000000000F2
:101EF00000000000000000000000000000000000E2
:101F000000000000000000000000000000000000D1
:101F100000000000FF000000FE02020202020202B6
:101F2000020202020202020202020202020202FE95
:101F3000000000FF000000000000000000000000A2
:101F40000000000080808080808080808080808091
:101F50008080808080808080808080808080808081
:101F60008080000000000000000000000000000071
:101F700000C0E0F0F8F8FCFCFE1E0E0E0E1EFEFC8B
:101F8000FCF8F8F0E0C000000000000000000000D5
:101F900000000000FF000000FF0000000000000043
:101FA000000000000000000000000000000000FF32
:101FB000007200FF000000000000000000000000B0
:101FC00000E030101F0404040404040474542404C6
:101FD00024542606265404742454040404040404DB
:101FE000041F1030E000000000000000000000FCB2
:101FF000FFFFFFFFFFFFFFFFFF0000000000FFFFEC
:10200000FFFFFFFFFFFFFFFC0000000000000000DB
:1020100000000000FF000000010101C141C10101F9
:1020200001010101010101010101010101010101A0
:10203000000000FF000000000000000000000000A1
:1020400000070A0D0A0D0A0D0A0D0A0D0A0D0A0DE8
:102050000A0D0A0D0A0D0A0D0A0D0A0D0A0D0A0DC8
:102060000A0D0A0D07000000000000000000000338
:102070000F3F7FFFFFFFFFFFFF1F0808081FFFFF45
:10208000FFFFFFFF7F3F0F03000000000000000084
:1020900000000000FF0000001C1414FF22FF1414B5
:1020A0001C0000000080C0C0C08000387C7C7C38F0
:1020B000000000FF00000000000000000000000021
:1020C0000000000000000000000000000000000010
:1020D0000000000000000000000000000000000000
:1020E00000000000000000000000000000000000F0
:1020F00000000000010103030707060606070703A7
:1021000003010100000000000000000000000000CA
:1021100000000000FF0000000000000101010000BD
:102120000000000000030707070300000000000094
:10213000000000FF000000000000000000000000A0
:10214000000000000000000000000000000000008F
:10215000000000000000000000000000000000007F
:10216000000000000000000000000000000000006F
:10217000000000000000000000000000000000005F
:10218000000000000000000000000000000000004F
:1021900000000000FF0000000000008080800000C0
:1021A0000000C0C0C0C0C00000040E1F0E0400002C
:1021B000000000FF00000000000000000000000020
:1021C000000000000000000000000000000000000F
:1021D00000000000000000000000000000000000FF
:1021E00000000000000000000000000000000000EF
:1021F00000000000000000000000000000000000DF
:1022000000000000000000000000000000000000CE
:1022100000000000010202020202020303030202A4
:102220000202030303030302020202020202020289
:102230000202020100000000000000000000000097
:10224000000000000000000000000000000000008E
:10225000000000000000000000000000000000007E
:10226000000000000000000000000000000000006E
:10227000000000000000000000000000000000005E
:10228000000000000000000000000000000000004E
:102290000000000000C0202020206060606020203E
:1022A000202020202020202020202020202020202E
:1022B00020202020C00000000000000000000000DE
:1022C000000000000000000000000000000000000E
:1022D00000000000000000000000000000000000FE
:1022E00000000000000000000000000000000000EE
:1022F00000000000000000000000000000000000DE
:1023000000000000000000000000000000000000CD
:102310000000000000FF000000FE020202020202B4
:10232000020202020202020202020202020202028D
:10233000FE000000FF0000000000000000000000A0
:10234000000000000000000000000000000000008D
:10235000000000000000000000000000000000007D
:10236000000000000000000000000000000000006D
:1023700000C0E0F0F8F8FCFCFE1E0E0E0E1EFEFC87
:10238000FCF8F8F0E0C000000000000000000000D1
:102390000000000000FF000000FF0000000000003F
:1023A000000000000000000000000000000000002D
:1023B000FF007200FF0000000000000000000000AD
:1023C000C060203F09090909090909E9A949094922
:1023D000A94D0D4DA909E949A909090909090909E1
:1023E0003F2060C00000000000000000000000FC72
:1023F000FFFFFFFFFFFFFFFFFF0000000000FFFFE8
:10240000FFFFFFFFFFFFFFFC0000000000000000D7
:102410000000000000FF000000010101C141C101F6
:10242000010101010101010101010101010101019C
:1024300001000000FF00000000000000000000009C
:102440000F141A141A141A141A141A141A141A1427
:102450001A141A141A141A141A141A141A141A140C
:102460001A141A0F00000000000000000000000312
:102470000F3F7FFFFFFFFFFFFF1F0808081FFFFF41
:10248000FFFFFFFF7F3F0F03000000000000000080
:102490000000000000FF0000001C1414FF22FF14C5
:1024A000141C0000000080C0C0C08000387C7C7C10
:1024B00038000000FF0000000000000000000000E5
:1024C000000000000000000000000000000000000C
:1024D00000000000000000000000000000000000FC
:1024E00000000000000000000000000000000000EC
:1024F00000000000010103030707060606070703A3
:1025000003010100000000000000000000000000C6
:102510000000000000FF00000000000001010100B9
:102520000000000000000307070703000000000090
:1025300000000000FF00000000000000000000009C
:10254000000000000000000000000000000000008B
:10255000000000000000000000000000000000007B
:10256000000000000000000000000000000000006B
:10257000000000000000000000000000000000005B
:10258000000000000000000000000000000000004B
:102590000000000000FF00000000000080808000BC
:1025A000000000C0C0C0C0C00000040E1F0E040028
:1025B00000000000FF00000000000000000000001C
:1025C000000000000000000000000000000000000B
:1025D00000000000000000000000000000000000FB
:1025E00000000000000000000000000000000000EB
:1025F00000000000000000000000000000000000DB
:1026000000000000000000000000000000000000CA
:1026100000000000000102020202020203030302A2
:102620000202020303030303020202020202020285
:1026300002020202010000000000F21E791B1124B8
:102640001FBECFEFDAE0DEBFCDBF11E0A0E0B1E00A
:10265000E4E9F3E402C005900D92A63FB107D9F773
:1026600026E0A6EFB1E001C01D92AC3BB207E1F756
:1026700013E1CEE1D3E104C02197FE010E949D1F2A
:10268000CD31D107C9F70E948E1B0C94BD210C944B
:102690000000409105025091060220910302309102
:1026A000040242175307B4F49091E8009570E1F3E7
:1026B0009091E80092FD19C08093F100809105028D
:1026C0009091060201968F739927892B19F48EEF4A
:1026D0008093E80080910502909106020196909304
:1026E00006028093050281E0089580E00895CF926C
:1026F000DF92EF92FF920F931F93CF93DF931F927E
:10270000CDB7DEB7182F062FE42E862F880F8E5FE9
:1027100099830E94491383E00E944913F12EC12E30
:102720009981D92E8C2D8F19801798F4F601E7FE28
:1027300002C0849101C080810E944913182F80E05B
:102740000E9449138123FFEFCF1ADF0A8111EACFDC
:1027500001C081E00F90DF91CF911F910F91FF9009
:10276000EF90DF90CF900895DF92EF92FF920F935A
:102770001F93CF93DF93D82E8A017B01E40EF51EC1
:10278000EB01CE15DF0571F0D7FE03C0FE01849189
:1027900001C088810E94491321968111F2CF8FEFE9
:1027A0009FEF01C0C801DF91CF911F910F91FF9062
:1027B000EF90DF900895615030F02091F100FC011E
:1027C00020830196F8CF289884E680931802089514
:1027D000CF92DF92EF92FF920F931F93CF93DF93ED
:1027E0006C017A018B01C0E0D0E0CE15DF0589F0E5
:1027F000D8016D918D01D601ED91FC910190F08190
:10280000E02DC6010995892B11F47E0102C02196A5
:10281000ECCFC701DF91CF911F910F91FF90EF9007
:10282000DF90CF900895CF93DF931F92CDB7DEB79F
:102830006983DC01ED91FC910280F381E02D41E0A0
:1028400050E0BE016F5F7F4F09950F90DF91CF91F0
:10285000089583E08093E9008091F200882319F0C5
:102860008AE38093E8000895FC018485958597FDAF
:102870000BC09FB7F89482E08093E9008091F2004A
:102880009FBF90E0019608959FB7F89482E08093EF
:10289000E9008091F2009FBF90E008953FB7F8945F
:1028A0008091FF0190910002A0910102B09102027B
:1028B00026B5A89B05C02F3F19F00196A11DB11D9B
:1028C0003FBFBA2FA92F982F8827820F911DA11DD6
:1028D000B11DBC01CD0142E0660F771F881F991F13
:1028E0004A95D1F708952F923F924F925F926F923F
:1028F0007F928F929F92AF92BF92CF92DF92EF9290
:10290000FF920F931F93CF93DF93EC016A3069F42A
:102910002C8D888D998D38E0239F800D911D112479
:10292000998F888F1F8A1E8AA1C06D3009F49EC0BE
:102930003C8D5B8C4A8CC88CD98C8E899F89803861
:10294000910584F02C8D422F50E08E899F89A6E05E
:102950002A9F800D911D11249F8B8E8B2D8D21110F
:1029600072C084C0B0E4CB16D10464F7AC01E5E0DA
:102970003E9F400D511D1124141615061CF7A32E61
:10298000B12CA601F8E03F9F400D511D11241416F3
:102990001506C4F625E0629FB00111246C547F4FE8
:1029A000912C40E1342EFB018490F5E09F1201C090
:1029B000812C760128E0722E80FC02C0652C01C0BB
:1029C000642C611009C0541007C086947A94EA0CF4
:1029D000FB1C7110F1CF2EC0AC01242E242F281B1C
:1029E000231798F78701202FE02FEE19E317F8F44B
:1029F00040385105C8F400341105B0F4ECEAF0E0B9
:102A0000329ED001A0781124A20D2770E20FF11D93
:102A10002491A65EBD4F662019F0EC912E2B03C0C9
:102A20002095EC912E232C930F5F1F4FDCCF4F5F2F
:102A30005F4FD3CF93948A0D9B1D6F5F7F4FF6E05E
:102A40009F12B1CF7FCF6AEF64039001659F300D75
:102A5000112420583F4F2817390744F4CE01E8814C
:102A6000F9810190F081E02D6AE0099581E090E024
:102A7000DF91CF911F910F91FF90EF90DF90CF905A
:102A8000BF90AF909F908F907F906F905F904F908E
:102A90003F902F9008950895089580E090E0089564
:102AA0000F931F93CF93DF931F92CDB7DEB782E0D2
:102AB000898342E450E064EB75E080E80E94B4133F
:102AC0000E94211BDC0112960D911C911397011598
:102AD000110569F0D801ED91FC910280F381E02DA0
:102AE000BE016F5F7F4FC801099597FF07C08981BD
:102AF0000F90DF91CF911F910F910895F8010085FC
:102B00001185E5CF0E94101B90E008950F931F934D
:102B1000CF93DF931F92CDB7DEB78C01FC01848584
:102B2000958597FF0EC0CE0101960E94E61A019787
:102B300019F4298130E002C02FEF3FEFF80135870B
:102B40002487F801848595850F90DF91CF911F919F
:102B50000F910895CF93DF931F92CDB7DEB7FC019D
:102B60008485958597FD05C02FEF3FEF3587248736
:102B70000BC0CE0101960E94E61A019719F48981D3
:102B800090E002C08FEF9FEF0F90DF91CF910895FB
:102B90001F920F920FB60F9211248F939F938091E3
:102BA000E1009091E100937F9093E10083FF0FC0DB
:102BB0001092E90091E09093EB001092EC0092E308
:102BC0009093ED001092190298E09093F00082FF2C
:102BD00020C093E09093E9009091F200992319F0BE
:102BE0009AE39093E80090910702992339F090912D
:102BF0000702915090930702992389F1909118024E
:102C0000992339F0909118029150909318029923CA
:102C100041F184FF10C08091E2008E7E816080933C
:102C2000E2008091E1008F7E8093E10080910902B3
:102C30008E7E806111C080FF16C08091E2008E7E82
:102C400080618093E2008091E1008E7E8093E100BC
:102C5000809109028E7E81608093090204C05D9A92
:102C6000CDCF289AD6CF9F918F910F900FBE0F9006
:102C70001F9018951F920F920FB60F921124CF92AA
:102C8000DF92EF92FF920F931F932F933F934F93F7
:102C90005F936F937F938F939F93AF93BF93EF93C4
:102CA000FF93CF93DF93CDB7DEB76C97DEBFCDBF79
:102CB0001092E9008091E80083FFEDC168E0CE0149
:102CC00045960E94DB1382EF8093E8008D8987FF91
:102CD00005C09091E80090FFFCCF03C09EEF909359
:102CE000E800982F907609F0C6C09E892F89188D2C
:102CF00091110CC0803829F480910A028093F10070
:102D000002C01092F1001092F10048C1422F50E031
:102D1000512B913051F4811141C14130510509F0DD
:102D20003DC180910A028D7F0BC0933061F4811107
:102D300035C14130510509F031C180910A028260EC
:102D400080930A022BC1953041F48091E80080FF06
:102D5000FCCF20682093E30021C1963009F05FC0CA
:102D6000EB8CFC8C1092E900109206021092050286
:102D7000123091F510920402109203020E94501535
:102D800099E0BE016F5F7F4FDB01E92F1D92EA954D
:102D9000E9F799831A8391E09E8390EA98879AEFE6
:102DA00099872091050230910602275F3F4F3C83AF
:102DB0002B838D831092E900109206021092050277
:102DC000F0920402E092030249E050E080E00E94A9
:102DD000B4130E945015E2C0F0920402E092030284
:102DE0000E94211BDC011296ED90FC901397E114D8
:102DF000F10409F4C0C0D701ED91FC910480F58184
:102E0000E02DBE016B5E7F4FC7010995009719F059
:102E10000CF0C4C0C7C0F701E084F184E8CF97305C
:102E200009F4C0C0983021F481E08093F100B6C06D
:102E3000993009F0B3C0837009F0B4C0E4E1F1E067
:102E400081E021E036E39081992361F08093E900ED
:102E50002093EB0091919093EC003093ED008F5F05
:102E6000873089F78EE78093EA001092EA008F8915
:102E70008093190293C08B8D9C8D1092E900109263
:102E80000602109205029093040280930302898D3A
:102E9000811156C08E899D89913A59F4813209F089
:102EA00081C047E050E064E071E080E00E94B4132C
:102EB00075C0913209F076C0833289F4888D90E034
:102EC000982F88272F89822BA0E0B0E08093000103
:102ED00090930101A0930201B09303015FC080327F
:102EE00069F48091E80082FFFCCF67E084E091E024
:102EF0000E94DB138BEF8093E80006C0823209F05A
:102F00004DC08F8980930B0180910802882319F0AE
:102F1000EEEFFAE002C0E0E0F8E080910401909169
:102F20000501A0910601B0910701803B9440A105E5
:102F3000B10509F07BC080910B0180FF93C076C082
:102F40000E94211BDC0112960D911C911397011513
:102F5000110541F1D801ED91FC910190F081E02D36
:102F6000BE016B5E7F4FC8010995811117C0F80142
:102F700000851185ECCF113009F44EC0133091F467
:102F80008F89882309F445C0823081F440E860E1EC
:102F900088E196E00E947713882321F08EEF8093DA
:102FA000E80079C081E28093EB0075C0813029F49C
:102FB00040E86BE08CE096E0EDCF833099F70E941B
:102FC000211BDC011296ED90FC9013978E010F5F90
:102FD0001F4F6801E114F10479F0D701ED91FC91E4
:102FE0000680F781E02DB801C7010995080F111D72
:102FF000F701E084F184EECFD8011C92F601019034
:103000000020E9F73197BF016C197D0940E0C60146
:10301000C1CF66EF75E002C06AEF75E0611571051A
:1030200009F2FB01449150E080E840CF0FB6F894DC
:10303000A895809160008861809360001092600084
:103040000FBEA895EE3F2AE0F20739F08091FE0A04
:103050009091FF0A91838083A1CF1092FF0A109272
:10306000FE0A9CCFEE3F8AE0F80731F08081918123
:103070009093FF0A8093FE0A87E797E79183808306
:103080009BE088E10FB6F894A895809360000FBE8E
:103090009093600083CF6C960FB6F894DEBF0FBE9E
:1030A000CDBFDF91CF91FF91EF91BF91AF919F91F4
:1030B0008F917F916F915F914F913F912F911F91D0
:1030C0000F91FF90EF90DF90CF900F900FBE0F9079
:1030D0001F9018956115710579F0FB010190002092
:1030E000E9F73197AF01461B570BDC01ED91FC91DD
:1030F0000280F381E02D099480E090E008958F92A2
:103100009F92AF92BF92CF92DF92EF92FF926B01AC
:103110007C010E944E144B015C01C114D104E104F6
:10312000F104F1F00E944E14DC01CB0188199909D9
:10313000AA09BB09883E9340A105B10570F321E0BF
:10314000C21AD108E108F10888EE880E83E0981EC3
:10315000A11CB11CC114D104E104F10419F7DDCFA5
:10316000FF90EF90DF90CF90BF90AF909F908F90A7
:1031700008958F929F92AF92BF92CF92DF92EF927B
:10318000FF920F931F93CF93DF935C016B017A0142
:1031900080910B01882309F45BC080911902882378
:1031A00009F456C08091090280FF05C08091E000BB
:1031B00082608093E000E70110E00AEF83E0882E50
:1031C0009AE3992E2097D9F10E94101B81110AC011
:1031D000015009F43DC061E070E080E090E00E94A1
:1031E0007F18F0CF282F30E0C217D3070CF48C2FB4
:1031F0004FB7F8948092E9009091E80095FF1DC0C8
:10320000282F30E0C21BD30BF601982F915020F0ED
:1032100081918093F100FACFC20ED31E112319F0D1
:103220009092E80009C08091E80085FD06C0909268
:10323000E80011E0209709F010E04FBFC3CF111153
:10324000C3CF5D9884E6809307021E141F0444F0E8
:1032500081E090E0F5019383828380E090E001C0FB
:10326000C701DF91CF911F910F91FF90EF90DF90F9
:10327000CF90BF90AF909F908F9008952FB7F89404
:103280006091FB017091FC018091FD019091FE0124
:103290002FBF08951F920F920FB60F9211242F93F4
:1032A0003F938F939F93AF93BF938091FB01909136
:1032B000FC01A091FD01B091FE013091FA0123E0E3
:1032C000230F2D3720F40196A11DB11D05C026E85E
:1032D000230F0296A11DB11D2093FA018093FB01DB
:1032E0009093FC01A093FD01B093FE018091FF013A
:1032F00090910002A0910102B09102020196A11DDD
:10330000B11D8093FF0190930002A0930102B0933E
:103310000202BF91AF919F918F913F912F910F909A
:103320000FBE0F901F901895BC0180E090E00C94A8
:103330007F180F931F930E943E190091F601109180
:10334000F7012091F8013091F901061717072807B6
:103350003907B0F460E471E08AE196E00E946A18EF
:103360000E943E19DC01CB0188519C4FAF4FBF4FEB
:103370008093F6019093F701A093F801B093F901BF
:103380001F910F9108950E949A210F931F93CF933D
:10339000DF93EC0188819981009729F02A813B8194
:1033A0002617370788F48B016F5F7F4F0E94D0206C
:1033B000009761F0998388831B830A832C813D8168
:1033C000232B11F4FC01108281E001C080E0DF9129
:1033D000CF911F910F910895EF92FF920F931F933A
:1033E000CF93DF93EC01198218821B821A821D820F
:1033F0001C826115710549F18B01FB0101900020D0
:10340000E9F731977F01E61AF70AB7010E94C5195B
:103410002881398181110DC02115310519F0C901AB
:103420000E943820198218821D821C821B821A82F7
:103430000CC0FD82EC82B801C901DF91CF911F91D0
:103440000F91FF90EF900C94A821DF91CF911F91E5
:103450000F91FF90EF900895CF93DF93FC0144818B
:103460005581608171818EE896E00E94E813EC013D
:1034700062EF71E08EE896E00E946A188C0F9D1F43
:10348000DF91CF910895CF93DF93BC018EE896E052
:103490000E946A18EC0162EF71E08EE896E00E94EB
:1034A0006A188C0F9D1FDF91CF91089520E08AE16B
:1034B00092E0B22FB111BFEFFC010024B193B193A0
:1034C000B193B1930394D1F7EEE8F6E0118E108E2C
:1034D000178A168A08950F931F93CF93DF9300974F
:1034E00009F45DC0FC014491319624910296C42FE9
:1034F000D0E06623E9F0E22FE695E695E695AE2F5B
:10350000B0E0E1E0F0E0322F377011F4E0E0F0E0FD
:10351000EA0FFB1FCE9FD001CF9FB00DDE9FB00DF5
:1035200011246A9FF0016B9FF00D11248E0F9F1FD5
:103530002097A9F1222399F1009789F1C038D1058C
:1035400014F4342F01C030E8E1E0422F477009F451
:10355000E0E02695269526952E0F293008F028E0E4
:1035600060E000E010E06217D1F0D801A65EBD4F28
:1035700040E050E0431768F4FC01E40FF51FE491CC
:1035800067FD03C07C91E72BEC934F5F5F4F119673
:10359000F1CF6F5F8C0F9D1F00581F4FE4CFDF915D
:1035A000CF911F910F91089580911A028EBDEBE18A
:1035B000F2E081910DB407FEFDCF8EBD86E0EA31C9
:1035C000F807B9F70DB407FEFDCF0895FC0180910F
:1035D0001902811103C08FEF9FEF08959FB7F894F0
:1035E00082E08093E9002091F20030E01216130689
:1035F00014F421E030E02115310559F0289884E6D3
:10360000809318028091F10080838091F2008823DA
:1036100019F09FBFC90108958BE68093E800F9CFA8
:103620002FB7F89483E08093E9009091E800892F08
:10363000807295FF04C09091F20080E4891B2FBF37
:1036400008958091B00681110DC082E08093AC0690
:1036500084E08093AD061092AF061092AE0681E032
:103660008093B0068CEA96E008950F931F93CF9352
:10367000DF938C0181E090E00E944A1F80FF31C0FF
:103680008AE090E00E944A1F9FEF980F9E3F48F506
:1036900022E330E0D80157963C932E93569728E3C7
:1036A00030E059963C932E935897CBE0D0E0D80168
:1036B000ED91FC910190F081E02D682FC8010995F2
:1036C000CE010E944A1F2196C131D10581F70E9487
:1036D000D41A88EE93E0DF91CF911F910F910C9453
:1036E0009419DF91CF911F910F91089504970C9435
:1036F000351BCF93DF93C8E8D6E026978881998160
:103700000E94382086E0CA36D807B9F7809188062B
:1037100090918906DF91CF910C943820CF93DF935D
:10372000CDB7DEB72C970FB6F894DEBF0FBECDBF76
:10373000789484B5826084BD84B5816084BD85B58C
:10374000826085BD85B5816085BD80916E00816098
:1037500080936E001092810080918100826080933E
:103760008100809181008160809381008091800040
:1037700081608093800080919100826080939100AD
:103780008091910081608093910080919000816090
:10379000809390008091C10084608093C1008091EB
:1037A000C10082608093C1008091C10081608093DC
:1037B000C1008091C30081608093C3008091C000EC
:1037C00082608093C0008091C20081608093C200BB
:1037D00080917A00846080937A0080917A00826080
:1037E00080937A0080917A00816080937A00809142
:1037F0007A00806880937A001092190210920A026F
:10380000109209028091D70081608093D70080EAEE
:103810008093D80089B5806189BD89B5826089BDF2
:1038200009B400FEFDCF61E070E080E090E00E940E
:103830007F188091D8008F7C80618093D800809120
:10384000E000807F8093E0008091E1008E7E809395
:10385000E1008DE08093E200559A209AEEEFFFE7B9
:10386000859194918B3F9C4D19F481E080930802DF
:1038700081EC80937C0085B1806F85B9249884B1F8
:10388000866E84B95E9A5F988AB1806D8AB9769A9D
:103890006E9881B3806F81BB899880B38D7080BB37
:1038A00080E58CBD81E08DBD85E090E00E9494199B
:1038B0005F9A85E090E00E9494195E985C98E9E236
:1038C000F6E08DE08E0F94919EBD00000DB407FED2
:1038D000FDCF31968E13F7CF5C9A81E88093640018
:1038E00081E08093650091E2909399068093AB0606
:1038F0008FEF9FEF90932706809326065598209888
:10390000E3E0EE2EF12CFEE1CF2ED12CBB24B394BC
:1039100000E010E08AE196E00E943414892B09F45B
:1039200077C064EF71E0CE0107960E94EC198AE13E
:1039300096E00E943414892B11F10E9499198AE1B2
:1039400096E00E94AA1589831A828B849C848FEF4B
:10395000881A980AB401CE0107960E94C5198823D7
:1039600031F32F8138858B859C85BE016F5F7F4F3A
:10397000820F931F0E94A8219C868B86D8CF60E47B
:1039800071E0CE0101960E94EC194D815E818B851C
:103990009C8589809A808417950770F08F8198851F
:1039A000009751F08114910439F0B4010E94AF21C5
:1039B000AA24A394892B09F0A12CC4010E943820C9
:1039C000AA2059F00E943E196093140270931502C8
:1039D000809316029093170217C00E94561ACE01C8
:1039E00007960E942C1A0E94D41A7AE0872E912CF6
:1039F0000E94991968EC70E080E090E00E947F18C6
:103A000021E0821A9108A1F78F8198850E943820C1
:103A10000E943E1940909E0650909F066090A0061E
:103A20007090A1062091A206222341F020919A06CF
:103A3000621B6093A3061092A2069FC164157505D0
:103A40008605970580F4842D861B823008F495C185
:103A500083B7817F83BF83B7816083BF889583B736
:103A60008E7F83BF8AC1B092A20660939A0670933C
:103A70009B0680939C0690939D0620919906DC01FD
:103A8000CB01820F911DA11DB11D80939E069093C5
:103A90009F06A093A006B093A106809195069091F1
:103AA0009606019690939606809395060E94561A64
:103AB0000E943E1940901402509015026090160228
:103AC00070901702DC01CB0184199509A609B7098A
:103AD000813D9740A105B10528F180901202909098
:103AE0001302682D88E39AE10E946B1A8091950673
:103AF00090919606B6010E94891F892B39F48FEFA9
:103B0000881A980A909213028092120280911202EF
:103B10009091130203970CF42EC11092130210928D
:103B2000120229C10E94991980910C018A3009F46E
:103B300046C058F4882309F481C0813009F01BC1C4
:103B400081E691E00E94431A16C1823609F183365C
:103B500041F08C3009F00FC162E771E08EE896E029
:103B6000DFC08DE491E00E94431A40900E02509015
:103B70000F0260901002709011020E943E194616CA
:103B800057066806790608F0F6C0B0920C01F3C03B
:103B900088E791E00E94431A40900E0250900F0275
:103BA00060901002709011020E943E19461657064E
:103BB0006806790608F0DFC010920C01DCC0809026
:103BC0000C0290900D02682D86E396E00E946B1A1D
:103BD0008091950690919606B7010E94891F892BC6
:103BE00039F42FEF821A920A90920D0280920C0201
:103BF00080910C0290910D02059724F010920D0215
:103C000010920C0240900E0250900F026090100231
:103C1000709011020E943E194616570668067906F2
:103C200008F0A9C082E680930C010E943E19DC01D5
:103C3000CB018053984FAF4FBF4F8FC080919706F5
:103C4000809398064FB12CB193B130E02095309518
:103C50002074332753E0359527955A95E1F7892F3E
:103C600090E0809590958071992795958795959589
:103C70008795822B942F9095907F892B8093970620
:103C80008FE791E00E94431A9091980694FF04C038
:103C90008091970684FF78C097FF04C080919706B3
:103CA00087FF78C080910B0287FD04C085301CF02F
:103CB00080E001C085E080930B028AE6682E86E0F2
:103CC000782E812C912C80910B02082E000C990BE0
:103CD0008815990519F467E471E002C06AE471E09F
:103CE0008EE896E00E946A18C3010E942C1A8FEF9A
:103CF000881A980A26E0620E711C85E088169104E5
:103D000011F78091980683FF36C08091970683FD56
:103D100032C046C0813079F56DE871E08AE196E005
:103D20000E946A1828C083300CF1833009F040C02B
:103D30006CE971E08AE196E00E946A1810920D0227
:103D400010920C028AE080930C010E943E19DC0163
:103D5000CB01805F984DAF4FBF4F80930E02909381
:103D60000F02A0931002B093110205C08111D2CFAF
:103D70008BE080930C010E94D41A0115110509F4FF
:103D8000C9CD0E940000C2CD80910B028F5F80934D
:103D90000B0282CF80910B02815080930B0282CF65
:103DA00080910B02823009F0BECF64E971E0B6CF9A
:103DB000843009F765EA71E08AE196E00E946A18AA
:103DC0000E943E19DC01CB018854944FAF4FBF4F86
:103DD00080930E0290930F02A0931002B0931102F1
:103DE00083E6C7CFEAE1F6E01382128288EE93E021
:103DF000A0E0B0E084839583A683B7838EE191E051
:103E0000918380838FEF9FEF95878487EEE8F6E0BC
:103E1000138212821186128620E12387908787837E
:103E2000108A118A128A138A148A80E391E091839E
:103E300080838EE391E095838483178A168A118E9E
:103E4000108E81E0828F138E848F158E64EF71E067
:103E500088E896E00E94EC1960EB71E08AE696E053
:103E60000E94EC1962EC71E080E796E00E94EC1988
:103E700068EC71E086E796E00E94EC1966ED71E06F
:103E80008CE796E00E94EC1966EE71E082E896E01D
:103E90000C94EC19F999FECF92BD81BDF89A99273F
:103EA00080B508952F923F924F925F926F927F92CA
:103EB0008F929F92AF92BF92CF92DF92EF92FF923A
:103EC0000F931F93CF93DF93CDB7DEB7CA1BDB0BE6
:103ED0000FB6F894DEBF0FBECDBF09942A8839888B
:103EE00048885F846E847D848C849B84AA84B98492
:103EF000C884DF80EE80FD800C811B81AA81B9819E
:103F0000CE0FD11D0FB6F894DEBF0FBECDBFED01B1
:103F10000895AA1BBB1B51E107C0AA1FBB1FA61710
:103F2000B70710F0A61BB70B881F991F5A95A9F762
:103F300080959095BC01CD010895EE0FFF1F05906F
:103F4000F491E02D0994CF93DF938230910510F422
:103F500082E090E0E091BA06F091BB0620E030E00C
:103F6000C0E0D0E0309711F14081518148175907E6
:103F7000C0F04817590761F482819381209719F0A6
:103F80009B838A832BC09093BB068093BA0626C07E
:103F90002115310519F04217530718F49A01BE0193
:103FA000DF01EF010280F381E02DDCCF2115310527
:103FB00009F1281B390B2430310590F412968D91AC
:103FC0009C9113976115710521F0FB019383828306
:103FD00004C09093BB068093BA06FD01329644C09C
:103FE000FD01E20FF31F81939193225031092D932C
:103FF0003C933AC02091B8063091B906232B41F486
:1040000020910F01309110013093B9062093B8062A
:1040100020910D0130910E012115310541F42DB78C
:104020003EB74091110150911201241B350BE091D4
:10403000B806F091B906E217F307A0F42E1B3F0B68
:104040002817390778F0AC014E5F5F4F241735070A
:1040500048F04E0F5F1F5093B9064093B806819306
:10406000919302C0E0E0F0E0CF01DF91CF9108959D
:104070000F931F93CF93DF93009709F48CC0FC013B
:104080003297138212820091BA061091BB06011575
:10409000110581F420813181820F931F2091B80690
:1040A0003091B9062817390779F5F093B906E093EE
:1040B000B80671C0D80140E050E0AE17BF0750F419
:1040C00012962D913C911397AD012115310509F1FF
:1040D000D901F3CF9D01DA0133832283608171819D
:1040E000860F971F8217930769F4EC0128813981A5
:1040F000260F371F2E5F3F4F318320838A819B819C
:1041000093838283452B29F4F093BB06E093BA0690
:1041100042C01396FC93EE931297ED014991599189
:104120009E01240F351FE217F30771F480819181FE
:10413000840F951F029611969C938E938281938192
:1041400013969C938E931297E0E0F0E0D8011296BC
:104150008D919C911397009719F0F8018C01F6CF7F
:104160008D919C9198012E5F3F4F820F931F20915C
:10417000B8063091B9062817390769F4309729F441
:104180001092BB061092BA0602C0138212821093DC
:10419000B9060093B806DF91CF911F910F91089552
:1041A000A0E0B0E0E6EDF0E20C94561FEC010097C1
:1041B00021F4CB010E94A31FB8C0FC01E60FF71F3A
:1041C0009C0122503109E217F30708F4ACC0D90171
:1041D0000D911C91119706171707B0F005301105C6
:1041E00008F49FC0C80104978617970708F499C080
:1041F00002501109061B170B019311936D937C93C9
:10420000CF010E9438208DC05B01A01AB10A4C0179
:10421000800E911EA091BA06B091BB0640E050E01E
:10422000E12CF12C109709F44AC0A815B905D1F575
:104230006D907C901197630182E0C80ED11CCA1466
:10424000DB0480F1A3014A195B096A0182E0C80E10
:10425000D11C1296BC9012971396AC91B5E0CB1678
:10426000D10440F0B282A38351834083D9016D937E
:104270007C930AC00E5F1F4FC301800F911FF9018D
:1042800091838083EB2DFA2FE114F10431F0D701F3
:104290001396FC93EE93129744C0F093BB06E09301
:1042A000BA063FC08D919C9111974817590708F4A1
:1042B000AC017D0112960D90BC91A02DB3CF8091E1
:1042C000B8069091B90688159905E1F44617570785
:1042D000C8F480910D0190910E01009741F48DB7C3
:1042E0009EB74091110150911201841B950BE81764
:1042F000F907C8F4F093B906E093B806F9017183A1
:1043000060830FC0CB010E94A31F7C01009759F06E
:10431000A801BE010E949F21CE010E943820C70142
:1043200004C0CE0102C080E090E0CDB7DEB7EEE081
:104330000C94721F81E090E0F8940C94BD21FB0175
:10434000DC0102C001900D9241505040D8F7089511
:10435000FB01DC0101900D920020E1F70895FB01C3
:10436000DC014150504030F08D910190801919F4DA
:104370000020B9F7881B990B089513E1CEE1D3E132
:1043800004C0FE010E949D1F2196CF31D107C9F7BD
:04439000F894FFCFCF
:10439400FFFFFFFF00E10000000000000C0000BC74
:1043A40006800000C180810000000000000013149A
:1043B400B918821529143414AA15861500000000B2
:1043C4007314E8134D154C15351BFCFF0000761BC8
:1043D4003C50494E473E002D3E00202000446F6370
:1043E4006B206973207475726E696E67206F6666E0
:1043F4000057616974696E6720666F7220646F6329
:104404006B0031323A3030004572726F722E0044C4
:104414004F434B204D454E5520563033003C5449B4
:104424004D453E003C41424F55543E003C5550449E
:104434004154453E003C53485554444F574E3E006A
:1044440042726F77736520636F6C6C656374696F18
:104454006E00436C6F636B00446F636B2073657411
:1044640074696E67730055706461746520646F636A
:104474006B2061707000436861726765206D6F64C2
:0644840065000D0A0000B6
:00000001FF
