:100000000C9459130C9481130C9481130C94811348
:100010000C9481130C9481130C9481130C94811310
:100020000C9481130C9481130C94FC150C946E1693
:100030000C9481130C9481130C9481130C948113F0
:100040000C9481130C9481130C9481130C948113E0
:100050000C9481130C9481130C9481130C94241A26
:100060000C9481130C9481130C9481130C948113C0
:100070000C9481130C9481130C9481130C948113B0
:100080000C9481130C9481130C9481130C948113A0
:100090000C9481130C9481130C9481130C94811390
:1000A0000C9481130C9481130C94811300000000B4
:1000B000003E5B4F5B3E3E6B4F6B3E1C3E7C3E1CEE
:1000C000183C7E3C181C577D571C1C5E7F5E1C0034
:1000D000183C1800FFE7C3E7FF0018241800FFE7EB
:1000E000DBE7FF30483A060E2629792926407F05AE
:1000F0000507407F05253F5A3CE73C5A7F3E1C1CC4
:1001000008081C1C3E7F14227F22145F5F005F5F83
:1001100006097F017F006689956A6060606060946F
:10012000A2FFA29408047E040810207E2010080874
:100130002A1C08081C2A08081E101010100C1E0C7F
:100140001E0C30383E3830060E3E0E060000000011
:100150000000005F00000007000700147F147F14F8
:10016000242A7F2A1223130864623649562050003D
:1001700008070300001C2241000041221C002A1C29
:100180007F1C2A08083E0808008070300008080814
:100190000808000060600020100804023E51494534
:1001A0003E00427F400072494949462141494D3352
:1001B0001814127F1027454545393C4A49493141B9
:1001C000211109073649494936464949291E000087
:1001D00014000000403400000008142241141414DC
:1001E0001414004122140802015909063E415D59C8
:1001F0004E7C1211127C7F494949363E41414122D1
:100200007F4141413E7F494949417F090909013EFA
:10021000414151737F0808087F00417F4100204021
:10022000413F017F081422417F404040407F021C33
:10023000027F7F0408107F3E4141413E7F0909094A
:10024000063E4151215E7F09192946264949493216
:1002500003017F01033F4040403F1F2040201F3FDC
:100260004038403F63140814630304780403615961
:10027000494D43007F4141410204081020004141A3
:10028000417F04020102044040404040000307084F
:100290000020545478407F2844443838444444284B
:1002A000384444287F385454541800087E090218F2
:1002B000A4A49C787F0804047800447D400020407A
:1002C000403D007F1028440000417F40007C0478BE
:1002D00004787C080404783844444438FC18242406
:1002E0001818242418FC7C08040408485454542486
:1002F00004043F44243C4040207C1C2040201C3C03
:100300004030403C44281028444C9090907C4464F9
:10031000544C44000836410000007700000041368C
:10032000080002010204023C2623263C1EA1A16112
:10033000123A4040207A3854545559215555794144
:100340002154547841215554784020545579400C1B
:100350001E527212395555555939545454593955FC
:100360005454580000457C410002457D420001453F
:100370007C40F0292429F0F0282528F07C545545AC
:10038000002054547C547C0A097F4932494949323F
:100390003248484832324A4848303A4141217A3A54
:1003A00042402078009DA0A07D39444444393D401E
:1003B00040403D3C24FF2424487E4943662B2FFCCB
:1003C0002F2BFF0929F620C0887E09032054547979
:1003D000410000447D413048484A32384040227A4A
:1003E000007A0A0A727D0D19317D2629292F2826C7
:1003F0002929292630484D402038080808080808CF
:100400000808382F10C8ACBA2F102834FA00007B27
:10041000000008142A142222142A1408950022002D
:1004200095AA005500AAAA55AA55AA000000FF00E7
:10043000101010FF00141414FF001010FF00FF1024
:1004400010F010F0141414FC001414F700FF000056
:10045000FF00FF1414F404FC141417101F10101FD5
:10046000101F1414141F00101010F0000000001FC3
:10047000101010101F10101010F010000000FF10CE
:100480001010101010101010FF10000000FF1400CA
:1004900000FF00FF00001F10170000FC04F41414FC
:1004A0001710171414F404F40000FF00F7141414C8
:1004B00014141414F700F7141414171410101F1048
:1004C0001F141414F4141010F010F000001F101F6B
:1004D0000000001F14000000FC140000F010F010D9
:1004E00010FF10FF141414FF141010101F00000050
:1004F00000F010FFFFFFFFFFF0F0F0F0F0FFFFFF54
:100500000000000000FFFF0F0F0F0F0F38444438AA
:10051000447C2A2A3E147E02020606027E027E02E5
:1005200063554941633844443C04407E201E200604
:10053000027E020299A5E7A5991C2A492A1C4C7241
:1005400001724C304A4D4D303048784830BC625AC8
:10055000463D3E494949007E0101017E2A2A2A2A58
:100560002A44445F444440514A444040444A514034
:100570000000FF0103E080FF000008086B6B0836F5
:1005800012362436060F090F060000181800000066
:100590001010003040FF0101001F01011E00191D55
:1005A0001712003C3C3C3C00000000000102040823
:1005B00010204080080B0002020201000904000024
:1005C00001020200000524001001052401010104BC
:1005D00024020605240600010705810310004009D6
:1005E000040100020A0000000705020240000007A3
:1005F0000583024000000403090412010002EF0217
:1006000001404123368000010102030141726475FB
:10061000696E6F204C4C430041726475696E6F20A7
:100620004C656F6E6172646F00436861726765202C
:100630006D6F64650055706461746520646F636BF1
:100640002061707000446F636B2073657474696E11
:10065000677300436C6F636B0042726F7773652042
:10066000436F6C6C656374696F6E00D5F08D14A177
:10067000C881CFD9F1AF20003C53485554444F575F
:100680004E3E003C5550444154453E003C41424F93
:1006900055543E002020002D3E00590653064506C5
:1006A000350629062020002D3E0080400000000075
:1006B000000000000000000000000000000000003A
:1006C000000000000000000000000000000000002A
:1006D000000000000000000000000000000000001A
:1006E000000000000000000000000000000000000A
:1006F00000000000000000000000000000000000FA
:1007000000000000000000FC020202E2262626266D
:1007100022222222222222222222222222222222B9
:100720002222E2020202FC000000000000000000A1
:1007300000000000000000000000000000000000B9
:1007400000000000000000000000000000000000A9
:100750000000000000000000000000000000000099
:100760000000000000000000000000000000000089
:100770000000000000000000000000000000000079
:1007800000000000000000FF000000FF000000006B
:100790000000000000000000000000000000000059
:1007A0000000FF002000FF0000000000000000002B
:1007B0000000804020100804020101010101010134
:1007C000010101010101010101010101018141A1B9
:1007D00051A955ABFF000000000000000000000020
:1007E000000000000000000000000000000000F811
:1007F000F8F0E0C0800000000000000000000000F1
:1008000000000000000000FF0000001F101010108A
:1008100010101010101010101010101010101010D8
:1008200010101F000700FF00000000000000000083
:10083000FEFFFEFE1E1E1E1E1E1E1E1E1E1E1E1E57
:100840001E5E5E1EFEFEFEFEFEFEFEFE55AA55AAC2
:1008500055AA55AAFF0000000000000000FEFE5649
:1008600006AE0656AE56AE56AE56AEFEFEFEFEFFC7
:10087000FFFFFFFFFFFFFEFC7830000000000000DC
:1008800000000000000000FF000000C04040FC2409
:10089000FC4040C00000000000000000000080C0DC
:1008A000C0C080000000FF00000000000000000049
:1008B000FFFFFFFF007F7F7F7F01F1F1F1F1F1F199
:1008C000F1F1F1F0F1F1F5F501FFFFFF55AA55AA9D
:1008D00055AA55AA7F000000000000000003030392
:1008E0000303030303030303030303030303037F5C
:1008F0007F3F1F0F07030100000000000000000001
:1009000000000000000000FF0000000101011F12B4
:100910001F01010100000000387C7C7C38000307C7
:10092000070703000000FF000000000000000000B7
:10093000FFFFFFFFFFFFFFFFFFF0F7F7F7F7F7F706
:10094000F7F7F7F7F7F7F7F7F0FFFFFF552A150A64
:10095000050201000000000000000000000000008F
:100960000000000000000000000000000000000087
:100970000000000000000000000000000000000077
:1009800000000000000000FF000000000000000068
:1009900000000000000000000000000040E0F0E067
:1009A000400000000000FF00000000000000000008
:1009B0000000000000000000000000000000000037
:1009C0000000000000000000000000000000000027
:1009D0000000000000000000000000000000000017
:1009E0000000000000000000000000000000000007
:1009F00000000000000000000000000000000000F7
:100A000000000000000080DFE02020202020383897
:100A1000B8A0202020BC3C3C3CBC20A020A0212031
:100A20002020202020E0DF800000000000000000E7
:100A300000000000000000000000000000000000B6
:100A400000000000000000000000000000000000A6
:100A50000000000000000000000000000000000096
:100A60000000000000000000000000000000000086
:100A70000000000000000000000000000000000076
:100A800000000000003F516850685068506850688E
:100A9000536A5168516A5168516A506B516A506883
:100AA00050685068506850693F0000000000000026
:100AB0000000000000000000000000000000000036
:100AC0000000000000000000000000000000000026
:100AD0000000000000000000000000000000000016
:100AE0000000000000000000000000000000000006
:100AF00000000000000000000000000000000000F6
:100B0000000000000000FC020202E2262626262247
:100B100022222222222222222222222222222222B5
:100B200022E2020202FC00000000000000000000BF
:100B300000000000000000000000000000000000B5
:100B400000000000000000000000000000000000A5
:100B50000000000000000000000000000000000095
:100B60000000000000000000000000000000000085
:100B70000000000000000000000000000000000075
:100B8000000000000000FF000000FF000000000067
:100B90000000000000000000000000000000000055
:100BA00000FF002000FF0000000000000000000027
:100BB0000000008040201008040201010101010131
:100BC0000101010101010101010101010101814155
:100BD000A151A955ABFF000000000000000000007B
:100BE0000000000000000000000000000000000005
:100BF0000000F8F8F0E0C0800000000000000000F5
:100C0000000000000000FF0000001F101010101076
:100C100010101010101010101010101010101010D4
:100C2000101F000700FF000000000000000000008F
:100C300000FEFFFEFE1E1E1E1E1E1E1E1E1E1E1E71
:100C40001E1E5E5E1EFEFEFEFEFEFEFEFE55AA554A
:100C5000AA55AA55AAFF00000000000000000000ED
:100C6000FEFE5606AE0656AE56AE56AE56AEFEFE6C
:100C7000FEFEFFFFFFFFFFFFFFFEFC7830000000DD
:100C8000000000000000FF000000C04040FC24FC09
:100C90004040C00000000000000000000080C0C014
:100CA000C080000000FF0000000000000000000005
:100CB00000FFFFFFFF007F7F7F7F01F1F1F1F1F186
:100CC000F1F1F1F1F0F1F1F5F501FFFFFF55AA5552
:100CD000AA55AA55AA7F00000000000000000000ED
:100CE00003030303030303030303030303030303D4
:100CF00003037F7F3F1F0F07030100000000000078
:100D0000000000000000FF0000000101011F121F91
:100D100001010100000000387C7C7C3800030707DB
:100D20000703000000FF00000000000000000000BA
:100D300000FFFFFFFFFFFFFFFFFFF0F7F7F7F7F7F9
:100D4000F7F7F7F7F7F7F7F7F7F0FFFFFF552A1573
:100D50000A05020100000000000000000000000081
:100D60000000000000000000000000000000000083
:100D70000000000000000000000000000000000073
:100D8000000000000000FF00000000000000000064
:100D9000000000000000000000000040E0F0E04023
:100DA0000000000000FF0000000000000000000044
:100DB0000000000000000000000000000000000033
:100DC0000000000000000000000000000000000023
:100DD0000000000000000000000000000000000013
:100DE0000000000000000000000000000000000003
:100DF00000000000000000000000000000000000F3
:100E0000000000000080DFE020202020203838B8DB
:100E1000A0202020BC3C3C3CBC20A020A0212020C5
:100E200020202020E0DF8000000000000000000003
:100E300000000000000000000000000000000000B2
:100E400000000000000000000000000000000000A2
:100E50000000000000000000000000000000000092
:100E60000000000000000000000000000000000082
:100E70000000000000000000000000000000000072
:100E8000000000003F516850685068506850685337
:100E90006A5168516A5168516A506B516A50685082
:100EA000685068506850693F000000000000000072
:100EB0000000000000000000000000000000000032
:100EC0000000000000000000000000000000000022
:100ED0000000000000000000000000000000000012
:100EE0000000000000000000000000000000000002
:100EF00000000000000000000000000000000000F2
:100F000000000000000000F8040404C44C4C4C4CE9
:100F10004444444444444444444444444444444491
:100F20004444C4040404F800000000000000000071
:100F300000000000000000000000000000000000B1
:100F400000000000000000000000000000000000A1
:100F50000000000000000000000000000000000091
:100F60000000000000000000000000000000000081
:100F70000000000000000000000000000000000071
:100F800000000000000000FF000000FF0000000063
:100F90000000000000000000000000000000000051
:100FA0000000FF004000FF00000000000000000003
:100FB000000000804020100804020101010101012D
:100FC0000101010101010101010101010101814151
:100FD000A151A955ABFF0000000000000000000077
:100FE0000000000000000000000000000000000001
:100FF000000000F8F8F0E0C08000000000000000F1
:1010000000000000000000FF0000003F2020202022
:1010100020202020202020202020202020202020D0
:1010200020203F000E00FF00000000000000000034
:1010300000FEFFFEFE1E1E1E1E1E1E1E1E1E1E1E6D
:101040001E1E5E5E1EFEFEFEFEFEFEFEFE55AA5546
:10105000AA55AA55AAFF00000000000000000000E9
:1010600000FEFE5606AE0656AE56AE56AE56AEFE66
:10107000FEFEFEFFFFFFFFFFFFFFFEFC78300000DB
:1010800000000000000000FF000000808080F848A1
:10109000F880808000000000000000000000008058
:1010A000808000000000FF00000000000000000041
:1010B00000FFFFFFFF007F7F7F7F01F1F1F1F1F182
:1010C000F1F1F1F1F0F1F1F5F501FFFFFF55AA554E
:1010D000AA55AA55AA7F00000000000000000000E9
:1010E00000030303030303030303030303030303D3
:1010F0000303037F7F3F1F0F070301000000000071
:1011000000000000000000FF0000000302023F2476
:101110003F0202030000000070F8F8F87000070FAB
:101120000F0F07000000FF0000000000000000009B
:1011300000FFFFFFFFFFFFFFFFFFF0F7F7F7F7F7F5
:10114000F7F7F7F7F7F7F7F7F7F0FFFFFF552A156F
:101150000A0502010000000000000000000000007D
:10116000000000000000000000000000000000007F
:10117000000000000000000000000000000000006F
:1011800000000000000000FF000000000000000060
:1011900000000000000000000000000080C0E0C06F
:1011A000800000000000FF000000000000000000C0
:1011B000000000000000000000000000000000002F
:1011C000000000000000000000000000000000001F
:1011D000000000000000000000000000000000000F
:1011E00000000000000000000000000000000000FF
:1011F00000000000000000000000000000000000EF
:1012000000000000000000BFC0404040404070703F
:101210007040404040787878787840404041434181
:101220004040404040C0BF000000000000000000FF
:1012300000000000000000000000000000000000AE
:10124000000000000000000000000000000000009E
:10125000000000000000000000000000000000008E
:10126000000000000000000000000000000000007E
:10127000000000000000000000000000000000006E
:1012800000000000007EA3D1A1D0A0D0A0D0A0D0AB
:10129000A7D5A2D0A2D5A2D0A2D5A0D7A2D5A0D0A2
:1012A000A0D0A0D0A0D1A1D37E00000000000000FB
:1012B000000000000000000000000000000000002E
:1012C000000000000000000000000000000000001E
:1012D000000000000000000000000000000000000E
:1012E00000000000000000000000000000000000FE
:1012F00000000000000000000000000000000000EE
:1013000000000000000000FC020202E22626262661
:1013100022222222222222222222222222222222AD
:101320002222E2020202FC00000000000000000095
:1013300000000000000000000000000000000000AD
:10134000000000000000000000000000000000009D
:10135000000000000000000000000000000000008D
:10136000000000000000000000000000000000007D
:10137000000000000000000000000000000000006D
:1013800000000000000000FF000000FF000000005F
:10139000000000000000000000000000000000004D
:1013A0000000FF002000FF0000000000000000001F
:1013B0000000008040201008040201010101010129
:1013C000010101010101010101010101010181414D
:1013D000A151A955ABFF0000000000000000000073
:1013E00000000000000000000000000000000000FD
:1013F00000000000F8F8F0E0C080000000000000ED
:1014000000000000000000FF0000001F101010107E
:1014100010101010101010101010101010101010CC
:1014200010101F000700FF00000000000000000077
:1014300000FEFFFEFE1E1E1E1E1E1E1E1E1E1E1E69
:101440001E1E5E5E1EFEFEFEFEFEFEFEFE55AA5542
:10145000AA55AA55AAFF00000000000000000000E5
:101460000000FEFE5606AE0656AE56AE56AE56AE60
:10147000FEFEFEFEFFFFFFFFFFFFFFFEFC783000D9
:1014800000000000000000FF000000C04040FC24FD
:10149000FC4040C00000000000000000000080C0D0
:1014A000C0C080000000FF0000000000000000003D
:1014B00000FFFFFFFF007F7F7F7F01F1F1F1F1F17E
:1014C000F1F1F1F1F0F1F1F5F501FFFFFF55AA554A
:1014D000AA55AA55AA7F00000000000000000000E5
:1014E00000000303030303030303030303030303D2
:1014F000030303037F7F3F1F0F070301000000006A
:1015000000000000000000FF0000000101011F12A8
:101510001F01010100000000387C7C7C38000307BB
:10152000070703000000FF000000000000000000AB
:1015300000FFFFFFFFFFFFFFFFFFF0F7F7F7F7F7F1
:10154000F7F7F7F7F7F7F7F7F7F0FFFFFF552A156B
:101550000A05020100000000000000000000000079
:10156000000000000000000000000000000000007B
:10157000000000000000000000000000000000006B
:1015800000000000000000FF00000000000000005C
:1015900000000000000000000000000040E0F0E05B
:1015A000400000000000FF000000000000000000FC
:1015B000000000000000000000000000000000002B
:1015C000000000000000000000000000000000001B
:1015D000000000000000000000000000000000000B
:1015E00000000000000000000000000000000000FB
:1015F00000000000000000000000000000000000EB
:1016000000000000000080DFE0202020202038388B
:10161000B8A0202020BC3C3C3CBC20A020A0212025
:101620002020202020E0DF800000000000000000DB
:1016300000000000000000000000000000000000AA
:10164000000000000000000000000000000000009A
:10165000000000000000000000000000000000008A
:10166000000000000000000000000000000000007A
:10167000000000000000000000000000000000006A
:1016800000000000003F5168506850685068506882
:10169000536A5168516A5168516A506B516A506877
:1016A00050685068506850693F000000000000001A
:1016B000000000000000000000000000000000002A
:1016C000000000000000000000000000000000001A
:1016D000000000000000000000000000000000000A
:1016E00000000000000000000000000000000000FA
:1016F00000000000000000000000000000000000EA
:1017000000000000000000FE010101F1131313139B
:1017100011111111111111111111111111111111B9
:101720001111F1010101FE000000000000000000A5
:1017300000000000000000000000000000000000A9
:101740000000000000000000000000000000000099
:101750000000000000000000000000000000000089
:101760000000000000000000000000000000000079
:101770000000000000000000000000000000000069
:1017800000000000000000FF000000FF000000005B
:101790000000000000000000000000000000000049
:1017A0000000FF009000FF000000000000000000AB
:1017B0000000008040201008040201010101010125
:1017C0000101010101010101010101010101814149
:1017D000A151A955ABFF000000000000000000006F
:1017E00000000000000000000000000000000000F9
:1017F00000000000000000F8F8F0E0C080000000E9
:1018000000000000000000FF0000000F08080808AA
:101810000808080808080808080808080808080848
:1018200008080F000300FF00000000000000000097
:1018300000FEFFFEFE1E1E1E1E1E1E1E1E1E1E1E65
:101840001E1E5E5E1EFEFEFEFEFEFEFEFE55AA553E
:10185000AA55AA55AAFF00000000000000000000E1
:101860000000000000FEFE5606AE0656AE56AE560E
:10187000AE56AEFEFEFEFEFFFFFFFFFFFFFFFEFCCB
:1018800078300000000000FF000000E0A0A0FE1281
:10189000FEA0A0E000000000000000000000C0E08A
:1018A000E0E0C0000000FF000000000000000000B9
:1018B00000FFFFFFFF007F7F7F7F01F1F1F1F1F17A
:1018C000F1F1F1F1F0F1F1F5F501FFFFFF55AA5546
:1018D000AA55AA55AA7F00000000000000000000E1
:1018E00000000000000303030303030303030303D7
:1018F000030303030303037F7F3F1F0F070301005D
:1019000000000000000000FF0000000000000F09C0
:101910000F000000000000001C3E3E3E1C000103C2
:10192000030301000000FF000000000000000000B1
:1019300000FFFFFFFFFFFFFFFFFFF0F7F7F7F7F7ED
:10194000F7F7F7F7F7F7F7F7F7F0FFFFFF552A1567
:101950000A05020100000000000000000000000075
:101960000000000000000000000000000000000077
:101970000000000000000000000000000000000067
:1019800000000000000000FF000000000000000058
:101990000000000000000000000000002070F8704F
:1019A000200000000000FF00000000000000000018
:1019B0000000000000000000000000000000000027
:1019C0000000000000000000000000000000000017
:1019D0000000000000000000000000000000000007
:1019E00000000000000000000000000000000000F7
:1019F00000000000000000000000000000000000E7
:101A0000000000000080C06F7010101010101C1C2F
:101A1000DC509010905E9E1E9E5E10D09050101074
:101A20001010101010706FC0800000000000000047
:101A300000000000000000000000000000000000A6
:101A40000000000000000000000000000000000096
:101A50000000000000000000000000000000000086
:101A60000000000000000000000000000000000076
:101A70000000000000000000000000000000000066
:101A800000000000001F283428342834283428346B
:101A90002935283428352834283528352835283460
:101AA00028342834283428341F00000080400000E7
:101AB0000000000000000000000000000000000026
:101AC0000000000000000000000000000000000016
:101AD0000000000000000000000000000000000006
:101AE00000000000000000000000000000000000F6
:101AF00000000000000000000000000000000000E6
:101B0000000000000000000000C0202020206060D5
:101B10006060202020202020202020202020202045
:101B20002020202020202020C000000000000000F5
:101B300000000000000000000000000000000000A5
:101B40000000000000000000000000000000000095
:101B50000000000000000000000000000000000085
:101B60000000000000000000000000000000000075
:101B70000000000000000000000000000000000065
:101B8000000000000000000000FF000000FE020254
:101B90000202020202020202020202020202020225
:101BA00002020202FE000000FF0000000000000030
:101BB0000000000000000000000000000000000025
:101BC0000000000000000000000000000000000015
:101BD0000000000000000000000000000000000005
:101BE0000000000000C0E0F0F8F8FCFCFE1E0E0E45
:101BF0000E1EFEFCFCF8F8F0E0C000000000000043
:101C0000000000000000000000FF000000FF0000D6
:101C100000000000000000000000000000000000C4
:101C200000000000FF007200FF0000000000000044
:101C30000000000000C060203F09090909090909E6
:101C4000E9A9490949A94D0D4DA909E949A9090978
:101C500009090909093F2060C000000000000000D8
:101C6000000000FCFFFFFFFFFFFFFFFFFF00000081
:101C70000000FFFFFFFFFFFFFFFFFFFC0000000071
:101C8000000000000000000000FF00000001010152
:101C9000C141C10101010101010101010101010174
:101CA0000101010101000000FF0000000000000030
:101CB00000000000000F141A141A141A141A141A2F
:101CC000141A141A141A141A141A141A141A141AA4
:101CD000141A141A141A141A0F000000000000003D
:101CE000000000030F3F7FFFFFFFFFFFFF1F0808FB
:101CF000081FFFFFFFFFFFFF7F3F0F0300000000F3
:101D0000000000000000000000FF0000001C141490
:101D1000FF22FF14141C0000000080C0C0C080001F
:101D2000387C7C7C38000000FF00000000000000D0
:101D300000000000000000000000000000000000A3
:101D40000000000000000000000000000000000093
:101D50000000000000000000000000000000000083
:101D60000000000000000000010103030707060651
:101D70000607070303010100000000000000000047
:101D8000000000000000000000FF00000000000054
:101D90000101010000000000000003070707030025
:101DA0000000000000000000FF0000000000000034
:101DB0000000000000000000000000000000000023
:101DC0000000000000000000000000000000000013
:101DD0000000000000000000000000000000000003
:101DE00000000000000000000000000000000000F3
:101DF00000000000000000000000000000000000E3
:101E0000000000000000000000FF000000000000D3
:101E100080808000000000C0C0C0C0C00000040E70
:101E20001F0E040000000000FF0000000000000082
:101E300000000000000000000000000000000000A2
:101E40000000000000000000000000000000000092
:101E50000000000000000000000000000000000082
:101E60000000000000000000000000000000000072
:101E70000000000000000000000000000000000062
:101E80000000000000000000000102020202020245
:101E9000030303020202020303030303020202021A
:101EA0000202020202020202010000000000000021
:101EB0000000000000000000000000000000000022
:101EC0000000000000000000000000000000000012
:101ED0000000000000000000000000000000000002
:101EE00000000000000000000000000000000000F2
:101EF00000000000000000000000000000000000E2
:101F00000000000000000000C02020202060606071
:101F10006020202020202020202020202020202081
:101F200020202020202020C0000000000000000011
:101F300000000000000000000000000000000000A1
:101F40000000000000000000000000000000000091
:101F50000000000000000000000000000000000081
:101F60000000000000000000000000000000000071
:101F70000000000000000000000000000000000061
:101F80000000000000000000FF000000FE0202024E
:101F90000202020202020202020202020202020221
:101FA000020202FE000000FF00000000000000002E
:101FB0000000000000000000808080808080808021
:101FC0008080808080808080808080808080808011
:101FD0008080808080800000000000000000000001
:101FE0000000000000C0E0F0F8F8FCFCFE1E0E0E41
:101FF0000E1EFEFCFCF8F8F0E0C00000000000003F
:102000000000000000000000FF000000FF000000D2
:1020100000000000000000000000000000000000C0
:10202000000000FF007200FF000000000000000040
:102030000000000000E030101F0404040404040445
:10204000745424042454260626540474245404048A
:1020500004040404041F1030E0000000000000002D
:10206000000000FCFFFFFFFFFFFFFFFFFF0000007D
:102070000000FFFFFFFFFFFFFFFFFFFC000000006D
:102080000000000000000000FF000000010101C18D
:1020900041C1010101010101010101010101010130
:1020A00001010101000000FF00000000000000002D
:1020B0000000000000070A0D0A0D0A0D0A0D0A0DA6
:1020C0000A0D0A0D0A0D0A0D0A0D0A0D0A0D0A0D58
:1020D0000A0D0A0D0A0D0A0D07000000000000009D
:1020E000000000030F3F7FFFFFFFFFFFFF1F0808F7
:1020F000081FFFFFFFFFFFFF7F3F0F0300000000EF
:102100000000000000000000FF0000001C1414FF8D
:1021100022FF14141C0000000080C0C0C0800038E2
:102120007C7C7C38000000FF000000000000000004
:10213000000000000000000000000000000000009F
:10214000000000000000000000000000000000008F
:10215000000000000000000000000000000000007F
:10216000000000000000000001010303070706064D
:102170000607070303010100000000000000000043
:102180000000000000000000FF000000000000014F
:102190000101000000000000000307070703000022
:1021A00000000000000000FF000000000000000030
:1021B000000000000000000000000000000000001F
:1021C000000000000000000000000000000000000F
:1021D00000000000000000000000000000000000FF
:1021E00000000000000000000000000000000000EF
:1021F00000000000000000000000000000000000DF
:102200000000000000000000FF000000000000804F
:10221000808000000000C0C0C0C0C00000040E1FCD
:102220000E040000000000FF00000000000000009D
:10223000000000000000000000000000000000009E
:10224000000000000000000000000000000000008E
:10225000000000000000000000000000000000007E
:10226000000000000000000000000000000000006E
:10227000000000000000000000000000000000005E
:10228000000000000000000001020202020202033E
:102290000303020202020303030303020202020217
:1022A000020202020202020100000000000000001F
:1022B000000000000000000000000000000000001E
:1022C000000000000000000000000000000000000E
:1022D00000000000000000000000000000000000FE
:1022E00000000000000000000000000000000000EE
:1022F00000000000000000000000000000000000DE
:10230000000000000000000000C0202020206060CD
:10231000606020202020202020202020202020203D
:102320002020202020202020C000000000000000ED
:10233000000000000000000000000000000000009D
:10234000000000000000000000000000000000008D
:10235000000000000000000000000000000000007D
:10236000000000000000000000000000000000006D
:10237000000000000000000000000000000000005D
:10238000000000000000000000FF000000FE02024C
:10239000020202020202020202020202020202021D
:1023A00002020202FE000000FF0000000000000028
:1023B000000000000000000000000000000000001D
:1023C000000000000000000000000000000000000D
:1023D00000000000000000000000000000000000FD
:1023E0000000000000C0E0F0F8F8FCFCFE1E0E0E3D
:1023F0000E1EFEFCFCF8F8F0E0C00000000000003B
:10240000000000000000000000FF000000FF0000CE
:1024100000000000000000000000000000000000BC
:1024200000000000FF007200FF000000000000003C
:1024300000000000C060203F09090909090909E9F5
:10244000A9490949A94D0D4DA909E949A909090950
:10245000090909093F2060C00000000000000000D9
:10246000000000FCFFFFFFFFFFFFFFFFFF00000079
:102470000000FFFFFFFFFFFFFFFFFFFC0000000069
:10248000000000000000000000FF0000000101014A
:10249000C141C1010101010101010101010101016C
:1024A0000101010101000000FF0000000000000028
:1024B000000000000F141A141A141A141A141A1413
:1024C0001A141A141A141A141A141A141A141A149C
:1024D0001A141A141A141A0F000000000000000049
:1024E000000000030F3F7FFFFFFFFFFFFF1F0808F3
:1024F000081FFFFFFFFFFFFF7F3F0F0300000000EB
:10250000000000000000000000FF0000001C141488
:10251000FF22FF14141C0000000080C0C0C0800017
:10252000387C7C7C38000000FF00000000000000C8
:10253000000000000000000000000000000000009B
:10254000000000000000000000000000000000008B
:10255000000000000000000000000000000000007B
:102560000000000000000000010103030707060649
:10257000060707030301010000000000000000003F
:10258000000000000000000000FF0000000000004C
:10259000010101000000000000000307070703001D
:1025A0000000000000000000FF000000000000002C
:1025B000000000000000000000000000000000001B
:1025C000000000000000000000000000000000000B
:1025D00000000000000000000000000000000000FB
:1025E00000000000000000000000000000000000EB
:1025F00000000000000000000000000000000000DB
:10260000000000000000000000FF000000000000CB
:1026100080808000000000C0C0C0C0C00000040E68
:102620001F0E040000000000FF000000000000007A
:10263000000000000000000000000000000000009A
:10264000000000000000000000000000000000008A
:10265000000000000000000000000000000000007A
:10266000000000000000000000000000000000006A
:10267000000000000000000000000000000000005A
:10268000000000000000000000010202020202023D
:102690000303030202020203030303030202020212
:1026A0000202020202020202010000000000612692
:1026B000F41E11241FBECFEFDAE0DEBFCDBF12E063
:1026C000A0E0B1E0E6EEF7E502C005900D92A4307F
:1026D000B107D9F727E0A4E0B2E001C01D92AF3402
:1026E000B207E1F713E1C8E5D3E104C02197FE0189
:1026F0000E94CB29C735D107C9F70E940A1F0C9445
:10270000E62B0C94000040911F0250912002209172
:102710001D0230911E0242175307B4F49091E80055
:102720009570E1F39091E80092FD19C08093F1005B
:1027300080911F029091200201968F739927892B17
:1027400019F48EEF8093E80080911F02909120028F
:1027500001969093200280931F0281E0089580E00B
:102760000895CF92DF92EF92FF920F931F93CF9332
:10277000DF931F92CDB7DEB7182F062FE42E862FDA
:10278000880F8E5F99830E94831383E00E948313D6
:10279000F12EC12E9981D92E8C2D8F19801798F486
:1027A000F601E7FE02C0849101C080810E9483137C
:1027B000182F80E00E9483138123FFEFCF1ADF0AD6
:1027C0008111EACF01C081E00F90DF91CF911F917D
:1027D0000F91FF90EF90DF90CF900895DF92EF92EE
:1027E000FF920F931F93CF93DF93D82E8A017B0123
:1027F000E40EF51EEB01CE15DF0571F0D7FE03C028
:10280000FE01849101C088810E9483132196811169
:10281000F2CF8FEF9FEF01C0C801DF91CF911F91E1
:102820000F91FF90EF90DF900895615030F020916C
:10283000F100FC0120830196F8CF289884E680936C
:102840004B020895CF92DF92EF92FF920F931F9366
:10285000CF93DF936C017A018B01C0E0D0E0CE15FD
:10286000DF0589F0D8016D918D01D601ED91FC91C4
:102870000190F081E02DC6010995892B11F47E01AC
:1028800002C02196ECCFC701DF91CF911F910F912C
:10289000FF90EF90DF90CF900895CF93DF931F923A
:1028A000CDB7DEB76983DC01ED91FC910280F38145
:1028B000E02D41E050E0BE016F5F7F4F09950F9022
:1028C000DF91CF91089583E08093E9008091F20039
:1028D000882319F08AE38093E8000895FC01848539
:1028E000958597FD0BC09FB7F89482E08093E9002F
:1028F0008091F2009FBF90E0019608959FB7F894F1
:1029000082E08093E9008091F2009FBF90E00895FB
:102910003FB7F8948091190290911A02A0911B027E
:10292000B0911C0226B5A89B05C02F3F19F0019657
:10293000A11DB11D3FBFBA2FA92F982F8827820F45
:10294000911DA11DB11DBC01CD0142E0660F771F95
:10295000881F991F4A95D1F708950895089580E03A
:1029600090E008950E94C82BCF93DF93EC018881FB
:102970009981009711F00E94662A198218821D829F
:102980001C821B821A82DF91CF9108950F931F93AF
:10299000CF93DF931F92CDB7DEB782E0898342E405
:1029A00050E064EB75E080E80E94EE130E949C1EEC
:1029B000DC0112960D911C9113970115110569F018
:1029C000D801ED91FC910280F381E02DBE016F5F93
:1029D0007F4FC801099597FF07C089810F90DF914C
:1029E000CF911F910F910895F80100851185E5CFD2
:1029F0000E948B1E90E008950F931F93CF93DF9357
:102A00001F92CDB7DEB78C01FC018485958597FFB9
:102A10000EC0CE0101960E94B11C019719F42981C4
:102A200030E002C02FEF3FEFF80135872487F8012F
:102A3000848595850F90DF91CF911F910F91089517
:102A4000CF93DF931F92CDB7DEB7FC0184859585C8
:102A500097FD05C02FEF3FEF358724870BC0CE01D0
:102A600001960E94B11C019719F4898190E002C07F
:102A70008FEF9FEF0F90DF91CF9108950F931F93EA
:102A8000CF93DF93EC0188819981009729F02A8107
:102A90003B812617370788F48B016F5F7F4F0E94B9
:102AA000FE2A009761F0998388831B830A832C8117
:102AB0003D81232B11F4FC01108281E001C080E0F4
:102AC000DF91CF911F910F910895EF92FF920F9395
:102AD0001F93CF93DF93FC0124813581611571052C
:102AE00011F480E019C041155105A9F07B01EC01FA
:102AF0008A01020F131FB8010E943E15882389F333
:102B0000288139818C819D81B701820F931F0E949A
:102B1000DF2B1D830C8381E0DF91CF911F910F91FB
:102B2000FF90EF900895EF92FF920F931F93CF9332
:102B3000DF93EC017B018A01BA010E943E158111ED
:102B400004C0CE010E94B41407C01D830C83B701DA
:102B5000888199810E94DF2BCE01DF91CF911F9157
:102B60000F91FF90EF900895CF93DF93EC016115E3
:102B7000710559F0FB0101900020E9F73197AF0191
:102B8000461B570B0E94931502C00E94B414CE013D
:102B9000DF91CF910895CF93DF93EC01FB0186176E
:102BA000970761F0608171816115710529F0448199
:102BB00055810E94931502C00E94B414CE01DF918A
:102BC000CF910895FC01808191810C94662AFC01CB
:102BD000118210821382128215821482611571058E
:102BE00051F0FB0101900020E9F73197AF01461B3E
:102BF000570B0C94931508951F920F920FB60F92D6
:102C000011248F939F938091E1009091E100937F35
:102C10009093E10083FF0FC01092E90091E0909340
:102C2000EB001092EC0092E39093ED0010924C02B6
:102C300098E09093F00082FF20C093E09093E90029
:102C40009091F200992319F09AE39093E800909103
:102C50002102992339F09091210291509093210201
:102C6000992389F190914B02992339F090914B026D
:102C7000915090934B02992341F184FF10C08091B1
:102C8000E2008E7E81608093E2008091E1008F7E81
:102C90008093E100809123028E7E806111C080FFCD
:102CA00016C08091E2008E7E80618093E200809168
:102CB000E1008E7E8093E100809123028E7E816010
:102CC0008093230204C05D9ACDCF289AD6CF9F91DE
:102CD0008F910F900FBE0F901F9018951F920F921B
:102CE0000FB60F921124CF92DF92EF92FF920F93C3
:102CF0001F932F933F934F935F936F937F938F9384
:102D00009F93AF93BF93EF93FF93CF93DF93CDB791
:102D1000DEB76C97DEBFCDBF1092E9008091E8006E
:102D200083FFEDC168E0CE0145960E94151482EF45
:102D30008093E8008D8987FF05C09091E80090FF9F
:102D4000FCCF03C09EEF9093E800982F907609F097
:102D5000C6C09E892F89188D91110CC0803829F426
:102D6000809124028093F10002C01092F100109231
:102D7000F10048C1422F50E0512B913051F48111A4
:102D800041C14130510509F03DC1809124028D7F40
:102D90000BC0933061F4811135C14130510509F008
:102DA00031C1809124028260809324022BC195302E
:102DB00041F48091E80080FFFCCF20682093E3007D
:102DC00021C1963009F05FC0EB8CFC8C1092E900B9
:102DD0001092200210921F02123091F510921E02E2
:102DE00010921D020E94C61499E0BE016F5F7F4FD2
:102DF000DB01E92F1D92EA95E9F799831A8391E0A7
:102E00009E8390EA98879AEF998720911F023091CC
:102E10002002275F3F4F3C832B838D831092E90074
:102E20001092200210921F02F0921E02E0921D02E8
:102E300049E050E080E00E94EE130E94C614E2C018
:102E4000F0921E02E0921D020E949C1EDC0112966E
:102E5000ED90FC901397E114F10409F4C0C0D70180
:102E6000ED91FC910480F581E02DBE016B5E7F4FFA
:102E7000C7010995009719F00CF0C4C0C7C0F7014D
:102E8000E084F184E8CF973009F4C0C0983021F491
:102E900081E08093F100B6C0993009F0B3C083702F
:102EA00009F0B4C0E6E2F1E081E021E036E3908190
:102EB000992361F08093E9002093EB009191909326
:102EC000EC003093ED008F5F873089F78EE78093B9
:102ED000EA001092EA008F8980934C0293C08B8D98
:102EE0009C8D1092E9001092200210921F02909384
:102EF0001E0280931D02898D811156C08E899D8985
:102F0000913A59F4813209F081C047E050E064E021
:102F100071E080E00E94EE1375C0913209F076C036
:102F2000833289F4888D90E0982F88272F89822B0F
:102F3000A0E0B0E08093000190930101A093020112
:102F4000B09303015FC0803269F48091E80082FF92
:102F5000FCCF67E084E091E00E9415148BEF809332
:102F6000E80006C0823209F04DC08F8980930B01C2
:102F700080912202882319F0EEEFFAE002C0E0E02F
:102F8000F8E08091040190910501A0910601B091B3
:102F90000701803B9440A105B10509F07BC08091F9
:102FA0000B0180FF93C076C00E949C1EDC0112962C
:102FB0000D911C9113970115110541F1D801ED9167
:102FC000FC910190F081E02DBE016B5E7F4FC80146
:102FD0000995811117C0F80100851185ECCF1130DA
:102FE00009F44EC0133091F48F89882309F445C049
:102FF000823081F440E860E188E196E00E94B113FC
:10300000882321F08EEF8093E80079C081E28093DD
:10301000EB0075C0813029F440E86BE08CE096E06D
:10302000EDCF833099F70E949C1EDC011296ED9043
:10303000FC9013978E010F5F1F4F6801E114F1049C
:1030400079F0D701ED91FC910680F781E02DB80170
:10305000C7010995080F111DF701E084F184EECF37
:10306000D8011C92F60101900020E9F73197BF01C9
:103070006C197D0940E0C601C1CF66EF75E002C062
:103080006AEF75E06115710509F2FB01449150E0AA
:1030900080E840CF0FB6F894A895809160008861D1
:1030A00080936000109260000FBEA895EE3F2AE06A
:1030B000F20739F08091FE0A9091FF0A9183808394
:1030C000A1CF1092FF0A1092FE0A9CCFEE3F8AE039
:1030D000F80731F0808191819093FF0A8093FE0A76
:1030E00087E797E7918380839BE088E10FB6F894A8
:1030F000A895809360000FBE9093600083CF6C967C
:103100000FB6F894DEBF0FBECDBFDF91CF91FF9118
:10311000EF91BF91AF919F918F917F916F915F914F
:103120004F913F912F911F910F91FF90EF90DF9062
:10313000CF900F900FBE0F901F901895DC01ED916E
:10314000FC91DB0114964D915C9115976D917C91EA
:103150000280F381E02D0994EF92FF920F931F9369
:10316000CF93DF938C017B01C0E0D0E0F701EC0F3F
:10317000FD1F6491662361F0D801ED91FC910190EF
:10318000F081E02DC8010995892B11F02196EECF31
:10319000CE01DF91CF911F910F91FF90EF90089595
:1031A0006115710579F0FB0101900020E9F7319775
:1031B000AF01461B570BDC01ED91FC910280F381BE
:1031C000E02D099480E090E008954F925F926F9215
:1031D0007F92EF92FF920F931F93CF93DF93CDB720
:1031E000DEB7A1970FB6F894DEBF0FBECDBF7C014E
:1031F000FA01CB0119A2223008F42AE08E010F5DFA
:103200001F4F422E512C612C712CBF01A301920142
:103210000E946728F901CA01015011096A3014F4AB
:10322000605D01C0695CD8016C93232B242B252B96
:1032300061F7B801C7010E94D018A1960FB6F894A3
:10324000DEBF0FBECDBFDF91CF911F910F91FF90D9
:10325000EF907F906F905F904F900895CF92DF92A4
:10326000EF92FF920F931F93CF93DF93EC016A01CC
:103270007B01E881F9810190F081E02D6DE20995F3
:103280008C0144275527BA014C195D096E097F0945
:103290002AE0CE010E94E518800F911FDF91CF91A7
:1032A0001F910F91FF90EF90DF90CF9008950C94B5
:1032B000D0188F929F92AF92BF92CF92DF92EF92EF
:1032C000FF926B017C010E9488144B015C01C114C8
:1032D000D104E104F104F1F00E948814DC01CB0177
:1032E00088199909AA09BB09883E9340A105B1052F
:1032F00070F321E0C21AD108E108F10888EE880EC7
:1033000083E0981EA11CB11CC114D104E104F10496
:1033100019F7DDCFFF90EF90DF90CF90BF90AF9087
:103320009F908F9008958F929F92AF92BF92CF926D
:10333000DF92EF92FF920F931F93CF93DF935C0185
:103340006B017A0180910B01882309F45BC08091A5
:103350004C02882309F456C08091230280FF05C0E7
:103360008091E00082608093E000E70110E00AEFC6
:1033700083E0882E9AE3992E2097D9F10E948B1E24
:1033800081110AC0015009F43DC061E070E080E0A5
:1033900090E00E945919F0CF282F30E0C217D307D0
:1033A0000CF48C2F4FB7F8948092E9009091E800CC
:1033B00095FF1DC0282F30E0C21BD30BF601982FBC
:1033C000915020F081918093F100FACFC20ED31E6C
:1033D000112319F09092E80009C08091E80085FD62
:1033E00006C09092E80011E0209709F010E04FBF6E
:1033F000C3CF1111C3CF5D9884E6809321021E14C0
:103400001F0444F081E090E0F5019383828380E023
:1034100090E001C0C701DF91CF911F910F91FF9004
:10342000EF90DF90CF90BF90AF909F908F900895D6
:103430002FB7F894609115027091160280911702CF
:10344000909118022FBF08951F920F920FB60F92FE
:1034500011242F933F938F939F93AF93BF938091AA
:10346000150290911602A0911702B09118023091A6
:10347000140223E0230F2D3720F40196A11DB11D66
:1034800005C026E8230F0296A11DB11D209314024A
:103490008093150290931602A0931702B09318021E
:1034A0008091190290911A02A0911B02B0911C0206
:1034B0000196A11DB11D8093190290931A02A09349
:1034C0001B02B0931C02BF91AF919F918F913F91CE
:1034D0002F910F900FBE0F901F90189560931002C0
:1034E000709311028093120290931302DC01CB01BE
:1034F000845D9E4FAF4FBF4F80930C0290930D029F
:10350000A0930E02B0930F0282E090E090930B0222
:1035100080930A020E94181A6093060270930702B1
:1035200080930802909309020895CF92DF92EF9260
:10353000FF920F931F930E94181AC0900602D0901A
:103540000702E0900802F09009028B019C010C191F
:103550001D092E093F098091100290911102A0913E
:103560001202B0911302083E134021053105D0F03C
:103570000196A11DB11D8093100290931102A0939A
:103580001202B0931302B701A60148515C4F6F4F6E
:103590007F4F409306025093070260930802709396
:1035A0000902C9CF40910C0250910D0260910E02A8
:1035B00070910F0284179507A607B70788F1E0916D
:1035C0000402F0910502309759F1099561157105D2
:1035D0008105910519F00E946E1A22C08091100297
:1035E00090911102A0911202B0911302845D9E4F3E
:1035F000AF4FBF4F80930C0290930D02A0930E0229
:10360000B0930F0281E090E020910A0230910B020A
:10361000232B11F480E090E090930B0280930A0238
:103620006091100270911102809112029091130228
:103630001F910F91FF90EF90DF90CF900895CF9260
:10364000DF92EF92FF920E94951A6B017C018091AC
:10365000250290912602A0912702B0912802C81657
:10366000D906EA06FB0661F0C701B6010E94061DF5
:10367000C0922502D0922602E0922702F092280200
:103680008091450290E0FF90EF90DF90CF900895F9
:10369000BC0180E090E00C945919ECEAF5E090E16F
:1036A000969FD001A0781124A80F6770E60FF11D36
:1036B0009491A35BBD4F442319F08C91982B03C0C8
:1036C00090958C9198239C9308952F923F924F92BE
:1036D0005F926F927F928F929F92AF92BF92CF92A2
:1036E000DF92EF92FF920F931F93CF93DF93CDB7AB
:1036F000DEB727970FB6F894DEBF0FBECDBFFC0133
:103700006A3069F4248D808D918D38E0239F800D7F
:10371000911D1124918F808F178A168AA6C06D3053
:1037200009F4A3C09F838E83348C238D2983328D2B
:103730003A83608C718CE688F78880E8E816F1049B
:10374000C4F0AE81BF815C962C915C97422F50E013
:1037500056968D919C915797B6E02B9F800D911DA9
:103760001124EE81FF81978B868B258D211167C0F7
:103770007CC0F0E46F16710424F7C70125E0329E87
:10378000800D911D112418161906DCF6432C512CBE
:10379000C30138E0339E800D911D112418161906BF
:1037A00084F685E0689F8001112404551F4F20E0B6
:1037B000F8012490253009F4212C430158E020FC25
:1037C00002C0398101C03A8131110BC0F9818A816F
:1037D000F81307C026945150840C951C5111EFCF5B
:1037E00025C067018C2D8E198315A0F754018A2DF1
:1037F00088198315B8F490E8C916D10478F4A0E4C8
:10380000AA16B10458F4432FB501C6012C833B839B
:103810005D830E944D1B5D813B812C81BFEFAB1A04
:10382000BB0AE5CFEFEFCE1ADE0ADCCF2F5FE40C48
:10383000F51C0F5F1F4F263009F0BACF82CF6AEF19
:1038400064039001659F300D112420583F4F2817C5
:1038500039075CF4AE81BF81ED91FC911197019025
:10386000F081E02D6AE0CD01099581E090E0279696
:103870000FB6F894DEBF0FBECDBFDF91CF911F9181
:103880000F91FF90EF90DF90CF90BF90AF909F90FF
:103890008F907F906F905F904F903F902F90089502
:1038A0000F931F93CF938B01C0912902C11109C0BF
:1038B000BC018DE496E00E949E1881E0809329026D
:1038C00021C080911F0790912007892BD1F0109281
:1038D000290280911B0790911C07009719F00E9404
:1038E000D02603C060E070E0CB01F80160837183F3
:1038F0008283938362E072E08BE197E00E94B415CB
:1039000001C0C0E08C2FCF911F910F9108951092AC
:103910002B0210922A028AE0809330020E94181A29
:10392000DC01CB01805F984DAF4FBF4F80932C02DD
:1039300090932D02A0932E02B0932F0208958091B0
:103940004D028EBDEEE4F2E081910DB407FEFDCF95
:103950008EBD86E0ED34F807B9F70DB407FEFDCF54
:103960000895FC0180914C02811103C08FEF9FEFFD
:1039700008959FB7F89482E08093E9002091F200C7
:1039800030E01216130614F421E030E02115310561
:1039900059F0289884E680934B028091F10080834F
:1039A0008091F200882319F09FBFC90108958BE62A
:1039B0008093E800F9CF262F2695269526956770E7
:1039C00090E8299F90011124235B3D4FF901E80FF6
:1039D000F11D8081282F30E081E090E0062E02C0AA
:1039E000880F991F0A94E2F78223932302C09595CA
:1039F00087956A95E2F70895AB01770F660B770B11
:103A000077FD0C942E192AE00C94E5184F925F92E2
:103A10006F927F928F929F92CF92DF92EF92FF925E
:103A20000F931F93CF93DF932CE3C22ED12CE12C65
:103A3000F12CA70196010E94672860934402CA01F5
:103A4000B901A70196010E94672860934502CA0147
:103A5000B90128E130E040E050E00E9467282901E8
:103A60003A0160934602CA01B9016C5F7F4F8F4FE4
:103A70009F4F27E030E040E050E00E9467286F5FF2
:103A800060934702C12CD12C760120E004E610E0BF
:103A900030E9832E99249394E22FF0E0EE54F84F0E
:103AA000EF01C370DD27209789F4CF01B8010E9490
:103AB000B729892B31F4CF01B4010E94B729892B92
:103AC00029F48EE691E0A0E0B0E004C08DE691E03C
:103AD000A0E0B0E0C80ED91EEA1EFB1ED701C60149
:103AE000AA27BB27481659066A067B0610F02F5FE7
:103AF000D3CF20934A02209799F4CF0164E670E077
:103B00000E94B729892B39F4CF0160E971E00E9446
:103B1000B729892B29F48EE691E0A0E0B0E004C03B
:103B20008DE691E0A0E0B0E0C81AD90AEA0AFB0AE3
:103B3000930182010C191D092E093F09CF0164E68A
:103B400070E00E94B7297C01CF0160E971E00E941A
:103B5000B729ECE2F1E0A0E0A13041F4209751F464
:103B6000E114F10429F4009729F402C0408103C054
:103B70004DE101C04CE150E060E070E00417150732
:103B80002607370740F0041B150B260B370BAF5FDA
:103B90003196AC3009F7AF5FA09349020F5F0093F5
:103BA0004802DF91CF911F910F91FF90EF90DF902E
:103BB000CF909F908F907F906F905F904F900895DF
:103BC000E1E2F7E0818582874FB12CB193B130E01B
:103BD000209530952074332783E0359527958A9575
:103BE000E1F7892F90E080959095807199279595C0
:103BF000879595958795822B942F9095907F892B0B
:103C00008187089520912B07282329F090912A0776
:103C1000982381E009F080E0089560E072E081E29D
:103C200097E00C94D018CF93DF93BC0181E297E02A
:103C30000E94D018EC010E940D1E8C0F9D1FDF9179
:103C4000CF9108950F931F93CF93DF93009709F4BB
:103C50005DC0FC014491319624910296C42FD0E0BE
:103C60006623E9F0E22FE695E695E695AE2FB0E003
:103C7000E1E0F0E0322F377011F4E0E0F0E0EA0F1D
:103C8000FB1FCE9FD001CF9FB00DDE9FB00D112442
:103C90006A9FF0016B9FF00D11248E0F9F1F2097DC
:103CA000A9F1222399F1009789F1C038D10514F4C4
:103CB000342F01C030E8E1E0422F477009F4E0E022
:103CC0002695269526952E0F293008F028E060E0ED
:103CD00000E010E06217D1F0D801A35BBD4F40E0D7
:103CE00050E0431768F4FC01E40FF51FE49167FD11
:103CF00003C07C91E72BEC934F5F5F4F1196F1CFA0
:103D00006F5F8C0F9D1F00581F4FE4CFDF91CF9145
:103D10001F910F9108952FB7F89483E08093E900E5
:103D20009091E800892F807295FF04C09091F20075
:103D300080E4891B2FBF08958091430781110DC036
:103D400082E080933F0784E080934007109242070F
:103D50001092410781E0809343078FE397E0089535
:103D60000F931F93CF93DF938C0181E090E00E942B
:103D7000282880FF31C08AE090E00E9428289FEF29
:103D8000980F9E3F48F522E330E0D80157963C93C8
:103D90002E93569728E330E059963C932E935897EC
:103DA000CBE0D0E0D801ED91FC910190F081E02DC5
:103DB000682FC8010995CE010E9428282196C1319B
:103DC000D10581F70E949F1C88EE93E0DF91CF918F
:103DD0001F910F910C94481BDF91CF911F910F9170
:103DE000089504970C94B01ECF93DF93C5E1D7E0FC
:103DF0002697CE010E94E21586E0CD39D807C1F79B
:103E000085E197E00E94E2158BE197E0DF91CF9189
:103E10000C94E215CF93DF93CDB7DEB762970FB660
:103E2000F894DEBF0FBECDBF789484B5826084BDA8
:103E300084B5816084BD85B5826085BD85B58160AE
:103E400085BD80916E00816080936E00109281002C
:103E500080918100826080938100809181008160E7
:103E600080938100809180008160809380008091A8
:103E70009100826080939100809191008160809395
:103E80009100809190008160809390008091C100AA
:103E900084608093C1008091C10082608093C100E2
:103EA0008091C10081608093C1008091C3008160D6
:103EB0008093C3008091C00082608093C000809195
:103EC000C20081608093C20080917A0084608093F8
:103ED0007A0080917A00826080937A0080917A00E3
:103EE000816080937A0080917A00806880937A0064
:103EF00010924C0210922402109223028091D7005B
:103F000081608093D70080EA8093D80089B5806172
:103F100089BD89B5826089BD09B400FEFDCF61E02D
:103F200070E080E090E00E9459198091D8008F7C69
:103F300080618093D8008091E000807F8093E000D2
:103F40008091E1008E7E8093E1008DE08093E2001D
:103F5000559A209AEEEFFFE7859194918B3F9C4D07
:103F600019F481E08093220281EC80937C0085B17A
:103F7000806F85B9249884B1866E84B95E9A5F9803
:103F80008AB1806D8AB9769A6E9881B3806F81BB51
:103F9000899880B38D7080BB80E58CBD81E08DBD3C
:103FA00085E090E00E94481B5F9A85E090E00E94C7
:103FB000481B5E985C98EBE6F6E08DE08E0F9491DE
:103FC0009EBD00000DB407FEFDCF31968E13F7CFD6
:103FD0005C9A81E88093640081E08093650080E1D1
:103FE00080932C076EE170E08BE197E00E943E1514
:103FF0006EE170E085E197E00E943E158FEF9FEF44
:1040000090935A0680935906559820988E010F5F19
:104010001F4F8DE496E00E946E14892B09F465C051
:104020008DE496E00E946E14813491054CF48DE489
:1040300096E00E946E147C01892B09F456C013C0CF
:1040400050E4E52EF12C0FC08DE496E00E9420157F
:104050008C3369F462E072E085E197E00E94B41568
:1040600031E0E31AF1081E141F0474F33EC08E33CE
:1040700091F58091190790911A07892BB9F060E6A4
:1040800071E080911507909116070E94D62B892B1D
:1040900069F410921E010E94181A609340027093F6
:1040A000410280934202909343021FC06BE177E08C
:1040B00081E297E00E949E180E949F1C68E572E0D2
:1040C00080E090E00E94591965E177E08BE197E08C
:1040D0000E94CB150AC089831A8241E050E0B801E2
:1040E00085E197E00E946515BBCF0E94181A809069
:1040F000310790903207A0903307B0903407F090CA
:104100003507FF2041F020912D07621B6093360791
:10411000109235078DC5681579058A059B0580F4D1
:10412000882D861B823008F483C583B7817F83BFC7
:1041300083B7816083BF889583B78E7F83BF78C53F
:1041400021E02093350760932D0770932E0780930D
:104150002F079093300730912C07DC01CB01830FA0
:10416000911DA11DB11D8093310790933207A0933B
:104170003307B0933407809128079091290701965F
:1041800090932907809328078F2DEDE4F2E08111A9
:104190008FEF002481938193819381930394D1F7CE
:1041A00010923A0710923907109238071092370789
:1041B00020933D070E94181A80904002909041027F
:1041C000A0904202B0904302DC01CB01881999090A
:1041D000AA09BB0920911E01211107C048EE842EB7
:1041E00043E0942EA12CB12C06C030ED832E37E095
:1041F000932EA12CB12C88169906AA06BB0630F581
:10420000E0903E02F0903F026E2D8CEA9AE10E940F
:10421000221E80912807909129076EE170E00E948C
:10422000A329892B39F48FEFE81AF80AF0923F029C
:10423000E0923E0280913E0290913F0203970CF47F
:10424000F5C410923F0210923E02F0C40E94181A68
:104250008090380290903902A0903A02B0903B02D0
:1042600086169706A806B906B0F465E671E08DE4F7
:1042700096E00E9457190E94181ADC01CB01865063
:104280009F4FAF4FBF4F8093380290933902A09356
:104290003A02B0933B0280913002853109F4B7C0F5
:1042A00060F4813009F44AC008F431C48A3009F45A
:1042B000E6C3843109F4CEC1B9C4803209F469C0BF
:1042C00038F48E3109F4BDC08F3109F480C0AEC41A
:1042D000823609F4CFC3833609F0A8C48CE691E096
:1042E0000E94131E61E871E081E297E00E94571975
:1042F0000E94181A60934002709341028093420218
:1043000090934302C0902C02D0902D02E0902E0298
:10431000F0902F020E94181AC616D706E806F90672
:1043200008F084C481E0809330020E94181ADC01F6
:10433000CB01805F984DAF4FBF4FE0C30E940D1E71
:104340000E940D1E82E991E00E94131E68EA71E04E
:1043500081E297E00E9457190E94181A6093400268
:10436000709341028093420290934302C0902C02CA
:10437000D0902D02E0902E02F0902F020E94181A89
:10438000C616D706E806F90608F050C410923002A7
:104390004DC480913C0290913D02892BB1F42DE9EE
:1043A000E22E26E0F22E64E170E0C7010E943E1585
:1043B0006EE871E0C7010E94B41596E0E90EF11CA9
:1043C00025E1E21627E0F20671F78EE12DC4809117
:1043D0001C0190911D010196C1F767EB71E0C801C6
:1043E0000E94E715BE01675F7F4FC8010E94501C05
:1043F000F82EC8010E94E215FF2009F417C4898530
:104400009A8590931D0180931C0180E20DC462EC9B
:1044100071E0C8010E94E715BE01675F7F4FC801C8
:104420000E94501CF82EC8010E94E215FF2009F4DA
:10443000FDC369857A858B859C850E946E1A84E10F
:10444000F3C30E94E01DE0902B07E2FC04C08091C2
:104450002A0782FDF5C380E10E94021E882349F0ED
:1044600080913602909137020196909337028093A3
:10447000360280E80E94021E882349F080913602AD
:104480009091370201979093370280933602809182
:1044900036029091370220911C0130911D0197FF47
:1044A00003C0C901019705C08217930714F080E08B
:1044B00090E09093370280933602E3FC04C0809131
:1044C0002A0783FDC0C369EC71E081E297E00E9496
:1044D000571940911C0150911D01052E000C660BCF
:1044E000770B77FF05C081E297E00E942E1905C087
:1044F0002AE081E297E00E94E5180E940D1E9DE9E6
:10450000A92E96E0B92EC12CD12C80913602909123
:1045100037028C159D0519F064EA76E002C067EA5F
:1045200076E081E297E00E94AC18B50181E297E065
:104530000E949E180E940D1E8FEFC81AD80A96E09E
:10454000A90EB11C27E0C216D104F9F6C0903C02B6
:10455000D0903D0280911C0190911D01C816D90692
:104560000CF064C362E072E0CE0109960E94E71588
:104570006FE070E0CE0109960E943E1565ED71E096
:10458000CE0109960E94B4154AE0B801C6010E9406
:10459000F726F80101900020E9F73197AF01401BA1
:1045A000510BB801CE0109960E94651541E050E01B
:1045B00067EC71E0CE0109960E946515C0903C023F
:1045C000D0903D021A8219821C821B821E821D829B
:1045D000BE01675F7F4FC8010E94CB15E0902902A2
:1045E000E1100AC0B8018DE496E00E949E1881E0B7
:1045F00080932902F12C1BC080911F079091200706
:10460000892BA9F01092290226E02C9DC0012D9D36
:10461000900D11246BE177E08356994F0E94CB15E2
:1046200062E072E08BE197E00E94B415FE2CC801B5
:104630000E94E215FF2049F080913C0290913D02DA
:10464000019690933D0280933C02CE0109960E9410
:10465000E215ECC20E94E01D80912B0782FD04C090
:1046600080912A0782FD06C30E94181A60934002B7
:10467000709341028093420290934302809018010C
:1046800090901901A0901A01B0901B01C501B401CE
:104690000E9468297B016B0134E1C30ED11CEC142C
:1046A000FD04D9F090E8E916F10420F08FEFE81A44
:1046B000F80AF5CF41E06DE370E0C7010E944D1BA1
:1046C00041E06EE370E0C7010E944D1B41E06FE3E3
:1046D00070E0C7010E944D1BE9CF20E030E040E2CE
:1046E00051E4C501B4010E948A2820913202309120
:1046F000330240913402509135020E9489286B01A7
:104700007C012091140130911501409116015091C6
:10471000170160E070E082E892E40E94892820E0BE
:1047200030E040E05FE30E946A279B01AC01C701D3
:10473000B6010E94F6289B01AC01C501B4010E949C
:104740008928609318017093190180931A0190933E
:104750001B0183E080933D070E94951A6B017C0149
:104760008091250290912602A0912702B091280203
:10477000C816D906EA06FB0661F0C701B6010E9419
:10478000061DC0922502D0922602E0922702F092E6
:1047900028028091460290E00A971CF083E190E0A5
:1047A00002C08CE190E090933807809337078AE04D
:1047B00090E090933A07809339070E94951A6B0115
:1047C0007C018091250290912602A0912702B09150
:1047D0002802C816D906EA06FB0661F0C701B60131
:1047E0000E94061DC0922502D0922602E092270266
:1047F000F09228026091460270E081E297E00E9408
:10480000FC1C6EEF71E081E297E00E9457190E9454
:104810001F1B0A971CF062E072E002C06EE571E0B7
:1048200081E297E00E9457190E941F1BBC0181E2A0
:1048300097E00E94FC1CC0903202D0903302E090BE
:104840003402F090350220E030E0A901C701B60142
:104850000E94412787FD11C220E030E040E053E490
:10486000C701B6010E949E2918160CF406C220E06A
:1048700030E040E050E4C701B6010E949E291816BE
:10488000ACF520E030E04CEF52E4C701B6010E94E5
:10489000412787FF2BC020E030E040E85FE36091D4
:1048A00014017091150180911601909117010E94D9
:1048B0008A280E946F29B62EC701B6010E946F296F
:1048C000862F6B2D0E94DB1C8111D7C120E030E0C8
:1048D00040E450E4C701B6010E948A280E946F2973
:1048E000862F6B2D0E94DB1C8111C7C140901401E3
:1048F00050901501609016017090170120E030E093
:10490000A901C301B2010E94412787FDC8C120E06F
:1049100030E040E852E4C301B2010E949E2918161B
:104920000CF4BDC120E030E040E050E4C301B2012E
:104930000E949E291816D4F520E030E040E752E4AA
:10494000C301B2010E94412787FF30C0C301B201F9
:104950000E946F29B62E20E030E040E050E4C7010D
:10496000B6010E948A280E946F29862F6B2D0E9413
:10497000DB1C811194C120E030E040E450E4C3012D
:10498000B2010E948A280E946F29B62E20E030E0F2
:1049900040E85FE3C701B6010E948A280E946F29A0
:1049A000862F6B2D0E94DB1C811179C1C301B201DE
:1049B0000E9468291B01C701B6010E9468295B019A
:1049C0009B012D5F3F4F388B2F8791012D5F3F4F0C
:1049D0008F859889A816B90621F1410137FE16C0C6
:1049E000812C912C13C088169906BCF480E8A81677
:1049F000B10448F441E0B401C501298B3A8B0E940F
:104A00004D1B3A8929899FEF891A990AC9012134D6
:104A100031054CF380E490E0E6CF8FEFA81AB80A96
:104A2000D7CF209110013091110140911201509186
:104A30001301C701B6010E948A2860933202709365
:104A40003302809334029093350220910C0130910F
:104A50000D0140910E0150910F01C301B2010E945E
:104A60008A28609314017093150180931601909326
:104A70001701DCC080EE91E00E94131E77CCE0901D
:104A80002A02F0902B026E2D8AEA96E00E94221EE6
:104A9000809128079091290763E070E00E94A32984
:104AA000892B39F49FEFE91AF90AF0922B02E09270
:104AB0002A0280912A0290912B02059724F01092ED
:104AC0002B0210922A02C0902C02D0902D02E0906E
:104AD0002E02F0902F020E94181AC616D706E8067A
:104AE000F90608F0A3C082E6809330020E94181AEB
:104AF000DC01CB018053984FAF4FBF4F80932C0206
:104B000090932D02A0932E02B0932F028FC00E948B
:104B1000E01D87EE91E00E94131E80E10E94021EBC
:104B2000882329F0809131028F5F8093310280E8E1
:104B30000E94021E882329F08091310281508093C7
:104B400031028091310287FD04C085301CF080E085
:104B500001C084E0809331028AE9C82E86E0D82E15
:104B6000E12CF12C80913102082E000C990B8E154E
:104B70009F0519F467E976E002C064E976E081E216
:104B800097E00E94AC18F6016591749181E297E07C
:104B90000E94AC180E940D1E2FEFE21AF20A32E0BA
:104BA000C30ED11C85E0E816F104E1F688E00E940E
:104BB000021E8823D9F180913102823029F134F428
:104BC000882301F1813091F585E12EC0833019F100
:104BD000843061F568E776E08DE496E00E94AC18D9
:104BE0000E94181ADC01CB0188579C4EAF4FBF4F73
:104BF00080932C0290932D02A0932E02B0932F024B
:104C000083E612C08FE110C06CE876E08DE496E098
:104C10000E94AC180BC063E876E08DE496E00E9439
:104C2000AC180E94871C02C0809330020E949F1C17
:104C300080E090E0892B09F4ECC90E940000E9C9EA
:104C40001092300208CC65EF71E08DE496E00E948E
:104C5000571960913602709137028DE496E00E94F8
:104C6000FC1C67EC71E08DE496E00E9457190E94ED
:104C7000871C29CC10923002F7CC809110019091C2
:104C80001101A0911201B0911301B058809310014D
:104C900090931101A0931201B093130127CE80913C
:104CA0000C0190910D01A0910E01B0910F01B0582F
:104CB00080930C0190930D01A0930E01B0930F010E
:104CC00075CECF93DF931092500610924F0688EE68
:104CD00093E0A0E0B0E08093510690935206A09339
:104CE0005306B09354068CE391E090934E06809364
:104CF0004D068FEF9FEF90935A06809359061092BE
:104D000024071092230710922A0710922B0720E104
:104D100020932C079093290780932807109231073E
:104D20001092320710923307109234071092350711
:104D30008EE491E090932207809321078CE591E027
:104D40009093260780932507109238071092370713
:104D500010923A071092390781E080933B07109236
:104D60003C0780933D0710923E0762E072E08BE1C2
:104D700097E00E94E71562E072E085E197E00E940B
:104D8000E715CDE9D6E062E072E0CE010E94E715BA
:104D9000269687E0C531D807B1F7DF91CF91089506
:104DA0001F93FC0199278827BC01E89411911032C8
:104DB000E9F3193010F01E30C8F31B3251F01D32E8
:104DC00049F4689406C00E940227610F711D811D7D
:104DD000911D119110531A30B0F33EF490958095C7
:104DE000709561957F4F8F4F9F4F1F910895BB27FF
:104DF0004A3031F4992322F4BDE2909581959F4F7A
:104E00000C941827592F482F372F262F660F771FFE
:104E1000881F991F660F771F881F991F620F731FC6
:104E2000841F951F660F771F881F991F0895BB2742
:104E3000FB015527AA27880F991FAA1FA41710F056
:104E4000A41B83955051B9F7A05DAA3308F0A95D62
:104E5000A193009779F7B111B1931192CB010C9402
:104E60003127DC01FC01672F71917723E1F732973D
:104E700004C07C916D9370836291AE17BF07C8F335
:104E800008950E94462708F481E00895990F0008CC
:104E9000550FAA0BE0E8FEEF16161706E807F9070C
:104EA000C0F012161306E407F50798F0621B730BA7
:104EB000840B950B39F40A2661F0232B242B252B28
:104EC00021F408950A2609F4A140A6958FEF811DCB
:104ED000811D08950E947D270C94EE270E94E027F3
:104EE00038F00E94E72720F0952311F00C94D72783
:104EF0000C94DD2711240C9422280E94FF2770F3C4
:104F0000959FC1F3950F50E0551F629FF001729F6E
:104F1000BB27F00DB11D639FAA27F00DB11DAA1F7D
:104F2000649F6627B00DA11D661F829F2227B00DCA
:104F3000A11D621F739FB00DA11D621F839FA00D55
:104F4000611D221F749F3327A00D611D231F849FA5
:104F5000600D211D822F762F6A2F11249F575040FC
:104F60009AF0F1F088234AF0EE0FFF1FBB1F661F77
:104F7000771F881F91505040A9F79E3F510580F040
:104F80000C94D7270C9422285F3FE4F3983ED4F387
:104F9000869577956795B795F795E7959F5FC1F7E4
:104FA000FE2B880F911D9695879597F9089597F98F
:104FB0009F6780E870E060E008959FEF80EC0895BF
:104FC00000240A94161617061806090608950024E8
:104FD0000A9412161306140605060895092E039462
:104FE000000C11F4882352F0BB0F40F4BF2B11F4D6
:104FF00060FF04C06F5F7F4F8F4F9F4F089557FD35
:105000009058440F551F59F05F3F71F04795880F36
:1050100097FB991F61F09F3F79F0879508951216CD
:1050200013061406551FF2CF4695F1DF08C0161679
:1050300017061806991FF1CF86957105610508942A
:105040000895E894BB2766277727CB0197F9089541
:10505000F999FECF92BD81BDF89A992780B5089540
:105060002F923F924F925F926F927F928F929F9278
:10507000AF92BF92CF92DF92EF92FF920F931F9366
:10508000CF93DF93CDB7DEB7CA1BDB0B0FB6F89417
:10509000DEBF0FBECDBF09942A88398848885F8457
:1050A0006E847D848C849B84AA84B984C884DF80C8
:1050B000EE80FD800C811B81AA81B981CE0FD11DAC
:1050C0000FB6F894DEBF0FBECDBFED010895A1E28B
:1050D0001A2EAA1BBB1BFD010DC0AA1FBB1FEE1F72
:1050E000FF1FA217B307E407F50720F0A21BB30BBD
:1050F000E40BF50B661F771F881F991F1A9469F739
:1051000060957095809590959B01AC01BD01CF0194
:1051100008955058BB27AA270E94A1280C94EE2777
:105120000E94E02738F00E94E72720F039F49F3FE3
:1051300019F426F40C94DD270EF4E095E7FB0C94AB
:10514000D727E92F0E94FF2758F3BA176207730782
:105150008407950720F079F4A6F50C9421280EF425
:10516000E0950B2EBA2FA02D0B01B90190010C0177
:10517000CA01A0011124FF27591B99F0593F50F48F
:10518000503E68F11A16F040A22F232F342F4427E7
:10519000585FF3CF469537952795A795F0405395DF
:1051A000C9F77EF41F16BA0B620B730B840BBAF0AF
:1051B0009150A1F0FF0FBB1F661F771F881FC2F71A
:1051C0000EC0BA0F621F731F841F48F4879577952E
:1051D0006795B795F7959E3F08F0B0CF9395880FE8
:1051E00008F09927EE0F9795879508950E940A2950
:1051F0000C94EE270E94E72758F00E94E02740F029
:1052000029F45F3F29F00C94D72751110C942228E0
:105210000C94DD270E94FF2768F39923B1F35523EF
:1052200091F3951B550BBB27AA27621773078407B9
:1052300038F09F5F5F4F220F331F441FAA1FA9F34F
:1052400035D00E2E3AF0E0E832D091505040E6953D
:10525000001CCAF72BD0FE2F29D0660F771F881F9E
:10526000BB1F261737074807AB07B0E809F0BB0B91
:10527000802DBF01FF2793585F4F3AF09E3F5105A5
:1052800078F00C94D7270C9422285F3FE4F3983EE3
:10529000D4F3869577956795B795F7959F5FC9F78E
:1052A000880F911D9695879597F90895E1E0660F0F
:1052B000771F881FBB1F621773078407BA0720F088
:1052C000621B730B840BBA0BEE1F88F7E0950895F1
:1052D0000E946F296894B1110C94222808950E94AD
:1052E000072888F09F5798F0B92F9927B751B0F049
:1052F000E1F0660F771F881F991F1AF0BA95C9F75A
:1053000014C0B13091F00E942128B1E008950C94AE
:105310002128672F782F8827B85F39F0B93FCCF361
:10532000869577956795B395D9F73EF490958095D6
:10533000709561957F4F8F4F9F4F08950E9446272C
:1053400008F48FEF0895AA1BBB1B51E107C0AA1FE9
:10535000BB1FA617B70710F0A61BB70B881F991F16
:105360005A95A9F780959095BC01CD01089597FBBA
:10537000072E16F4009407D077FD09D00E94A329C8
:1053800007FC05D03EF4909581959F4F0895709548
:1053900061957F4F0895EE0FFF1F0590F491E02D6A
:1053A0000994CF93DF938230910510F482E090E06E
:1053B000E0914D07F0914E0720E030E0C0E0D0E0F2
:1053C000309711F14081518148175907C0F04817B3
:1053D000590761F482819381209719F09B838A8316
:1053E0002BC090934E0780934D0726C021153105A1
:1053F00019F04217530718F49A01BE01DF01EF01BB
:105400000280F381E02DDCCF2115310509F1281B45
:10541000390B2430310590F412968D919C9113979D
:105420006115710521F0FB019383828304C0909381
:105430004E0780934D07FD01329644C0FD01E20FF7
:10544000F31F81939193225031092D933C933AC0DD
:1054500020914B0730914C07232B41F420912101DF
:105460003091220130934C0720934B0720911F016C
:10547000309120012115310541F42DB73EB74091FF
:10548000230150912401241B350BE0914B07F0912F
:105490004C07E217F307A0F42E1B3F0B2817390720
:1054A00078F0AC014E5F5F4F2417350748F04E0F80
:1054B0005F1F50934C0740934B078193919302C019
:1054C000E0E0F0E0CF01DF91CF9108950F931F93BB
:1054D000CF93DF93009709F48CC0FC0132971382BD
:1054E000128200914D0710914E070115110581F4AC
:1054F00020813181820F931F20914B0730914C07FF
:105500002817390779F5F0934C07E0934B0771C0E2
:10551000D80140E050E0AE17BF0750F412962D912D
:105520003C911397AD012115310509F1D901F3CF54
:105530009D01DA013383228360817181860F971F79
:105540008217930769F4EC0128813981260F371FF0
:105550002E5F3F4F318320838A819B819383828397
:10556000452B29F4F0934E07E0934D0742C0139664
:10557000FC93EE931297ED01499159919E01240FEE
:10558000351FE217F30771F480819181840F951F15
:10559000029611969C938E938281938113969C938D
:1055A0008E931297E0E0F0E0D80112968D919C91D5
:1055B0001397009719F0F8018C01F6CF8D919C910B
:1055C00098012E5F3F4F820F931F20914B07309120
:1055D0004C072817390769F4309729F410924E07C1
:1055E00010924D0702C01382128210934C07009351
:1055F0004B07DF91CF911F910F910895A0E0B0E08C
:10560000E4E0FBE20C943428EC01009721F4CB0198
:105610000E94D129B8C0FC01E60FF71F9C0122505F
:105620003109E217F30708F4ACC0D9010D911C91C0
:10563000119706171707B0F00530110508F49FC041
:10564000C80104978617970708F499C002501109FA
:10565000061B170B019311936D937C93CF010E944E
:10566000662A8DC05B01A01AB10A4C01800E911E02
:10567000A0914D07B0914E0740E050E0E12CF12C95
:10568000109709F44AC0A815B905D1F56D907C9022
:105690001197630182E0C80ED11CCA14DB0480F1AB
:1056A000A3014A195B096A0182E0C80ED11C129657
:1056B000BC9012971396AC91B5E0CB16D10440F094
:1056C000B282A38351834083D9016D937C930AC036
:1056D0000E5F1F4FC301800F911FF90191838083DB
:1056E000EB2DFA2FE114F10431F0D7011396FC935E
:1056F000EE93129744C0F0934E07E0934D073FC0DE
:105700008D919C9111974817590708F4AC017D01C0
:1057100012960D90BC91A02DB3CF80914B07909124
:105720004C0788159905E1F446175707C8F480918E
:105730001F0190912001009741F48DB79EB74091D1
:10574000230150912401841B950BE817F907C8F435
:10575000F0934C07E0934B07F901718360830FC00E
:10576000CB010E94D1297C01009759F0A801BE010C
:105770000E94CD2BCE010E94662AC70104C0CE0133
:1057800002C080E090E0CDB7DEB7EEE00C94502888
:1057900081E090E0F8940C94E62BFB01DC0102C060
:1057A00001900D9241505040D8F70895FB01DC0163
:1057B0008D91019080190110D9F3990B0895FB0187
:1057C000DC0101900D920020E1F7089513E1C8E596
:1057D000D3E104C0FE010E94CB292196C935D1072F
:0657E000C9F7F894FFCFA9
:1057E600FFFFFFFF00E1000000000000CDCC8CBFF2
:1057F600CDCCACBF0000704100005842FFFF010055
:10580600004F07800000C180810000001F1C1F1E82
:105816001F1E1F1F1E1F1E1F000000004D14931980
:10582600F81463146E142015FC1400000000651BA8
:105836002214AF14AE14B01EFCFF0000F11E30009F
:1058460050494E47003C50494E473E00506C6561FA
:10585600736520776169742C20646F636B206973AC
:10586600007368757474696E6720646F776E2E2E88
:105876002E0049742773206E6F772073616665204A
:10588600746F207475726E006F666620796F75721C
:1058960020646F636B2E003C5245504F53495A4566
:1058A6003E003C54494D453E005265706F2067618D
:1058B6006D65733A003C5245504F4E414D453A0096
:1058C6004572726F722E00444F434B204D454E5524
:1058D60020563038003C5245504F53454E443A000E
:0458E6000D0A0000A7
:2070000055C000006EC000006CC000006AC0000068C0000066C0000064C0000062C0000043
:2070200060C000005EC00000F2C400005AC0000058C0000056C0000054C0000052C00000EE
:2070400050C0000078C000004CC000004AC0000048C0000046C0000044C0000042C00000BE
:2070600040C000003EC000003CC000003AC0000038C0000036C0000034C0000032C0000048
:2070800030C000002EC000002CC000002AC0000028C0000026C0000024C0000022C00000A8
:2070A00020C000001EC000001CC0000011241FBECFEFDAE0DEBFCDBF11E0A0E0B1E0E2E3BC
:2070C000FFE702C005900D92A83AB107D9F711E0A8EAB1E001C01D92AE3BB107E1F78FD30B
:2070E00026C78ECFF89410926F0010928100109285001092840081E085BF15BE47985D9AEB
:20710000289A0C94000008952091B2013091B3012F5F3F4F3093B3012093B201932F37FFA6
:2071200003C08EEF831B982F990F921710F447980895479A08951F920F920FB60F9211246E
:207140002F938F939F93EF93FF9310928500109284008091A8019091A901009741F00197D3
:207160009093A9018093A801892B09F45D9A8091AA019091AB01009741F001979093AB0126
:207180008093AA01892B09F4289AE0E0F0E0859194918F5F9F4F49F08091AC019091AD0151
:2071A00001969093AD018093AC01FF91EF919F918F912F910F900FBE0F901F90189584E0BC
:2071C0008093E9000DC08091E8008B778093E80003C08EB3882351F08091E80082FFF9CFBE
:2071E0008091E80085FFEFCF8091F1000895982F83E08093E9008091E80085FD0DC0809136
:20720000E8008E778093E80003C08EB3882369F08091E80080FFF9CF9093F1005D9884E6CB
:2072200090E09093A9018093A80108954F925F926F927F928F929F92AF92BF92CF92DF921E
