:100000000C941F130C9447130C9447130C94471330
:100010000C9447130C9447130C9447130C944713F8
:100020000C9447130C9447130C94C8150C943A166F
:100030000C9447130C9447130C9447130C944713D8
:100040000C9447130C9447130C9447130C944713C8
:100050000C9447130C9447130C9447130C944A19AF
:100060000C9447130C9447130C9447130C944713A8
:100070000C9447130C9447130C9447130C94471398
:100080000C9447130C9447130C9447130C94471388
:100090000C9447130C9447130C9447130C94471378
:1000A0000C9447130C9447130C9447130102040853
:1000B0001020408000000000003E5B4F5B3E3E6B26
:1000C0004F6B3E1C3E7C3E1C183C7E3C181C577DF2
:1000D000571C1C5E7F5E1C00183C1800FFE7C3E73E
:1000E000FF0018241800FFE7DBE7FF30483A060E50
:1000F0002629792926407F050507407F05253F5A97
:100100003CE73C5A7F3E1C1C08081C1C3E7F142206
:100110007F22145F5F005F5F06097F017F006689B1
:10012000956A606060606094A2FFA29408047E04F7
:100130000810207E201008082A1C08081C2A08081D
:100140001E101010100C1E0C1E0C30383E383006DD
:100150000E3E0E06000000000000005F00000007D9
:10016000000700147F147F14242A7F2A1223130807
:10017000646236495620500008070300001C2241E3
:10018000000041221C002A1C7F1C2A08083E080887
:100190000080703000080808080800006060002037
:1001A000100804023E5149453E00427F400072491A
:1001B0004949462141494D331814127F10274545BE
:1001C00045393C4A494931412111090736494949D4
:1001D00036464949291E0000140000004034000042
:1001E00000081422411414141414004122140802AB
:1001F000015909063E415D594E7C1211127C7F491E
:100200004949363E414141227F4141413E7F494972
:1002100049417F090909013E414151737F0808089E
:100220007F00417F41002040413F017F081422416F
:100230007F404040407F021C027F7F0408107F3EC9
:100240004141413E7F090909063E4151215E7F0936
:10025000192946264949493203017F01033F40409D
:10026000403F1F2040201F3F4038403F6314081488
:100270006303047804036159494D43007F414141C0
:100280000204081020004141417F040201020440A1
:1002900040404040000307080020545478407F2825
:1002A0004444383844444428384444287F3854541B
:1002B000541800087E090218A4A49C787F0804043E
:1002C0007800447D40002040403D007F10284400DD
:1002D00000417F40007C047804787C08040478386E
:1002E00044444438FC1824241818242418FC7C089E
:1002F000040408485454542404043F44243C40401B
:10030000207C1C2040201C3C4030403C44281028CD
:10031000444C9090907C4464544C44000836410016
:100320000000770000004136080002010204023C90
:100330002623263C1EA1A161123A4040207A38545F
:1003400054555921555579412154547841215554DA
:10035000784020545579400C1E527212395555552B
:1003600059395454545939555454580000457C4116
:100370000002457D420001457C40F0292429F0F02F
:10038000282528F07C545545002054547C547C0A80
:10039000097F4932494949323248484832324A484D
:1003A00048303A4141217A3A42402078009DA0A04D
:1003B0007D39444444393D4040403D3C24FF2424A1
:1003C000487E4943662B2FFC2F2BFF0929F620C0BE
:1003D000887E090320545479410000447D4130480F
:1003E000484A32384040227A007A0A0A727D0D1952
:1003F000317D2629292F28262929292630484D40B4
:1004000020380808080808080808382F10C8ACBAAF
:100410002F102834FA00007B000008142A1422222E
:10042000142A14089500220095AA005500AAAA557E
:10043000AA55AA000000FF00101010FF00141414A9
:10044000FF001010FF00FF1010F010F0141414FC47
:10045000001414F700FF0000FF00FF1414F404FC64
:10046000141417101F10101F101F1414141F001045
:100470001010F0000000001F101010101F101010BE
:1004800010F010000000FF101010101010101010CD
:10049000FF10000000FF140000FF00FF00001F100D
:1004A000170000FC04F414141710171414F404F4C7
:1004B0000000FF00F714141414141414F700F714B8
:1004C0001414171410101F101F141414F414101007
:1004D000F010F000001F101F0000001F14000000AB
:1004E000FC140000F010F01010FF10FF141414FFA3
:1004F000141010101F00000000F010FFFFFFFFFF9E
:10050000F0F0F0F0F0FFFFFF0000000000FFFF0F31
:100510000F0F0F0F38444438447C2A2A3E147E02C1
:10052000020606027E027E02635549416338444456
:100530003C04407E201E2006027E020299A5E7A50B
:10054000991C2A492A1C4C7201724C304A4D4D307C
:100550003048784830BC625A463D3E494949007EA1
:100560000101017E2A2A2A2A2A44445F4444405138
:100570004A444040444A51400000FF0103E080FFEC
:10058000000008086B6B083612362436060F090F78
:1005900006000018180000001010003040FF010194
:1005A000001F01011E00191D1712003C3C3C3C00BD
:1005B00000000000080B0002020201000904000014
:1005C00001020200000524001001052401010104BC
:1005D00024020605240600010705810310004009D6
:1005E000040100020A0000000705020240000007A3
:1005F0000583024000000403090412010002EF0217
:1006000001404123368000010102030141726475FB
:10061000696E6F204C4C430041726475696E6F20A7
:100620004C656F6E6172646F00D5F08D14A1C88146
:10063000CFD9F1AF20008040000000000000000092
:1006400000000000000000000000000000000000AA
:10065000000000000000000000000000000000009A
:10066000000000000000000000000000000000008A
:10067000000000000000000000000000000000007A
:10068000000000000000000000000000000000006A
:10069000000000FC020202E2262626262222222256
:1006A0002222222222222222222222222222E2028A
:1006B0000202FC000000000000000000000000003A
:1006C000000000000000000000000000000000002A
:1006D000000000000000000000000000000000001A
:1006E000000000000000000000000000000000000A
:1006F00000000000000000000000000000000000FA
:1007000000000000000000000000000000000000E9
:10071000000000FF000000FF0000000000000000DB
:100720000000000000000000000000000000FF00CA
:100730002000FF00000000000000000000008040DA
:100740002010080402010101010101010101010160
:100750000101010101010101018141A151A955AB33
:10076000FF0000000000000000000000000000008A
:100770000000000000000000000000F8F8F0E0C0F9
:1007800080000000000000000000000000000000E9
:10079000000000FF0000001F1010101010101010BB
:1007A00010101010101010101010101010101F004A
:1007B0000700FF000000000000000000FEFFFEFE3A
:1007C0001E1E1E1E1E1E1E1E1E1E1E1E1E5E5E1EC9
:1007D000FEFEFEFEFEFEFEFE55AA55AA55AA55AA2D
:1007E000FF0000000000000000FEFE5606AE0656A8
:1007F000AE56AE56AE56AEFEFEFEFEFFFFFFFFFF4C
:10080000FFFFFEFC78300000000000000000000048
:10081000000000FF000000C04040FC24FC4040C03D
:100820000000000000000000000080C0C0C0800088
:100830000000FF000000000000000000FFFFFFFFBD
:10084000007F7F7F7F01F1F1F1F1F1F1F1F1F1F042
:10085000F1F1F5F501FFFFFF55AA55AA55AA55AAD2
:100860007F000000000000000003030303030303F4
:1008700003030303030303030303037F7F3F1F0FEC
:10088000070301000000000000000000000000005D
:10089000000000FF0000000101011F121F01010103
:1008A00000000000387C7C7C380003070707030049
:1008B0000000FF000000000000000000FFFFFFFF3D
:1008C000FFFFFFFFFFF0F7F7F7F7F7F7F7F7F7F797
:1008D000F7F7F7F7F0FFFFFF552A150A05020100A9
:1008E0000000000000000000000000000000000008
:1008F00000000000000000000000000000000000F8
:1009000000000000000000000000000000000000E7
:10091000000000FF000000000000000000000000D8
:10092000000000000000000040E0F0E04000000097
:100930000000FF00000000000000000000000000B8
:1009400000000000000000000000000000000000A7
:100950000000000000000000000000000000000097
:100960000000000000000000000000000000000087
:100970000000000000000000000000000000000077
:100980000000000000000000000000000000000067
:10099000000080DFE020202020203838B8A0202070
:1009A00020BC3C3C3CBC20A020A0212020202020BA
:1009B00020E0DF80000000000000000000000000D8
:1009C0000000000000000000000000000000000027
:1009D0000000000000000000000000000000000017
:1009E0000000000000000000000000000000000007
:1009F00000000000000000000000000000000000F7
:100A000000000000000000000000000000000000E6
:100A1000003F51685068506850685068536A516888
:100A2000516A5168516A506B516A506850685068F9
:100A3000506850693F000000000000000000000006
:100A400000000000000000000000000000000000A6
:100A50000000000000000000000000000000000096
:100A60000000000000000000000000000000000086
:100A70000000000000000000000000000000000076
:100A80000000000000000000000000000000000066
:100A90000000FC020202E226262626222222222230
:100AA00022222222222222222222222222E20202A6
:100AB00002FC000000000000000000000000000038
:100AC0000000000000000000000000000000000026
:100AD0000000000000000000000000000000000016
:100AE0000000000000000000000000000000000006
:100AF00000000000000000000000000000000000F6
:100B000000000000000000000000000000000000E5
:100B10000000FF000000FF000000000000000000D7
:100B200000000000000000000000000000FF0020A6
:100B300000FF000000000000000000000000008036
:100B4000402010080402010101010101010101011D
:100B5000010101010101010101018141A151A955D9
:100B6000ABFF0000000000000000000000000000DB
:100B70000000000000000000000000000000F8F885
:100B8000F0E0C08000000000000000000000000055
:100B90000000FF0000001F101010101010101010A7
:100BA000101010101010101010101010101F00074F
:100BB00000FF0000000000000000000000FEFFFE3B
:100BC000FE1E1E1E1E1E1E1E1E1E1E1E1E1E5E5EE5
:100BD0001EFEFEFEFEFEFEFEFE55AA55AA55AA55B5
:100BE000AAFF00000000000000000000FEFE560604
:100BF000AE0656AE56AE56AE56AEFEFEFEFEFFFF3B
:100C0000FFFFFFFFFFFEFC78300000000000000047
:100C10000000FF000000C04040FC24FC4040C00039
:100C200000000000000000000080C0C0C080000084
:100C300000FF0000000000000000000000FFFFFFB8
:100C4000FF007F7F7F7F01F1F1F1F1F1F1F1F1F12F
:100C5000F0F1F1F5F501FFFFFF55AA55AA55AA5588
:100C6000AA7F00000000000000000000030303034F
:100C700003030303030303030303030303037F7F4C
:100C80003F1F0F07030100000000000000000000EC
:100C90000000FF0000000101011F121F01010100FF
:100CA000000000387C7C7C38000307070703000045
:100CB00000FF0000000000000000000000FFFFFF38
:100CC000FFFFFFFFFFFFF0F7F7F7F7F7F7F7F7F78B
:100CD000F7F7F7F7F7F0FFFFFF552A150A050201AE
:100CE0000000000000000000000000000000000004
:100CF00000000000000000000000000000000000F4
:100D000000000000000000000000000000000000E3
:100D10000000FF00000000000000000000000000D4
:100D20000000000000000040E0F0E0400000000093
:100D300000FF0000000000000000000000000000B4
:100D400000000000000000000000000000000000A3
:100D50000000000000000000000000000000000093
:100D60000000000000000000000000000000000083
:100D70000000000000000000000000000000000073
:100D80000000000000000000000000000000000063
:100D90000080DFE020202020203838B8A02020204C
:100DA000BC3C3C3CBC20A020A021202020202020B6
:100DB000E0DF8000000000000000000000000000F4
:100DC0000000000000000000000000000000000023
:100DD0000000000000000000000000000000000013
:100DE0000000000000000000000000000000000003
:100DF00000000000000000000000000000000000F3
:100E000000000000000000000000000000000000E2
:100E10003F51685068506850685068536A51685133
:100E20006A5168516A506B516A50685068506850F6
:100E30006850693F00000000000000000000000052
:100E400000000000000000000000000000000000A2
:100E50000000000000000000000000000000000092
:100E60000000000000000000000000000000000082
:100E70000000000000000000000000000000000072
:100E80000000000000000000000000000000000062
:100E9000000000F8040404C44C4C4C4C444444444A
:100EA0004444444444444444444444444444C404C2
:100EB0000404F80000000000000000000000000032
:100EC0000000000000000000000000000000000022
:100ED0000000000000000000000000000000000012
:100EE0000000000000000000000000000000000002
:100EF00000000000000000000000000000000000F2
:100F000000000000000000000000000000000000E1
:100F1000000000FF000000FF0000000000000000D3
:100F20000000000000000000000000000000FF00C2
:100F30004000FF00000000000000000000000080F2
:100F40004020100804020101010101010101010119
:100F5000010101010101010101018141A151A955D5
:100F6000ABFF0000000000000000000000000000D7
:100F7000000000000000000000000000000000F879
:100F8000F8F0E0C080000000000000000000000059
:100F9000000000FF0000003F202020202020202013
:100FA00020202020202020202020202020203F0042
:100FB0000E00FF00000000000000000000FEFFFE29
:100FC000FE1E1E1E1E1E1E1E1E1E1E1E1E1E5E5EE1
:100FD0001EFEFEFEFEFEFEFEFE55AA55AA55AA55B1
:100FE000AAFF0000000000000000000000FEFE5606
:100FF00006AE0656AE56AE56AE56AEFEFEFEFEFF30
:10100000FFFFFFFFFFFFFEFC783000000000000044
:10101000000000FF000000808080F848F880808099
:101020000000000000000000000000808080000040
:101030000000FF00000000000000000000FFFFFFB4
:10104000FF007F7F7F7F01F1F1F1F1F1F1F1F1F12B
:10105000F0F1F1F5F501FFFFFF55AA55AA55AA5584
:10106000AA7F00000000000000000000000303034E
:101070000303030303030303030303030303037FC4
:101080007F3F1F0F07030100000000000000000069
:10109000000000FF0000000302023F243F020203A1
:1010A0000000000070F8F8F87000070F0F0F07003D
:1010B0000000FF00000000000000000000FFFFFF34
:1010C000FFFFFFFFFFFFF0F7F7F7F7F7F7F7F7F787
:1010D000F7F7F7F7F7F0FFFFFF552A150A050201AA
:1010E0000000000000000000000000000000000000
:1010F00000000000000000000000000000000000F0
:1011000000000000000000000000000000000000DF
:10111000000000FF000000000000000000000000D0
:10112000000000000000000080C0E0C0800000005F
:101130000000FF00000000000000000000000000B0
:10114000000000000000000000000000000000009F
:10115000000000000000000000000000000000008F
:10116000000000000000000000000000000000007F
:10117000000000000000000000000000000000006F
:10118000000000000000000000000000000000005F
:10119000000000BFC0404040404070707040404080
:1011A0004078787878784040404143414040404022
:1011B00040C0BF0000000000000000000000000070
:1011C000000000000000000000000000000000001F
:1011D000000000000000000000000000000000000F
:1011E00000000000000000000000000000000000FF
:1011F00000000000000000000000000000000000EF
:1012000000000000000000000000000000000000DE
:10121000007EA3D1A1D0A0D0A0D0A0D0A7D5A2D02D
:10122000A2D5A2D0A2D5A0D7A2D5A0D0A0D0A0D020
:10123000A0D1A1D37E00000000000000000000004B
:10124000000000000000000000000000000000009E
:10125000000000000000000000000000000000008E
:10126000000000000000000000000000000000007E
:10127000000000000000000000000000000000006E
:10128000000000000000000000000000000000005E
:10129000000000FC020202E226262626222222224A
:1012A0002222222222222222222222222222E2027E
:1012B0000202FC000000000000000000000000002E
:1012C000000000000000000000000000000000001E
:1012D000000000000000000000000000000000000E
:1012E00000000000000000000000000000000000FE
:1012F00000000000000000000000000000000000EE
:1013000000000000000000000000000000000000DD
:10131000000000FF000000FF0000000000000000CF
:101320000000000000000000000000000000FF00BE
:101330002000FF000000000000000000000000800E
:101340004020100804020101010101010101010115
:10135000010101010101010101018141A151A955D1
:10136000ABFF0000000000000000000000000000D3
:10137000000000000000000000000000000000006D
:10138000F8F8F0E0C080000000000000000000005D
:10139000000000FF0000001F1010101010101010AF
:1013A00010101010101010101010101010101F003E
:1013B0000700FF00000000000000000000FEFFFE2C
:1013C000FE1E1E1E1E1E1E1E1E1E1E1E1E1E5E5EDD
:1013D0001EFEFEFEFEFEFEFEFE55AA55AA55AA55AD
:1013E000AAFF000000000000000000000000FEFE58
:1013F0005606AE0656AE56AE56AE56AEFEFEFEFED5
:10140000FFFFFFFFFFFFFFFEFC7830000000000041
:10141000000000FF000000C04040FC24FC4040C031
:101420000000000000000000000080C0C0C080007C
:101430000000FF00000000000000000000FFFFFFB0
:10144000FF007F7F7F7F01F1F1F1F1F1F1F1F1F127
:10145000F0F1F1F5F501FFFFFF55AA55AA55AA5580
:10146000AA7F00000000000000000000000003034D
:10147000030303030303030303030303030303033C
:101480007F7F3F1F0F0703010000000000000000E6
:10149000000000FF0000000101011F121F010101F7
:1014A00000000000387C7C7C38000307070703003D
:1014B0000000FF00000000000000000000FFFFFF30
:1014C000FFFFFFFFFFFFF0F7F7F7F7F7F7F7F7F783
:1014D000F7F7F7F7F7F0FFFFFF552A150A050201A6
:1014E00000000000000000000000000000000000FC
:1014F00000000000000000000000000000000000EC
:1015000000000000000000000000000000000000DB
:10151000000000FF000000000000000000000000CC
:10152000000000000000000040E0F0E0400000008B
:101530000000FF00000000000000000000000000AC
:10154000000000000000000000000000000000009B
:10155000000000000000000000000000000000008B
:10156000000000000000000000000000000000007B
:10157000000000000000000000000000000000006B
:10158000000000000000000000000000000000005B
:10159000000080DFE020202020203838B8A0202064
:1015A00020BC3C3C3CBC20A020A0212020202020AE
:1015B00020E0DF80000000000000000000000000CC
:1015C000000000000000000000000000000000001B
:1015D000000000000000000000000000000000000B
:1015E00000000000000000000000000000000000FB
:1015F00000000000000000000000000000000000EB
:1016000000000000000000000000000000000000DA
:10161000003F51685068506850685068536A51687C
:10162000516A5168516A506B516A506850685068ED
:10163000506850693F0000000000000000000000FA
:10164000000000000000000000000000000000009A
:10165000000000000000000000000000000000008A
:10166000000000000000000000000000000000007A
:10167000000000000000000000000000000000006A
:10168000000000000000000000000000000000005A
:10169000000000FE010101F11313131311111111C8
:1016A0001111111111111111111111111111F1015A
:1016B0000101FE000000000000000000000000002A
:1016C000000000000000000000000000000000001A
:1016D000000000000000000000000000000000000A
:1016E00000000000000000000000000000000000FA
:1016F00000000000000000000000000000000000EA
:1017000000000000000000000000000000000000D9
:10171000000000FF000000FF0000000000000000CB
:101720000000000000000000000000000000FF00BA
:101730009000FF000000000000000000000000809A
:101740004020100804020101010101010101010111
:10175000010101010101010101018141A151A955CD
:10176000ABFF0000000000000000000000000000CF
:101770000000000000000000000000000000000069
:10178000000000F8F8F0E0C0800000000000000059
:10179000000000FF0000000F0808080808080808FB
:1017A00008080808080808080808080808080F00BA
:1017B0000300FF00000000000000000000FEFFFE2C
:1017C000FE1E1E1E1E1E1E1E1E1E1E1E1E1E5E5ED9
:1017D0001EFEFEFEFEFEFEFEFE55AA55AA55AA55A9
:1017E000AAFF000000000000000000000000000050
:1017F00000FEFE5606AE0656AE56AE56AE56AEFECF
:10180000FEFEFEFFFFFFFFFFFFFFFEFC7830000043
:10181000000000FF000000E0A0A0FE12FEA0A0E07B
:1018200000000000000000000000C0E0E0E0C00098
:101830000000FF00000000000000000000FFFFFFAC
:10184000FF007F7F7F7F01F1F1F1F1F1F1F1F1F123
:10185000F0F1F1F5F501FFFFFF55AA55AA55AA557C
:10186000AA7F00000000000000000000000000004F
:10187000000303030303030303030303030303033B
:101880000303037F7F3F1F0F0703010000000000D9
:10189000000000FF0000000000000F090F00000022
:1018A000000000001C3E3E3E1C000103030301003B
:1018B0000000FF00000000000000000000FFFFFF2C
:1018C000FFFFFFFFFFFFF0F7F7F7F7F7F7F7F7F77F
:1018D000F7F7F7F7F7F0FFFFFF552A150A050201A2
:1018E00000000000000000000000000000000000F8
:1018F00000000000000000000000000000000000E8
:1019000000000000000000000000000000000000D7
:10191000000000FF000000000000000000000000C8
:1019200000000000000000002070F870200000009F
:101930000000FF00000000000000000000000000A8
:101940000000000000000000000000000000000097
:101950000000000000000000000000000000000087
:101960000000000000000000000000000000000077
:101970000000000000000000000000000000000067
:101980000000000000000000000000000000000057
:101990000080C06F7010101010101C1CDC509010D4
:1019A000905E9E1E9E5E10D0905010101010101071
:1019B00010706FC0800000000000000000000000F8
:1019C0000000000000000000000000000000000017
:1019D0000000000000000000000000000000000007
:1019E00000000000000000000000000000000000F7
:1019F00000000000000000000000000000000000E7
:101A000000000000000000000000000000000000D6
:101A1000001F283428342834283428342935283421
:101A200028352834283528352835283428342834D2
:101A3000283428341F00000080400000000000000F
:101A40000000000000000000000000000000000096
:101A50000000000000000000000000000000000086
:101A60000000000000000000000000000000000076
:101A70000000000000000000000000000000000066
:101A80000000000000000000000000000000000056
:101A90000000000000C02020202060606060202046
:101AA0002020202020202020202020202020202036
:101AB00020202020C00000000000000000000000E6
:101AC0000000000000000000000000000000000016
:101AD0000000000000000000000000000000000006
:101AE00000000000000000000000000000000000F6
:101AF00000000000000000000000000000000000E6
:101B000000000000000000000000000000000000D5
:101B10000000000000FF000000FE020202020202BC
:101B20000202020202020202020202020202020295
:101B3000FE000000FF0000000000000000000000A8
:101B40000000000000000000000000000000000095
:101B50000000000000000000000000000000000085
:101B60000000000000000000000000000000000075
:101B700000C0E0F0F8F8FCFCFE1E0E0E0E1EFEFC8F
:101B8000FCF8F8F0E0C000000000000000000000D9
:101B90000000000000FF000000FF00000000000047
:101BA0000000000000000000000000000000000035
:101BB000FF007200FF0000000000000000000000B5
:101BC00000C060203F09090909090909E9A9490973
:101BD00049A94D0D4DA909E949A9090909090909A9
:101BE000093F2060C000000000000000000000FC71
:101BF000FFFFFFFFFFFFFFFFFF0000000000FFFFF0
:101C0000FFFFFFFFFFFFFFFC0000000000000000DF
:101C10000000000000FF000000010101C141C101FE
:101C200001010101010101010101010101010101A4
:101C300001000000FF0000000000000000000000A4
:101C4000000F141A141A141A141A141A141A141A43
:101C5000141A141A141A141A141A141A141A141A14
:101C6000141A141A0F000000000000000000000306
:101C70000F3F7FFFFFFFFFFFFF1F0808081FFFFF49
:101C8000FFFFFFFF7F3F0F03000000000000000088
:101C90000000000000FF0000001C1414FF22FF14CD
:101CA000141C0000000080C0C0C08000387C7C7C18
:101CB00038000000FF0000000000000000000000ED
:101CC0000000000000000000000000000000000014
:101CD0000000000000000000000000000000000004
:101CE00000000000000000000000000000000000F4
:101CF00000000000010103030707060606070703AB
:101D000003010100000000000000000000000000CE
:101D10000000000000FF00000000000001010100C1
:101D20000000000000000307070703000000000098
:101D300000000000FF0000000000000000000000A4
:101D40000000000000000000000000000000000093
:101D50000000000000000000000000000000000083
:101D60000000000000000000000000000000000073
:101D70000000000000000000000000000000000063
:101D80000000000000000000000000000000000053
:101D90000000000000FF00000000000080808000C4
:101DA000000000C0C0C0C0C00000040E1F0E040030
:101DB00000000000FF000000000000000000000024
:101DC0000000000000000000000000000000000013
:101DD0000000000000000000000000000000000003
:101DE00000000000000000000000000000000000F3
:101DF00000000000000000000000000000000000E3
:101E000000000000000000000000000000000000D2
:101E100000000000000102020202020203030302AA
:101E2000020202030303030302020202020202028D
:101E30000202020201000000000000000000000099
:101E40000000000000000000000000000000000092
:101E50000000000000000000000000000000000082
:101E60000000000000000000000000000000000072
:101E70000000000000000000000000000000000062
:101E80000000000000000000000000000000000052
:101E900000000000C0202020206060606020202022
:101EA0002020202020202020202020202020202032
:101EB000202020C000000000000000000000000002
:101EC0000000000000000000000000000000000012
:101ED0000000000000000000000000000000000002
:101EE00000000000000000000000000000000000F2
:101EF00000000000000000000000000000000000E2
:101F000000000000000000000000000000000000D1
:101F100000000000FF000000FE02020202020202B6
:101F2000020202020202020202020202020202FE95
:101F3000000000FF000000000000000000000000A2
:101F40000000000080808080808080808080808091
:101F50008080808080808080808080808080808081
:101F60008080000000000000000000000000000071
:101F700000C0E0F0F8F8FCFCFE1E0E0E0E1EFEFC8B
:101F8000FCF8F8F0E0C000000000000000000000D5
:101F900000000000FF000000FF0000000000000043
:101FA000000000000000000000000000000000FF32
:101FB000007200FF000000000000000000000000B0
:101FC00000E030101F0404040404040474542404C6
:101FD00024542606265404742454040404040404DB
:101FE000041F1030E000000000000000000000FCB2
:101FF000FFFFFFFFFFFFFFFFFF0000000000FFFFEC
:10200000FFFFFFFFFFFFFFFC0000000000000000DB
:1020100000000000FF000000010101C141C10101F9
:1020200001010101010101010101010101010101A0
:10203000000000FF000000000000000000000000A1
:1020400000070A0D0A0D0A0D0A0D0A0D0A0D0A0DE8
:102050000A0D0A0D0A0D0A0D0A0D0A0D0A0D0A0DC8
:102060000A0D0A0D07000000000000000000000338
:102070000F3F7FFFFFFFFFFFFF1F0808081FFFFF45
:10208000FFFFFFFF7F3F0F03000000000000000084
:1020900000000000FF0000001C1414FF22FF1414B5
:1020A0001C0000000080C0C0C08000387C7C7C38F0
:1020B000000000FF00000000000000000000000021
:1020C0000000000000000000000000000000000010
:1020D0000000000000000000000000000000000000
:1020E00000000000000000000000000000000000F0
:1020F00000000000010103030707060606070703A7
:1021000003010100000000000000000000000000CA
:1021100000000000FF0000000000000101010000BD
:102120000000000000030707070300000000000094
:10213000000000FF000000000000000000000000A0
:10214000000000000000000000000000000000008F
:10215000000000000000000000000000000000007F
:10216000000000000000000000000000000000006F
:10217000000000000000000000000000000000005F
:10218000000000000000000000000000000000004F
:1021900000000000FF0000000000008080800000C0
:1021A0000000C0C0C0C0C00000040E1F0E0400002C
:1021B000000000FF00000000000000000000000020
:1021C000000000000000000000000000000000000F
:1021D00000000000000000000000000000000000FF
:1021E00000000000000000000000000000000000EF
:1021F00000000000000000000000000000000000DF
:1022000000000000000000000000000000000000CE
:1022100000000000010202020202020303030202A4
:102220000202030303030302020202020202020289
:102230000202020100000000000000000000000097
:10224000000000000000000000000000000000008E
:10225000000000000000000000000000000000007E
:10226000000000000000000000000000000000006E
:10227000000000000000000000000000000000005E
:10228000000000000000000000000000000000004E
:102290000000000000C0202020206060606020203E
:1022A000202020202020202020202020202020202E
:1022B00020202020C00000000000000000000000DE
:1022C000000000000000000000000000000000000E
:1022D00000000000000000000000000000000000FE
:1022E00000000000000000000000000000000000EE
:1022F00000000000000000000000000000000000DE
:1023000000000000000000000000000000000000CD
:102310000000000000FF000000FE020202020202B4
:10232000020202020202020202020202020202028D
:10233000FE000000FF0000000000000000000000A0
:10234000000000000000000000000000000000008D
:10235000000000000000000000000000000000007D
:10236000000000000000000000000000000000006D
:1023700000C0E0F0F8F8FCFCFE1E0E0E0E1EFEFC87
:10238000FCF8F8F0E0C000000000000000000000D1
:102390000000000000FF000000FF0000000000003F
:1023A000000000000000000000000000000000002D
:1023B000FF007200FF0000000000000000000000AD
:1023C000C060203F09090909090909E9A949094922
:1023D000A94D0D4DA909E949A909090909090909E1
:1023E0003F2060C00000000000000000000000FC72
:1023F000FFFFFFFFFFFFFFFFFF0000000000FFFFE8
:10240000FFFFFFFFFFFFFFFC0000000000000000D7
:102410000000000000FF000000010101C141C101F6
:10242000010101010101010101010101010101019C
:1024300001000000FF00000000000000000000009C
:102440000F141A141A141A141A141A141A141A1427
:102450001A141A141A141A141A141A141A141A140C
:102460001A141A0F00000000000000000000000312
:102470000F3F7FFFFFFFFFFFFF1F0808081FFFFF41
:10248000FFFFFFFF7F3F0F03000000000000000080
:102490000000000000FF0000001C1414FF22FF14C5
:1024A000141C0000000080C0C0C08000387C7C7C10
:1024B00038000000FF0000000000000000000000E5
:1024C000000000000000000000000000000000000C
:1024D00000000000000000000000000000000000FC
:1024E00000000000000000000000000000000000EC
:1024F00000000000010103030707060606070703A3
:1025000003010100000000000000000000000000C6
:102510000000000000FF00000000000001010100B9
:102520000000000000000307070703000000000090
:1025300000000000FF00000000000000000000009C
:10254000000000000000000000000000000000008B
:10255000000000000000000000000000000000007B
:10256000000000000000000000000000000000006B
:10257000000000000000000000000000000000005B
:10258000000000000000000000000000000000004B
:102590000000000000FF00000000000080808000BC
:1025A000000000C0C0C0C0C00000040E1F0E040028
:1025B00000000000FF00000000000000000000001C
:1025C000000000000000000000000000000000000B
:1025D00000000000000000000000000000000000FB
:1025E00000000000000000000000000000000000EB
:1025F00000000000000000000000000000000000DB
:1026000000000000000000000000000000000000CA
:1026100000000000000102020202020203030302A2
:102620000202020303030303020202020202020285
:1026300002020202010000000000EC1E791B1124BE
:102640001FBECFEFDAE0DEBFCDBF11E0A0E0B1E00A
:10265000E8E8F3E402C005900D92AE3EB107D9F769
:1026600026E0AEEEB1E001C01D92A53BB207E1F756
:1026700013E1CEE1D3E104C02197FE010E94971F30
:10268000CD31D107C9F70E948E1B0C94B7210C9451
:1026900000004091FD015091FE012091FB0130911D
:1026A000FC0142175307B4F49091E8009570E1F3F0
:1026B0009091E80092FD19C08093F1008091FD0196
:1026C0009091FE0101968F739927892B19F48EEF53
:1026D0008093E8008091FD019091FE010196909316
:1026E000FE018093FD0181E0089580E00895CF927E
:1026F000DF92EF92FF920F931F93CF93DF931F927E
:10270000CDB7DEB7182F062FE42E862F880F8E5FE9
:1027100099830E94491383E00E944913F12EC12E30
:102720009981D92E8C2D8F19801798F4F601E7FE28
:1027300002C0849101C080810E944913182F80E05B
:102740000E9449138123FFEFCF1ADF0A8111EACFDC
:1027500001C081E00F90DF91CF911F910F91FF9009
:10276000EF90DF90CF900895DF92EF92FF920F935A
:102770001F93CF93DF93D82E8A017B01E40EF51EC1
:10278000EB01CE15DF0571F0D7FE03C0FE01849189
:1027900001C088810E94491321968111F2CF8FEFE9
:1027A0009FEF01C0C801DF91CF911F910F91FF9062
:1027B000EF90DF900895615030F02091F100FC011E
:1027C00020830196F8CF289884E68093110208951B
:1027D000CF92DF92EF92FF920F931F93CF93DF93ED
:1027E0006C017A018B01C0E0D0E0CE15DF0589F0E5
:1027F000D8016D918D01D601ED91FC910190F08190
:10280000E02DC6010995892B11F47E0102C02196A5
:10281000ECCFC701DF91CF911F910F91FF90EF9007
:10282000DF90CF900895CF93DF931F92CDB7DEB79F
:102830006983DC01ED91FC910280F381E02D41E0A0
:1028400050E0BE016F5F7F4F09950F90DF91CF91F0
:10285000089583E08093E9008091F200882319F0C5
:102860008AE38093E8000895FC018485958597FDAF
:102870000BC09FB7F89482E08093E9008091F2004A
:102880009FBF90E0019608959FB7F89482E08093EF
:10289000E9008091F2009FBF90E008953FB7F8945F
:1028A0008091F7019091F801A091F901B091FA019E
:1028B00026B5A89B05C02F3F19F00196A11DB11D9B
:1028C0003FBFBA2FA92F982F8827820F911DA11DD6
:1028D000B11DBC01CD0142E0660F771F881F991F13
:1028E0004A95D1F708952F923F924F925F926F923F
:1028F0007F928F929F92AF92BF92CF92DF92EF9290
:10290000FF920F931F93CF93DF93EC016A3069F42A
:102910002C8D888D998D38E0239F800D911D112479
:10292000998F888F1F8A1E8AA1C06D3009F49EC0BE
:102930003C8D5B8C4A8CC88CD98C8E899F89803861
:10294000910584F02C8D422F50E08E899F89A6E05E
:102950002A9F800D911D11249F8B8E8B2D8D21110F
:1029600072C084C0B0E4CB16D10464F7AC01E5E0DA
:102970003E9F400D511D1124141615061CF7A32E61
:10298000B12CA601F8E03F9F400D511D11241416F3
:102990001506C4F625E0629FB00111246C547F4FE8
:1029A000912C40E1342EFB018490F5E09F1201C090
:1029B000812C760128E0722E80FC02C0652C01C0BB
:1029C000642C611009C0541007C086947A94EA0CF4
:1029D000FB1C7110F1CF2EC0AC01242E242F281B1C
:1029E000231798F78701202FE02FEE19E317F8F44B
:1029F00040385105C8F400341105B0F4ECEAF0E0B9
:102A0000329ED001A0781124A20D2770E20FF11D93
:102A10002491AD5EBD4F662019F0EC912E2B03C0C2
:102A20002095EC912E232C930F5F1F4FDCCF4F5F2F
:102A30005F4FD3CF93948A0D9B1D6F5F7F4FF6E05E
:102A40009F12B1CF7FCF6AEF64039001659F300D75
:102A5000112420583F4F2817390744F4CE01E8814C
:102A6000F9810190F081E02D6AE0099581E090E024
:102A7000DF91CF911F910F91FF90EF90DF90CF905A
:102A8000BF90AF909F908F907F906F905F904F908E
:102A90003F902F9008950895089580E090E0089564
:102AA0000F931F93CF93DF931F92CDB7DEB782E0D2
:102AB000898342E450E064EB75E080E80E94B4133F
:102AC0000E94211BDC0112960D911C911397011598
:102AD000110569F0D801ED91FC910280F381E02DA0
:102AE000BE016F5F7F4FC801099597FF07C08981BD
:102AF0000F90DF91CF911F910F910895F8010085FC
:102B00001185E5CF0E94101B90E00895CF93DF93CD
:102B10001F92CDB7DEB7FC018485958597FD05C072
:102B20002FEF3FEF358724870BC0CE0101960E941F
:102B3000E61A019719F4898190E002C08FEF9FEFA8
:102B40000F90DF91CF9108950F931F93CF93DF9351
:102B50001F92CDB7DEB78C01FC018485958597FF68
:102B60000EC0CE0101960E94E61A019719F4298140
:102B700030E002C02FEF3FEFF80135872487F801DE
:102B8000848595850F90DF91CF911F910F910895C6
:102B90001F920F920FB60F9211248F939F938091E3
:102BA000E1009091E100937F9093E10083FF0FC0DB
:102BB0001092E90091E09093EB001092EC0092E308
:102BC0009093ED001092120298E09093F00082FF33
:102BD00020C093E09093E9009091F200992319F0BE
:102BE0009AE39093E8009091FF01992339F0909136
:102BF000FF0191509093FF01992389F19091110267
:102C0000992339F0909111029150909311029923D8
:102C100041F184FF10C08091E2008E7E816080933C
:102C2000E2008091E1008F7E8093E10080910102BB
:102C30008E7E806111C080FF16C08091E2008E7E82
:102C400080618093E2008091E1008E7E8093E100BC
:102C5000809101028E7E81608093010204C05D9AA2
:102C6000CDCF289AD6CF9F918F910F900FBE0F9006
:102C70001F9018951F920F920FB60F921124CF92AA
:102C8000DF92EF92FF920F931F932F933F934F93F7
:102C90005F936F937F938F939F93AF93BF93EF93C4
:102CA000FF93CF93DF93CDB7DEB76C97DEBFCDBF79
:102CB0001092E9008091E80083FFEDC168E0CE0149
:102CC00045960E94DB1382EF8093E8008D8987FF91
:102CD00005C09091E80090FFFCCF03C09EEF909359
:102CE000E800982F907609F0C6C09E892F89188D2C
:102CF00091110CC0803829F4809102028093F10078
:102D000002C01092F1001092F10048C1422F50E031
:102D1000512B913051F4811141C14130510509F0DD
:102D20003DC1809102028D7F0BC0933061F481110F
:102D300035C14130510509F031C1809102028260F4
:102D4000809302022BC1953041F48091E80080FF0E
:102D5000FCCF20682093E30021C1963009F05FC0CA
:102D6000EB8CFC8C1092E9001092FE011092FD0198
:102D7000123091F51092FC011092FB010E94501547
:102D800099E0BE016F5F7F4FDB01E92F1D92EA954D
:102D9000E9F799831A8391E09E8390EA98879AEFE6
:102DA00099872091FD013091FE01275F3F4F3C83C1
:102DB0002B838D831092E9001092FE011092FD0189
:102DC000F092FC01E092FB0149E050E080E00E94BB
:102DD000B4130E945015E2C0F092FC01E092FB0196
:102DE0000E94211BDC011296ED90FC901397E114D8
:102DF000F10409F4C0C0D701ED91FC910480F58184
:102E0000E02DBE016B5E7F4FC7010995009719F059
:102E10000CF0C4C0C7C0F701E084F184E8CF97305C
:102E200009F4C0C0983021F481E08093F100B6C06D
:102E3000993009F0B3C0837009F0B4C0E3E1F1E068
:102E400081E021E036E39081992361F08093E900ED
:102E50002093EB0091919093EC003093ED008F5F05
:102E6000873089F78EE78093EA001092EA008F8915
:102E70008093120293C08B8D9C8D1092E90010926A
:102E8000FE011092FD019093FC018093FB01898D5E
:102E9000811156C08E899D89913A59F4813209F089
:102EA00081C047E050E064E071E080E00E94B4132C
:102EB00075C0913209F076C0833289F4888D90E034
:102EC000982F88272F89822BA0E0B0E08093000103
:102ED00090930101A0930201B09303015FC080327F
:102EE00069F48091E80082FFFCCF67E084E091E024
:102EF0000E94DB138BEF8093E80006C0823209F05A
:102F00004DC08F8980930B0180910002882319F0B6
:102F1000EEEFFAE002C0E0E0F8E080910401909169
:102F20000501A0910601B0910701803B9440A105E5
:102F3000B10509F07BC080910B0180FF93C076C082
:102F40000E94211BDC0112960D911C911397011513
:102F5000110541F1D801ED91FC910190F081E02D36
:102F6000BE016B5E7F4FC8010995811117C0F80142
:102F700000851185ECCF113009F44EC0133091F467
:102F80008F89882309F445C0823081F440E860E1EC
:102F900088E196E00E947713882321F08EEF8093DA
:102FA000E80079C081E28093EB0075C0813029F49C
:102FB00040E86BE08CE096E0EDCF833099F70E941B
:102FC000211BDC011296ED90FC9013978E010F5F90
:102FD0001F4F6801E114F10479F0D701ED91FC91E4
:102FE0000680F781E02DB801C7010995080F111D72
:102FF000F701E084F184EECFD8011C92F601019034
:103000000020E9F73197BF016C197D0940E0C60146
:10301000C1CF66EF75E002C06AEF75E0611571051A
:1030200009F2FB01449150E080E840CF0FB6F894DC
:10303000A895809160008861809360001092600084
:103040000FBEA895EE3F2AE0F20739F08091FE0A04
:103050009091FF0A91838083A1CF1092FF0A109272
:10306000FE0A9CCFEE3F8AE0F80731F08081918123
:103070009093FF0A8093FE0A87E797E79183808306
:103080009BE088E10FB6F894A895809360000FBE8E
:103090009093600083CF6C960FB6F894DEBF0FBE9E
:1030A000CDBFDF91CF91FF91EF91BF91AF919F91F4
:1030B0008F917F916F915F914F913F912F911F91D0
:1030C0000F91FF90EF90DF90CF900F900FBE0F9079
:1030D0001F9018956115710579F0FB010190002092
:1030E000E9F73197AF01461B570BDC01ED91FC91DD
:1030F0000280F381E02D099480E090E008958F92A2
:103100009F92AF92BF92CF92DF92EF92FF926B01AC
:103110007C010E944E144B015C01C114D104E104F6
:10312000F104F1F00E944E14DC01CB0188199909D9
:10313000AA09BB09883E9340A105B10570F321E0BF
:10314000C21AD108E108F10888EE880E83E0981EC3
:10315000A11CB11CC114D104E104F10419F7DDCFA5
:10316000FF90EF90DF90CF90BF90AF909F908F90A7
:1031700008958F929F92AF92BF92CF92DF92EF927B
:10318000FF920F931F93CF93DF935C016B017A0142
:1031900080910B01882309F45BC08091120288237F
:1031A00009F456C08091010280FF05C08091E000C3
:1031B00082608093E000E70110E00AEF83E0882E50
:1031C0009AE3992E2097D9F10E94101B81110AC011
:1031D000015009F43DC061E070E080E090E00E94A1
:1031E0007F18F0CF282F30E0C217D3070CF48C2FB4
:1031F0004FB7F8948092E9009091E80095FF1DC0C8
:10320000282F30E0C21BD30BF601982F915020F0ED
:1032100081918093F100FACFC20ED31E112319F0D1
:103220009092E80009C08091E80085FD06C0909268
:10323000E80011E0209709F010E04FBFC3CF111153
:10324000C3CF5D9884E68093FF011E141F0444F0F1
:1032500081E090E0F5019383828380E090E001C0FB
:10326000C701DF91CF911F910F91FF90EF90DF90F9
:10327000CF90BF90AF909F908F9008952FB7F89404
:103280006091F3017091F4018091F5019091F60144
:103290002FBF08951F920F920FB60F9211242F93F4
:1032A0003F938F939F93AF93BF938091F30190913E
:1032B000F401A091F501B091F6013091F20123E003
:1032C000230F2D3720F40196A11DB11D05C026E85E
:1032D000230F0296A11DB11D2093F2018093F301EB
:1032E0009093F401A093F501B093F6018091F7015A
:1032F0009091F801A091F901B091FA010196A11DF8
:10330000B11D8093F7019093F801A093F901B09358
:10331000FA01BF91AF919F918F913F912F910F90A3
:103320000FBE0F901F901895BC0180E090E00C94A8
:103330007F180F931F930E943E190091EE01109188
:10334000EF012091F0013091F101061717072807CE
:103350003907B0F46FE371E083E196E00E946A18E8
:103360000E943E19DC01CB0188519C4FAF4FBF4FEB
:103370008093EE019093EF01A093F001B093F101DF
:103380001F910F9108950E9494210F931F93CF9343
:10339000DF93EC0188819981009729F02A813B8194
:1033A0002617370788F48B016F5F7F4F0E94CA2072
:1033B000009761F0998388831B830A832C813D8168
:1033C000232B11F4FC01108281E001C080E0DF9129
:1033D000CF911F910F910895EF92FF920F931F933A
:1033E000CF93DF93EC01198218821B821A821D820F
:1033F0001C826115710549F18B01FB0101900020D0
:10340000E9F731977F01E61AF70AB7010E94C5195B
:103410002881398181110DC02115310519F0C901AB
:103420000E943220198218821D821C821B821A82FD
:103430000CC0FD82EC82B801C901DF91CF911F91D0
:103440000F91FF90EF900C94A221DF91CF911F91EB
:103450000F91FF90EF900895CF93DF93FC0144818B
:1034600055816081718187E896E00E94E813EC0144
:103470006BEE71E087E896E00E946A188C0F9D1F42
:10348000DF91CF910895CF93DF93BC0187E896E059
:103490000E946A18EC016BEE71E087E896E00E94EA
:1034A0006A188C0F9D1FDF91CF91089520E083E172
:1034B00092E0B22FB111BFEFFC010024B193B193A0
:1034C000B193B1930394D1F7E7E8F6E0118E108E33
:1034D000178A168A08950F931F93CF93DF9300974F
:1034E00009F45DC0FC014491319624910296C42FE9
:1034F000D0E06623E9F0E22FE695E695E695AE2F5B
:10350000B0E0E1E0F0E0322F377011F4E0E0F0E0FD
:10351000EA0FFB1FCE9FD001CF9FB00DDE9FB00DF5
:1035200011246A9FF0016B9FF00D11248E0F9F1FD5
:103530002097A9F1222399F1009789F1C038D1058C
:1035400014F4342F01C030E8E1E0422F477009F451
:10355000E0E02695269526952E0F293008F028E0E4
:1035600060E000E010E06217D1F0D801AD5EBD4F21
:1035700040E050E0431768F4FC01E40FF51FE491CC
:1035800067FD03C07C91E72BEC934F5F5F4F119673
:10359000F1CF6F5F8C0F9D1F00581F4FE4CFDF915D
:1035A000CF911F910F910895809113028EBDE4E198
:1035B000F2E081910DB407FEFDCF8EBD86E0E331D0
:1035C000F807B9F70DB407FEFDCF0895FC0180910F
:1035D0001202811103C08FEF9FEF08959FB7F894F7
:1035E00082E08093E9002091F20030E01216130689
:1035F00014F421E030E02115310559F0289884E6D3
:10360000809311028091F10080838091F2008823E1
:1036100019F09FBFC90108958BE68093E800F9CFA8
:103620002FB7F89483E08093E9009091E800892F08
:10363000807295FF04C09091F20080E4891B2FBF37
:1036400008958091A90681110DC082E08093A5069E
:1036500084E08093A6061092A8061092A70681E047
:103660008093A90685EA96E008950F931F93CF9360
:10367000DF938C0181E090E00E94441F80FF31C005
:103680008AE090E00E94441F9FEF980F9E3F48F50C
:1036900022E330E0D80157963C932E93569728E3C7
:1036A00030E059963C932E935897CBE0D0E0D80168
:1036B000ED91FC910190F081E02D682FC8010995F2
:1036C000CE010E94441F2196C131D10581F70E948D
:1036D000D41A88EE93E0DF91CF911F910F910C9453
:1036E0009419DF91CF911F910F91089504970C9435
:1036F000351BCF93DF93C1E8D6E026978881998167
:103700000E94322086E0C336D807B9F7809181063F
:1037100090918206DF91CF910C943220CF93DF936A
:10372000CDB7DEB72C970FB6F894DEBF0FBECDBF76
:10373000789484B5826084BD84B5816084BD85B58C
:10374000826085BD85B5816085BD80916E00816098
:1037500080936E001092810080918100826080933E
:103760008100809181008160809381008091800040
:1037700081608093800080919100826080939100AD
:103780008091910081608093910080919000816090
:10379000809390008091C10084608093C1008091EB
:1037A000C10082608093C1008091C10081608093DC
:1037B000C1008091C30081608093C3008091C000EC
:1037C00082608093C0008091C20081608093C200BB
:1037D00080917A00846080937A0080917A00826080
:1037E00080937A0080917A00816080937A00809142
:1037F0007A00806880937A0010921202109202027E
:10380000109201028091D70081608093D70080EAF6
:103810008093D80089B5806189BD89B5826089BDF2
:1038200009B400FEFDCF61E070E080E090E00E940E
:103830007F188091D8008F7C80618093D800809120
:10384000E000807F8093E0008091E1008E7E809395
:10385000E1008DE08093E200559A209AEEEFFFE7B9
:10386000859194918B3F9C4D19F481E080930002E7
:1038700081EC80937C0085B1806F85B9249884B1F8
:10388000866E84B95E9A5F988AB1806D8AB9769A9D
:103890006E9881B3806F81BB899880B38D7080BB37
:1038A00080E58CBD81E08DBD85E090E00E9494199B
:1038B0005F9A85E090E00E9494195E985C98E9E236
:1038C000F6E08DE08E0F94919EBD00000DB407FED2
:1038D000FDCF31968E13F7CF5C9A81E88093640018
:1038E00081E08093650091E2909392068093A40614
:1038F0008FEF9FEF9093200680931F065598209896
:10390000E3E0EE2EF12CFEE1CF2ED12CBB24B394BC
:1039100000E010E083E196E00E943414892B09F462
:1039200077C06DEE71E0CE0107960E94EC1983E13D
:1039300096E00E943414892B11F10E94991983E1B9
:1039400096E00E94861589831A828B849C848FEF6F
:10395000881A980AB401CE0107960E94C5198823D7
:1039600031F32F8138858B859C85BE016F5F7F4F3A
:10397000820F931F0E94A2219C868B86D8CF6FE373
:1039800071E0CE0101960E94EC194D815E818B851C
:103990009C8589809A808417950770F08F8198851F
:1039A000009751F08114910439F0B4010E94A921CB
:1039B000AA24A394892B09F0A12CC4010E943220CF
:1039C000AA2059F00E943E1960930D0270930E02D6
:1039D00080930F029093100217C00E94561ACE01D6
:1039E00007960E942C1A0E94D41A7AE0872E912CF6
:1039F0000E94991968EC70E080E090E00E947F18C6
:103A000021E0821A9108A1F78F8198850E943220C7
:103A10000E943E1940909706509098066090990633
:103A200070909A0620919B06222341F020919306E4
:103A3000621B60939C0610929B0693C164157505EA
:103A40008605970580F4842D861B823008F489C191
:103A500083B7817F83BF83B7816083BF889583B736
:103A60008E7F83BF7EC1B0929B0660939306709356
:103A70009406809395069093960620919206DC0119
:103A8000CB01820F911DA11DB11D809397069093CC
:103A90009806A0939906B0939A0680918E0690910D
:103AA0008F06019690938F0680938E060E94561A79
:103AB0000E943E1940900D0250900E0260900F023D
:103AC00070901002DC01CB0184199509A609B70991
:103AD000813D9740A105B10528F180900B0290909F
:103AE0000C02682D88E39AE10E946B1A80918E0681
:103AF00090918F06B6010E94831F892B39F48FEFB6
:103B0000881A980A90920C0280920B0280910B0204
:103B100090910C0203970CF422C110920C021092A7
:103B20000B021DC10E94991980910A028A3009F482
:103B30003FC058F4882309F47AC0813009F00FC1DE
:103B400080E691E00E94431A0AC18236D1F08336A2
:103B500009F005C18CE491E00E94431A40900602EE
:103B60005090070260900802709009020E943E196E
:103B7000461657066806790608F0F1C0B0920A02A8
:103B8000EEC081E791E00E94431A409006025090F7
:103B9000070260900802709009020E943E194616C2
:103BA00057066806790608F0DAC010920A02D7C0F4
:103BB0008090040290900502682D86E396E00E94B2
:103BC0006B1A80918E0690918F06B7010E94831F19
:103BD000892B39F42FEF821A920A90920502809273
:103BE00004028091040290910502059724F010923E
:103BF0000502109204024090060250900702609065
:103C00000802709009020E943E194616570668067F
:103C1000790608F0A4C082E680930A020E943E1949
:103C2000DC01CB018053984FAF4FBF4F87C08091CD
:103C30009006809391064FB12CB193B130E020955E
:103C400030952074332753E0359527955A95E1F741
:103C5000892F90E08095909580719927959587950B
:103C600095958795822B942F9095907F892B8093A3
:103C7000900688E791E00E94431A9091910694FF84
:103C800004C08091900684FF73C097FF04C08091A8
:103C9000900687FF73C08091030287FD04C08530C2
:103CA0001CF080E001C085E08093030283E6682E6B
:103CB00086E0782E812C912C80910302082E000C36
:103CC000990B8815990519F466E471E002C069E45E
:103CD00071E087E896E00E946A18C3010E942C1ADE
:103CE0008FEF881A980A26E0620E711C85E088160C
:103CF000910411F78091910683FF31C08091900665
:103D000083FD2DC041C083300CF446C0833009F0E0
:103D100047C065E971E083E196E00E946A1810925D
:103D20000502109204028AE080930A020E943E1962
:103D3000DC01CB01805F984DAF4FBF4F80930602EF
:103D400090930702A0930802B093090208C0813043
:103D500031F466E871E083E196E00E946A180E94FF
:103D6000D41A0115110509F4D5CD0E940000CECD5D
:103D7000809103028F5F8093030287CF80910302BB
:103D800081508093030287CF80910302823009F033
:103D9000BACF6DE871E0DFCF8111D9CF8BE019C0C8
:103DA0008430E9F66EE971E083E196E00E946A18DA
:103DB0000E943E19DC01CB018854944FAF4FBF4F96
:103DC0008093060290930702A0930802B093090221
:103DD00083E680930A02C3CFE3E1F6E01382128206
:103DE00088EE93E0A0E0B0E084839583A683B78358
:103DF0008DE191E0918380838FEF9FEF958784879A
:103E0000E7E8F6E0138212821186128620E123870A
:103E100090878783108A118A128A138A148A8FE204
:103E200091E0918380838DE391E095838483178A69
:103E3000168A118E108E81E0828F138E848F158EDC
:103E40006DEE71E081E896E00E94EC1969EA71E09C
:103E500083E696E00E94EC196BEB71E089E696E050
:103E60000E94EC1961EC71E08FE696E00E94EC197B
:103E70006FEC71E085E796E00E94EC196FED71E060
:103E80008BE796E00C94EC19F999FECF92BD81BDB9
:103E9000F89A992780B508952F923F924F925F929A
:103EA0006F927F928F929F92AF92BF92CF92DF924A
:103EB000EF92FF920F931F93CF93DF93CDB7DEB7AF
:103EC000CA1BDB0B0FB6F894DEBF0FBECDBF099443
:103ED0002A88398848885F846E847D848C849B849A
:103EE000AA84B984C884DF80EE80FD800C811B81A8
:103EF000AA81B981CE0FD11D0FB6F894DEBF0FBED7
:103F0000CDBFED010895AA1BBB1B51E107C0AA1F3D
:103F1000BB1FA617B70710F0A61BB70B881F991F6A
:103F20005A95A9F780959095BC01CD010895EE0FA3
:103F3000FF1F0590F491E02D0994CF93DF93823019
:103F4000910510F482E090E0E091B306F091B406A0
:103F500020E030E0C0E0D0E0309711F140815181A5
:103F600048175907C0F04817590761F482819381B7
:103F7000209719F09B838A832BC09093B40680937B
:103F8000B30626C02115310519F04217530718F45E
:103F90009A01BE01DF01EF010280F381E02DDCCF49
:103FA0002115310509F1281B390B2430310590F416
:103FB00012968D919C9113976115710521F0FB016B
:103FC0009383828304C09093B4068093B306FD016B
:103FD000329644C0FD01E20FF31F8193919322506A
:103FE00031092D933C933AC02091B1063091B2062D
:103FF000232B41F420910E0130910F013093B20632
:104000002093B10620910C0130910D01211531054D
:1040100041F42DB73EB74091100150911101241B7E
:10402000350BE091B106F091B206E217F307A0F468
:104030002E1B3F0B2817390778F0AC014E5F5F4FFE
:104040002417350748F04E0F5F1F5093B206409378
:10405000B1068193919302C0E0E0F0E0CF01DF91DF
:10406000CF9108950F931F93CF93DF93009709F497
:104070008CC0FC013297138212820091B30610911A
:10408000B4060115110581F420813181820F931F3F
:104090002091B1063091B2062817390779F5F093CF
:1040A000B206E093B10671C0D80140E050E0AE170F
:1040B000BF0750F412962D913C911397AD01211535
:1040C000310509F1D901F3CF9D01DA013383228350
:1040D00060817181860F971F8217930769F4EC0145
:1040E00028813981260F371F2E5F3F4F3183208370
:1040F0008A819B8193838283452B29F4F093B406B4
:10410000E093B30642C01396FC93EE931297ED0131
:10411000499159919E01240F351FE217F30771F45D
:1041200080819181840F951F029611969C938E93A6
:104130008281938113969C938E931297E0E0F0E036
:10414000D80112968D919C911397009719F0F80160
:104150008C01F6CF8D919C9198012E5F3F4F820F7D
:10416000931F2091B1063091B2062817390769F4E0
:10417000309729F41092B4061092B30602C013824D
:1041800012821093B2060093B106DF91CF911F9176
:104190000F910895A0E0B0E0E0EDF0E20C94501F24
:1041A000EC01009721F4CB010E949D1FB8C0FC01D7
:1041B000E60FF71F9C0122503109E217F30708F4BC
:1041C000ACC0D9010D911C91119706171707B0F0DB
:1041D0000530110508F49FC0C8010497861797079A
:1041E00008F499C002501109061B170B0193119393
:1041F0006D937C93CF010E9432208DC05B01A01A89
:10420000B10A4C01800E911EA091B306B091B40684
:1042100040E050E0E12CF12C109709F44AC0A815B9
:10422000B905D1F56D907C901197630182E0C80EBD
:10423000D11CCA14DB0480F1A3014A195B096A018D
:1042400082E0C80ED11C1296BC9012971396AC91C6
:10425000B5E0CB16D10440F0B282A38351834083F2
:10426000D9016D937C930AC00E5F1F4FC301800F6D
:10427000911FF90191838083EB2DFA2FE114F10452
:1042800031F0D7011396FC93EE93129744C0F0934C
:10429000B406E093B3063FC08D919C9111974817E7
:1042A000590708F4AC017D0112960D90BC91A02D28
:1042B000B3CF8091B1069091B20688159905E1F4CB
:1042C00046175707C8F480910C0190910D01009793
:1042D00041F48DB79EB74091100150911101841B9C
:1042E000950BE817F907C8F4F093B206E093B1060E
:1042F000F901718360830FC0CB010E949D1F7C0177
:10430000009759F0A801BE010E949921CE010E9498
:104310003220C70104C0CE0102C080E090E0CDB7DA
:10432000DEB7EEE00C946C1F81E090E0F8940C9402
:10433000B721FB01DC0102C001900D9241505040B9
:10434000D8F70895FB01DC0101900D920020E1F700
:104350000895FB01DC014150504030F08D910190F7
:10436000801919F40020B9F7881B990B089513E1FF
:10437000CEE1D3E104C0FE010E94971F2196CF3108
:08438000D107C9F7F894FFCF43
:10438800FFFFFFFF00E10000000000000000B5068D
:10439800800000C18081000000000000001314B9F3
:1043A800188215291434148615A41500000000730A
:1043B80014E8134D154C15351BFCFF0000761B3C0B
:1043C80050494E473E002D3E00202000446F636B4D
:1043D800206973207475726E696E67206F66660057
:1043E80057616974696E6720666F7220646F636BCA
:1043F800004572726F722E00444F434B204D454E5C
:104408005520563033003C54494D453E003C41420E
:104418004F55543E003C5550444154453E003C5392
:10442800485554444F574E3E0042726F777365208B
:10443800636F6C6C656374696F6E00436C6F636B5C
:1044480000446F636B2073657474696E67730055FD
:10445800706461746520646F636B206170700043E1
:0E4468006861726765206D6F6465000D0A0063
:2070000055C000006EC000006CC000006AC0000068C0000066C0000064C0000062C0000043
:2070200060C000005EC00000F2C400005AC0000058C0000056C0000054C0000052C00000EE
:2070400050C0000078C000004CC000004AC0000048C0000046C0000044C0000042C00000BE
:2070600040C000003EC000003CC000003AC0000038C0000036C0000034C0000032C0000048
:2070800030C000002EC000002CC000002AC0000028C0000026C0000024C0000022C00000A8
:2070A00020C000001EC000001CC0000011241FBECFEFDAE0DEBFCDBF11E0A0E0B1E0E2E3BC
:2070C000FFE702C005900D92A83AB107D9F711E0A8EAB1E001C01D92AE3BB107E1F78FD30B
:2070E00026C78ECFF89410926F0010928100109285001092840081E085BF15BE47985D9AEB
:20710000289A0C94000008952091B2013091B3012F5F3F4F3093B3012093B201932F37FFA6
:2071200003C08EEF831B982F990F921710F447980895479A08951F920F920FB60F9211246E
:207140002F938F939F93EF93FF9310928500109284008091A8019091A901009741F00197D3
:207160009093A9018093A801892B09F45D9A8091AA019091AB01009741F001979093AB0126
:207180008093AA01892B09F4289AE0E0F0E0859194918F5F9F4F49F08091AC019091AD0151
:2071A00001969093AD018093AC01FF91EF919F918F912F910F900FBE0F901F90189584E0BC
:2071C0008093E9000DC08091E8008B778093E80003C08EB3882351F08091E80082FFF9CFBE
:2071E0008091E80085FFEFCF8091F1000895982F83E08093E9008091E80085FD0DC0809136
:20720000E8008E778093E80003C08EB3882369F08091E80080FFF9CF9093F1005D9884E6CB
:2072200090E09093A9018093A80108954F925F926F927F928F929F92AF92BF92CF92DF921E
:20724000EF92FF920F931F93CF93DF9384E08093E9008091E80082FF57C2289884E690E067
:207260009093AB018093AA01AADF182F853481F48CE49DE19093AD018093AC0107B600FC4B
:20728000FDCFF999FECF81E180935700E89503C0843519F494DF8DE00DC28C34E1F38035F9
:2072A000D1F3843721F484E4A2DF80E003C2813611F489E5FFC18134B1F481DF182F7FDFE3
:2072C00090E0880F991FAA2797FDA095BA2F312F330F20E0442737FD4095542F822B932B68
:2072E000A42BB52BB8C1803711F483E5E3C1833549F4C0E0D1E089917ADF21E0C730D20714
:20730000D1F7D9C1863521F481E371DF80E3D2C1833731F487E86BDF85E969DF8EE1CAC149
:207320008536B9F4E0E0F0E093E085E090935700E89507B600FCFDCF80935700E89507B65D
:2073400000FCFDCFE058FF4FA0E7E030FA0771F7A2CF823739F4E1E0F0E089E08093570024
:207360008491A8C1863439F4E0E0F0E089E08093570084919FC18E3439F4E3E0F0E089E0E5
:2073800080935700849196C1813539F4E2E0F0E089E08093570084918DC1823631F489E521
:2073A00026DF80E024DF80E885C1823419F0873609F0E5C01092AD011092AC0100DF082FE8
:2073C000FEDEF82EFCDE682E8554823008F071C1902F80E0CF2DD0E0C82BD92B10926F00B3
:2073E000173609F04BC081E180935700E895DD24CC24C3943FC0E090AE01F090AF010091CC
:20740000B0011091B101B6E46B16D9F4ED2DF0E0EE29FF29E4918E2FEADEDD2081F082E08D
:2074200090E0A0E0B0E0E80EF91E0A1F1B1FE092AE01F092AF010093B0011093B101DC2470
:2074400018C0D801C701B695A7959795879559D5CEDE82E090E0A0E0B0E0E80EF91E0A1FF2
:207460001B1FE092AE01F092AF010093B0011093B1012197209709F0BECF7DC08090AE01F5
:207480009090AF01A090B001B090B10196E4691609F05DC083E0F40180935700E89507B63E
:2074A00000FCFDCF54C0F6E46F1661F5772031F1E090AE01F090AF010091B0011091B1019E
:2074C0007EDED82ECC24852D90E08C299D29F7010C0140925700E895112482E090E0A0E08B
:2074E000B0E0E80EF91E0A1F1B1FE092AE01F092AF010093B0011093B10102C060DE582E1A
:20750000742423C0E090AE01F090AF010091B0011091B10116950795F794E79450DE682FFA
:20752000C701F7D48091AE019091AF01A091B001B091B1010296A11DB11D8093AE01909349
:20754000AF01A093B001B093B101219704C05524772444244394209709F0A5CF96E46916B6
:2075600041F485E0F40180935700E89507B600FCFDCF8DE03CDE82E080936F009CC0833492
:2075800071F40091AE011091AF0119DE90E021E0F8010C0120935700E89511247CCE8336C8
:2075A00019F5E090AE01F090AF010091B0011091B10105DEF701E16090E021E00C0120938C
:2075C0005700E895112482E090E0A0E0B0E0E80EF91E0A1F1B1FE092AE01F092AF0100936A
:2075E000B0011093B10157CE8D3661F4E091AE01F091AF0185E080935700E89507B600FCF2
:20760000FDCF49CE823551F4E091AE01F091AF0105911491812FEBDD802F4CC0843421F5FE
:20762000E090AE01F090AF010091B0011091B10116950795F794E794C2DD682FC70169D4DE
:207640008091AE019091AF01A091B001B091B1010296A11DB11D8093AE019093AF01A093D8
:20766000B001B093B10117CE843609F5E090AE01F090AF010091B0011091B101D801C70142
:20768000B695A795979587953CD4B1DD82E090E0A0E0B0E0E80EF91E0A1F1B1FE092AE010A
:2076A000F092AF010093B0011093B10104C08B3111F08FE39CDD83E08093E9009091E8002B
:2076C0008091E8008E778093E80095FF04C010C08EB38823C9F08091E80080FFF9CF809193
:2076E000E8008E778093E80003C08EB3882361F08091E80080FFF9CF84E08093E9008091F1
:20770000E8008B778093E800DF91CF911F910F91FF90EF90DF90CF90BF90AF909F908F90AC
:207720007F906F905F904F9008959091B601892F8F77813249F58091B7018032A1F081328A
:2077400019F5913A09F58091E800877F8093E8008DE091E067E070E00BD28091E8008B770B
:207760008093E8000895913279F48091E800877F8093E8008DE091E067E070E05DD2809192
:20778000E8008E778093E800089582E061EC42E0B5D083E061E842E1B1D084E060E842E1EF
:2077A000ADC084B7877F84BF88E10FB6F89480936000109260000FBE20E880E090E00FB63F
:2077C000F89420936100809361000FBE81E085BF92E095BF3F9A209A559AE1E6F0E02083A1
:2077E000108247985D9A289A109289008AEF8093880090936F0083E080938100F0C0409116
:20780000000850910108109201081092000894B714BE88E10FB6F8948093600010926000D5
:207820000FBE292F30E0F901E270F07091FD18C090FF05C0859194918F5F9F4F81F423FFFF
:207840000FC08091090190910A014817590741F0E0E0F0E0859194918F5F9F4F09F042DC64
:20786000A0DF78941092AD011092AC010CC0DEDC36D38091AC019091AD0181549F4110F00D
:207880001092140141DC80911401882381F78091E00081608093E00025DC80E090E0089598
:2078A000FA01923049F0933061F09130F9F485E191E022E130E01EC087E291E02EE330E04D
:2078C00019C0882329F485E691E024E030E012C0813029F489E691E022E230E00BC0823006
:2078E00029F48DE891E028E130E004C080E090E020E030E091838083C90108958093E9004E
:207900008091EB0081608093EB001092ED006093EC004093ED008091EE00881F8827881F62
:2079200008958091B60188238CF403C08EB38823B1F08091E80082FFF9CF8091E8008B772A
:207940008093E80008958EB3882349F08091E80080FFF9CF8091E8008E778093E800089594
:20796000EF92FF920F931F9345D04CD008ED10E0F80180818F77808380818068808380819B
:207980008F7D808319BC1EBA1092B40180EEE82EF12CF70180818B7F8083F8018081816052
:2079A000808380E060E042E0A9DFE1EEF0E080818E7F8083E2EEF0E0808181608083808144
:2079C00088608083F70180818E7F8083F8018081806180831F910F91FF90EF900895E7ED06
:2079E000F0E08081816080838AE482BF81E08093B501B6CFE8EDF0E080818E7F808310921C
:207A0000E20008951092DA001092E10008951F920F920FB60F9211242F933F934F935F93F6
:207A20006F937F938F939F93AF93BF93EF93FF938091DA0080FF1BC08091D80080FF17C0B2
:207A40008091DA008E7F8093DA008091D90080FF0BC080E189BD82E189BD09B400FEFDCF36
:207A600081E08EBB3BD203C019BC1EBA37D28091E10080FF17C08091E20080FF13C0809138
:207A8000E2008E7F8093E2008091E20080618093E2008091D80080628093D80019BC85E049
:207AA0008EBB1CD28091E10084FF2CC08091E20084FF28C080E189BD82E189BD09B400FEC5
:207AC000FDCF8091D8008F7D8093D8008091E1008F7E8093E1008091E2008F7E8093E20012
:207AE0008091E20081608093E2008091B401882331F48091E30087FD02C081E001C084E067
:207B00008EBBECD18091E10083FF21C08091E20083FF1DC08091E100877F8093E10082E06A
:207B20008EBB1092B4018091E1008E7F8093E1008091E2008E7F8093E2008091E2008061E9
:207B40008093E20080E060E042E0D8DEC7D1FF91EF91BF91AF919F918F917F916F915F9130
:207B60004F913F912F910F900FBE0F901F9018959C014091BC015091BD014617570718F49D
:207B8000F90190E044C06115710511F0AB01F8CF8091E8008E778093E80040E050E0F0CF0F
:207BA0008EB3882309F444C0853009F443C08091E80083FF02C081E008958091E80082FD70
:207BC00031C08091E80080FF22C08091F3009091F200782F60E0292F30E0262B372B07C07A
:207BE00081918093F100415050402F5F3F4F4115510519F02830310598F390E02830310566
:207C000009F491E08091E8008E778093E8004115510531F6992321F605C08EB3882341F075
:207C2000853041F08091E80082FFF7CF80E0089582E0089583E008959C016115710529F47C
:207C40008091E8008B778093E800F90126C08EB3882391F1853091F18091E80083FF02C06C
:207C600081E008958091E80082FFF1CF06C08091F10081936150704059F02091F300809191
:207C8000F200322F20E090E0822B932B892B79F78091E8008B778093E80061157105B9F601
:207CA00005C08EB3882341F0853041F08091E80080FFF7CF80E0089582E0089583E00895C2
:207CC0000F931F93DF93CF9300D0CDB7DEB7E6EBF1E08091F100819381E0EE3BF807C9F792
:207CE00024DD8091E80083FFE4C08091B6019091B701953009F46DC0963040F4913081F1A7
:207D0000913070F0933009F0D4C02AC0983009F4A3C0993009F4B2C0963009F0CAC07CC023
:207D2000803809F4C6C0823809F0C3C08091BA0187708093E9008091EB001092E9002091DB
:207D4000E800277F2093E80090E025E0969587952A95E1F781708093F1001092F10087C0D8
:207D6000882319F0823009F0A4C08F71823009F0A0C08091B801882331F52091BA01277097
:207D800009F497C02093E9008091EB0080FF1BC0933021F48091EB00806213C08091EB0018
:207DA00080618093EB0081E090E002C0880F991F2A95E2F78093EA001092EA008091EB00E5
:207DC00088608093EB001092E9008091E800877F51C0882309F06DC01091B8011F770FB79B
:207DE000F8948091E800877F8093E8009ADD8091E80080FFFCCF8091E3008078812B809398
:207E0000E30080688093E300112311F482E001C083E08EBB0FBF4DC08058823008F049C033
:207E20008091B8019091B9016091BA01AE014F5F5F4F36DDBC01009709F43BC08091E8008E
:207E4000877F8093E80089819A8192DE8091E8008B778093E8002DC0803859F58091E800AA
:207E6000877F8093E8008091B4018093F1008091E8008E778093E80054DD1BC08823C9F4CA
:207E80009091B8019230A8F48091E800877F8093E8009093B40145DD8091B401882331F420
:207EA0008091E30087FD02C081E001C084E08EBB6CDC8091E80083FF0AC08091EB0080624E
:207EC0008093EB008091E800877F8093E8000F900F90CF91DF911F910F91089508951F9360
:207EE0008EB3882361F01091E9001092E9008091E80083FF01C0E4DE17701093E9001F916F
:207F00000895F999FECF92BD81BDF89A992780B50895262FF999FECF1FBA92BD81BD20BDBD
:207F20000FB6F894FA9AF99A0FBE01960895F894FFCF4341544552494E4100777700080031
:207F40000000000000080112011001020000084123360001000201000109023E00020100FF
:207F600080320904000001020201000524001001042402040524060001070582030800FF0C
:207F800009040100020A000000070504021000010705830210000104030904220341007216
:207FA000006400750069006E006F0020004C0065006F006E006100720064006F0000001836
:1A7FC00003410072006400750069006E006F0020004C004C004300000000D7
:00000001FF
