:100000000C9424030C944C030C944C030C944C035C
:100010000C944C030C944C030C944C030C944C0324
:100020000C944C030C944C030C94CD050C943F069B
:100030000C944C030C944C030C944C030C944C0304
:100040000C944C030C944C030C944C030C944C03F4
:100050000C944C030C944C030C944C030C946309C7
:100060000C944C030C944C030C944C030C944C03D4
:100070000C944C030C944C030C944C030C944C03C4
:100080000C944C030C944C030C944C030C944C03B4
:100090000C944C030C944C030C944C030C944C03A4
:1000A0000C944C030C944C030C944C03690E9C0E62
:1000B0009F0E700EA20EA50EA80E010204081020BD
:1000C000408000000000003E5B4F5B3E3E6B4F6B8C
:1000D0003E1C3E7C3E1C183C7E3C181C577D571C29
:1000E0001C5E7F5E1C00183C1800FFE7C3E7FF00A2
:1000F00018241800FFE7DBE7FF30483A060E2629F0
:10010000792926407F050507407F05253F5A3CE7B2
:100110003C5A7F3E1C1C08081C1C3E7F14227F2278
:10012000145F5F005F5F06097F017F006689956A43
:10013000606060606094A2FFA29408047E040810CE
:10014000207E201008082A1C08081C2A08081E10F7
:100150001010100C1E0C1E0C30383E3830060E3EAF
:100160000E06000000000000005F0000000700070E
:1001700000147F147F14242A7F2A12231308646238
:1001800036495620500008070300001C2241000099
:1001900041221C002A1C7F1C2A08083E08080080F7
:1001A000703000080808080800006060002010088F
:1001B00004023E5149453E00427F40007249494990
:1001C000462141494D331814127F102745454539C2
:1001D0003C4A4949314121110907364949493646C6
:1001E0004949291E000014000000403400000008A6
:1001F0001422411414141414004122140802015949
:1002000009063E415D594E7C1211127C7F494949D5
:10021000363E414141227F4141413E7F494949416A
:100220007F090909013E414151737F0808087F0099
:10023000417F41002040413F017F081422417F401F
:100240004040407F021C027F7F0408107F3E4141F6
:10025000413E7F090909063E4151215E7F09192966
:1002600046264949493203017F01033F4040403F50
:100270001F2040201F3F4038403F63140814630391
:10028000047804036159494D43007F414141020410
:10029000081020004141417F040201020440404017
:1002A0004040000307080020545478407F2844440D
:1002B000383844444428384444287F385454541827
:1002C00000087E090218A4A49C787F080404780022
:1002D000447D40002040403D007F10284400004104
:1002E0007F40007C047804787C0804047838444417
:1002F0004438FC1824241818242418FC7C0804040E
:1003000008485454542404043F44243C4040207C76
:100310001C2040201C3C4030403C44281028444CC9
:100320009090907C4464544C440008364100000096
:10033000770000004136080002010204023C262337
:10034000263C1EA1A161123A4040207A38545455EF
:1003500059215555794121545478412155547840BB
:1003600020545579400C1E52721239555555593941
:100370005454545939555454580000457C41000296
:10038000457D420001457C40F0292429F0F02825D4
:1003900028F07C545545002054547C547C0A097F35
:1003A0004932494949323248484832324A4848304D
:1003B0003A4141217A3A42402078009DA0A07D39FF
:1003C000444444393D4040403D3C24FF2424487E81
:1003D0004943662B2FFC2F2BFF0929F620C0887E6E
:1003E000090320545479410000447D413048484A73
:1003F00032384040227A007A0A0A727D0D19317D26
:100400002629292F28262929292630484D402038F9
:100410000808080808080808382F10C8ACBA2F10B8
:100420002834FA00007B000008142A142222142A1F
:1004300014089500220095AA005500AAAA55AA55AD
:10044000AA000000FF00101010FF00141414FF0099
:100450001010FF00FF1010F010F0141414FC001422
:1004600014F700FF0000FF00FF1414F404FC141440
:1004700017101F10101F101F1414141F001010103D
:10048000F0000000001F101010101F10101010F0CE
:1004900010000000FF101010101010101010FF10AE
:1004A000000000FF140000FF00FF00001F101700F5
:1004B00000FC04F414141710171414F404F40000CE
:1004C000FF00F714141414141414F700F714141480
:1004D000171410101F101F141414F4141010F0101F
:1004E000F000001F101F0000001F14000000FC148B
:1004F0000000F010F01010FF10FF141414FF14107F
:1005000010101F00000000F010FFFFFFFFFFF0F0D1
:10051000F0F0F0FFFFFF0000000000FFFF0F0F0FE3
:100520000F0F38444438447C2A2A3E147E020206C7
:1005300006027E027E0263554941633844443C040E
:10054000407E201E2006027E020299A5E7A5991C86
:100550002A492A1C4C7201724C304A4D4D303048A9
:10056000784830BC625A463D3E494949007E010107
:10057000017E2A2A2A2A2A44445F444440514A449C
:100580004040444A51400000FF0103E080FF00006A
:1005900008086B6B083612362436060F090F060062
:1005A0000018180000001010003040FF0101001F6B
:1005B00001011E00191D1712003C3C3C3C000000CC
:1005C0000000080B00020202010009040000010201
:1005D0000200000524001001052401010104240289
:1005E00006052406000107058103100040090401E7
:1005F00000020A0000000705020240000007058310
:10060000024000000403090412010002EF0201404D
:100610004123368000010102030141726475696E55
:100620006F204C4C430041726475696E6F204C65BD
:100630006F6E6172646F00D5F08D14A1C881CFD93F
:10064000F1AF20003F0B2A0B11241FBECFEFDAE0E1
:10065000DEBFCDBF12E0A0E0B1E0ECE5F2E202C007
:1006600005900D92A235B107D9F727E0A2E5B2E0D7
:1006700001C01D92A132B207E1F713E0C3E2D3E05B
:1006800004C02197FE010E94010FC232D107C9F7B1
:100690000E94A30B0C9421110C9400004091610264
:1006A0005091620220915F0230916002421753071D
:1006B000B4F49091E8009570E1F39091E80092FD18
:1006C00019C08093F10080916102909162020196BD
:1006D0008F739927892B19F48EEF8093E80080910E
:1006E000610290916202019690936202809361028E
:1006F00081E0089580E00895CF92DF92EF92FF921B
:100700000F931F93CF93DF931F92CDB7DEB7182FB0
:10071000062FE42E862F880F8E5F99830E944E034A
:1007200083E00E944E03F12EC12E9981D92E8C2D8B
:100730008F19801798F4F601E7FE02C0849101C07A
:1007400080810E944E03182F80E00E944E03812377
:10075000FFEFCF1ADF0A8111EACF01C081E00F90CD
:10076000DF91CF911F910F91FF90EF90DF90CF908D
:100770000895DF92EF92FF920F931F93CF93DF9331
:10078000D82E8A017B01E40EF51EEB01CE15DF05A4
:1007900071F0D7FE03C0FE01849101C088810E94E0
:1007A0004E0321968111F2CF8FEF9FEF01C0C80158
:1007B000DF91CF911F910F91FF90EF90DF900895FF
:1007C000615030F02091F100FC0120830196F8CFB8
:1007D000289884E680936C020895CF92DF92EF927E
:1007E000FF920F931F93CF93DF936C017A018B01DC
:1007F000C0E0D0E0CE15DF0589F0D8016D918D0104
:10080000D601ED91FC910190F081E02DC601099592
:10081000892B11F47E0102C02196ECCFC701DF9134
:10082000CF911F910F91FF90EF90DF90CF9008959F
:10083000CF93DF931F92CDB7DEB76983DC01ED91D3
:10084000FC910280F381E02D41E050E0BE016F5F3A
:100850007F4F09950F90DF91CF91089583E08093AA
:10086000E9008091F200882319F08AE38093E80080
:100870000895FC018485958597FD0BC09FB7F8947A
:1008800082E08093E9008091F2009FBF90E00196A2
:1008900008959FB7F89482E08093E9008091F20078
:1008A0009FBF90E008953FB7F89480915B029091CC
:1008B0005C02A0915D02B0915E0226B5A89B05C0C6
:1008C0002F3F19F00196A11DB11D3FBFBA2FA92FCF
:1008D000982F8827820F911DA11DB11DBC01CD014C
:1008E00042E0660F771F881F991F4A95D1F7089538
:1008F0002F923F924F925F926F927F928F929F9230
:10090000AF92BF92CF92DF92EF92FF920F931F931D
:10091000CF93DF93EC016A3069F42C8D888D998D2B
:1009200038E0239F800D911D1124998F888F1F8A95
:100930001E8AA1C06D3009F49EC03C8D5B8C4A8C30
:10094000C88CD98C8E899F898038910584F02C8D34
:10095000422F50E08E899F89A6E02A9F800D911D2D
:1009600011249F8B8E8B2D8D211172C084C0B0E419
:10097000CB16D10464F7AC01E5E03E9F400D511D5C
:100980001124141615061CF7A32EB12CA601F8E0AD
:100990003F9F400D511D112414161506C4F625E085
:1009A000629FB00111246E537F4F912C40E1342E91
:1009B000FB018490F5E09F1201C0812C760128E0B4
:1009C000722E80FC02C0652C01C0642C611009C02D
:1009D000541007C086947A94EA0CFB1C7110F1CF76
:1009E0002EC0AC01242E242F281B231798F7870133
:1009F000202FE02FEE19E317F8F440385105C8F422
:100A000000341105B0F4EAEBF0E0329ED001A0789A
:100A10001124A20D2770E20FF11D2491A259BD4FA0
:100A2000662019F0EC912E2B03C02095EC912E231B
:100A30002C930F5F1F4FDCCF4F5F5F4FD3CF93944B
:100A40008A0D9B1D6F5F7F4FF6E09F12B1CF7FCF66
:100A50006AEF64039001659F300D112420583F4FC9
:100A60002817390744F4CE01E881F9810190F0811B
:100A7000E02D6AE0099581E090E0DF91CF911F9130
:100A80000F91FF90EF90DF90CF90BF90AF909F902D
:100A90008F907F906F905F904F903F902F90089530
:100AA0000895089580E090E008950F931F93CF93E9
:100AB000DF931F92CDB7DEB782E0898342E450E036
:100AC00062EC75E080E80E94B9030E94D20ADC0162
:100AD00012960D911C9113970115110569F0D8011B
:100AE000ED91FC910280F381E02DBE016F5F7F4F9D
:100AF000C801099597FF07C089810F90DF91CF91B9
:100B00001F910F910895F80100851185E5CF0E948E
:100B1000C10A90E00895CF93DF931F92CDB7DEB75F
:100B2000FC018485958597FD05C02FEF3FEF358744
:100B300024870BC0CE0101960E94970A019719F4F1
:100B4000898190E002C08FEF9FEF0F90DF91CF91EE
:100B500008950F931F93CF93DF931F92CDB7DEB706
:100B60008C01FC018485958597FF0EC0CE0101960E
:100B70000E94970A019719F4298130E002C02FEFF3
:100B80003FEFF80135872487F801848595850F901C
:100B9000DF91CF911F910F9108951F920F920FB681
:100BA0000F9211248F939F938091E1009091E10027
:100BB000937F9093E10083FF0FC01092E90091E0D2
:100BC0009093EB001092EC0092E39093ED00109262
:100BD0006D0298E09093F00082FF20C093E0909324
:100BE000E9009091F200992319F09AE39093E800BC
:100BF00090916302992339F0909163029150909300
:100C00006302992389F190916C02992339F09091B4
:100C10006C02915090936C02992341F184FF10C0B3
:100C20008091E2008E7E81608093E2008091E100FD
:100C30008F7E8093E100809165028E7E806111C07D
:100C400080FF16C08091E2008E7E80618093E2007A
:100C50008091E1008E7E8093E100809165028E7E1E
:100C600081608093650204C05D9ACDCF289AD6CF6B
:100C70009F918F910F900FBE0F901F9018951F920C
:100C80000F920FB60F921124CF92DF92EF92FF9244
:100C90000F931F932F933F934F935F936F937F9384
:100CA0008F939F93AF93BF93EF93FF93CF93DF9374
:100CB000CDB7DEB76C97DEBFCDBF1092E900809153
:100CC000E80083FFEDC168E0CE0145960E94E00395
:100CD00082EF8093E8008D8987FF05C09091E8003E
:100CE00090FFFCCF03C09EEF9093E800982F907682
:100CF00009F0C6C09E892F89188D91110CC08038CB
:100D000029F4809166028093F10002C01092F100F4
:100D10001092F10048C1422F50E0512B913051F414
:100D2000811141C14130510509F03DC180916602F8
:100D30008D7F0BC0933061F4811135C14130510575
:100D400009F031C1809166028260809366022BC1F6
:100D5000953041F48091E80080FFFCCF206820931B
:100D6000E30021C1963009F05FC0EB8CFC8C10923F
:100D7000E9001092620210926102123091F5109215
:100D8000600210925F020E94550599E0BE016F5FFC
:100D90007F4FDB01E92F1D92EA95E9F799831A83CA
:100DA00091E09E8390EA98879AEF9987209161025B
:100DB00030916202275F3F4F3C832B838D831092DB
:100DC000E9001092620210926102F0926002E092D9
:100DD0005F0249E050E080E00E94B9030E9455059F
:100DE000E2C0F0926002E0925F020E94D20ADC014F
:100DF0001296ED90FC901397E114F10409F4C0C031
:100E0000D701ED91FC910480F581E02DBE016B5E70
:100E10007F4FC7010995009719F00CF0C4C0C7C0F7
:100E2000F701E084F184E8CF973009F4C0C098302E
:100E300021F481E08093F100B6C0993009F0B3C08D
:100E4000837009F0B4C0E3E1F1E081E021E036E332
:100E50009081992361F08093E9002093EB009191B8
:100E60009093EC003093ED008F5F873089F78EE729
:100E70008093EA001092EA008F8980936D0293C0FC
:100E80008B8D9C8D1092E90010926202109261028B
:100E90009093600280935F02898D811156C08E8984
:100EA0009D89913A59F4813209F081C047E050E0C0
:100EB00064E071E080E00E94B90375C0913209F0EE
:100EC00076C0833289F4888D90E0982F88272F8907
:100ED000822BA0E0B0E08093000190930101A093E9
:100EE0000201B09303015FC0803269F48091E80091
:100EF00082FFFCCF67E084E091E00E94E0038BEF8B
:100F00008093E80006C0823209F04DC08F8980933B
:100F10000B0180916402882319F0EEEFFAE002C021
:100F2000E0E0F8E08091040190910501A0910601B4
:100F3000B0910701803B9440A105B10509F07BC049
:100F400080910B0180FF93C076C00E94D20ADC0121
:100F500012960D911C9113970115110541F1D801BD
:100F6000ED91FC910190F081E02DBE016B5E7F4F11
:100F7000C8010995811117C0F80100851185ECCFD2
:100F8000113009F44EC0133091F48F89882309F48D
:100F900045C0823081F440E860E186E296E00E943C
:100FA0007C03882321F08EEF8093E80079C081E2F2
:100FB0008093EB0075C0813029F440E86BE08AE152
:100FC00096E0EDCF833099F70E94D20ADC011296A9
:100FD000ED90FC9013978E010F5F1F4F6801E11495
:100FE000F10479F0D701ED91FC910680F781E02DB5
:100FF000B801C7010995080F111DF701E084F184BC
:10100000EECFD8011C92F60101900020E9F731974C
:10101000BF016C197D0940E0C601C1CF64E076E0F4
:1010200002C068E076E06115710509F2FB014491A8
:1010300050E080E840CF0FB6F894A895809160000A
:10104000886180936000109260000FBEA895EE3F0B
:101050002AE0F20739F08091FE0A9091FF0A91830D
:101060008083A1CF1092FF0A1092FE0A9CCFEE3F20
:101070008AE0F80731F0808191819093FF0A809394
:10108000FE0A87E797E7918380839BE088E10FB6AC
:10109000F894A895809360000FBE9093600083CF72
:1010A0006C960FB6F894DEBF0FBECDBFDF91CF9127
:1010B000FF91EF91BF91AF919F918F917F916F9130
:1010C0005F914F913F912F911F910F91FF90EF9062
:1010D000DF90CF900F900FBE0F901F901895611565
:1010E000710579F0FB0101900020E9F73197AF011C
:1010F000461B570BDC01ED91FC910280F381E02D42
:10110000099480E090E008950F931F93CF93DF93AD
:10111000EC010E946F088C016FE371E0CE010E9428
:101120006F08800F911FDF91CF911F910F9108954C
:101130008F929F92AF92BF92CF92DF92EF92FF92E7
:101140006B017C010E9453044B015C01C114D1046A
:10115000E104F104F1F00E945304DC01CB01881991
:101160009909AA09BB09883E9340A105B10570F30E
:1011700021E0C21AD108E108F10888EE880E83E068
:10118000981EA11CB11CC114D104E104F10419F78B
:10119000DDCFFF90EF90DF90CF90BF90AF909F900A
:1011A0008F9008958F929F92AF92BF92CF92DF92CD
:1011B000EF92FF920F931F93CF93DF935C016B012C
:1011C0007A0180910B01882309F45BC080916D0244
:1011D000882309F456C08091650280FF05C0809184
:1011E000E00082608093E000E70110E00AEF83E016
:1011F000882E9AE3992E2097D9F10E94C10A811175
:101200000AC0015009F43DC061E070E080E090E068
:101210000E949808F0CF282F30E0C217D3070CF4B3
:101220008C2F4FB7F8948092E9009091E80095FFD9
:101230001DC0282F30E0C21BD30BF601982F915010
:1012400020F081918093F100FACFC20ED31E1123BA
:1012500019F09092E80009C08091E80085FD06C071
:101260009092E80011E0209709F010E04FBFC3CF43
:101270001111C3CF5D9884E6809363021E141F048E
:1012800044F081E090E0F5019383828380E090E078
:1012900001C0C701DF91CF911F910F91FF90EF9097
:1012A000DF90CF90BF90AF909F908F9008952FB711
:1012B000F894609157027091580280915902909170
:1012C0005A022FBF08951F920F920FB60F9211244A
:1012D0002F933F938F939F93AF93BF938091570228
:1012E00090915802A0915902B0915A023091560241
:1012F00023E0230F2D3720F40196A11DB11D05C059
:1013000026E8230F0296A11DB11D2093560280935B
:10131000570290935802A0935902B0935A028091B9
:101320005B0290915C02A0915D02B0915E02019619
:10133000A11DB11D80935B0290935C02A0935D029E
:10134000B0935E02BF91AF919F918F913F912F918A
:101350000F900FBE0F901F901895BC0180E090E099
:101360000C9498080F931F930E9457090091520202
:10137000109153022091540230915502061717071D
:1013800028073907B0F462E471E08EE696E00E9427
:1013900084080E945709DC01CB0188519C4FAF4F54
:1013A000BF4F8093520290935302A0935402B09384
:1013B00055021F910F9108958AE080936B020E945D
:1013C0005709DC01CB01805F984DAF4FBF4F809331
:1013D000670290936802A0936902B0936A0208952D
:1013E00020E08EE692E0B22FB111BFEFFC010024A5
:1013F000B193B193B193B1930394D1F7EEEEF6E0CC
:10140000118E108E178A168A0895CF93DF93FC01F0
:1014100044815581608171818EEE96E00E94ED03DA
:10142000EC016FE371E08EEE96E00E946F088C0F86
:101430009D1FDF91CF9108950E94FE100F931F937F
:10144000CF93DF93EC0188819981009729F02A815D
:101450003B812617370788F48B016F5F7F4F0E940F
:101460003410009761F0998388831B830A832C8151
:101470003D81232B11F4FC01108281E001C080E04A
:10148000DF91CF911F910F910895EF92FF920F93EB
:101490001F93CF93DF93EC01198218821B821A826B
:1014A0001D821C826115710549F18B01FB010190C0
:1014B0000020E9F731977F01E61AF70AB7010E9489
:1014C0001E0A2881398181110DC02115310519F0BD
:1014D000C9010E949C0F198218821D821C821B82E6
:1014E0001A820CC0FD82EC82B801C901DF91CF9154
:1014F0001F910F91FF90EF900C940C11DF91CF9101
:101500001F910F91FF90EF90089580916E028EBD14
:10151000EFE6F2E081910DB407FEFDCF8EBD86E0CF
:10152000EE36F807B9F70DB407FEFDCF0895FC01BC
:1015300080916D02811103C08FEF9FEF08959FB7D7
:10154000F89482E08093E9002091F20030E01216D6
:10155000130614F421E030E02115310559F02898E4
:1015600084E680936C028091F10080838091F20088
:10157000882319F09FBFC90108958BE68093E80086
:10158000F9CF2FB7F89483E08093E9009091E800B9
:10159000892F807295FF04C09091F20080E4891B2E
:1015A0002FBF08958091150781110DC082E08093AF
:1015B000110784E08093120710921407109213070A
:1015C00081E08093150781E197E008950F931F93C1
:1015D000CF93DF938C0181E090E00E94C20E80FFE8
:1015E00031C08AE090E00E94C20E9FEF980F9E3FAC
:1015F00048F522E330E0D80157963C932E93569756
:1016000028E330E059963C932E935897CBE0D0E0F6
:10161000D801ED91FC910190F081E02D682FC80177
:101620000995CE010E94C20E2196C131D10581F7E4
:101630000E94850A88EE93E0DF91CF911F910F9170
:101640000C94AD09DF91CF911F910F9108950497EC
:101650000C94E60ACF93DF93C8EED6E026978881F4
:1016600099810E949C0F86E0CE3BD807B9F7809104
:10167000E8069091E906DF91CF910C949C0FEEE67D
:10168000F6E01382128288EE93E0A0E0B0E084835B
:101690009583A683B7838DE191E0918380838FEF5B
:1016A0009FEF95878487EEEEF6E013821282118613
:1016B000128620E1238790878783108A118A128AF5
:1016C000138A148A8FE291E0918380838DE391E005
:1016D00095838483178A168A118E108E81E0828FFB
:1016E000138E848F158E61E471E088EE96E00E947F
:1016F000450A67E471E08EEB96E00E94450A69E5D1
:1017000071E084EC96E00E94450A6FE571E08AEC96
:1017100096E00E94450A6DE671E080ED96E00E9439
:10172000450A6DE771E086ED96E00E94450A67E89C
:1017300071E08CED96E00E94450A69E971E082EE65
:1017400096E00C94450ACF93DF93CDB7DEB72C9784
:101750000FB6F894DEBF0FBECDBF789484B582601B
:1017600084BD84B5816084BD85B5826085BD85B545
:10177000816085BD80916E00816080936E001092C3
:10178000810080918100826080938100809181003E
:1017900081608093810080918000816080938000CF
:1017A000809191008260809391008091910081608E
:1017B000809391008091900081608093900080914F
:1017C000C10084608093C1008091C10082608093D9
:1017D000C1008091C10081608093C1008091C300ED
:1017E00081608093C3008091C00082608093C000BC
:1017F0008091C20081608093C20080917A008460F1
:1018000080937A0080917A00826080937A00809140
:101810007A00816080937A0080917A00806880935A
:101820007A0010926D021092660210926502809109
:10183000D70081608093D70080EA8093D80089B573
:10184000806189BD89B5826089BD09B400FEFDCF84
:1018500061E070E080E090E00E9498088091D800FC
:101860008F7C80618093D8008091E000807F80939E
:10187000E0008091E1008E7E8093E1008DE0809316
:10188000E200559A209AEEEFFFE7859194918B3F05
:101890009C4D19F481E08093640281EC80937C007C
:1018A00085B1806F85B9249884B1866E84B95E9ABB
:1018B0005F988AB1806D8AB9769A6E9881B3806F8D
:1018C00081BB899880B38D7080BB80E58CBD81E041
:1018D0008DBD85E090E00E94AD095F9A85E090E0C3
:1018E0000E94AD095E985C98E7E3F6E08DE08E0F0C
:1018F00094919EBD00000DB407FEFDCF31968E136E
:10190000F7CF5C9A81E88093640081E08093650062
:1019100091E29093F90680930B078FEF9FEF9093DE
:101920007B0680937A065598209800E010E0FF240B
:10193000F394E2E6EE2E8EE696E00E943904892BBF
:1019400009F477C061E471E0CE0107960E94450A70
:101950008EE696E00E943904892B11F10E94B209AB
:101960008EE696E00E948B0589831A82CB84DC8404
:101970008FEFC81AD80AB601CE0107960E941E0A38
:10198000882331F32F8138858B859C85BE016F5F5D
:101990007F4F820F931F0E940C11DC86CB86D8CF1D
:1019A00062E471E0CE0101960E94450A4D815E819C
:1019B0008B859C85A980BA808417950770F08F81EC
:1019C0009885009751F0A114B10439F0B5010E9437
:1019D0001311DD24D394892B09F0D12CC5010E9469
:1019E0009C0FDD2059F00E94570960930D077093FA
:1019F0000E0780930F079093100717C00E94F009FD
:101A0000CE0107960E94050A0E94850A7AE0C72E39
:101A1000D12C0E94B20968EC70E080E090E00E9456
:101A2000980821E0C21AD108A1F78F8198850E94F9
:101A30009C0F0E9457098090FE069090FF06A09090
:101A40000007B090010720910207222341F0209166
:101A5000FA06621B60930307109202074BC16815D8
:101A600079058A059B0580F4882D861B823008F451
:101A700041C183B7817F83BF83B7816083BF88956E
:101A800083B78E7F83BF36C1F09202076093FA0658
:101A90007093FB068093FC069093FD062091F90657
:101AA000DC01CB01820F911DA11DB11D8093FE06AB
:101AB0009093FF06A0930007B09301078091F5066D
:101AC0009091F60601969093F6068093F5060E9493
:101AD000F0090E94570980900D0790900E07A09082
:101AE0000F07B0901007DC01CB0188199909AA09EA
:101AF000BB09813D9740A105B10548F06BEA71E053
:101B00008EEE96E00E94840860EC71E02FC00E9487
:101B1000B20980916B028A3009F444C048F48823EA
:101B200009F469C0813009F0E3C06CED71E01EC0BA
:101B30008236F9F0833609F0DBC068EC71E08EEE96
:101B400096E00E9484088090670290906802A090BE
:101B50006902B0906A020E94570986169706A80685
:101B6000B90608F0C5C0F0926B02C2C08EEE96E0D6
:101B7000B4C06DEE71E08EEE96E00E948408809015
:101B8000670290906802A0906902B0906A020E9479
:101B9000570986169706A806B90608F0A9C010923C
:101BA0006B02A6C064EF71E08EEE96E00E9484089E
:101BB0008090670290906802A0906902B0906A02DB
:101BC0000E94570986169706A806B90608F090C025
:101BD000E0926B020E945709DC01CB018053984FC1
:101BE000AF4FBF4F8093670290936802A093690242
:101BF000B0936A027DC08091F7068093F8064FB1DA
:101C00002CB193B130E0209530952074332753E008
:101C1000359527955A95E1F7892F90E08095909515
:101C2000807199279595879595958795822B942F07
:101C30009095907F892B8093F70662E072E08EEE9C
:101C400096E00E9484089091F80694FF04C0809169
:101C5000F70684FF56C097FF04C08091F70687FF00
:101C600056C080910C0787FD04C087301CF080E0CF
:101C700001C087E080930C078EEBA82E86E0B82E7B
:101C8000C12CD12C80910C07082E000C990B8C15BF
:101C90009D0519F465EA71E002C068EA71E08EEE14
:101CA00096E00E946F08C5010E94050A8FEFC81ACE
:101CB000D80A26E0A20EB11C87E0C816D10411F79D
:101CC0008091F80683FF14C08091F70683FD10C051
:101CD00024C060E172E08EE696E00E94840808C0AD
:101CE00064E272E08EE696E00E9484080E94DC09BD
:101CF0000E94850A0115110509F41DCE0E940000FD
:101D000016CE80910C078F5F80930C07A4CF809133
:101D10000C07815080930C07A4CFE0910C078E2F05
:101D2000EE0F990BAA0BBB0B8730910508F7FC014E
:101D3000EA5AFF4F0C94010F69E172E0CCCF6EE1DB
:101D400072E0C9CF6BE272E0CDCF69E372E0CACF37
:101D500068E472E08EE696E00E9484080E945709CB
:101D6000DC01CB018854944FAF4FBF4F8093670283
:101D700090936802A0936902B0936A0283E680930D
:101D80006B02B6CFF999FECF92BD81BDF89A992723
:101D900080B508952F923F924F925F926F927F92FB
:101DA0008F929F92AF92BF92CF92DF92EF92FF926B
:101DB0000F931F93CF93DF93CDB7DEB7CA1BDB0B17
:101DC0000FB6F894DEBF0FBECDBF09942A883988BC
:101DD00048885F846E847D848C849B84AA84B984C3
:101DE000C884DF80EE80FD800C811B81AA81B981CF
:101DF000CE0FD11D0FB6F894DEBF0FBECDBFED01E3
:101E00000895EE0FFF1F0590F491E02D0994CF93F4
:101E1000DF938230910510F482E090E0E0911F079B
:101E2000F091200720E030E0C0E0D0E0309711F1E1
:101E30004081518148175907C0F04817590761F48C
:101E400082819381209719F09B838A832BC0909382
:101E5000200780931F0726C02115310519F042176E
:101E6000530718F49A01BE01DF01EF010280F381EC
:101E7000E02DDCCF2115310509F1281B390B243069
:101E8000310590F412968D919C911397611571050F
:101E900021F0FB019383828304C0909320078093F9
:101EA0001F07FD01329644C0FD01E20FF31F81932D
:101EB0009193225031092D933C933AC020911D07F4
:101EC00030911E07232B41F420910E0130910F0118
:101ED00030931E0720931D0720910C0130910D01B6
:101EE0002115310541F42DB73EB7409110015091B5
:101EF0001101241B350BE0911D07F0911E07E2171D
:101F0000F307A0F42E1B3F0B2817390778F0AC011C
:101F10004E5F5F4F2417350748F04E0F5F1F5093F9
:101F20001E0740931D078193919302C0E0E0F0E00B
:101F3000CF01DF91CF9108950F931F93CF93DF933C
:101F4000009709F48CC0FC01329713821282009131
:101F50001F07109120070115110581F4208131819F
:101F6000820F931F20911D0730911E0728173907F4
:101F700079F5F0931E07E0931D0771C0D80140E08A
:101F800050E0AE17BF0750F412962D913C91139775
:101F9000AD012115310509F1D901F3CF9D01DA0118
:101FA0003383228360817181860F971F8217930785
:101FB00069F4EC0128813981260F371F2E5F3F4FCE
:101FC000318320838A819B8193838283452B29F4EB
:101FD000F0932007E0931F0742C01396FC93EE9303
:101FE0001297ED01499159919E01240F351FE21777
:101FF000F30771F480819181840F951F02961196E9
:102000009C938E938281938113969C938E931297C7
:10201000E0E0F0E0D80112968D919C911397009723
:1020200019F0F8018C01F6CF8D919C9198012E5FEB
:102030003F4F820F931F20911D0730911E072817D5
:10204000390769F4309729F41092200710921F077E
:1020500002C01382128210931E0700931D07DF91A6
:10206000CF911F910F910895A0E0B0E0EAE3F0E175
:102070000C94CE0EEC01009721F4CB010E94070FC7
:10208000B8C0FC01E60FF71F9C0122503109E2178E
:10209000F30708F4ACC0D9010D911C9111970617F4
:1020A0001707B0F00530110508F49FC0C801049768
:1020B0008617970708F499C002501109061B170BE1
:1020C000019311936D937C93CF010E949C0F8DC05F
:1020D0005B01A01AB10A4C01800E911EA0911F074E
:1020E000B091200740E050E0E12CF12C109709F46A
:1020F0004AC0A815B905D1F56D907C901197630180
:1021000082E0C80ED11CCA14DB0480F1A3014A1975
:102110005B096A0182E0C80ED11C1296BC9012972E
:102120001396AC91B5E0CB16D10440F0B282A383F4
:1021300051834083D9016D937C930AC00E5F1F4F7A
:10214000C301800F911FF90191838083EB2DFA2F3A
:10215000E114F10431F0D7011396FC93EE9312973A
:1021600044C0F0932007E0931F073FC08D919C91DE
:1021700011974817590708F4AC017D0112960D908C
:10218000BC91A02DB3CF80911D0790911E0788159B
:102190009905E1F446175707C8F480910C01909116
:1021A0000D01009741F48DB79EB7409110015091F9
:1021B0001101841B950BE817F907C8F4F0931E076B
:1021C000E0931D07F901718360830FC0CB010E946A
:1021D000070F7C01009759F0A801BE010E9403116E
:1021E000CE010E949C0FC70104C0CE0102C080E056
:1021F00090E0CDB7DEB7EEE00C94EA0E81E090E01F
:10220000F8940C942111FB01DC0102C001900D92A5
:1022100041505040D8F70895FB01DC0101900D9228
:102220000020E1F70895FB01DC014150504030F0FF
:102230008D910190801919F40020B9F7881B990B32
:10224000089513E0C3E2D3E004C0FE010E94010F31
:0C2250002196C432D107C9F7F894FFCFE3
:10225C00FFFFFFFF00E1000000000000000021076D
:10226C00800000C18081000000000000001804D232
:10227C000887052E0439048B05A905000000007899
:10228C0004ED0352055105E60AFCFF0000270B0D77
:10229C000A0050494E470042726F77736520636F96
:1022AC006C6C656374696F6E00436C6F636B004498
:1022BC006F636B2073657474696E6773005570641B
:1022CC0061746520646F636B206170700053656E80
:1022DC00642067616D650053656E6420414E4F54F8
:1022EC004845522067616D650043686172676520DF
:1022FC006D6F6465002D3E00202000506C6561738D
:10230C00652C20707574206D6520696E206D7900C8
:10231C00646F636B2E2E2E00446F636B20697320E9
:10232C007475726E696E67206F66660057616974AA
:10233C00696E6720666F7220646F636B0045727202
:10234C006F722E004F6E65206D6F6D656E742E2E44
:10235C002E00444F434B204D454E552056303300F4
:10236C005245504F3A313A360054494D450041429E
:10237C004F5554005550444154450053454E443A32
:10238C0067616D652E6865780053454E443A676108
:10239C006D65322E6865780053485554444F574E3E
:0223AC0000002F
:00000001FF
